00001981BTA098098200000110    09810000000000020BU           1100140100E00000710401
00011980BTA098098000000104000009800000000000020NU           1100140100E00000710401
00021980BTA098098200000110    09810000000000020BU           1100140100E00000710401
00031981BTA098098200000110    09810000000000020BU           1100140100E00000710401
00041981BTA0980982000001101   09810000000000020BU           1100140100E00000840401
00051981BTA098098200000110    09810000000000020BU           1100140100E00000740401
00061981BTA098098200000110    09810000000000020BU           1100140100E00000740401
00071981BTA098098200000110    09810000000000020BU           1100140100E00000740401
00081981BTA098098200000110    09810000000000020BU           1100140100E00000740401
00091980BTA098098200000110    09810000000000020BU           1100140100E00000740401
00101980BTA098098200000110    09810000000000020BU           1100140100E00000750401
00111981BTA0980982000001101   09810000000000020PT           2528640100E00000840401
00121980BTA098098200000110    09810000000000020BU           1100140100E00000730401
00133520BRC0040042000001501   09810000000000020PU168BMANGA  6808110168E00000810252
00141981BTA098098200000110    09810000000000020BU           1100140100E00000740401
00151981BTA0980982000001101   09810000000000020BU           1100140100E00000840401
00161980BTA098098200000110    09810000000000020PT           1100140100E00000720401
00171980BTA098098200000110    09810000000000020BU           1100140100E00000750401
00181980BTA098098200000110    09810000000000020BU           1100140100E00000750401
00191981BTA098098200000110    09810000000000020BU           1100140100E00000750401
00201980BTA098098200000110    09810000000000020BU           1100140100E00000750401
00211980BTA098098200000110    09810000000000020BU           1100140100E00000750401
00221980BTA098098200000110    09810000000000020BU           1100140100E00000720401
00231981BTA0980982000001101   09810000000000020BU           1100140100E00000840401
00241981BTA098098200000110    09810000000000020BU           1100140100E00000750401
00251981BTA0980982000001101   09810000000000020BU           1100140100E00000840401
00261981BTA0980982000001101   09810000000000020BU           1100140100E00000840401
00271980BTA098098200000110    09810000000000020BU           1100140100E00000720401
00281980BTA098098200000110    09810000000000020BU           1100140100E00000750401
00301981BTA0980982000001101   09810000000000020BU           1100140100E00000840401
00321980BTA098098200000110    09810000000000020BU           1100140100E00000730401
00331980BTA098098200000110    09810000000000020BU           1100140100E00000720401
00341980BTA098098200000110    09810000000000020BU           1100140100E00000720401
00351981BTA098098200000110    09810000000000020BU           1100140100E00000750401
00361980BTA098098200000110    09810000000000020BU           1100140100E00000720401
00371980BTA098098200000110    09810000000000020BU           1100140100E00000750401
00381980BTA098098200000110    09810000000000020BU           1100140100E00000740401
00391980BTA098098200000110    09810000000000020BU           1100140100E00000740401
00401981BTA098098200000110    09810000000000020BU           1100140100E00000730401
00411981BTA098098200000110    09810000000000020BU           1100140100E00000730401
00431980BTA098098200000110    09810000000000020BU           1100140100E00000730401
00441980BTA098098200000110    09810000000000020BU           1100140100E00000740401
00451980BTA098098200000110    09810000000000020BU           1100140100E00000750401
00461980BTA098098200000110    09810000000000020BU           1100140100E00000710401
00471981BTA098098200000110    09810000000000020BU           1100140100E00000740401
00491981BTA098098200000110    09810000000000020BU           1100140100E00000730401
00501981BTA098098200000110    09810000000000020BU           1100140100E00000740401
00511980BTA098098200000110    09810000000000020BU           1100140100E00000720401
00521981BTA098098200000110    09810000000000020BU           1100140100E00000710401
00541980BTA098098200000110    09810000000000020BU           1100140100E00000750401
00551980BTA098098200000110    09810000000000020BU           1100140100E00000750401
00561981BTA098098200000110    09810000000000020BU           1100140100E00000730401
00571980BTA098098200000110    09810000000000020BU           1100140100E00000750401
00581980BTA098098200000110    09810000000000020BU           1100140100E00000750401
00591981BTA0980982000001101   09810000000000020PT           2538640100E00000840401
00601981BTA098098200000110    09810000000000020BU           1100140100E00000750401
00611980BTA098098200000110    09810000000000020BU           1100140100E00000710401
00621980BTA098098200000110    09810000000000020BU           1100140100E00000730401
00631981BTA098098200000110    09810000000000020BU           1100140100E00000740401
00641981BTA0980982000001101   09810000000000020PT           2526940100E00000840401
00651981BTA0980982000001101   09810000000000020PT           2589940100E00000840401
00661981BTA0980982000001101   09810000000000020PT           2551340100E00000840401
00671981BTA0980982000001101   09810000000000020PT           2578540100E00000840401
00681980BTA098098200000110    09810000000000020BU           1100140100E00000750401
00691981BTA0980982000001501   09810000000000020PT           2584340100E000007D0401
00702231SMT0010012000000502   00110000000000020CU070BQUILLA 47001A0564E00000830123
00711980BTA098098200000110    09810000000000020BU           1100140100E00000750401
00721980BTA098098200000110    09810000000000020BU           1100140100E000007D0401
00731980BTA098098200000110    09810000000000020BU           1100140100E00000710401
00743131SCL0010012000000501   00110000000000020CU170BQUILLA 70001A0592E00000890213
00751981BTA098098200000110    09810000000000020BU           1100140100E00000740401
00763141TJA0040042000000501   09810000000000020CU076BMANGA  1500110616E00000710214
00771981BTA098098200000110    09810000000000020BU           1100140100E00000740401
00781981BTA098098200000110    09810000000000020BU           1100140100E00000740401
00791980BTA098098200000110    09810000000000020BU           1100140100E00000740401
00801981BTA098098200000110    09810000000000020BU           1100140100E00000740401
00811980BTA098098200000110    09810000000000020BU           1100140100E00000740401
00821981BTA098098200000110    09810000000000020BU           1100140100E00000740401
00831980BTA098098200000110    09810000000000020BU           1100140100E00000740401
00841981BTA098098200000110    09810000000000020BU           1100140100E00000740401
00851981BTA098098200000110    09810000000000020BU           1100140100E00000740401
00861981BTA098098200000110    09810000000000020BU           1100140100E00000740401
00872010BQL001001200000110    00110000000000020CU170BQUILLA 08001A0707E00000840101
00882261RIO0010012000000501   00110000000000020CU088BQUILLA 44001A0530E000008I0126
00891980BTA098098200000110    09810000000000020BU           1100140100E00000740401
00913161VDP0010012000000501   00110000000000020CU170BQUILLA 20001A0628E000008H0216
00921981BTA098098200000110    09810000000000020BU           1100140100E00000720401
00931980BTA098098200000110    09810000000000020PT           2528640100E00000720401
00941980BTA098098200000110    09810000000000020PT           2547340100E00000720401
00951980BTA098098200000110    09810000000000020BU           1100140100E00000740401
00962010BQL0010012000001101   00110000000000020CU170BQUILLA 08001A0707E00000800101
00972210CGN0010012000000501   00110000000000020CU097BQUILLA 13001A0204E00000820121
00982010BQL0010012000001101   00110000000000020CU170BQUILLA 08001A0707E00000800101
00993860GRA0980982000000501   09810000000000020PT099BOGOTA  5031340350E00000740286
01001980BTA098098000000001000009800000000000020N0           1100140100E00000710401
01012011BQL001001200000110    00110000000000020CU170BQUILLA 08001A0707E00000800101
01021980BTA098098200000110    09810000000000020BU           1100140100E000007D0401
01031980BTA098098200000110    09810000000000020BU           1100140100E000007D0401
01042360ABJ003003200000054    00310000000000020PT434MEDELLIN05002C0104E00000800136
01052021CAL0020022000001501   00210000000000020PT484CALI    76520B0706E00000830102
01061980BTA098098200000110    09810000000000020BU           1100140100E000007D0401
01071980BTA098098200000110    09810000000000020BU           1100140100E00000750401
01083840ACA098098200000050    09810000000000020PT108BOGOTA  5000640351E00000740284
01092020CAL0020022000001101   00210000000000020CU484CALI    76001B0706E00000800102
01102430FDA0020022000001101   00210000000000020PT484CALI    76275B0706E00000830143
01112021CAL0980982000001501   00210000000000020PU111CALI    19698B0706E00000840102
01121980BTA098098200000110    09810000000000020BU           1100140100E00000710401
01132051BGA002002200000010    00210000000000020PU489CALI    76111B0188E00000860105
01142030MED003003200000150    00310000000000020CU434MEDELLIN05001C0701E000008A0103
01151980BTA098098200000110    09810000000000020BU           1100140100E00000710401
01162251AGC004004200000050    09810000000000020PU116BMANGA  2001110116E00000820125
01175041BUC004004200000010    09810000000000025CU           6800110713E00000810504
01182030MED003003200000150    00310000000000020CU434MEDELLIN05001C0701E000008A0103
01192020CAL0020022000001101   00210000000000020CU484CALI    76001B0706E00000810102
01203320YOP004014200000050    09810000000000020PT616BMANGA  8501010120E000008D0232
01213111PST0020022000000501   00210000000000020CU121CALI    52001B0466E000008G0211
01221981BTA0080982000001101   09810000000000020BU           1100140100E00000840401
01231980BTA098098200000110    09810000000000020BU           1100140100E00000710401
01241980ANL098098200000150    09810000000000020PT124BOGOTA  2504040100E00000720401
01252011BQL001001200000110    00110000000000020CU170BQUILLA 08001A0707E80000800101
01262021CAL0020022000001101   00210000000000020CU484CALI    76001B0706E00000800102
01271981BTA0980982000001101   09810000000000020BU           1100140100E00000840401
01282310APT003003200000050    00310000000000020PU128MEDELLIN05045C0128E00000800131
01291981BTA0980982000001101   09810000000000020BU           1100140100E00000840401
01301981BTA0980982000001101   09810000000000020BU           1100140100E00000840401
01311980BTA098098200000110    09810000000000020BU           1100140100E000007A0401
01321981BTA0980982000001101   09810000000000020BU           1100140100E00000840401
01332031MED003003200000110    00310000000000020CU434MEDELLIN05001C0701E00000800103
01342020CAL002002200000110    00210000000000020CU484CALI    76001B0706E000008A0102
01351981BTA0980982000001101   09810000000000020BU           1100140100E00000840401
01363141MNQ0040142013600001   09810000000000020CT           6807710136E000007D0219
01373330ARC004004200000050    09810000000000020CA137BMANGA  8100110137E00000810233
01383121ARM003012200000150    00310000000000020CU468PEREIRA 6300130138E00000730212
01391981BTA0980982000001101   09810000000000020BU           1100140100E00000840401
01403610LER098009200000050    09810000000000020PT140BOGOTA  7340840140E00000740261
01413121PER003012200000150    00310000000000020CU468PEREIRA 6600130715E00000730212
01422021CAL002002200000110    00210000000000020CU484CALI    76001B0706E000008D0102
01431981BTA0980982000001101   09810000000000020BU           1100140100E00000840401
01442031MED003003200000150    00310000000000020CU434MEDELLIN05001C0701E00000800103
01451981BTA0980982000001101   09810000000000020BU           1100140100E00000840401
01462020CAL002002200000110    00210000000000020CU484CALI    76001B0706E000008C0102
01483570MTL001001200000050    00110000000000020PT436BQUILLA 23466A0436E000008A0257
01491981BTA0980982000001101   09810000000000020PT           2587340100E00000840401
01501981BTA0980982000001101   09810000000000020BU           1100140100E00000840401
01512011BQL001001200000110    00110000000000020CU170BQUILLA 08001A0707E00000800101
01521981BTA098098200000000    09800000000000000B0           1100140100E00000710401
01532030MED003003200000150    00310000000000020CU434MEDELLIN05001C0701E00000800103
01542031MED0030032000001501   00310000000000020PT434MEDELLIN05001C0701E00000810103
01552281MED0030032000001501   00310000000000020PU434MEDELLIN05615C0701E00000820128
01562031MED0030032000001501   00310000000000020PU434MEDELLIN05360C0701E00000800103
01572041BUC004004200000110    09810000000000020CU184BMANGA  6800110713E000008D0104
01582021CAL002002200000110    00210000000000020CU484CALI    76001B0706E00000800102
01592021CAL002002200000110    00210000000000020CU484CALI    76001B0706E00000810102
01601981BTA0980982000001101   09810000000000020BU           1100140100E00000840401
01611980BTA098098200000110    09810000000000020BU           1100140100E000007D0401
01622040BUC004004200000110    09810000000000020CU184BMANGA  6800110713E00000810104
01642020CAL002002200000110    00210000000000020CU484CALI    76001B0706E00000800102
01651980BTA098098200000110    09810000000000020BU           1100140100E000007D0401
01662020CAL002002200000110    00210000000000020CU484CALI    76001B0706E00000800102
01672031MED003003200000104    00310000000000020PU434MEDELLIN05088C0701E00000800103
01682520BRC004004200000050    09810000000000020PU168BMANGA  6808110168E00000810152
01702010BQL001001200000110    00110000000000020CU170BQUILLA 08001A0707E00000800101
01711981BTA0980982000001101   09810000000000020BU           1100140100E00000840401
01722030MED003003200000150    00310000000000020CU434MEDELLIN05001C0701E00000800103
01732011BQL001001200000150    00110000000000020CU170BQUILLA 08001A0707E00000800101
01741981BTA0980982000001101   09810000000000020BU           1100140100E00000840401
01753111PST002002200000050    00210000000000020CU466CALI    52001B0466E000008G0211
01782031MED003003200000150    00310000000000020PT434MEDELLIN05088C0701E00000800103
01791981BTA0980982000001101   09810000000000020PT           2543040100E00000840401
01802020CAL002002200000110    00210000000000020CU484CALI    76001B0706E000008A0102
01812021CAL0980982000001501   00210000000000020PT181CALI    19573B0706E00000840102
01822211CGN001001200000050    00110000000000020CU204BQUILLA 13001A0204E00000820121
01833460BCN001001200000050    00110000000000020PT183BQUILLA 20060A0183E000008H0246
01842041BUC004004200000110    09810000000000020CU184BMANGA  6800110713E00000810104
01851981BTA0980982000001101   09810000000000020BU           1100140100E00000840401
01862710BVT002002200000050    00210000000000020PU186CALI    76109B0186E00000820171
01872010BQL001001200000110    00110000000000020CU170BQUILLA 08001A0707E00000840101
01883051BGA002002200000050    00210000000000020PU188CALI    76111B0188E00000860205
01903120ARM003012200000150    00310000000000020PT468PEREIRA 6313030138E00000730212
01911980BTA098098200000110    09810000000000020BU           1100140100E000007D0401
01933600BTA0980982000001501   09810000000000020PT193BOGOTA  2532040100E00000740260
01941981BTA0980982000001101   09810000000000020BU           1100140100E00000840401
01955040BUC0000000000000600   00010000000000028NU   0       6827610713000000000504
01962010BQL001001200000150    00110000000000020CU170BQUILLA 08001A0707E00000800101
01971981BTA0980982000001101   09810000000000020BT           1100140100E00000840401
01983960VLL098098200000350    09810000000000020CU198BOGOTA  5000140351E00000740296
01991981BTA0980982000001101   09810000000000020BU           1100140100E00000840401
02003980SJG090000200000160    09810000000000020BA           9500140517E000007D0286
02011341FLO0980982000000501   09810000000000020CU201BOGOTA  1800140312E000008E0234
02021341FLO0980982000000501   09810000000000020CA202BOGOTA  1824740202E000008E0234
02032041BUC004004200000110    09810000000000020CU184BMANGA  6827610713E00000810104
02042210CGN001001200000050    00110000000000020CU204BQUILLA 13001A0204E00000820121
02051981BTA0980982000001101   09810000000000020BU           1100140100E00000840401
02063121CGO002002200000150    00210000000000020PT468PEREIRA 7614730206E00000830212
02072020CAL002002200000110    00210000000000020CU484CALI    76001B0706E00000800102
02081980BTA098098200000110    09810000000000020BU           1100140100E000007A0401
02092020CAL002002200000151    00210000000000020CU484CALI    76001B0706E000008A0102
02103870CUC004004200000050    09810000000000020CU210BMANGA  5400110260E00000810287
02111981BTA0980982000001101   09810000000000020PT           2529540100E00000840401
02121981BTA0980982000001101   09810000000000020BU           1100140100E00000840401
02133091NTG0980982000001501   09810000000000020PT213BOGOTA  7348340213E00000840209
02142031MED003003200000150    00310000000000020CU434MEDELLIN05001C0701E00000800103
02155791BTA098098299520000    09800000000000021NU           1100140100E00000740579
02163500CTE001001200000050    00110000000000020PT592BQUILLA 23162A0438E00000890250
02172031MED003003200000150    00310000000000020CU434MEDELLIN05001C0701E00000800103
02183121MNZ003012200000150    00310000000000020CU468PEREIRA 1700130428E00000730212
02193740VLL098098200000004    09810000000000020CU219BOGOTA  5000140351E00000840174
02202240CGA001001200000050    00110000000000020PT564BQUILLA 47189A0220E00000830124
02212231SMT001001200000010    00110000000000020CU221BQUILLA 47001A0564E00000830123
02231980BTA098098200000110    09810000000000020BU           1100140100E000007A0401
02243450CDZ001001200000050    00110000000000020PT224BQUILLA 20013A0224E000008H0245
02252031MED003003200000110    00310000000000020CU434MEDELLIN05001C0701E00000800103
02262020CAL002002200000110    00210000000000020CU484CALI    76001B0706E000008A0102
02271981BTA0980982000001101   09810000000000020BU           1100140100E00000840401
02281980BTA098098200000110    09810000000000020BU           1100140100E000007A0401
02291981BTA0980982000001101   09810000000000020BT           1100140100E00000840401
02302021CAL002002200000150    00210000000000020PU484CALI    76520B0706E00000830102
02311981BTA0980982000001501   09810000000000020PT           2587540100E00000840401
02322030MED003003200000150    00310000000000020PT434MEDELLIN05212C0701E00000800103
02331980BTA098098200000111    09810000000000020BU           1100140100E00000750401
02341981BTA098098202340100    09810000000000020BU           1100140100E00000740401
02352231SMT001001200000050    00110000000000020CU235BQUILLA 47001A0564E00000830123
02362030MED003003200000110    00310000000000020CU236MEDELLIN05001C0701E00000810103
02371980BTA098098200000110    09810000000000020BU           1100140100E00000740401
02382310APT003003200000010    00310000000000020PU128MEDELLIN05045C0128E00000800131
02391980BTA098098200000110    09810000000000020BT           1100140100E000007A0401
02403510CRZ001001200000050    00110000000000020PT592BQUILLA 70215A0240E00000890251
02411980BTA098098200000111    09810000000000020BU           1100140100E00000740401
02422231SMT001001200000011    00110000000000020CU564BQUILLA 47001A0564E00000830123
02432030MED003003200000111    00310000000000020PU434MEDELLIN05212C0701E00000800103
02443101NEI098009200000050    09810000000000020CU442BOGOTA  4100140442E000007E0210
02451980BTA098098200000111    09810000000000020BU           1100140100E00000740401
02461980BTA098098200000111    09810000000000020BU           1100140100E00000740401
02472020CAL002002200000111    00210000000000020CU706CALI    76001B0706E000008A0102
02483121MNZ003012200000111    00310000000000020CU468PEREIRA 1700130428E00000730212
02492020CAL002002200000110    00210000000000020CU484CALI    76001B0706E000008A0102
02502030MED003003200000150    00310000000000020CU434MEDELLIN05001C0701E00000800103
02513121PER003012200000111    00310000000000020CU715PEREIRA 6600130715E00000730212
02532040BUC004004200000110    09810000000000020CU184BMANGA  6800110713E00000810104
02542020CAL002002200000110    00210000000000020CU484CALI    76001B0706E00000800102
02553090IBG0980092000000501   09810000000000020CU255BOGOTA  7300140370E00000740209
02562020CAL002002200000110    00210000000000020CU484CALI    76001B0706E00000800102
02575791BTA098098200000101    09810000000000020BU           1100140100E00000740579
02592040SBT004004200000050    09810000000000020CT184BMANGA  6800110259E00000810104
02603061CUC004004200000050    09810000000000020CU260BMANGA  5400110260E00000850206
02611980BTA098098200000110    09810000000000020BU           1100140100E000007A0401
02633071MLG0980982000001501   09810000000000020PT263BOGOTA  7344940263E00000840207
02641981BTA098098200000110    09810000000000020PT           1100140100E00000720401
02651980BTA098098200000110    09810000000000020BU           1100140100E000007A0401
02663120MNZ003012200000150    00310000000000020PT468PEREIRA 1717430428E00000730212
02672030MED003003200000150    00310000000000020CU434MEDELLIN05001C0701E00000800103
02683191CHQ004014200000050    09810000000000020PT616BMANGA  1517610268E00000710219
02693091LBN0980982000001501   09810000000000020PT269BOGOTA  7341140269E00000840209
02701980BTA098098200000150    09810000000000020PT270BOGOTA  2518340100E000007D0401
02721981BTA0980982000001101   09810000000000020BU           1100140100E00000840401
02732021FDA0980982000001111   00210000000000020PT484CALI    19455B0706E00000840102
02741980BTA098098200000110    09810000000000020BU           1100140100E000007A0401
02751980BTA098098200000110    09810000000000020BU           1100140100E000007A0401
02762020CAL002002200000110    00210000000000020CU484CALI    76001B0706E000008A0102
02773121PER0980982000001501   00310000000000020CU468PEREIRA 6600130715E00000840212
02783121CGO0200282000001501   00210000000000020PT468PEREIRA 7614730206E00000830212
02793121PER0980982000001501   00310000000000020CU468PEREIRA 6617030715E00000840212
02801980BTA098098000000001000009800000000000020N0           1100140100E00000710401
02813121MNZ0030122000001501   00310000000000020CU468PEREIRA 1700130428E00000730212
02823891DUI004014200000050    09810000000000020PT282BMANGA  1523810282E00000710289
02832041BUC004004200000110    09810000000000020CU184BMANGA  6800110713E00000810104
02842290BCO001001200000050    00110000000000020PT284BQUILLA 47245A0284E00000800129
02852280MED003003200000150    00310000000000020PT285MEDELLIN05148C0701E00000820128
02863490CME001001200000050    00110000000000020PT592BQUILLA 13244A0286E00000890249
02872020CAL002002200000110    00210000000000020PT484CALI    76248B0706E00000860102
02883161VDP001001200000060    00110000000000020CU170BQUILLA 20001A0628E000008H0216
02892020CDL002002200000110    00210000000000020PU484CALI    76130B0706E000008A0102
02903121PER003012200000150    00310000000000020CU468PEREIRA 6600130715E00000730212
02911980BTA098098200000110    09810000000000020BU           1100140100E00000740401
02922011BQL001001200000110    00110000000000020CU170BQUILLA 08001A0707E00000810101
02932011BQL001001200000110    00110000000000020CU170BQUILLA 08001A0707E00000810101
02942030MED003003200000150    00310000000000020PU434MEDELLIN05266C0701E00000800103
02952021CAL002002200000110    00210000000000020CA484CALI    76233B0706E00000810102
02963801ESP098009200000050    09810000000000020PU296BOGOTA  7326840296E00000740280
02991980BTA098098200000110    09810000000000020BU           1100140100E000007A0401
03012041BUC0040042000001101   09810000000000020CU184BMANGA  6800110713E00000810104
03021980BTA09809820000812000000001031000000B020BU           1100140100E00000740401
03033061CUC0040042000000501   09810000000000020CU302BMANGA  5400110260E00000850206
03041980BTA098098200000110    09810000000000020PT304BOGOTA  2526940100E00000720401
03052041BUC0040042000001101   09810000000000020CU184BMANGA  6800110713E00000810104
03061980BTA098098200000104    09810000000000020PU           1100140100E00000720401
03083810GDO098009200000050    09810000000000020PU308BOGOTA  7327540348E00000740281
03093091IBG0980982000001501   09810000000000020PU           7300140370E00000840209
03103011BQL001001203100010    00110000000000020CT170BQUILLA 08078A0707E00000810201
03112041SGI0980982000000501   09810000000000020PU311BMANGA  6867910311E00000840104
03123341FLO098098200000050    09810000000000020CU312BOGOTA  1800140312E000008E0234
03133121MNZ003012200000110    00310000000000020CU468PEREIRA 1700130428E00000730212
03142430FDA002002200000110    00210000000000020PT484CALI    76275B0706E00000830143
03153631MTR001001200000060    00110000000000020CU438BQUILLA 23001A0438E00000890263
03161981BTA098098200000110    09810000000000020BU           1100140100E00000740401
03171980BTA098098200000114    09810000000000020BU           1100140100E00000750401
03183270FSC001001200000050    00110000000000020PT318BQUILLA 44279A0318E000008H0227
03193041BUC004004200000110    09810000000000020CU319BMANGA  6800110713E00000810204
03222720FRO003003200000050    00310000000000020PT434MEDELLIN05284C0322E00000800172
03233120ARM0030122000001501   00310000000000020PT468PEREIRA 6313030138E00000840212
03242030MED003003200000150    00310000000000020CA434MEDELLIN05001C0701E000008A0103
03251980BTA098098203250110    09810000000000020BT           1100140100E00000750401
03262221FUN001001200000050    00110000000000020PT564BQUILLA 47288A0326E00000850122
03271980BTA098098200000110    09810000000000020BU           1100140100E000007A0401
03281981BTA0980982000001111   09810000000000020BU           1100140100E00000840401
03291980BTA098098200000110    09810000000000020BU           1100140100E000007A0401
03301980FSA098009200000150    09810000000000020PT330BOGOTA  2529040100E00000720401
03311981BTA098098200000111    09810000000000020BU           1100140100E00000840401
03323210CGN001001200000060    00110000000000020CU204BQUILLA 13001A0204E00000820221
03333030MED003003200000110    00310000000000020CT434MEDELLIN05411C0701E000008A0203
03341980GCH098098200000150    09810000000000020PT334BOGOTA  2529740100E00000720401
03351980BTA098098200000010    09810000000000020PU604BOGOTA  1100140100E00000720401
03363180GAR004014200000050    09810000000000020PT616BMANGA  1529910336E00000710218
03371980BTA098098200000110    09810000000000020BU           1100140100E000007A0401
03383540GZO098009200000050    09810000000000020PT338BOGOTA  4129840338E000007E0254
03393891SOA0040142000000601   09810000000000020PA372BMANGA  1575310339E00000710289
03405120PER003003200000160    00310000000000028CU           6600130715E00000810512
03413131SCL000000200000060    00010000000000020CU170BQUILLA 70001A0592E00000890213
03421980BTA098098200000110    09810000000000020BU           1100140100E000007A0401
03442030MED003003200000110    00310000000000020CT434MEDELLIN05079C0701E000008A0103
03455791BTA098098200000001    09800000000000021B0           1100140100E00000740579
03462020CAL002002200000110    00210000000000020PT484CALI    76306B0706E00000860102
03472020CAL0020022000001101   00210000000000020CU484CALI    76001B0706E00000800102
03483071GDO098009200000050    09810000000000020PU348BOGOTA  2530740348E00000780207
03492030MED003003200000150    00310000000000020PT434MEDELLIN05308C0701E00000800103
03503860GRA098098200000050    09810000000000020PT350BOGOTA  5031340350E00000740286
03513150VLL0980982000000501   09810000000000020CU351BOGOTA  5000140351E00000740215
03522020CAL002002200000110    00210000000000020PT484CALI    76318B0706E00000860102
03533151MNT0980982000000501   09810000000000020PT855BMANGA  8516210353E00000840215
03543840ACA0980982000000501   09810000000000020PT354BOGOTA  5000640351E00000740284
03563600BTA098098200000150    09810000000000020PT356BOGOTA  2532040100E00000740260
03573150VLL0980982000000501   09810000000000020CU357BOGOTA  5000140351E00000740215
03583840VLL0980982000000501   09810000000000020PT358BOGOTA  5031840351E00000840284
03591980BTA098098200000110    09810000000000020BU           1100140100E000007A0401
03603171GTQ004014200000050    09810000000000020PT616BMANGA  1532210360E00000710217
03613151VLL0980982000000501   09810000000000020CT361BOGOTA  5060640351E00000840215
03622030MED003003200000150    00310000000000020CU434MEDELLIN05001C0701E00000800103
03633580MQT098098200000050    09810000000000020PT363BOGOTA  7344340363E00000740258
03643950VLL098098205710050    09810000000000020CU364BOGOTA  5000140351E00000740295
03663081HDA098098200000050    09810000000000020PU366BOGOTA  7334940366E000007F0208
03703091IBG098009200000050    09810000000000020CU370BOGOTA  7300140370E00000720209
03712031MED0030032000001501   00310000000000020CU434MEDELLIN05001C0701E00000810103
03723891DUI0040142000000501   09810000000000020PT372BMANGA  1523810282E00000710289
03743690IPL002002200000050    00210000000000020PU374CALI    52356B0374E000008B0269
03753341FLO098098200000060    09810000000000020CA312BOGOTA  1875340375E000008E0234
03762041BUC004004200000114    09810000000000020CU184BMANGA  6800110713E00000810104
03773921SOG004014200000050    09810000000000020PT377BMANGA  1575910596E00000710292
03782380IST003003200000050    00310000000000020PT434MEDELLIN27361C0378E00000800138
03792031MED003003200000150    00310000000000020CU434MEDELLIN05001C0701E00000800103
03801981BTA0980982000001101   09810000000000020BU           1100140100E00000840401
03811981BTA0980982000001101   09810000000000020BU           1100140100E00000840401
03822031MED003003200000150    00310000000000020PU434MEDELLIN05360C0701E00000800103
03833101NEI098009200000150    09810000000000020CT442BOGOTA  4100140383E000007E0210
03841980BTA098098200000110    09810000000000020BU           1100140100E000007A0401
03862030MED003003200000150    00310000000000020CU434MEDELLIN05001C0701E00000800103
03872010BQL0010012000001101   00110000000000020CU170BQUILLA 08001A0707E00000800101
03881980BTA098098200000110    09810000000000020BU           1100140100E000007A0401
03892210CGN0980012000000501   00110000000000020CU389BQUILLA 13001A0204E00000820121
03903591DDA098098200000050    09810000000000020PT390BOGOTA  1738040390E00000740259
03912021CAL002002200000110    00210000000000020CU484CALI    76001B0706E00000800102
03922011BQL001001200000110    00110000000000020CU170BQUILLA 08001A0707E00000810101
03932031MED003003200000150    00310000000000020CU434MEDELLIN05001C0701E00000810103
03941980MSA098009200000150    09810000000000020PT394BOGOTA  2538640100E00000740401
03953150VLL0980982000000501   09810000000000020CU357BOGOTA  5000140351E00000740215
03961981FSA0980982000001101   09810000000000020BT           2529040100E00000720401
03973901SOG0040142000000501   09810000000000020PT397BMANGA  1575910596E00000710290
03983550PLA098009200000050    09810000000000020PT398BOGOTA  4139640398E000007E0255
03991981BTA0980982000001101   09810000000000020BU           1100140100E00000840401
04003120VIC002002200000110    00210000000000020PT468PEREIRA 7640330715E00000830212
04015980BTA098098007690001000009800000000000021NU           1100140100E00000740501
04023120VGN003012200000150    00310000000000020PT468PEREIRA 6640030715E00000730212
04043231SMT001001200000010    00110000000000020CU           47001A0564E00000830223
04051980BTA090405200000000    09800000000000020NU           1101140100E00000740401
04062030MED003003200000110    00310000000000020CU434MEDELLIN05001C0701E000008A0103
04073400LET098098200000050    09810000000000020CA407BOGOTA  9100140407E00000820240
04083480LRC001001200000050    00110000000000020PT592BQUILLA 23417A0408E00000890248
04093420YOP004014200000050    09810000000000020CU646BMANGA  8500110646E00000840242
04101981BTA0980982000001101   09810000000000020BU           1100140100E00000840401
04125980BTA098098007690101000009800000000000021NU           1100140100E00000740501
04143470MGE001001200000050    00110000000000020PT414BQUILLA 13430A0414E00000890247
04151980BTA098098200000110    09810000000000020BU           1100140100E00000750401
04161980BTA098098200000150    09810000000000020BU           1100140100E000007D0401
04172031MED0980982000001101   09810000000000020BU           05001C0701E00000840103
04183580MQT098098204180050    09810000000000020PT           7305540363E00000740258
04202530ALB004004200000050    09810000000000020PT539BMANGA  2077010420E00000820153
04215750MED003003207680101    00300000000000021NU434MEDELLIN05001C0701E000008C0575
04232021MTR000000200000160    00110000000000020CT438BQUILLA 70221A0592E00000890102
04251981BTA098098200000110    09810000000000020BU           1100140100E00000840401
04262210CGN001001200000050    00110000000000020CT204BQUILLA 13001A0204E00000820121
04272021CAL002002200000110    00210000000000020CU484CALI    76001B0706E000008D0102
04283121MNZ003012200000150    00310000000000020CU468PEREIRA 1700130428E00000730212
04292020CAL002002200000160    00210000000000020CU484CALI    76001B0706E00000810102
04312031MED003003200000150    00310000000000020CU434MEDELLIN05001C0701E00000810103
04322030MED003003200000150    00310000000000020CU434MEDELLIN05001C0701E00000810103
04332031MED003003200000150    00310000000000020CU434MEDELLIN05001C0701E00000810103
04342030MED003003200000150    00310000000000020CU434MEDELLIN05001C0701E00000810103
04363640MTL001001200000050    00110000000000020PT436BQUILLA 23466A0436E00000890264
04371981BTA0980982000001101   09810000000000020BU           1100140100E00000840401
04383631MTR001001200000050    00110000000000020CU438BQUILLA 23001A0438E00000890263
04393231SMT001001200000010    00110000000000020CU           47001A0564E00000830223
04411980BTA098098200000150    09810000000000020BU           1100140100E000007D0401
04423101NEI098009200000050    09810000000000020CU442BOGOTA  4100140442E000007E0210
04432031MED0030032000001501   00310000000000020CU434MEDELLIN05001C0701E00000810103
04441981BTA0980982000001101   09810000000000020PT           2512640100E00000840401
04452021CAL002002200000110    00210000000000020CU484CALI    76001B0706E00000800102
04462411OCA004004200000050    09810000000000020PT446BMANGA  5449810446E00000810141
04471981BTA0980982000001101   09810000000000020BU           1100140100E00000840401
04481981BTA098098200000110    09810000000000020BU           1100140100E00000810401
04491980BTA098098200000110    09810000000000020BU           1100140100E000007A0401
04501981BTA0980982000001101   09810000000000020BU           1100140100E00000840401
04522030MED003003200000110    00310000000000020CU434MEDELLIN05001C0701E00000810103
04533010BQL001001200000110    00110000000000020CT170BQUILLA 08433A0707E00000800201
04542021CAL0020022000001501   00210000000000020CU484CALI    76520B0706E00000830102
04552020CAL0020022000001101   00210000000000020CU484CALI    76001B0706E00000800102
04562020CAL0020022000001101   00210000000000020CU484CALI    76001B0706E00000800102
04573011BQL001001200000110    00110000000000020CT170BQUILLA 08296A0707E00000810201
04582021CAL002002200000150    00210000000000020PU484CALI    76520B0706E00000830102
04592020CAL002002200000110    00210000000000020CU484CALI    76001B0706E00000810102
04601980BTA098098204600110    09810000000000020BU           1100140100E000007A0101
04613371PST002002200000050    00210000000000020CT466CALI    52399B0461E000008G0237
04623201PAM004004200000050    09810000000000020PT462BMANGA  5451810462E00000810220
04632031MED0980982000001501   00310000000000020PT434MEDELLIN05440C0701E00000840103
04642030MED003003204640110    00310000000000028CU434MEDELLIN05001C0701E00000810103
04653121PER003012200000150    00310000000000020CU468PEREIRA 6600130715E00000730212
04663111PST002002200000050    00210000000000020CU466CALI    52001B0466E000008G0211
04672011BQL001001200000150    00110000000000020CU170BQUILLA 08001A0707E00000810101
04683121PER003012200000150    00310000000000020CU468PEREIRA 6600130715E00000730212
04692041BUC004004200000150    09810000000000020PT184BMANGA  6854710713E00000810104
04702021CAL0980982000001501   00210000000000020PU470CALI    76001B0706E00000840102
04712730PVI001001200000050    00110000000000020PT471BQUILLA 47551A0471E00000850173
04732040BUC004004200000154    09810000000000020CU184BMANGA  6800110713E000008D0104
04743661IBG098009200000050    09810000000000020CU474BOGOTA  7300140370E00000740266
04752020CAL0020022000001101   00210000000000020CU484CALI    76001B0706E00000800102
04762031MED003003200000150    00310000000000020CU434MEDELLIN05001C0701E00000810103
04772020CAL0020022000001101   00210000000000020CU484CALI    76001B0706E00000800102
04783311APT003012200000010    00310000000000020CT468        05147C0128E00000730231
04793831TUL0020022000000501   00210000000000020PU479CALI    76834B0612E000008B0283
04802020CAL0020022000001101   00210000000000020CU484CALI    76001B0706E00000800102
04811980BTA098098200000150    09810000000000020BU           1100140100E000007D0404
04842020CAL002002200000110    00210000000000020CU484CALI    76001B0706E00000810102
04862021CAL002002200000110    00210000000000020CU484CALI    76001B0706E00000810102
04872021CAL002002200000110    00210000000000020CU484CALI    76001B0706E00000810102
04882020CAL0020022000001101   00210000000000020CU484CALI    76001B0706E00000800102
04902020CAL0020022000001101   00210000000000020CU484CALI    76001B0706E00000800102
04913101NEI0980982000000101   09810000000000020CU638        4100140442E000007E0210
04921980BTA098098200000110    09810000000000020BU           1100140100E000007A0401
04933010BQL001001200000110    00110000000000020CT170BQUILLA 08758A0707E00000800201
04943560VDP001001200000050    00110000000000020CU628BQUILLA 20001A0628E000008H0256
04952020CAL0020022000001101   00210000000000020CU484CALI    76001B0706E00000800102
04962681POP0020022000000501   00210000000000020CU496CALI    19001B0520E00000830168
04972031MED003012200000110    00310000000000020CU468MEDELLIN05129C0701E00000730103
04982020CAL002002200000110    00210000000000020CU484CALI    76001B0706E00000810102
05001980BTA098098200000110    09810000000000020BU           1100140100E00000740401
05042210CGN001001200000050    00110000000000020CU204BQUILLA 13001A0204E00000820121
05061981BTA0980982000001101   09810000000000020BU           1100140100E00000840401
05102031MED003003200000050    00310000000000020CU434MEDELLIN05001C0701E00000810103
05111981BTA0980982000001101   09810000000000020BU           1100140100E00000840401
05121981BTA0980982000001101   09810000000000020BU           1100140100E00000840401
05132041PTW098098200000010    09810000000000020PT311BMANGA  6872010513E00000840152
05142350PBE003003200000050    00310000000000020PT434MEDELLIN05579C0514E00000810135
05163061CUC004004200000050    09810000000000020CU           5440510260E00000850206
05182031MED0030032000000501   00310000000000020CU434MEDELLIN05001C0701E00000810103
05193071FSA0980092000001101   09810000000000020PT348BOGOTA  2530740100E00000780201
05202681POP002002200000050    00210000000000020CU520CALI    19001B0520E00000830168
05242031MED0030032000000501   00310000000000020CU434MEDELLIN05001C0701E00000810103
05251980BTA098098200000110    09810000000000000BU           1100140100E00000740401
05263120ARM003012200000050    00310000000000020PT468PEREIRA 6359430138E00000730212
05282030MED0030032000000101   00310000000000020CU434MEDELLIN05001C0701E00000810103
05293231SMT001001200000010    00110000000000020CU564BQUILLA 47001A0564E00000830223
05302261RIO001001200000050    00110000000000020CU530BQUILLA 44001A0530E000008I0126
05312031MED0030032000000501   00310000000000020CU434MEDELLIN05001C0701E00000810103
05322281MED003003200000050    00310000000000020PU285MEDELLIN05615C0701E00000820128
05342031MED0030032000000501   00310000000000020PT434MEDELLIN05088C0701E00000840103
05353121ARM003012200000050    00310000000000020CU468PEREIRA 6300130138E00000730212
05361981BTA098098200000100    09800000000000029NU           1100140100E00000740401
05382031MED0030032000000501   00310000000000020CU434MEDELLIN05001C0701E00000810103
05392530ALB004004200000050    09810000000000020PT539BMANGA  2071010539E00000820153
05402991AND001001200000050    00110000000000020CU540BQUILLA 88001A0540E000008J0199
05411980BTA003003200000010    00310000000000029PU           1100140100E00000800401
05421980BTA098098200000110    09810000000000020BU           1100140100E00000730401
05432031MED0030032000000501   00310000000000020CU434MEDELLIN05001C0701E00000810103
05442020CAL002002200000010    00210000000000020CU484CALI    76001B0706E00000810102
05455791BTA098098206220100    09800000000000028BU           1100140100E00000740501
05463021ORI002002200000010    00210000000000020PA489CALI    86320B0546E00000860202
05473670SEV002002200000050    00210000000000020CT588CALI    76122B0588E000008B0267
05483440CES001001200000050    00110000000000020PT548BQUILLA 44650A0548E000008H0244
05493210CGN001001205490050    00110000000000028CU204        13001A0204E00000820221
05502030MED0030032000000501   00310000000000020PU434MEDELLIN05266C0701E00000800103
05513071GDO098009205510050    09810000000000020PU348BOGOTA  2530740348E00000780207
05523631MTR0010012000000501   00110000000000020CU552BQUILLA 23001A0438E00000890263
05535791BTA098098200500101    09800000000000028BU           1100140100E00000740501
05542031MED0030032000000501   00310000000000020PT434MEDELLIN05686C0701E00000840103
05563850MTI098098200000050    09810000000000020PT556BOGOTA  5068940556E00000740285
05582031MED0030032055800501   00310000000000020CU434MEDELLIN05001C0701E00000810103
05621981BTA0980982000001101   09810000000000020BU           1100140100E00000840401
05642231SMT001001200000050    00110000000000020CU564BQUILLA 47001A0564E00000830123
05662021CAL002002200000010    00210000000000020CU484CALI    76001B0706E00000810102
05682021CAL002002200000010    00210000000000020CU484CALI    76001B0706E00000810102
05693041BUC004004205690110    09810000000000020CU184BMANGA  6827610713E00000810204
05703980BTA098098200000110    09810000000000020PT597BOGOTA  2532240100E000007D0201
05715980BTA098098000000001000009800000000000025NU           1100140100E00000710579
05723120PER003012200000050    00310000000000020PU468PEREIRA 6668230715E00000730212
05742010BQL001001200000010    00110000000000020CU170BQUILLA 08001A0707E00000800101
05755791BTA098098200000000000009800000000000021NU           1100140100E00000740579
05763880VTB004014200000050    09810000000000020PT576BMANGA  1569310576E00000710288
05782650QBD003003200000050    00310000000000020CU434MEDELLIN27001C0578E000008A0165
05801981BTA0980982000001101   09810000000000020BT           2515140100E00000840401
05823061CUC004004200000001    09810000000000020CU260BMANGA  5400110260E00000850106
05833071MLG0980982000001601   09810000000000020PT263BOGOTA  2548840263E00000840207
05842031MED003003200000050    00310000000000020CU434MEDELLIN05001C0701E00000810103
05853931TJA004014200000050    09810000000000020CU616BMANGA  1500110616E00000710293
05871981BTA0980982000001101   09810000000000020BU           1100140100E00000840401
05883670SEV002002200000050    00210000000000020CU588CALI    76736B0588E000008B0267
05893121MNZ003012200000050    00310000000000020CU468PEREIRA 1700130428E00000730212
05902041BUC004004200000050    09810000000000020PU184BMANGA  6800110713E00000810104
05923131SCL001001200000050    00110000000000020CU170BQUILLA 70001A0592E00000890213
05932030MED0030032000000101   00310000000000020CU434MEDELLIN05001C0701E000008C0103
05941981BTA098098200000110    09810000000000020NU           1100140100E00000740401
05953460BCN001001200000050    00110000000000020PT183BQUILLA 20250A0595E000008H0246
05963901SOG004014200000050    09810000000000020PT596BMANGA  1575910596E00000710290
05971980BTA098098200000110    09810000000000020PT597BOGOTA  2575840100E000007D0401
05982281MED003003200000050    00310000000000020PU285MEDELLIN05615C0701E00000820128
05993460CDZ001001200000050    00110000000000020PT183BQUILLA 20400A0599E000008H0246
06002041BUC004004200000010    09810000000000020CU184BMANGA  6800110713E00000810104
06013061CUC004004200000050    09810000000000020CU260        5400110260E00000850206
06021980BTA098098200000151    09810000000000020BU           1100140100E00000730401
06033912SOG004014200000050    09810000000000020PT603BMANGA  1575910596E00000710291
06041980BTA098098200000110    09810000000000020PT604BOGOTA  1510640100E00000720401
06051980BTA098098200000110    09810000000000020BU           1100140100E00000710401
06061980BTA098098200000110    09810000000000020BU           1100140100E00000710401
06071980BTA098098200000110    09810000000000020BU           1100140100E000007A0401
06083820TOC098009200000050    09810000000000020PT608BOGOTA  2581540608E00000740282
06092021CAL002002200000020    00210000000000020CU484CALI    76001B0706E00000810102
06100000000000000200000001    09800000000000020N0           1100140100E00000720401
06111980BTA098098200000150    09810000000000020PT611BOGOTA  2584340100E000007D0401
06123831TUL002002200000050    00210000000000020PU612CALI    76834B0612E000008B0283
06135020CAL002002200000013    00210000000000025CU484CALI    76001B0706E000008A0502
06143061CUC004004200000050    09810000000000020CU260        5400110260E00000850206
06151980BTA098098200000110    09810000000000020BU           1100140100E000007A0401
06163141TJA004014200000050    09810000000000020CU616BMANGA  1500110616E000007D0214
06171980BTA098098200000101    09810000000000020BU           1100140100E00000730401
06183031APT003012200000010    00310000000000020CT468        05172C0128E00000730203
06193061CUC004004200000010    09810000000000020CT260        5400110260E00000850206
06202300APT003003200000050    00310000000000020PT434MEDELLIN05837C0128E00000810130
06211980BTA098098200000110    09810000000000020BU           1100140100E000007A0401
06221980BTA098098200000110    09810000000000020BU           1100140100E000007A0401
06241980BTA098098200000110    09810000000000020PU           1100140100E00000720401
06251341FLO0980982000000501   09810000000000020PA625BOGOTA  1859240625E000008E0234
06272010BQL001001200000010    00110000000000020CU170BQUILLA 08001A0707E00000800101
06283161VDP001001200000050    00110000000000020CU170BQUILLA 20001A0628E000008H0216
06291980BTA098098200000111    09810000000000020BU           1100140100E00000750401
06302011BQL001001200000010    00110000000000020CU170BQUILLA 08001A0707E00000810101
06315791BTA098098200460100    09800000000000028BU           1100140100E00000740501
06321981BTA0980982000001101   09810000000000020PT           2581740100E00000840401
06333121PER003012200000010    00310000000000020CU468PEREIRA 6600130715E00000730212
06342030MED003003200000010    00310000000000020CU434MEDELLIN05001C0701E000008A0103
06363151VLL098098200000250    09810000000000020CU636BOGOTA  5000140351E00000770215
06371980BTA098098200000110    09810000000000020BU           1100140100E000007A0401
06383101NEI0980982000000501   09810000000000020CU638BOGOTA  4100140442E000007E0210
06392021CAL002002200000050    00210000000000020CU484CALI    76001B0706E00000810102
06401980BTA098098200000150    09810000000000020PT640BOGOTA  2587540100E00000740401
06411981BTA000000200000010    09810000000000020BU           1100140100E00000740401
06423101NEI0980982000000101   09810000000000020CU638        4100140442E000007E0210
06432030MED003003200000050    00310000000000020CT434MEDELLIN05001C0701E000008A0103
06442390YAR003003200000050    00310000000000020PT644MEDELLIN05887C0701E00000820139
06452020CAL002002200000001    00210000000000020CU484CALI    76001B0706E00000800102
06463420YOP004014200000050    09810000000000020CU646BMANGA  8500110646E00000840242
06482020CAL002002200000050    00210000000000020PU484CALI    76892B0706E00000810102
06492310APT0030032000000501   00310000000000020CU434MEDELLIN05045C0128E00000800131
06503121PER000000000000060    00310000000000020CT           6608830715E00000730212
06523091PFC0980982000001501   09810000000000020PT652BOGOTA  7358540652E00000840209
06532031MED003003200000010    00310000000000020CU434MEDELLIN05001C0701E00000800103
06540980BTA098098200000000    09800000000000020BU           1100140100E00000750001
06551980BTA098098200000110    09810000000000020BU           1100140100E000007A0401
06563700ZAR002002200000050    00210000000000020PT656CALI    76895B0656E000008B0270
06573161VDP001001200000050    00110000000000020CU170BQUILLA 20001A0628E000008H0216
06585010BQL0000000000000000   00010000000000028NU   0       08001A0707000000000501
06593210CGN001001200000000    00110000000000020CU204BQUILLA 13001A0204E00000820221
06601980BTA098098200000110    09810000000000020PT660BOGOTA  2589940100E00000720401
06612011BQL001001200000060    00110000000000020CU170BQUILLA 08001A0707E00000810101
06631980BTA098000200000100    09810000000000000BU           1100140100E00000750498
06651980BTA098098000000001000009800000000000020N0           1100140100E00000710401
06662760BQL001001207710001    00100000000000020CU170BQUILLA 08001A0707E000008A0100
06673781BUC004004207730001    09800000000000020CU184BMANGA  6800110713E00000810200
06683740VLL098098200000001    09810000000000020CU219BOGOTA  5000140351E00000840215
06695770CAL002002207720001    00200000000000021CU484CALI    76001B0706E000008B0577
06705791BTA098098207690101    09800000000000021BU           1100140100E00000740579
06712020CAL002002200000001    00210000000000020CU484CALI    76001B0706E000008A0102
06723791BTA098098207690001    09800000000000020BU           1100140100E00000740200
06743991AND001001200000050    00110000000000020CA540BQUILLA 88001A0674E000008J0299
06752011BQL000000200000060    00010200000000020CU170BQUILLA 08001A0707E00000810101
06762891DUI0040142000000101   09810000000000020PT282BMANGA  1523810676E00000710189
06772031MED003003200000010    00310000000000020CU434MEDELLIN05001C0701E00000800103
06782021CAL002002200000010    00210000000000020CU484CALI    76001B0706E000008D0102
06792021CAL002002200000010    00210000000000020CU484CALI    76001B0706E000008D0102
06805031MED003003200000052    00350000000000025CU434MEDELLIN05001C0701E00000800503
06923430TMC002002200000010    00210000000000020PU484CALI    52835B0692E00000830211
06933111PST002002200000010    00210000000000020CU121CALI    52001B0466E000008G0211
06941981BTA098098200000110    09810000000000020BU           1100140100E00000740498
06953150VLL098098200000150    09810000000000020CA           9900140695E00000740215
06973980PLO098098200000050    09810000000000020CT           5000140697E00000740298
06993041FLO098098200000060    09810000000000020CT312BOGOTA  1800140312E000008E0204
07001980BOG098098000000001000009800000000000020N0           1100140100E00000720401
07012030MED003003000000001000000300000000000020NU434MEDELLIN05001C0701E00000810103
07021980BTA098098000000001000009800000000000020NU           1100140100E00000710501
07043101NEI0980982000000101   09810000000000020CU638BOGOTA  4100140442E000007E0210
07053960ACA098098200000050    09810000000000020CT           5000140351E00000740296
07062020CAL002002000000001000000200000000000020N0484CALI    76001B0706E00000810102
07072010BQL001001000000001000000100000000000020N0170BQUILLA 08001A0707E00000800101
07081981BTA0980982000001101   09810000000000020PT           2543040100E00000840401
07132041BUC004004000000001000009800000000000020N0184BMANGA  6800110713E00000810104
07153121PER003012000000001000000300000000000020C0468PEREIRA 6600130715E00000730212
07161980BTA098098000000001000009800000000000020N0           1100140100E00000710401
07503091GUM0980982000001501   09810000000000020PT750BOGOTA  7331940750E00000840209
07522030MED003003200000010    00310000000000020CU434MEDELLIN05001C0701E000008A0103
07575760BQL001001207710000    00100000000000021CU170BQUILLA 08001A0707E000008A0576
07605791BTA098098207690100    09800000000000021BU           1100140100E00000740579
07673801CHP0980982000001501   09810000000000020PT767BOGOTA  7316840767E00000840280
07685750MED003003200000001    00300000000000022C0434MEDELLIN05001C0701E000008C0575
07695791BTA098098200000101    09800000000000022B0           1100140100E00000740579
07715760BQL001001200000001    00100000000000022CU170BQUILLA 08001A0707E000008A0576
07725770CAL002002200000001    00200000000000022C0484CALI    76001B0706E000008B0577
07735781BUC004004200000001    09800000000000022CU184BMANGA  6800110713E00000810578
07771980BTA098098000000001000009800000000000020NN           1100140100E00000740401
07780001BTA098098200000000    09800000000000009BU           1100140100E00000710000
07813121ARM003012200000050    00310000000000020CT468PEREIRA 6347030138E00000730212
07885750MED0030032000000011   00300000000000020N0434MEDELLIN05001C0701E000008C0575
07911980BTA098098000000001000009800000000000020NN           1100140100E00000740401
07923101NEI0980982000000501   09810000000000020CU792BOGOTA  4100140442E000007E0210
07933101PTL0980982000001501   09810000000000020PU793BOGOTA  4155140793E00000840210
07961981BTA0980982000001101   09810000000000020BU           1100140100E00000840401
07981981BTA0980982000001101   09810000000000020PT           2576940100E00000840401
07991981BTA0980982000001101   09810000000000020BT           1100140100E00000840401
08003630PLR001001200000010    00110000000000020CT170BQUILLA 08001A0800E00000840263
08011981BTA0980982000001101   09810000000000020BU           1100140100E00000840401
08021981BTA0980982000001101   09810000000000020BU           1100140100E00000840401
08032021CAL002002200000010    00210000000000020CU484CALI    76001B0706E00000800102
08043960PTO098098200000050    09810000000000020CT           5000140804E00000740296
08073141TJA004014200000050    09810000000000020CU616BMANGA  1500110616E000007D0214
08082031MED003003200000010    00310000000000020PU434MEDELLIN05088C0701E00000800103
08102010BQL001001200000010    00110000000000020CU810BQUILLA 08001A0707E000008A0101
08112030MED003003200000010    00310000000000020CU434MEDELLIN05001C0701E000008A0103
08122021CAL002002200000001    00210000000000020CU484CALI    76001B0706E00000800102
08152021CAL002002200000001    00210000000000020CU484CALI    76001B0706E00000800102
08165980BTA098098007690100000009800000000000021NU           1100140100E00000740501
08172681POP002002200000050    00210000000000020CU520CALI    19001B0520E00000830168
08181980BTA098098000000001000009800000000000020NN           1100140100E00000740401
08191981BTA0980982000001101   09810000000000020BU           1100140100E00000840401
08201980BTA098098000000001000009800000000000020NN           1100140100E00000740401
08211980BTA098098000000101000009800000000000020NU           1100140100E00000710401
08221980BTA098098200000110    09810000000000020PT822BOGOTA  2589940100E00000720401
08231980BTA098098000000001000009800000000000021NU           1100140100E00000710401
08253061CUC004004200000010    09810000000000020CT260        5426110260E00000850206
08275790CAL002002202560010    00210000000000028CU           76001B0706E000008A0501
08282020CAL002002200000001    00210000000000020CU484CALI    76001B0706E000008A0102
08293631MTR001001200000050    00110000000000020CU438BQUILLA 23001A0438E00000890263
08303010BQL001001200000010    00110000000000020CT810BQUILLA 08758A0707E000008A0201
08335020CAL002002207720009000000200000000000021CU   CALI    76001B0706E000008B0577
08343041BUC004004200000010    09810000000000020CU184BMANGA  6800110713E00000810204
08353630SHG001001200000010    00110000000000020CT170BQUILLA 08001A0835E00000840263
08363090IBG0980092000000501   09810000000000020CU836BOGOTA  7300140370E00000740209
08373090IBG0980092000000501   09810000000000020CU837BOGOTA  7300140370E00000740209
08383091GDO0980982000000501   09810000000000020PU838BOGOTA  2561240348E00000840209
08393090IBG098009200000050    09810000000000020CU836BOGOTA  7300140370E00000740209
08403091FRS0980982000001501   09810000000000020PT840BOGOTA  7328340840E00000840209
08413121MZN0980982000000501   09810000000000020PT468PEREIRA 1743330841E00000840212
08423121PER0980982000000501   00310000000000020CU468PEREIRA 6600130715E00000840212
08433101NEI098009200000103    09810000000000020CU442BOGOTA  4100140442E000007E0210
08453121ARM0030122000000501   00310000000000020CU468PEREIRA 6300130138E00000730212
08461981BTA098098200000111    09810000000000020BU           1100140100E00000840401
08473031ANS0980982000000501   00310000000000020PT468PEREIRA 1704230847E00000830201
08483121RSC0980982000000501   09810000000000020PT468PEREIRA 1761430848E00000840212
08492041BUC0040042000000101   09810000000000020CU184BMANGA  6800110713E00000810104
08502520BRC0040042000000501   09810000000000020PU168BMANGA  6808110168E00000810152
08523150VLL0980982000001501   09810000000000020CU852BOGOTA  5000140351E00000740215
08533841VLL0980982000000501   09810000000000020CT853BOGOTA  5022640351E00000840284
08553420YOP0040142000000501   09810000000000020CU855BMANGA  8500110646E00000840242
08562010BQL001001200000001    00110000000000020CU170BQUILLA 08001A0707E00000800101
08575750MED003003007680009000000300000000100021N0434MEDELLIN05001C0701E00000810575
08585750MED003003007680008000000300000000100021NU434MEDELLIN05001C0701E00000810575
08595041BUC004004007730008000009800000000000021NU184BMANGA  6800110713E00000810504
08605761CTG013013007710009000000100000000000021CU170CTGENA  08001A0707E00000800576
08612710BVT002002200000001    00210000000000020PU186CALI    76109B0186E00000820171
08621981BTA098098200000101    09810000000000020BU           1100140100E00000840401
08633161VDP001001200000010    00110000000000020CU170BQUILLA 20001A0628E000008H0216
08643161VDP001001200000001    00110000000000020CU170BQUILLA 20001A0628E000008H0216
08652031MED003003200000001    00310000000000020CU434MEDELLIN05001C0701E00000810103
08661980BTA098098000000101000009800000000000020N0           1100140100E00000710401
08675981BTA098098207690010    09810000000000021BU           1100140100E00000740501
08682020CAL002002200000010    00210000000000020CU484CALI    76001B0706E00000800102
08692020CAL002002200000010    00210000000000020CU484CALI    76001B0706E000008A0102
08711980BTA098098000000101000009800000000000020N0           1100140100E00000710401
08721980BTA098098000000001000009800000000000020N0           1100140100E00000710401
08731980BTA098098000000001000009800000000000020N0           1100140100E00000710401
08742010BQL001001200000010    00110000000000020CU170BQUILLA 08001A0707E00000800101
08755760BUC0010012000000011   00100000000000020CU170BMANGA  0800110713E000008A0576
08761980BTA098098000000001000009800000000000020N0           1100140100E00000710401
08771980BTA098098000000001000009800000000000020N0           1100140100E00000710401
08782740VLL098098200000010    09810000000000020CU219BOGOTA  5000140351E00000840194
08795791BTA098098200010001    09800000000000028BU           1100140100E00000740501
08803631MTR001001200000010    00110000000000020CU438BQUILLA 23001A0438E00000890263
08812040BUC004004200000051    09810000000000020CU184BMANGA  6800110713E000008D0104
08825041BUC0040040077300080000098000000000000210U184BMANGA  6800110713E00000810504
08832030MED003003200000011    00310000000000020PU434MEDELLIN05212C0701E00000800103
08841980BTA098098000000101000009800000000000020N0           1100140100E00000710401
08853071BTA098009200000150    09810000000000020PT348BOGOTA  2530740100E00000780207
08861980BTA098098000000101000009800000000000020N0           1100140100E00000710401
08881980BTA098098000000001000009800000000000020N0           1100140100E00000710401
08893121PER003012200000001    00310000000000020CU468PEREIRA 6600130715E00000730212
08901980BTA098098000000101000009800000000000020N0           1100140100E00000710401
08911980BTA098098000000001000009800000000000020N0           1100140100E00000710401
08921980BTA098098000000001000009800000000000020N0           1100140100E00000710401
08931980BTA098098000000001000009800000000000020N0           1100140100E00000710401
08942030MED003003200000000    00310000000000020CU434MEDELLIN05001C0701E000008A0103
08952141MNQ0040142000000101   09810000000000020CT           1500110895E000007D0119
08965981BTA098098208790004    09800000000000027BT           1100140100E00000740598
08972031MED003003200000050    00310000000000020CU434MEDELLIN05001C0897E00000810103
08991980BTA098098200000110    09810000000000020BU           1100140100E000007A0401
09002041BUC0040042000000101   09810000000000020CU184BMANGA  6800110713E00000810104
09021980BTA098098099230101000009800000000000020N0           1100140100E00000710501
09051981BTA098098200000010    09810000000000020BU           1100140100E00000710401
09062010BQL001001200000001    00110000000000020CU170BQUILLA 08001A0707E00000840101
09072211CGN001001200000050    00110000000000020CU204BQUILLA 13001A0204E00000820121
09102010BQL001001200000010    00110000000000020CU170BQUILLA 08001A0707E00000800101
09113710BVT002002200000010    00210000000000020PU186CALI    76109B0186E00000820271
09123121PER003012200000050    00310000000000020CU468PEREIRA 6600130715E00000730212
09133121PER003012200000050    00310000000000020CT468PEREIRA 6600130715E00000730212
09143030MED003003200000010    00310000000000020CT434MEDELLIN05318C0701E000008A0203
09155981BTA098098208790104    09800000000000027BT           1100140100E00000740598
09161980BTA098098000000101000009800000000000020N0           1100140100E00000710401
09203981BTA0980982000001101   09810000000000020BU           1100140100E00000840201
09211980BTA098098099230101000009800000000000020N0           1100140100E00000710401
09241790BTA098098200000110    09810000000000028BU           1100140100E000007A0101
09341980BTA098098000000101000009800000000000020N0           1100140100E00000710401
09373101NEI0980982000001501   09810000000000020PT793BOGOTA  4130640937E00000840210
09393111PST002002200000010    00210000000000020CU121CALI    52001B0466E000008G0211
09401980BTA098098000000101000009800000000000020N0           1100140100E00000710401
09415791BTA098098207690008    09800000000000021BU           1100140100E00000740579
09423030MED003003200000010    00310000000000020CT434MEDELLIN05697C0701E000008A0203
09430001BTA098098200000000    09800000000000009BU           1100140100E00000710000
09441980BTA000000000000000    00000000000000009N0           1100140100E00000740401
09461980BTA0010012000001001   00100000000000009C0170BQUILLA 1100140100E00000800401
09483011BTA0980982000001101   09810000000000020BU           1100140100E00000840201
09492030MED003003000000001000000300000000000020N0434MEDELLIN05001C0701E00000810103
09561980BTA098098000000101000009800000000000020N0           1100140100E00000710501
09582010BQL001001000000001000000100000000000020N0170BQUILLA 08001A0707E00000800101
09592020CAL002002000000001000000200000000000020N0484CALI    76001B0706E00000810102
09601980BTA098098200000001    09800000000000020N0           1100140100E000007A0401
09612041BUC004004000000001000009800000000000020N0184BMANGA  6800110713E00000810104
09655791MED098098201330001    09800000000000028BU           11001C0701E00000740501
09665791MED098098209650004    09800000000000027BT           11001C0701E00000740501
09675791MED098098209650004    09800000000000027BT           11001C0701E00000740501
09685791CAL098098204860001    09800000000000028BU           11001B0706E00000740501
09695791CAL098098209680004    09800000000000027BT           11001B0706E00000740501
09705791BTA098098207690108    09800000000000021BU           1100140100E00000740579
09715791CAL098098209680004    09800000000000027BT           11001B0706E00000740501
09725791CAL098098209680004    09800000000000027BT           11001B0706E00000740501
09735791BTA098098206310104    09800000000000027BT           1100140100E00000740501
09755791BQL098098209960001    09800000000000028BU           11001A0707E00000740501
09761980BTA098098000000101000009800000000000020N0           1100140100E00000710401
09775791BQL098098209750001    09800000000000027BT           11001A0707E00000740501
09785791BQL098098209750001    09800000000000027BT           11001A0707E00000740501
09793650QBD003003209790050    00310000000000020CU434MEDELLIN27001C0578E000008A0265
09803030MED003003200000010    00310000000000020CT434MEDELLIN05001C0701E000008A0203
09813121ARM003012200000050    00310000000000020CU468PEREIRA 6300130138E00000730212
09822030MED003003000000001000000300000000000021N0434MEDELLIN05001C0701E00000810103
09832030MED003003200000010    00310000000000020CT434MEDELLIN05001C0701E000008A0103
09842030PBY003003200000010    00310000000000020PT434MEDELLIN05002C0984E00000800103
09855791BUC098098206000001    09800000000000028BU           1100110713E00000710504
09865791BUC098098209850004    09800000000000027BT           1100110713E00000710504
09875791BUC098098209850004    09800000000000027BT           1100110713E00000710504
09882041BUC004004000000001000009800000000000020N0184BMANGA  6800110713E00000810104
09891981BTA098098200000010    09810000000000020BU           1100140100E00000740401
09901980BTA098098000000101000009800000000000020NU           1100140100E00000740401
09912021CAL002002200000010    00210000000000020CU484CALI    76001B0706E00000810102
09925791MED098098209650004    09800000000000027BT           11001C0701E00000740503
09933151VIL0980982000001501   09810000000000020CT636BOGOTA  5000140993E00000770215
09942030MED003003200000001    00310000000000020PU434MEDELLIN05212C0701E00000800103
09951980BTA0980982000001101   09810000000000020BU           1100140100E000007A0401
09962010BQL001001200000010    00110000000000020CU170BQUILLA 08001A0707E00000800101
09973450CDZ001001200000010    00110000000000020CT170BQUILLA 08001A0997E00000800245
10035791MED098098207680101    09800000000000021BU           11001C0701E00000740579
10045790BTA000000007690010    09810000000000024NU           1100140100E00000710579
10055790BTA000000007690010    09810000000000024NU           1100140100E00000710579
10065790BTA000000007690010    09810000000000024NU           1100140100E00000710579
10075790BTA000000007690010    09810000000000024NU           1100140100E00000710579
10085790BTA000000007690010    09810000000000024NU           1100140100E00000710579
10095790BTA000000007690010    09810000000000024NU           1100140100E00000710579
10105790BTA000000007690010    09810000000000024NU           1100140100E00000710579
10115790BTA000000007690010    09810000000000024NU           1100140100E00000710579
10125790BTA000000007690010    09810000000000024NU           1100140100E00000710579
10135790BTA000000007690010    09810000000000024NU           1100140100E00000710579
10145790BTA000000007690010    09810000000000024NU           1100140100E00000710579
10155790BTA000000007690010    09810000000000024NU           1100140100E00000710579
10165790BTA000000007690010    09810000000000024NU           1100140100E00000710579
10215790BTA098098209240100    09800000000000007BU           1100140100E000007A0500
10225790BTA098098209240000    09800000000000007BU           1100140100E000007A0500
10235000MED0000000096500040   00000000000000007NU   0       05001C0701000000000503
10265001CGN001001205490050    00110000000000027CU204BQUILLA 13001A0707E00000820521
10275001CGN001001205490050    00110000000000027CU204BQUILLA 13001A0707E00000820521
10285010CAL002002208270014    00210000000000027CU           76001B0706E000008A0501
10295010CAL002002208270014    00210000000000027CU           76001B0706E000008A0501
10305010CAL002002208270014    00210000000000027CU           76001B0706E000008A0501
10315981CUC004004207730010    09800000001000061C0           5400110100E00000810501
10325980BTA098098007690008000009800000000000021NU           1100140100E00000710501
10335980BTA098098007690008000009800000000000021NU           1100140100E00000710501
10345980BTA098098007690108000009800000000000021NU           1100140100E00000710501
10355750MED003003007680009000000300000000100021N0434MEDELLIN05001C0701E00000810575
10365761BQL013013007710009000000100000000000021CN170CTGENA  08001A0707E00000800576
10375761BQL013013007710009000000100000000000021CN170CTGENA  08001A0707E00000800576
10385791BTA098098207690000    09800000000000021BU           1100140100E00000740579
10413020CAL002002203280000    00210000000000020NU484CALI    76001B0706E000008A0202
10425791BTA098098205710010    09810000000000029BU           1100140100E00000710579
10435791BTA098098205710010    09810000000000029BU           1100140100E00000710579
10441980MED0000000046400040   00000000000000029NU   0       05001C0701000000000401
10455771CAL098098206130000    09810000000000024BU           76001B0706E00000740577
10515010BQL0000000065800000   00010000000000027NU   0       08001A0707000000000501
10525010BQL0000000065800000   00010000000000027NU   0       08001A0707000000000501
10535120PER003003203400160    00310000000000027CU           6600130715E00000810512
10545120PER003003203400160    00310000000000027CU           6600130715E00000810512
10555791BTA098098207690100    09810000000000021NU           1100140100E00000740579
10565040BUC0000000019500600   00010000000000027NU   0       6827610713000000000504
10635750MED003003207680008    00300000000000021NU434MEDELLIN05001C0701E000008C0575
10655981BTA098098210650000    09810000000000020BU           1100140100E00000710501
10665981BTA098098210660000    09810000000000020BU           1100140100E00000710501
10675981BTA098098210670000    09810000000000020BU           1100140100E00000710501
10685750MED003003010680000    00310000000000020NU434MEDELLIN05001C0701E00000810575
10695011BQL098098210690010    09810000000000020BU           08001A0707E00000710501
10705750MED003003010700000    00310000000000020NU434MEDELLIN05001C0701E00000810575
10745791BTA098098207690010    09810000000000021BU           1100140100E00000710579
10815761BQL013013007710008000000100000000000021C0170CTGENA  08001A0707E00000800576
10825750MED003003007680008000000300000000100021N0434MEDELLIN05001C0701E00000810575
10835980BTA000000007690000    09800000000000021N0           1100140100E00000710501
10845980BTA000000007690008    09800000000000021N0           1100140100E00000710501
10855981BTA000000007690008    09800000000000021B0           1100140100E00000740501
10865041BUC004004007730009    0980000000000002100184BMANGA  6800110713E00000810504
10875790BTA000000007690010    09810000000000024NU           1100140100E00000710579
10885790BTA000000007690010    09810000000000024NU           1100140100E00000710579
10895790BTA000000007690010    09810000000000024NU           1100140100E00000710579
10905790BTA000000007690010    09810000000000024NU           1100140100E00000710579
10915790BTA000000007690010    09810000000000024NU           1100140100E00000710579
10925790BTA000000007690010    09810000000000024NU           1100140100E00000710579
10935790BTA000000007690010    09810000000000024NU           1100140100E00000710579
10945790BTA000000007690010    09810000000000024NU           1100140100E00000710579
10955790BTA000000007690010    09810000000000024NU           1100140100E00000710579
10965790BTA000000007690010    09810000000000024NU           1100140100E00000710579
10975790BTA000000007690010    09810000000000024NU           1100140100E00000710579
10985790BTA000000007690010    09810000000000024NU           1100140100E00000710579
10995790BTA000000007690010    09810000000000024NU           1100140100E00000710579
11005790BTA000000007690010    09810000000000024NU           1100140100E00000710579
11015790BTA000000007690010    09810000000000024NU           1100140100E00000710579
11025790BTA000000007690010    09810000000000024NU           1100140100E00000710579
11035790BTA000000007690010    09810000000000024NU           1100140100E00000710579
11045790BTA000000007690010    09810000000000024NU           1100140100E00000710579
11055790BTA000000007690010    09810000000000024NU           1100140100E00000710579
11065790BTA000000007690010    09810000000000024NU           1100140100E00000710579
11075790BTA000000007690010    09810000000000024NU           1100140100E00000710579
11085790BTA000000007690010    09810000000000024NU           1100140100E00000710579
11095790BTA000000007690010    09810000000000024NU           1100140100E00000710579
11105790BTA000000007690010    09810000000000024NU           1100140100E00000710579
11115790BTA000000007690010    09810000000000024NU           1100140100E00000710579
11125790BTA000000007690010    09810000000000024NU           1100140100E00000710579
11175980BTA098098007690008000009800000000000021NU           1100140100E00000710501
11255690IPL002002299960050    00210000000000021PU           52356B0374E000008B0569
11265020POP002002299960050    00210000000000021PU           19001B0520E000008B0502
11275260RIO002002299960050    00210000000000021PU           44001A0530E000008B0526
11285980BTA002002299960050    00210000000000021PU           1100140100E000008B0598
11295100PTL002002299960050    00210000000000021PU           4155140793E000008B0510
11315011BQL098098299960010    09810000000000021BU           08758A0707E00000710501
11325041SGI098098299960010    09810000000000021BU           6867910713E00000710504
11335421YOP098098299960010    09810000000000021BU           8500110646E00000710542
11345030QBD003003099960000    00300000000000021NU           27001C0578E00000810503
11365031MED003003206800050    00310000000000024CU434MEDELLIN05001C0701E00000800503
11415071BTA098098299960010    09810000000000021BU           2530740100E00000710507
11425121ARM098098299960010    09810000000000021BU           6300130715E00000710512
11525031MED003003206800050    00310000000000024CU           05001C0701E00000800503
11535791BTA000000007690018    09810000000000021BU           2589940100E00000740579
11545791BTA000000007690018    09810000000000021BU           1100140100E00000740579
11555791BTA000000007690018    09810000000000021BU           1100140100E00000740579
11565791BTA000000007690018    09810000000000021BU           1100140100E00000740579
11575791BTA000000007690018    09810000000000021BU           1100140100E00000740579
11585791BTA000000007690018    09810000000000021BU           1100140100E00000740579
11595791BTA000000007690018    09810000000000021BU           1100140100E00000740579
11605791BTA000000007690018    09810000000000021BU           1100140100E00000740579
11615791BTA000000007690018    09810000000000021BU           1100140100E00000740579
11625791BTA098098207690018    09810000000000021BU           1100140100E00000740579
11635791BTA098098207690018    09810000000000021BU           1100140100E00000740579
11645791BTA098098207690018    09810000000000021BU           1100140100E00000740579
11655791BTA098098207690018    09810000000000021BU           1100140100E00000740579
11665791BTA098098207690018    09810000000000021BU           1100140100E00000740579
11675791BTA098098207690018    09810000000000021BU           1100140100E00000740579
11685791BTA098098207690018    09810000000000021BU           1100140100E00000740579
11695791BTA098098207690018    09810000000000021BU           1100140100E00000740579
11705791BTA098098207690018    09810000000000021BU           1100140100E00000740579
11715791BTA098098207690018    09810000000000021BU           1100140100E00000740579
11725791BTA098098207690018    09810000000000021BU           1100140100E00000740579
11735791BTA098098207690018    09810000000000021BU           1100140100E00000740579
11745791BTA098098207690018    09810000000000021BU           1100140100E00000740579
11755791BTA098098207690018    09810000000000021BU           1100140100E00000740579
11765791BTA098098207690018    09810000000000021BU           1100140100E00000740579
11775791BTA098098207690018    09810000000000021BU           1100140100E00000740579
11785791BTA098098207690018    09810000000000021BU           1100140100E00000740579
11795041BRC004004207730068    09810000000000021CU           6808110713E00000810552
11805041BUC004004207730068    09810000000000021CU           6800110713E00000810504
11815041BUC004004207730068    09810000000000021CU           6800110713E00000810504
11825041BUC004004207730068    09810000000000021CU           6800110713E00000810504
11835041CUC004004207730068    09810000000000021CU           5400110713E00000810506
11845960VLL003098207690068    09810000000000021BU           5000140351E00000720596
11855980NEI003098207720068    09810000000000021BU           4100140100E00000720501
11865040TJA003098207690068    09810000000000021BU           1500110713E00000720514
11875960VLL003098207690068    09810000000000021BU           5000140351E00000720596
11885420YOP003098207730068    09810000000000021BU           8500110646E00000720542
11895010BQL000000007710018    00010000000000021CU           08001A0707E00000800501
11905010BQL000000007710018    00010000000000021CU           08001A0707E00000800501
11915010BQL000000007710018    00010000000000021CU           08001A0707E00000800501
11925010MTR001001207680018    00110000000000021CU170        23001A0707E00000800501
11935010SMT001001207710018    00110000000000021CU170        47001A0707E00000800523
11945130SCL001001207680018    00110000000000021CU170        70001A0592E00000800513
11955031MED003003206800050    00310000000000024CU           05001C0701E00000800503
11965010VDP001001207710018    00110000000000021CU170        20001A0707E00000800516
11975791ARM003003207680068    00310000000000021CU434        6300130715E00000800512
11985791MNZ003003207680068    00310000000000021CU434        1700130428E00000800512
11995031MED003003207680068    00310000000000021CU434        05001C0701E00000800503
12005031MED003003207680068    00310000000000021CU434        05001C0701E00000800503
12015031MED003003207680068    00310000000000021CU434        05001C0701E00000800503
12025031MED003003207680068    00310000000000021CU434        05001C0701E00000800503
12035031MED003003207680068    00310000000000021CU434        05001C0701E00000800503
12045031MED003003207680068    00310000000000021CU434        05001C0701E00000800503
12055031MED003003207680068    00310000000000021CU434        05001C0701E00000800503
12065031MED003003207680068    00310000000000021CU434        05001C0701E00000800503
12075031MED003003207680068    00310000000000021CU434        05001C0701E00000800501
12085791PER003003207680068    00310000000000021CU434        6600130715E00000800512
12095020CAL002002207720068    00210000000000021CU           76001B0706E000008A0502
12105020CAL002002207720068    00210000000000021CU           76001B0706E000008A0502
12115020BGA002002207720068    00210000000000021CU           76111B0188E000008A0502
12125020CAL002002207720068    00210000000000021CU           76001B0706E000008A0502
12135020CAL002002207720068    00210000000000021CU           76001B0706E000008A0502
12145020CAL002002207720068    00210000000000021CU           76001B0100E000008A0502
12155020CAL002002207720068    00210000000000021CU           76001B0706E000008A0502
12165020CAL002002207720068    00210000000000021CU           76001B0706E000008A0502
12175020PST0000000077200680   00010000000000021NU           52001B0466000000000502
12275791MNZ098098207680000    09810000000000024BU           1700130428E00000740512
12285051BGA0020022061300501   00210000000000024PU489CALI    76111B0188E00000860505
12295791BTA000000007690010    09810000000000024BT           2521440100E00000740579
12315020POP002002207720000    00210000000000024CU           19001B0520E000008A0502
12345020CAL002002207720010    00210000000000024CU           76001B0706E000008A0502
12432010BQL000000000000000    00000000000000000C0           08001A0707E00000800101
12545751MED004004207680000    09800000000000021CU184        05001C0701E00000810575
12555770CAL002002207720060    00210000000000021CU484        76001B0706E000008B0577
12565781BUC004004207730060    09810000000000021CU184        6800110713E00000810578
12575760BQL001001207710060    00110000000000021CU170        08001A0707E000008A0576
12585790BTA000000007690010    09810000000000021NU           1100140100E00000710579
12595790BTA000000007690010    09810000000000024NU           1100140100E00000710579
12605790BTA000000007690010    09810000000000024NU           1100140100E00000710579
12615790BTA000000007690010    09810000000000024NU           1100140100E00000710579
12625790BTA000000007690010    09810000000000024NU           1100140100E00000710579
12635790BTA000000007690010    09810000000000024NU           1100140100E00000710579
12645790BTA000000007690010    09810000000000024NU           1100140100E00000710579
12655790BTA000000007690010    09810000000000024NU           1100140100E00000710579
12665790BTA000000007690010    09810000000000024NU           1100140100E00000710579
12675790BTA000000007690010    09810000000000024NU           1100140100E00000710579
12685790BTA000000007690010    09810000000000024NU           1100140100E00000710579
12695790BTA000000007690010    09810000000000024NU           1100140100E00000710579
12705790BTA000000007690010    09810000000000024NU           1100140100E00000710579
12715790BTA000000007690010    09810000000000024NU           1100140100E00000710579
12725790BTA000000007690010    09810000000000024NU           1100140100E00000710579
12735790BTA000000007690010    09810000000000024NU           1100140100E00000710579
12745790BTA000000007690010    09810000000000024NU           1100140100E00000710579
12755790BTA000000007690010    09810000000000024NU           1100140100E00000710579
12765790BTA000000007690010    09810000000000024NU           1100140100E00000710579
12775790BTA000000007690010    09810000000000024NU           1100140100E00000710579
12785790BTA000000007690010    09810000000000024NU           1100140100E00000710579
12795790BTA000000007690010    09810000000000024NU           1100140100E00000710579
12805790BTA000000007690010    09810000000000024NU           1100140100E00000710579
12815790BTA000000007690010    09810000000000024NU           1100140100E00000710579
12825790BTA000000007690010    09810000000000024NU           1100140100E00000710579
12835790BTA000000007690010    09810000000000024NU           1100140100E00000710579
12845790BTA000000007690010    09810000000000024NU           1100140100E00000710579
12855790BTA000000007690010    09810000000000024NU           1100140100E00000710579
12865790BTA000000007690010    09810000000000024NU           1100140100E00000710579
12885020CAL002002207720010    00210000000000024CU           76001B0706E000008A0502
12895790BTA000000007690010    09810000000000024NU           1100140100E00000710579
12905790BTA000000007690010    09810000000000024NU           1100140100E00000710579
12915790BTA000000007690010    09810000000000024NU           1100140100E00000710579
12925790BTA000000007690010    09810000000000024NU           1100140100E00000710579
12935790BTA000000007690010    09810000000000024NU           1100140100E00000710579
12945790BTA000000007690010    09810000000000024NU           1100140100E00000710579
12955790BTA000000007690010    09810000000000024NU           1100140100E00000710579
12965790BTA000000007690010    09810000000000024NU           1100140100E00000710579
12975790BTA000000007690010    09810000000000024NU           1100140100E00000710579
12985790BTA000000007690010    09810000000000024NU           1100140100E00000710579
12995790BTA000000007690010    09810000000000024NU           1100140100E00000710579
13005781BUC004004299960001    09800000000000021CT184BMANGA  6800110713E00000810578
13015790BTA000000007690010    09810000000000024NU           1100140100E00000710579
13075791BTA098098206310104    09800000000000027BU           1100140100E00000740501
13095980BTA098098007690109000009800000000000021NU           1100140100E00000710501
13105980BTA098098007690108000009800000000000021NU           1100140100E00000710501
13155020CAL002002206130010    00210000000000024CU           76001B0706E000008A0502
13165790BTA000000007690010    09810000000000024NU           1100140100E00000710579
13175790BTA000000007690010    09810000000000024NU           1100140100E00000710579
13185790BTA000000007690010    09810000000000024NU           1100140100E00000710579
13195790BTA000000007690010    09810000000000024NU           1100140100E00000710579
13205790BTA000000007690010    09810000000000024NU           1100140100E00000710579
13215790BTA000000007690010    09810000000000024NU           1100140100E00000710579
13225790BTA000000007690010    09810000000000024NU           1100140100E00000710579
13235790BTA000000007690010    09810000000000024NU           1100140100E00000710579
13245790BTA000000007690010    09810000000000024NU           1100140100E00000710579
13255790BTA000000007690010    09810000000000024NU           1100140100E00000710579
13265790BTA000000007690010    09810000000000024NU           1100140100E00000710579
13275790BTA000000007690010    09810000000000024NU           1100140100E00000710579
13285790BTA000000007690010    09810000000000024NU           1100140100E00000710579
13295790BTA000000007690010    09810000000000024NU           1100140100E00000710579
13305040BUC000000007730060    09810000000000024NU           6800110713E00000710504
13315020CAL000000007720060    09810000000000024NU           76001B0706E00000710502
13325030MED000000007680060    09810000000000024NU           05001C0701E00000710503
13335980BTA098098099960101000009800000000000021NU           1100140100E00000740501
13395041BUC004004207730110    09810000000000024CU184BMANGA  6800110713E00000810504
13405031MED003003207680050    00310000000000024CU           05001C0701E00000800503
13415020CAL002002206130010    00210000000000024CU           76001B0706E000008A0502
13425040BUC000000007730060    09810000000000024NU           6800110713E00000710504
13435040BUC000000007730060    09810000000000024NU           6800110713E00000710504
13445040BUC000000007730060    09810000000000024NU           6800110713E00000710504
13455040BUC000000007730060    09810000000000024NU           6800110713E00000710504
13465040BUC000000007730060    09810000000000024NU           6800110713E00000710504
13475040BUC000000007730060    09810000000000024NU           6800110713E00000710504
13485040BUC000000007730060    09810000000000024NU           6800110713E00000710504
13495040BUC000000007730060    09810000000000024NU           6800110713E00000710504
13505010BQL000000007710060    09810000000000024NU           08001A0707E00000710501
13515010BQL000000007710060    09810000000000024NU           08001A0707E00000710501
13525010BQL000000007710060    09810000000000024NU           08001A0707E00000710501
13535010BQL000000007710060    09810000000000024NU           08001A0707E00000710501
13545010BQL000000007710060    09810000000000024NU           08001A0707E00000710501
13555010BQL000000007710060    09810000000000024NU           08001A0707E00000710501
13565010BQL000000007710060    09810000000000024NU           08001A0707E00000710501
13575010BQL000000007710060    09810000000000024NU           08001A0707E00000710501
13655020CAL002002207720010    00210000000000024CU           76001B0706E000008A0502
13685020CAL002002207720010    00210000000000024CU           76001B0706E000008A0502
13695041BUC004004201170110    09810000000000024CU184BMANGA  6800110713E00000810504
13735041BUC004004207730110    09810000000000024CU184BMANGA  6800110713E00000810504
13755010BQL001001207710110    00110000000000024CU170BQUILLA 08001A0707E00000800501
13835980BTA098098007690108000009800000000000021NU           1100140100E00000710501
13855760BQL001001207710008    00100000000000021CU170BQUILLA 08001A0707E000008A0576
13865980BTA098098208790010    09800000000000027BU           1100140100E000007A0598
13875030MED098098209650060    09800000000000027BU           05001C0100E000007A0503
13885980BTA098098208790010    09800000000000027BU           1100140100E000007A0598
13895980BTA098098208790010    09800000000000027BU           1100140100E000007A0598
13955760SMT001001207710009    00100000000000021CU170BQUILLA 08001A0707E000008A0576
14035791BTA098098207690108    09800000000000021BU           1100140100E00000740579
14045020CAL002002206130010    00210000000000024CU           76001B0706E000008A0502
14095041BUC0040040077300080000098000000000000210U184BMANGA  6800110713E00000810504
14115031MED003003207680050    00350000000000024CU           05001C0701E00000800503
14135760BQL001001207710101    00100000000000021CU170BQUILLA 08001A0707E000008A0576
14185791BTA098098207690000    09810000000000024BU           1100140100E00000740579
14195770CAL002002207720001    00200000000000021CU484CALI    76001B0706E000008B0577
14225981DDA098098299960161    09810000000000021BT           1738040390E00000710501
14235980BTA098098099960101000009800000000000021NU           1100140100E00000740501
14245980BTA098098007690109000009800000000000021NU           1100140100E00000710501
14295781BUC004004299960001    09800000000000021BU   BMANGA  1100110713E00000810578
14305001MED098098200000000    09800000000000001BU           05615C1430E00000710500
14365981MNZ004004207680010    09800000001000061C0           1700130100E00000810579
14375981BQL004004207710010    09800000001000061C0           08001A0100E00000810501
14385011BQL004004207710010    09800000001000061C0           08001A0100E00000810501
14395980BTA098098007690109000009800000000000021NU           1100140100E00000710579
14405770CAL002002207720108    00200000000000021CU484CALI    76001B0706E000008B0577
14435981BTA098098299960100    09810000000000021BU           1100140100E00000710598
14535781BUC004004299960001    09800000000000021BU   BMANGA  1100110713E00000810578
14575781BUC004004299960001    09800000000000021BU   BMANGA  1100110713E00000810578
14605770CAL002002299960001    00200000000000021CU484CALI    76001B0706E000008B0577
14615980BTA098098099960101000009800000000000021NU           1100140100E00000740501
14725980BTA098098007690108000009800000000000021NU           1100140100E00000710501
14735981IBG004004207690010    09800000001000061C0           7300140100E00000810501
14745981ARM004004207680000    09800000001000061C0           63001C0100E00000810501
14755981CGN004004207710000    09800000001000061C0           13001A0100E00000810501
14765981PER004004207680000    09800000006000061C0           6600130100E00000810501
14775981BTA004004207690000    09800000006100061C0           1100140100E00000810501
14785980BTA098098099960001000009800000000000021NU           1100140100E00000740501
14815980BTA098098099960101000009800000000000021NU           1100140100E00000740501
14825980BTA098098007690108000009800000000000021NU           1100140100E00000710501
14835750MED003003207680108    00300000000000021NU434MEDELLIN05001C0701E000008C0575
14895801ESP098098299960000    09800000000000001BT           7326840296E00000710580
14915760BQL001001299960001    00100000000000021CU170BQUILLA 08001A0707E000008A0576
14925461BCN098098299960000    09810000000000001BU           20060A0183E00000710546
14935750MED003003299960001    00300000000000021NU434MEDELLIN05001C0701E000008C0575
14945021CAL098098299960000    09800000000000001BA           19698B0706E00000710502
14955030MED003003099960000    00300000000000001NU434MEDELLIN05088C0701E00000810503
14965981BTA098098299960000    09800000000000001BT           2589940100E00000710501
14975020FLO000000099960000    00000000000000001NU           1800140312E00000740534
14985021CAL098098299960000    09800000000000001BU           76520B0706E00000710502
14995020CAL002002207720010    00210000000000024CU           76001B0706E000008A0502
15005030MED003000006800000    00010000000000024NU           05001C0701000000000503
15015960VLL098098205710100    09810000000000024CU           5000140351E00000740596
15025791ARM098098207680000    09800000000000024BU           6300130715E00000740512
15035030MED003000006800050    00050000000000024NU           05001C0701000000000503
15055121PER003012007680008    00300000000000021CU468MEDELLIN66001C0701E00000730512
15065791MNZ098098206800000    09810000000000024BU           1700130715E00000740512
15075791PER098098206800000    09800000000000024BU           6600130715E00000740512
15095030MED003000007680050    00050000000000024NU           05001C0701000000000503
15155791PER098098207680000    09800000000000024BU           6600130715E00000740512
15175791BTA098098207690000    09810000000000024BU           1100140100E00000740579
15215980IBG003098205710010    09810000000000024BU           7300140100E00000720501
15225980IBG098098207690010    09810000000000024BU           7300140100E00000720501
15235980NEI098098207720110    09810000000000024BU           4100140100E00000720501
15275031MED003003207680050    00350000000000024CU434MEDELLIN05001C0701E00000800503
15335960VLL098098207690100    09810000000000024CU           5000140351E00000740596
15365791BTA098098205710000    09810000000000024BU           1100140100E00000740579
15375760BQL001001207710008    00100000000000021CU170BQUILLA 08001A0707E000008A0576
15475791BTA098098207690000    09810000000000024BU           1100140100E00000740579
15495750MED003003299960001    00300000000000021NU434MEDELLIN05001C0701E000008C0575
15515791BTA098098205710000    09810000000000024BU           1100140100E00000740579
15555791BTA098098205530104    09810000000000027BU           1100140100E00000740501
15575031MED003003207680050    00350000000000024CU434MEDELLIN05001C0701E00000800503
15585791BTA098098205710000    09810000000000024BU           1100140100E00000740579
15595791BTA098098205530104    09800000000000027BT           1100140100E00000740501
15615791BTA098098205530104    09800000000000027BT           1100140100E00000740501
15635791BTA098098205530104    09800000000000027BT           1100140100E00000740501
15675791BTA098098206310104    09800000000000027BT           1100140100E00000740501
15695791BTA098098207690000    09810000000000024BU           1100140100E00000740579
15705750MED003003299960001    00300000000000021NU434MEDELLIN05001C0701E000008C0575
15735030MED003003007680008000000300000000000021NU434MEDELLIN05001C0701E00000810503
15775031MED003003206800050    00350000000000024CU434MEDELLIN05001C0701E00000800503
15795981BTA098098205450104    09800000000000027B0           1100140100E00000740598
15815980BTA098098099960101000009800000000000021NU           1100140100E00000740501
15905791BTA098098207690000    09810000000000024BU           1100140100E00000740579
15915791BTA098098207690000    09810000000000024BU           1100140100E00000740579
15945791BTA098098207690000    09810000000000024BU           1100140100E00000740579
15955020CAL000000007720060    09810000000000024NU           76001B0706E00000710502
15965020CAL000000007720060    09810000000000024NU           76001B0706E00000710502
15975020CAL000000007720060    09810000000000024NU           76001B0706E00000710502
15985020CAL000000007720060    09810000000000024NU           76001B0706E00000710502
15995020CAL000000007720060    09810000000000024NU           76001B0706E00000710502
16005020CAL000000007720060    09810000000000024NU           76001B0706E00000710502
16015020CAL000000007720060    09810000000000024NU           76001B0706E00000710502
16025020CAL000000007720060    09810000000000024NU           76001B0706E00000710502
16035020CAL000000007720060    09810000000000024NU           76001B0706E00000710502
16045020CAL000000007720060    09810000000000024NU           76001B0706E00000710502
16055020CAL000000007720060    09810000000000024NU           76001B0706E00000710502
16065020CAL000000007720060    09810000000000024NU           76001B0706E00000710502
16075020CAL000000007720060    09810000000000024NU           76001B0706E00000710502
16085020CAL000000007720060    09810000000000024NU           76001B0706E00000710502
16095030MED000000007680060    09810000000000024NU           05001C0701E00000710503
16105030MED000000007680060    09810000000000024NU           05001C0701E00000710503
16115030MED000000007680060    09810000000000024NU           05001C0701E00000710503
16125030MED000000007680060    09810000000000024NU           05001C0701E00000710503
16135030MED000000007680060    09810000000000024NU           05001C0701E00000710503
16145030MED000000007680060    09810000000000024NU           05001C0701E00000710503
16155030MED000000007680060    09810000000000024NU           05001C0701E00000710503
16165030MED000000007680060    09810000000000024NU           05001C0701E00000710503
16175030MED000000007680060    09810000000000024NU           05001C0701E00000710503
16185030MED000000007680060    09810000000000024NU           05001C0701E00000710503
16195030MED000000007680060    09810000000000024NU           05001C0701E00000710503
16205030MED000000007680060    09810000000000024NU           05001C0701E00000710503
16215030MED000000007680060    09810000000000024NU           05001C0701E00000710503
16225030MED000000007680060    09810000000000024NU           05001C0701E00000710503
16265981BTA098098205450104    09800000000000027B0           1100140100E00000740598
16355791BTA098098205710000    09810000000000024BU           1100140100E00000740579
16365791BTA004004207690000    09800000006400061C0           2589940100E00000810579
16375021PER004004207680010    09800000006400061C0           6600130100E00000810502
16385791BTA004004207690010    09800000006400061C0           2521440100E00000810579
16395791BTA004004207690010    09800000006400061C0           2589940100E00000810579
16405021CAL004004207720010    09800000006400061C0           76520B0100E00000810502
16415791BTA098098207690000    09810000000000024BU           1100140100E00000740579
16425791BTA098098207690000    09810000000000024BU           1100140100E00000740579
16435791DUI004004207690010    09800000006400061C0           1523840100E00000810579
16445791BTA004004207690010    09800000006400061C0           2547340100E00000810579
16455030MED002002207680010    00200000006400021C0           05001C0100E00000800503
16465011CGN004004207710010    09800000006400061C0           13001A0100E00000810571
16475791BTA098098206310103    09800000000000027B0           1100140100E00000740501
16485030MED002002207680010    00200000006400021C0           05001C0100E00000800503
16495981VLL004004207690010    09800000006400061C0           5000140100E00000810501
16505791BTA098098205710000    09810000000000024BU           1100140100E00000740579
16515791IBG004004207690010    09800000006400061C0           7300140100E00000810579
16525041SCL004004207710010    09800000006400061C0           70001A0100E00000810504
16535420YOP002002207730010    00200000006400021C0           8500110100E00000800542
16545981ARC004004207730010    09800000006400061C0           8100110100E00000810501
16575760BQL001001299960001    00100000000000021CU170BQUILLA 08001A0707E000008A0576
16585791BTA098098207690000    09810000000000024BU           1100140100E00000740579
16615791BTA098098207690000    09810000000000024BU           1100140100E00000740579
16625760BQL001001299960001    00100000000000021CU170BQUILLA 08001A0707E000008A0576
16645031MED003003206800050    00350000000000024CU434MEDELLIN05001C0701E00000800503
16735981BTA098098208790104    09800000000000027BT           1100140100E00000740598
16755770CAL002002299960001    00200000000000021CU484CALI    76001B0706E000008B0577
16815791BTA098098205710100    09810000000000024BU           1100140100E00000740579
16825791BTA098098205710000    09810000000000024BU           1100140100E00000740579
16835791BTA098098207690000    09810000000000024BU           1100140100E00000740579
16845791BTA098098205710000    09810000000000024BU           1100140100E00000740579
16855791BTA098098207690000    09810000000000024BU           1100140100E00000740579
16865791BTA098098205710000    09810000000000024BU           1100140100E00000740579
16875791BTA098098205710100    09810000000000024BU           1100140100E00000740579
16885791BTA098098205710100    09810000000000024BU           1100140100E00000740579
16895791BTA098098207690000    09810000000000024BU           1100140100E00000740579
16905791BTA098098207690000    09810000000000024BU           1100140100E00000740579
16915791BTA098098205710000    09810000000000024BU           1100140100E00000740579
16955980BTA098098099960101000009800000000000021NU           1100140100E00000740501
16965781BUC004004207730008    09800000000000021BU   BMANGA  6800110713E00000810578
16985981BTA098098207690118    09810000000000021BU           1100140100E00000810579
17085791BTA098098205710000    09810000000000024BU           1100140100E00000740579
17095791BTA098098207690109    09800000000000021BU           1100140100E00000740579
17105791BTA098098207690109    09800000000000021BU           1100140100E00000740579
17115750MED003003207680008    00300000000000021NU434MEDELLIN05001C0701E000008C0575
17125750MED003003207680009    00300000000000021NU434MEDELLIN05001C0701E000008C0575
17130000IPL002002203740000    00200000000000000P0374CALI    52356B0100E000008B0000
17145750MED003003207680009    00300000000000021NU434MEDELLIN05001C0701E000008C0575
17175750MED003003207680009    00300000000000021CU434MEDELLIN05001C0701E000008C0575
17185750MED003003207680009    00300000000000021CU434MEDELLIN05001C0100E000008C0575
