00000031200000BOFICINA PRINCIPAL          4000001000010100OPERA/NES CENT/ZADAS42130001BOGOTA    02
00001000000000NEL MUNA                    4000001000010100OPERA/NES CENT/ZADAS03020011BOGOTA    00
00002030400000BI.S.S. CAN                 4000001000010100OPERA/NES CENT/ZADAS42260521BOGOTA    02
00003031200000BOFICINA PRINCIPAL          4000001000010100OPERA/NES CENT/ZADAS42110001BOGOTA    02
00004030200000BCALLE 53 EXITO             4000001000090100OPERA/NES CENT/ZADAS21050041BOGOTA    02
00005030500000BSUBA                       4000001000010100OPERA/NES CENT/ZADAS42020391BOGOTA    02
00006030500000BCEDRITOS                   4000001000010100OPERA/NES CENT/ZADAS42010621BOGOTA    02
00007030500000BANTIGUO COUNTRY            4000001000010100OPERA/NES CENT/ZADAS42030401BOGOTA    02
00008030900000BEL CHICO                   4000001000010100OPERA/NES CENT/ZADAS42030391BOGOTA    02
00009030600000BCALLE 100                  4000001000010100OPERA/NES CENT/ZADAS42070391BOGOTA    02
00010030800000BAVENIDA CARACAS            4000001000010100OPERA/NES CENT/ZADAS14050101BOGOTA    02
00011320400000PBACATA FUNZA               4000001000050100OPERA/NES CENT/ZADAS08060111FUNZA     00
00012030700000BPASADENA                   4000001000010100OPERA/NES CENT/ZADAS42100391BOGOTA    02
00013000200000CGALAN                      1000001000160168B/MEJA              06040131B/MEJA    00
00014030500000BLOS HEROES                 4000001000010100OPERA/NES CENT/ZADAS42080401BOGOTA    00
00015030300000BMALL PLAZA NQS             4000001000090100OPERA/NES CENT/ZADAS42110151BOGOTA    02
00016320300000PCOTA                       4000001000010100OPERA/NES CENT/ZADAS02086601BOGOTA    02
00017031100000BCENTRO URBANO ANTONIO NARIN4000001000010100OPERA/NES CENT/ZADAS14010171BOGOTA    02
00018030600000BZONA INDUSTRIAL MONTEVIDEO 4000001000010100OPERA/NES CENT/ZADAS42180181BOGOTA    02
00019030700000BBARRIO RESTREPO            4000001000010100OPERA/NES CENT/ZADAS42200581BOGOTA    02
00020030600000BSAN JOSE                   4000001000010100OPERA/NES CENT/ZADAS14060201BOGOTA    02
00021030600000BVEINTE DE JULIO            4000001000020100OPERA/NES CENT/ZADAS42190581BOGOTA    02
00022030700000BBARRIO VENECIA             4000001000020100OPERA/NES CENT/ZADAS42160171BOGOTA    02
00023030200000BOF CC NUESTRO BOGOTA       4000001000090100OPERA/NES CENT/ZADAS42220231BOGOTA    02
00024030500000BOF CC DIVER PLAZA ALAMOS   4000001000020100OPERA/NES CENT/ZADAS42250171BOGOTA    02
00025030200000BPLAZA DE LAS AMERICAS      4000001000090100OPERA/NES CENT/ZADAS42210171BOGOTA    02
00026030200000BSANTUARIO VEINTE DE JULIO  4000001000090100OPERA/NES CENT/ZADAS42150261BOGOTA    02
00027030600000BCARVAJAL                   4000001000020100OPERA/NES CENT/ZADAS14060271BOGOTA    02
00028030600000BCALLE 13 CRA 30            4000001000020100OPERA/NES CENT/ZADAS14030281BOGOTA    00
00030030200000BGAITANA                    4000001000090100OPERA/NES CENT/ZADAS42020301BOGOTA    02
00032030700000BCRA.24 #26-01 COLSUBSIDIO  4000001000020100OPERA/NES CENT/ZADAS42170621BOGOTA    02
00033031600000BANDES                      4000001000020100OPERA/NES CENT/ZADAS42120331BOGOTA    02
00034030700000BPARQUE SANTANDER           4000001000020100OPERA/NES CENT/ZADAS42130521BOGOTA    02
00035030700000BAVENIDA 19                 4000001000020100OPERA/NES CENT/ZADAS42110521BOGOTA    02
00036030700000BCRA 10 CALLE 17            4000001000020100OPERA/NES CENT/ZADAS42110361BOGOTA    02
00037030600000BCRA 47                     4000001000020100OPERA/NES CENT/ZADAS42150371BOGOTA    00
00038030800000BAVENIDA CHILE              4000001000020100OPERA/NES CENT/ZADAS42090401BOGOTA    02
00039030800000BPARQUE EL VIRREY           4000001000020100OPERA/NES CENT/ZADAS42030391BOGOTA    00
00040031100000BCHAPINERO                  4000001000020100OPERA/NES CENT/ZADAS42080401BOGOTA    02
00041030400000BCALLE 54 N.10-73           4000001000030100OPERA/NES CENT/ZADAS42110411BOGOTA    02
00043030500000BUNIVERSIDAD JAVERIANA      4000001000030100OPERA/NES CENT/ZADAS42080401BOGOTA    02
00044030700000BI L A R C O                4000001000030100OPERA/NES CENT/ZADAS42090391BOGOTA    02
00045030600000BCENTRAL DE ABASTOS         4000001000030100OPERA/NES CENT/ZADAS42210371BOGOTA    02
00046030500000BCIUDAD SALITRE             4000001000030100OPERA/NES CENT/ZADAS42260331BOGOTA    02
00047031200000BUNICENTRO                  4000001000030100OPERA/NES CENT/ZADAS42040391BOGOTA    00
00049030600000BOFICINA 7-72               4000001000030100OPERA/NES CENT/ZADAS42090491BOGOTA    02
00050030300000BEL NOGAL                   4000001000010100OPERA/NES CENT/ZADAS42080501BOGOTA    00
00051030400000BLAS AGUAS                  4000001000030100OPERA/NES CENT/ZADAS42160331BOGOTA    02
00052030600000BCENTRAL SAN MARTIN         4000001000030100OPERA/NES CENT/ZADAS42140521BOGOTA    02
00054030600000BPALOQUEMAO                 4000001000030100OPERA/NES CENT/ZADAS42150281BOGOTA    02
00055030600000BCALLE 9 CRA 34             4000001000030100OPERA/NES CENT/ZADAS42240551BOGOTA    00
00056030400000BCARRERA 11 # 68-09         4000001000030100OPERA/NES CENT/ZADAS02030561BOGOTA    02
00057030600000BRICAURTE                   4000001000030100OPERA/NES CENT/ZADAS42140571BOGOTA    02
00058030700000BSAN AGUSTIN                4000001000030100OPERA/NES CENT/ZADAS42170581BOGOTA    02
00059320100000PMESITAS DEL COLEGIO        4000001000180100OPERA/NES CENT/ZADAS08030591M/COLEGIO 34
00060030600000BKENNEDY                    4000001000030100OPERA/NES CENT/ZADAS42210371BOGOTA    02
00061320700000BCENTRO INDUSTRIAL CAZUCA   4000001000040100OPERA/NES CENT/ZADAS14020581BOGOTA    00
00062030900000BSAN DIEGO                  4000001000040100OPERA/NES CENT/ZADAS41130621BOGOTA    02
00063030600000BOF RYP CT CCIAL ISERRA 100 4000001000040100OPERA/NES CENT/ZADAS02030631BOGOTA    00
00064320200000PCENTRO CCIAL EL PORTICO    4000001000110100OPERA/NES CENT/ZADAS08030641FACATATIVA02
00065320200000PLOS COMUNEROS ZIPAQUIRA    4000001000180100OPERA/NES CENT/ZADAS08060651ZIPAQUIRA 34
00066320200000PPACHO                      4000001000180100OPERA/NES CENT/ZADAS08060661PACHO     34
00067320100000PTABIO                      4000001000180100OPERA/NES CENT/ZADAS08060671TABIO     34
00068030600000BSAN VICTORINO              4000001000040100OPERA/NES CENT/ZADAS14050681BOGOTA    02
00069320200000PPLAZA NEIRA UBATE          4000001000180100OPERA/NES CENT/ZADAS07020691UBATE     43
00070190400000CPQU BOLIVAR SANTA MARTA    A000001000170564SANTA MARTA         06060701STA. MARTA14
00071030500000BAVENIDA 6 CARRERA 22       4000001000040100OPERA/NES CENT/ZADAS14050681BOGOTA    00
00072030700000BEL LAGO - BOGOTA           4000001000040100OPERA/NES CENT/ZADAS02050721BOGOTA    02
00073030500000BCENTRO COMERCIAL EL EDEN   4000001000040100OPERA/NES CENT/ZADAS42230731BOGOTA    02
00074230200000CAV LAS PE ITAS             A000001000170592SINCELEJO           06080741SINCELEJO 25
00075030900000BGALERIAS                   4000001000040100OPERA/NES CENT/ZADAS42080751BOGOTA    02
00076000400000CCTRO CCIAL CENTRO NORTE    1000001000160616TUNJA               07010761TUNJA     12
00077030500000BSANTA TERESITA             4000001000040100OPERA/NES CENT/ZADAS42130751BOGOTA    02
00078030600000BMETROPOLIS                 4000001000040100OPERA/NES CENT/ZADAS42070781BOGOTA    00
00079030500000BLA CLARITA                 4000001000040100OPERA/NES CENT/ZADAS42250751BOGOTA    00
00080030400000BSANTA BARBARA ALTA         4000001000040100OPERA/NES CENT/ZADAS42040751BOGOTA    02
00081030800000BSIETE DE AGOSTO            4000001000050100OPERA/NES CENT/ZADAS42070811BOGOTA    02
00082030600000BAVDA CALLE 68              4000001000050100OPERA/NES CENT/ZADAS42070751BOGOTA    02
00083030400000BAVENIDAD CIUDAD DE QUITO   4000001000050100OPERA/NES CENT/ZADAS42220751BOGOTA    00
00084030400000BAVENIDAD PEPE SIERRA       4000001000050100OPERA/NES CENT/ZADAS42040751BOGOTA    02
00085030300000BCENTRO COMERCIAL SANTAFE   4000001000050100OPERA/NES CENT/ZADAS42060391BOGOTA    02
00086030500000BCENTRO C/CIAL BULEVAR NIZA 4000001000050100OPERA/NES CENT/ZADAS42100401BOGOTA    02
00087020300000CCALLE 72                   A000001000050707CTRO.OPE.REG.COSTA  06070871B/QUILLA  03
00088250200000PCTRO COMERCIAL VIVA WUAJIRAA000001000160530RIOACHA             06050881RIOACHA   00
00089030400000BAUTOPISTA DEL SUR          4000001000050100OPERA/NES CENT/ZADAS42170891BOGOTA    02
00091240300000CLOPERENA VALLEDUPAR GUAJIRAA000001000180628VALLEDUPAR          06020911VALLEDUPAR36
00092030700000BFONTIBON                   4000001000050100OPERA/NES CENT/ZADAS42250371BOGOTA    02
00093320700000PFUNZA                      4000001000050100OPERA/NES CENT/ZADAS08060371FUNZA     00
00094320600000PMOSQUERA                   4000001000050100OPERA/NES CENT/ZADAS08060371MOSQUERA  00
00095030400000BLAS AMERICAS               4000001000050100OPERA/NES CENT/ZADAS42140951BOGOTA    02
00096020200000CDISTRITO 90                A000001000150707CTRO.OPE.REG.COSTA  42320961B/QUILLA  03
00097060200000CTRO COMERCIAL MALL PLAZA   A000001000080204CARTAGENA           06010971CARTAGENA 00
00098020200000CCENTRO CIVICO BARRANQUILLA A000001000150707CTRO.OPE.REG.COSTA  42340981B/QUILLA  03
00099220200000PARIARI GRANADA             4000001000120350GRANADA             08050991GRANADA   13
00100000000000NGCIA OPERATIVA CONTABLE    4000001000060100OPERA/NES CENT/ZADAS00091001BOGOTA    00
00101020700000CCENTRO NELMAR              A000001000070707CTRO.OPE.REG.COSTA  42341701B/QUILLA  03
00102030600000BAVENIDA PRIMERA            4000001000060100OPERA/NES CENT/ZADAS42161021BOGOTA    02
00103030700000BCIUDAD MONTES              4000001000060100OPERA/NES CENT/ZADAS42201031BOGOTA    02
00104110400000PABEJORRAL                  C000001000060104ABEJORRAL           04024341ABEJORRAL 00
00105050200000CVERSALLES                  B000001000080706CENT.OPER.REG.OCCIDE21011051PALMIRA   06
00106030400000BCENTRO INTERNACIONAL       4000001000060100OPERA/NES CENT/ZADAS42131061BOGOTA    02
00107030300000BGRAN SAN VICTORINO         4000001000060100OPERA/NES CENT/ZADAS42121071BOGOTA    02
00108220500000PACACIAS                    4000001000060351V/CENCIO            08051081ACACIAS   13
00109050200000CINEM CALI                  B000001000080706CENT.OPER.REG.OCCIDE05031091CALI      06
00110050200000CPUBENZA FLORIDA            B000001000080706CENT.OPER.REG.OCCIDE05011101JAMUNDI   06
00111050100000CSANTANDER DE QUILICHAO     B000001000080706CENT.OPER.REG.OCCIDE04031111JAMUNDI   06
00112030700000BTERMINAL DE TRANSPORTES    4000001000060100OPERA/NES CENT/ZADAS42211121BOGOTA    02
00113150200000CCTRO COMERCIAL BUGA PLAZA  B000001000080188BUGA                04081131BUGA      30
00114110700000CCENTRAL DE ABASTOS - MEDELLC000001000060701CENT.OPRA.REG.ANTIOQ42541141MEDELLIN  08
00115030200000BAVENIDA 15 CALLE 106       4000001000180100OPERA/NES CENT/ZADAS02041151BOGOTA    02
00116240400000PAGUACHICA                  1000001000060116AGUACHICA           06041161AGUACHICA 00
00117041100050CCTRO SERVICIOS PYME B/MANGA1000001000080713CTRO OPE REG ORIENTE09071171B/MANGA   00
00118110300000CAVENIDA COLOMBIA           C000001000060701CENT.OPRA.REG.ANTIOQ04031181MEDELLIN  08
00119050300000CCENTRO PLAZA CAICEDO       B000001000080706CENT.OPER.REG.OCCIDE05021191CALI      06
00120320200000PAGUAZUL                    1000001000060120AGUAZUL             08015961AGUAZUL   00
00121140500000CPASTO PLAZA                B000001000150466PASTO               04031211PASTO     18
00122030400000BCENTRO INTERNACIONAL       4000001000090100OPERA/NES CENT/ZADAS14031221BOGOTA    02
00123030500000BUNISUR                     4000001000070100OPERA/NES CENT/ZADAS42191231BOGOTA    00
00124320200000PANOLAIMA                   4000001000070100OPERA/NES CENT/ZADAS08033041ANOLAIMA  00
00125020300000COF EDF BCO DE BTA BQUILLA  A000001000070707CTRO.OPE.REG.COSTA  42321251B/QUILLA  00
00126050200000CEL TREN CALI               B000001000080706CENT.OPER.REG.OCCIDE05031261CALI      06
00127030200000BSAN CRISTOBAL              4000001000090100OPERA/NES CENT/ZADAS02011271BOGOTA    02
00128110400000PCC NUESTRO URABA           C000001000070128APARTADO            04074341APARTADO  00
00129030300000BVENECIA CENTRAL            4000001000090100OPERA/NES CENT/ZADAS14021291BOGOTA    02
00130030200000BTRINIDAD GALAN             4000001000090100OPERA/NES CENT/ZADAS42141301BOGOTA    02
00131030400000BCENTR CIAL PALATINO        4000001000090100OPERA/NES CENT/ZADAS42051311BOGOTA    02
00132030200000BKENNEDY CARAVANA           4000001000090100OPERA/NES CENT/ZADAS42211321BOGOTA    02
00133110200000CCTRO CIAL SAN FERNANDO PLAZC000001000090701CENT.OPRA.REG.ANTIOQ42521332MEDELLIN  00
00134050500000CCC LA ESTACION CALI        B000001000070706CENT.OPER.REG.OCCIDE42451341CALI      06
00135030200000BLA VICTORIA SUR ORIENTE    4000001000090100OPERA/NES CENT/ZADAS42181351BOGOTA    02
00136030000000COFICINA BARBOSA            1000001000000136BARBOSA             08011361BARBOSA   00
00137340500000CARAUCA                     1000001000070137ARAUCA              06061371ARAUCA    00
00138011000000CARMENIA                    3000001000070138ARMENIA             04041381ARMENIA   16
00139030200000BPATIO BONITO               4000001000090100OPERA/NES CENT/ZADAS14061391BOGOTA    02
00140090300000PLERIDA                     4000001000070140LERIDA              04063701LERIDA    00
00141160300000CBANCO DE BOGOTA PINARES    3000001000070715CTRO.OPER.PEREIRA   04051411PEREIRA   00
00142050400000CCENTRO CIAL JARDIN PLAZA   B000001000070706CENT.OPER.REG.OCCIDE42391421CALI      00
00143030200000BBOSA                       4000001000090100OPERA/NES CENT/ZADAS42161431BOGOTA    02
00144110400000CCARRERA 70                 C000001000070701CENT.OPRA.REG.ANTIOQ42481441MEDELLIN  00
00145030200000BSANTA HELENITA             4000001000090100OPERA/NES CENT/ZADAS02081451BOGOTA    02
00146050400000CPARQUE VERSALLES CALI      B000001000070706CENT.OPER.REG.OCCIDE42461461CALI      00
00148120200000PCERROMATOSO                A000001000070436MONTELIBANO         06031481MONTELIB  44
00149320100000PVILLAPINZON                4000001000180100OPERA/NES CENT/ZADAS08021491VILLA/ZON 34
00150030200000BRINCON SUBA                4000001000090100OPERA/NES CENT/ZADAS02061501BOGOTA    02
00151020700000CCENTRO NELMAR              A000001000070707CTRO.OPE.REG.COSTA  42341701B/QUILLA  03
00152031200000NREDES EXTER OPER BANCARIAS 4000001000010100OPERA/NES CENT/ZADAS09091521BOGOTA    00
00153110400000CAVENIDA DE GREIFF          C000001000070701CENT.OPRA.REG.ANTIOQ04034341MEDELLIN  08
00154110200000CS.ANTONIO DEL PRADO        C000001000090701CENT.OPRA.REG.ANTIOQ42511541MEDELLIN  00
00155110300000CORIENTE RIONEGRO           C000001000090701CENT.OPRA.REG.ANTIOQ04051551MEDELLIN  00
00156110200000CPLAZA ARRAYANES            C000001000090701CENT.OPRA.REG.ANTIOQ42541561MEDELLIN  00
00157040400000CSOTOMAYOR                  1000001000070713CTRO.OPE.REG.ORIEN  42371571B/MANGA   04
00158050500000CCENTRO CIAL DEL NORTE      B000001000070706CENT.OPER.REG.OCCIDE05034841CALI      00
00159050300000CCENTRO EMPRESA             B000001000070706CENT.OPER.REG.OCCIDE42461591CALI      06
00160030100000BAVENIDA BOYACA             4000001000090100OPERA/NES CENT/ZADAS42221601BOGOTA    02
00161030600000BCIUDAD TUNAL               4000001000080100OPERA/NES CENT/ZADAS42171611BOGOTA    02
00162040500000CAV. LIBERTADOR             1000001000080713CTRO.OPE.REG.ORIEN  42381841B/MANGA   00
00164050200000CENTRO COMERCIAL CALIMA     B000001000080706CENT.OPER.REG.OCCIDE42451641CALI      06
00165030600000BAUTOPISTA EL DORADO        4000001000080100OPERA/NES CENT/ZADAS42211651BOGOTA    02
00166050600000CPARQUE SAN NICOLAS         B000001000080706CENT.OPER.REG.OCCIDE42434841CALI      06
00167111000000POFIC REC Y PAGO BELLO      C000001000080701CENT.OPRA.REG.ANTIOQ04051671BELLO     08
00168290800000PBARRANCABERMEJA            1000001000080168BARRANCABERMEJA     06041681B/MEJA    00
00170021100000CBARRANQUILLA               A000001000080707CTRO.OPE.REG.COSTA  42341701B/QUILLA  03
00171030200000BCARRERA 19 AV PRIMERO MAYO 4000001000090100OPERA/NES CENT/ZADAS42201711BOGOTA    02
00172110300000COFICINA CC PUNTO CLAVE     C000001000080701CENT.OPRA.REG.ANTIOQ42521721MEDELLIN  08
00173020900000CBOULEVARD 54               A000001000080707CTRO.OPERA.REG.COSTA42331701B/QUILLA  03
00174030200000BSANTA LUCIA                4000001000090100OPERA/NES CENT/ZADAS42151741BOGOTA    02
00175140100000CBARRIO LAS LUNAS           B000001000150466OFI.REMOTA.PASTO    04034661PASTO     18
00178110700000PBELLO                      C000001000080701CENT.OPRA.REG.ANTIOQ42474341BELLO     08
00179320300000PCC CASABLANCA              4000001000180100OPERA/NES CENT/ZADAS08061791MADRID    34
00180051000000CCALI                       B000001000080706CENT.OPER.REG.OCCIDE42431801CALI      06
00181050100000CPUERTO TEJADA              B000001000080706CENT.OPER.REG.OCCIDE04031811PTO TEJADA06
00182060300000CEDF BCO DE BTA BOCAGRANDE  A000001000080204CARTAGENA           06012041CARTAGENA 00
00183240300000PBOSCONIA (CESAR)           A000001000080183BOSCONIA            06021831BOSCONIA  00
00184041100000CBUCARAMANGA                1000001000080713CTRO.OPE.REG.ORIEN  42381841B/MANGA   04
00185030200000BCALLE 63 SIETE DE AGOSTO   4000001000090100OPERA/NES CENT/ZADAS02031851BOGOTA    02
00186351000000PVISTAMAR BUENAVENTURA      B000001000080186BUENAVENTURA        04081861B/VENTURA 22
00187020300000CBUENAVISTA                 A000001000050707CTRO.OPE.REG.COSTA  42321871B/QUILLA  03
00188151000000PBUGA                       B000001000080188BUGA                04081881BUGA      30
00190010300000PCALARCA                    3000001000080138ARMENIA             04041901CALARCA   00
00191031100000CC.C TITAN                  4000001000080100OPERA/NES CENT/ZADAS42241911BOGOTA    00
00193320100000PPOLICARPA GUADUAS          4000001000050100GUADUAS             08043561GUADUAS   00
00194030200000BTEJAR                      4000001000090100OPERA/NES CENT/ZADAS42241941BOGOTA    02
00195000000000COFICINA PREMIUM RUITOQUE   1000000000000713CTRO.OPE.REG.ORIENTE37061951FLORIDBLCA22
00196020400000CLA PAZ - CRA 40 # 32-15    A000001000080707CTRO.OPE.REG.COSTA  06071701B/QUILLA  03
00197030100000BCHOACHI                    4000001000090100OPERA/NES CENT/ZADAS08031971BOGOTA    02
00198220600000CUNICENTRO VILLAVICENCIO    4000001000080351CTR.V/CENCIO        08081981V/CENCIO  00
00199030200000BQUIRIGUA                   4000001000090100OPERA/NES CENT/ZADAS02081991BOGOTA    02
00200030400000PBASE MIL.SAN JOSE GUAVIARE 4000001000130517SAN JOSE DEL GUAVIAR08082001SAN JOSE G00
00201280300000CGRAN PLAZA FLORENCIA       4000001000110312OPERA/NES CENT/ZADAS08072011FLORENCIA 22
00202130200000CDONCELLO                   4000001000140202OPERA/NES CENT/ZADAS08072021DONCELLO  31
00203040500000CCANAVERAL                  1000001000090713CTRO.OPE.REG.ORIEN  42361841B/MANGA   04
00204061000000CCARTAGENA                  A000001000090204CARTAGENA           06012041CARTAGENA 07
00205030300000BQUINTA CAMACHO             4000001000090100OPERA/NES CENT/ZADAS42112051BOGOTA    02
00206360600000PCARTAGO                    3000001000090206CARTAGO             04042061CARTAGO   15
00207050400000CCAVASA                     B000001000090706CENT.OPER.REG.OCCIDE42414841CALI      00
00208030100000BC.C. MAZUREN               4000001000090100OPERA/NES CENT/ZADAS42062081BOGOTA    02
00209050400000COFIC REC Y PAGO UNICALI    B000001000090706CENT.OPER.REG.OCCIDE04042091CALI      00
00210070600000CCENTRAL DE TRANS. (CUCUTA) 1000001000090260CUCUTA              07052101CENTRAL T 00
00211320100000PGACHANCIPA                 4000001000180100OPERA/NES CENT/ZADAS08022111GACHANCIPA34
00212030200000BCASABLANCA                 4000001000090100OPERA/NES CENT/ZADAS42212121BOGOTA    02
00213130100000CNATAGAIMA                  4000001000140213NATAGAIMA           08042131NAT/GAIMA 31
00214110500000CCENTRO COMERC SAN DIEGO    C000001000090701CENT.OPRA.REG.ANTIOQ42534341MEDELLIN  00
00215000000000NGCIA OPER DESEMBO INGRALES 4000001000000100OPERA/NES CENT/ZADAS09002150BOGOTA    00
00216120500000PCERETE                     A000001000090438MONTERIA            06034381CERETE    00
00217110200000CCENTRO COMERCIAL OVIEDO    C000001000090701CENT.OPRA.REG.ANTIOQ42522171MEDELLIN  00
00218100200000CCTRO COMERCIAL CABLE PLAZA 3000001000140428MANIZALES           04052181MANIZALES 00
00219220700000COFIC REC Y PAGO VCENCIO    4000001000120351CTR.V/CENCIO        08012191V/CENCIO  13
00220190400000PCIENAGA (MAGD.)            A000001000090220CIENAGA             06055641CIENAGA   00
00221190300000CCENTRO COMERCIAL BUENAVISTAA000001000170564SANTA MARTA         06052211STA. MARTA14
00223030500000BCENTRO 93                  4000001000090100OPERA/NES CENT/ZADAS42062231BOGOTA    02
00224240400000PCODAZZI                    A000001000090224CODAZZI             06026281CODAZZI   00
00225110200000CBOULEVARD COMERCIAL MAYORCAC000001000090701CENT.OPRA.REG.ANTIOQ42512251MEDELLIN  00
00226050500000CCENTRO COMERCIAL UNICO     B000001000080706CENTRO OPERA. CALI  42452261CALI      00
00227030300000BRINCON DEL CHICO           4000001000090100OPERA/NES CENT/ZADAS02042271BOGOTA    02
00228030400000BCENTR CIAL PASEO SAN RAFAEL4000001000090100OPERA/NES CENT/ZADAS42062281BOGOTA    02
00229030100000BGRANADA CUNDINAMARCA       4000001000090100OPERA/NES CENT/ZADAS08032291BOGOTA    02
00230150300000PCENTRO COMERCIA LLANOGRANDEB000001000140706CENT.OPER.REG.OCCIDE42422301PALMIRA   32
00231320200000PSOLARES VILLETA            4000001000180100OPERA/NES CENT/ZADAS08032311VILLETA   00
00232110300000PCOPACABANA                 C000001000090701CENT.OPRA.REG.ANTIOQ04074341MEDELLIN  00
00233030500000BOFIC REC Y PAGO CORFERIAS  4000001000090100OPERA/NES CENT/ZADAS14032331BOGOTA    00
00234030200050BAMARILO                    4000001000010100OPERA/NES CENT/ZADAS03022341BOGOTA    00
00235190200000CCTRO COMERCIAL OCEAN MALL  A000001000170564SANTA MARTA         06052351STA. MARTA14
00236110200000CCTRO COMERCIAL LOS MOLINOS C000001000140701CENT.OPRA.REG.ANTIOQ42492361MEDELLIN  08
00237030300000BCTRO CCIAL PLAZA IMPERIAL  4000001000020100OPERA/NES CENT/ZADAS42022371BOGOTA    02
00238110200000PCENTRO CCIAL PLAZA DEL RIO C000001000070128APARTADO            04072381APARTADO  00
00239030200000PCENTRO CHIA                4000001000090100OPERA/NES CENT/ZADAS42012391BOGOTA    02
00240230300000PCOROZAL                    A000001000090240COROZAL             06012401COROZAL   00
00241031000000BOFIC REC Y PAGO CLL 73     4000001000020100OPERA/NES CENT/ZADAS02032411BOGOTA    02
00242190400000COFIC REC Y PAGO SANTA MARTAA000001000170564SANTA MARTA         06065641STA. MARTA14
00243110600000COFIC REC Y PAGO MEDELLIN   C000001000090701CENT.OPRA.REG.ANTIOQ04014341MEDELLIN  08
002441308000000CTRO CCIAL SAN PEDRO PLAZA 4000001000140442NEIVA               08042441NEIVA     31
00245030500000BOFIC REC Y PAGO BOGOTA CTRO4000001000020100OPERA/NES CENT/ZADAS14052451BOGOTA    02
00246030500000BOFIC REC Y PAGO BTA CHAPINE4000001000020100OPERA/NES CENT/ZADAS02022461BOGOTA    02
00247050800000COFIC REC Y PAGO CALI       B000001000080706CENTRO OPERA. CALI  05012471CALI      00
00248100500000COFIC REC Y PAGO MANIZALES  3000001000140428CTRO PAGOS MANIZALES04052481MANIZALES 09
00249050600000CCOSMOCENTRO                B000001000090706CENT.OPER.REG.OCCIDE42402491CALI      06
00250110400000CCARRERA BOLIVAR            C000001000090701CENT.OPRA.REG.ANTIOQ42534341MEDELLIN  08
00251160500000COFIC REC Y PAGO PEREIRA    3000001000100715CTRO.OPER.PEREIRA   04032511PEREIRA   00
00253040200000COFICINA GUARIN             1000001000080713CTRO.OPE.REG.ORIEN  42382531B/MANGA   00
00254050700000CCARRERA 8A                 B000001000090706CENT.OPER.REG.OCCIDE42432541CALI      06
00255090200000CCALLE CUARENTA             4000001000150370IBAGUE              04062551IBAGUE    11
00256050900000CBULEVAR DEL RIO CALI       B000001000090706CENT.OPER.REG.OCCIDE42434841CALI      06
00257030400000BOFIC REC Y PAGO W T CENTER 4000001000180100OPERA/NES CENT/ZADAS02030257BOGOTA    00
00259290100000COFICINA SABANA DE TORRES   1000001000080259SABANA DE TORRES    06042591SAB TORRES00
00260071300000CCUCUTA                     1000001000090260CUCUTA              06062601CUCUTA    17
00261030200000BCENTR CIAL MERCURIO        4000001000090100OPERA/NES CENT/ZADAS42192611BOGOTA    02
00263130200000CMELGAR                     4000001000140263OPERA/NES CENT/ZADAS08072631MELGAR    31
00264320500000PCHIA                       4000001000100100OPERA/NES CENT/ZADAS42016601CHIA      02
00265030200000BOFICINA MODELO NORTE       4000001000090100OPERA/NES CENT/ZADAS42252651BOGOTA    02
00266100400000PCHINCHINA                  3000001000100428MANIZALES           04054281CHINCHINA 00
00267110100000COFICINA LA CEJA            C000001000080701CENT.OPRA.REG.ANTIOQ04022671MEDELLIN  08
00268200500000PCHIQUINQUIRA               1000001000100268CHIQUINQUIRA        08026161CH/QUIRA  41
00269090100000CLIBANO                     4000001000120269LIBANO              04062691LIBANO    11
00270320300000PCHOCONTA                   4000001000100100OPERA/NES CENT/ZADAS08022701CHOCONTA  01
00272030500000BSOACHA                     4000001000090100OPERA/NES CENT/ZADAS42192721BOGOTA    02
00273170100000CMIRANDA                    B000001000150706CENT.OPER.REG.OCCIDE04012731MIRANDA   26
00274030200000BCENTR CIAL HAYUELOS        4000001000090100OPERA/NES CENT/ZADAS42222741BOGOTA    02
00275030200000BPORTAL DE LA 80            4000001000090100OPERA/NES CENT/ZADAS42242751BOGOTA    02
00276050300000CAVENIDA ROOSVELT           B000001000100706CENT.OPER.REG.OCCIDE42422761CALI      06
00277160200000CCUBA                       3000001000100715CTRO.OPER.PEREIRA   04052771PEREIRA   00
00278360300000PC.C NUESTRO CARTAGO        3000001000090206CENT.OPER.REG.OCCIDE04042781CARTAGO   15
00279160100000CDOSQUEBRADAS               3000001000100715CTRO.OPER.PEREIRA   04052791PEREIRA   00
00280000000000NDIRECCION GENERAL          4000001000100100OPERA/NES CENT/ZADAS00001280BOGOTA    00
00281100500000CMALL PLAZA MANIZALES       3000001000140428MANIZALES           04052811MANIZALES 09
00282260700000PDUITAMA                    1000001000100282DUITAMA             08012821DUITAMA   28
00283040100000CSAN FRANCISCO              1000001000080713CTRO.OPE.REG.ORIEN  42382831B/MANGA   04
00284190400000PEL BANCO (MAGD.)           A000001000100284EL BANCO (MAGD.)    06052841EL BANCO  00
00285110600000PEL CARMEN DE VIBORAL       C000001000100701EL CARMEN DE VIBORAL04024341EL CARMEN 00
00286060400000PEL CARMEN                  A000001000100286EL CARMEN           06012861EL CARMEN 00
00287150300000PEL CERRITO                 B000001000100706CENT.OPER.REG.OCCIDE04084581CERRITO   06
00288241100000CCC UNICENTRO VALLEDUPAR    A000001000180628VALLEDUPAR          06042881VALLEDUPAR22
00289150500000PCANDELARIA                 B000001000100706CENT.OPER.REG.OCCIDE04082891CANDELARIA32
00290160400000CAVENIDA 30 DE AGOSTO       3000001000100715CTRO.OPER.PEREIRA   04084681PEREIRA   00
00291030300000BCENTRO COMERCIAL ANDINO    4000001000020100OPERA/NES CENT/ZADAS42072911BOGOTA    02
00292020700000CEL PRADO                   A000001000100707CTRO.OPE.REG.COSTA  42331701B/QUILLA  03
00293021100000CCENTRO CIAL PARQUE ALEGRA  A000001000100707CTRO.OPE.REG.COSTA  42352931B/QUILLA  03
00294110600000PENVIGADO                   C000001000100701CENT.OPRA.REG.ANTIOQ42534341ENVIGADO  08
00295050400000PDAGUA                      B000001000170706CENT.OPER.REG.OCCIDE04082951DAGUA     06
00296090400000PESPINAL                    4000001000100296ESPINAL             04062961ESPINAL   20
00297160200000PSAN EUGENIO STA ROSA DE CAB3000001000170715CTRO.OPERA.PEREIRA  04012971STA. ROSA 00
00299030200000BC.C. GRAN ESTACION         4000001000090100OPERA/NES CENT/ZADAS42262991BOGOTA    02
00301040400000CLA TRIADA                  1000001000080713CTRO.OPE.REG.ORIEN  42383011B/MANGA   04
00302030200000BCOLINA OFFICE PARK         4000001000090100OPERA/NES CENT/ZADAS42033021BOGOTA    02
00303070500000CCUCUTA AV QUINTA           1000001000090260CUCUTA              06063031CUCUTA    17
00304320500000PFACATATIVA                 4000001000110100OPERA/NES CENT/ZADAS08033041FACATATIVA02
00305040200000CLA ISLA                    1000001000080713CTRO.OPE.REG.ORIEN  42373051B/MANGA   04
00306320300000POFIC REC Y PAGO TNAL CGA 804000001000010100OPERA/NES CENT/ZADAS02043061COTA      02
00308090200000PFLANDES                    4000001000110348GIRARDOT            08023081FLANDES   00
00309130200000PLA ESTACION CTR CIAL IBAGUE4000001000010370IBAGUE              04063091IBAGUE    00
00310021100000CBARANOA                    A000001000100707CTRO.OPE.REG.COSTA  42353101BARANOA   00
00311040100000CSAN GIL                    1000001000070311SAN GIL             06043111SAN GIL   04
00312280500000CFLORENCIA                  4000001000110312FLORENCIA           08073121FLORENCIA 37
00313100200000CCTRO COMERCIAL FUNDADORES  3000001000140428MANIZALES           04053131MANIZALES 00
00314150500000PFLORIDA                    B000001000110706CENT.OPER.REG.OCCIDE04084581PALMIRA   00
00315121100000CCENTRO COMERCIAL ALAMEDAS  A000001000140438MONTERIA            06033151MONTERIA  22
00316030700001BC.C. MILENIO PLAZA         4000001000000100OPERA/NES CENT/ZADAS42233161BOGOTA    00
00317030500002BOFIC REC Y PAGO BR RESTREPO4000001000000100OPERA/NES CENT/ZADAS14083171BOGOTA    22
00318250300000PFONSECA                    A000001000110318FONSECA             06026281FONSECA   00
00319041100000PFLORIDABLANCA              1000001000080713CTRO.OPE.REG.ORIEN  42363191FLORIDABL.00
00322110400000PFRONTINO                   C000001000110322FRONTINO            04074340FRONTINO  00
00323010100000PPORTAL DEL NORTE           3000001000010138ARMENIA             04043231CALARCA   00
00324110200000CANDES ANTIOQUIA            C000001000060701CENT.OPER.REG.ANTIOQ04023241MEDELLIN  08
00325030600000BOFICINA CC FONTANAR        4000001000090100OPERA/NES CENT/ZADAS42023251CHIA      00
00326190400000PFUNDACION (MAGDALENA)      A000001000110326FUNDACION (MAGDALENA06053261FUNDACION 00
00327030200000BNORMANDIA                  4000001000090100OPERA/NES CENT/ZADAS42223271BOGOTA    02
00328030100000BDIR VEHICUL Y ALIADOS RETAI4000001000090100OPERA/NES CENT/ZADAS21013281BOGOTA    02
00329030200000BC/TRO COMERCIAL ALTAVISTA  4000001000090100OPERA/NES CENT/ZADAS42183291BOGOTA    02
00330080400000PFUSAGASUGA                 4000001000110100OPERA/NES CENT/ZADAS08033481BOGOTA    00
00331030100000BUNIDAD DE LIBRANZA RED     4000001000090100OPERA/NES CENT/ZADAS31033311BOGOTA    02
00332060100000CBASE NAVAL DE CARTAGENA    A000001000090204CARTAGENA           06013321CARTAGENA 07
00333110200000CSAN CRISTOBAL ANTIOQUIA    C000001000060701CENT.OPER.REG.ANTIOQ04073331MEDELLIN  00
00334320200000PGACHETA                    4000001000110100OPERA/NES CENT/ZADAS08063341GACHETA   00
00335030200000BGCIA CENTRO DE SERV LEASING4000001000010100OPERA/NES CENT/ZADAS09073351BOGOTA    00
00336200300000PGARAGOA                    1000001000110336GARAGOA             08020001GARAGOA   00
00337030200000BOFICINA BARRIO CONTADOR    4000001000090100OPERA/NES CENT/ZADAS42043371BOGOTA    02
00338130300000PGARZON                     4000001000110338GARZON              08043381GARZON    00
00339260300000PSOATA                      1000001000100339SOATA               08013391SOATA     28
003401605468033OFICINA PREMIUM PEREIRA    3000001000000715CTRO.OPE.PEREIRA    37053401PEREIRA   22
00341230800000CPARQUE COMERCIAL GUACARI   A000001000170592SINCELEJO           06033411SINCELEJO 00
00342030200000BCARRERA 20 CALLE 124       4000001000090100OPERA/NES CENT/ZADAS02073421BOGOTA    02
00344110200000COFICINA BARBOSA            C000001000060701CENT.OPER.REG.ANTIOQ04070001BARBOSA   00
00345000000000NGERENCIA SOX               4000001000000100OPERA/NES CENT/ZADAS09093451BOGOTA    00
00346150200000PGINEBRA                    B000001000120706CENT.OPER.REG.OCCIDE04084581GINEBRA   06
00347050200000CCALYPSO                    B000001000080706CENT.OPER.REG.OCCIDE42413471CALI      06
00348080700000PGIRARDOT                   4000001000120348GIRAROT             08073481GIRARDOT  19
00349110400000PGIRARDOTA                  C000001000120701CENT.OPRA.REG.ANTIOQ04074341GIRARDOTA 00
00350220300000PGRANADA                    4000001000120350GRANADA             08083501GRANADA   00
00351220300000CCENTRO VILLAVICENCIO       4000001000080351CTR.V/CENCIO        08083511V/CENCIO  00
00352150300000PGUACARI                    B000001000120706CENT.OPER.REG.OCCIDE04081881GUACARI   06
00353220100000CMONTERREY                  1000001000180353OPERA/NES CENT/ZADAS08013531MONTERREY 00
00354220200000CPARQUE RIVEROS ACACIAS     4000001000120351V/CENCIO            08083541ACACIAS   13
00356320300000PGUADUAS                    4000001000120100GUADUAS             08033661GUADUAS   00
00357220300000CCTRO CIAL VIVA V/CENCIO    4000001000120351CTR.V/CENCIO        08083571VILL/CIO  13
00358220200000CGUAMAL                     4000001000120351CTR.V7CENCIO        08083581GUAMAL    13
00359030200000BOFICINA SANTA ANA          4000001000090100OPERA/NES CENT/ZADAS42053591BOGOTA    02
00360200300000PGUATEQUE                   1000001000120360GUATEQUE            08026161GUATEQUE  00
00361220200000CRESTREPO META              4000001000080351CTR.V/CENCIO        08083611V/CENCIO  00
00362110900000CGUAYAQUIL                  C000001000120701CENT.OPRA.REG.ANTIOQ42514341MEDELLIN  08
00363090300000PMARIQUITA                  4000001000120363MARIQUITA           04063631MARIQUITA 42
00364220700000CLOS CENTAROS               4000001000120351CTR.V/CENCIO        08083641V/CENCIO  22
00366090400000PHONDA                      4000001000120366HONDA               04063661HONDA     00
00370091100000CIBAGUE                     4000001000120370IBAGUE              04063701IBAGUE    11
00371110200000CMANRIQUE                   C000001000090701CENT.OPRA.REG.ANTIOQ04033711MEDELLIN  00
00372260300000PLA PERLA DUITAMA           1000001000100282DUITAMA             07013721DUITAMA   28
00374370500000PIPIALES                    B000001000120374IPIALES             04034661IPIALES   23
00375280500000CSAN VICENTE DEL CAGUAN     4000001000110375SAN VICEN DEL CAGUAN08073751SAN V/CAGU00
00376040210000CKIOSCO UNAB                1000001000090713CTRO.OPE.REG.ORI    42373761B/MANGA   04
00377260200000PNOBSA                      1000001000170596SOGAMOSO            08013771SOGAMOSO  27
00378180300000PISTMINA                    C000001000120378ISTMINA             04023780ITSMINA   00
00379110200000CEPM MEDELLIN               C000001000090701CENT.OPRA.REG.ANTIOQ42514341MEDELLIN  00
00380030300000BISERRA 100                 4000001000090100OPERA/NES CENT/ZADAS42103801BOGOTA    02
00381030200000BLAS MARGARITAS             4000001000090100OPERA/NES CENT/ZADAS02013811BOGOTA    02
00382110700000PITAGUI                     C000001000130701CENT.OPRA.REG.ANTIOQ42544341ITAGUI    08
00383130800000CSAN AGUSTIN-HUILA          4000001000140383SAN AGUSTIN         08043831S/AGUSTIN 00
00384030200000BCENTRO EM. NORTH POINT     4000001000090100OPERA/NES CENT/ZADAS42053841BOGOTA    02
00386110900000CCARRERA JUNIN              C000001000130701CTRO.OPE.REG.ANTIOQ 42504341MEDELLIN  08
00387020400000CMETROCENTRO                A000001000150707CTRO.OPE.REG.COSTA  42353871B/QUILLA  03
00388030200000BBARRIO LA CASTELLANA       4000001000090100OPERA/NES CENT/ZADAS02033881BOGOTA    02
00389060200000CLA PLAZUELA                A000001000080204CARTAGENA           06013891CARTAGENA 00
00390100300000PLA DORADA                  4000001000130390LA DORADA           04063661LA DORADA 00
00391050800000CCHIPICHAPE                 B000001000130706CENT.OPER.REG.OCCIDE42464841CALI      06
00392020600000CCALLE MURILLO              A000001000130707CTRO.OPE.REG.COSTA  42341701B/QUILLA  03
00393110300000CCTRO CIAL SANTAFE MEDELLIN C000001000130701CENT.OPRA.REG.ANTIOQ42524341MEDELLIN  08
00394080300000PLA MESA                    4000001000130100OPERA/NES CENT/ZADAS08033941LA MESA   00
00395220300000CLA PRIMAVERA VILLAVICENCIO 4000001000120351CTR.V/CENCIO        08083951V/VICENCIO00
00396030700000BOFICINA FUSAGASUGA         4000001000090100OPERA/NES CENT/ZADAS08033961BOGOTA    02
00397260200000PSUGAMUXI SOGAMOSO          1000001000170596SOGAMOSO            08013971SOGAMOSO  27
00398130300000PLA PLATA                   4000001000130398LA PLATA            08043981LA PLATA  00
00399030200000BCTR EMPR METROPOLI. SURAMER4000001000090100OPERA/NES CENT/ZADAS42213991BOGOTA    02
004002102612053LA VICTORIA                3000001000000715CTRO.OPE.PEREIRA    04084001LAVICTORIA22
00401030200050BGERENCIA EMP BOGOTA MB     4000001000010100OPERA/NES CENT/ZADAS21124011BOGOTA    02
00402160200000PLA VIRGINIA                3000001000130715CTRO.OPER.PEREIRA   04044681LAVIRGINA 00
00404191000000CEXT OF CC BVISTA STA MARTA A000001000170564SANTA MARTA         06064041STA. MARTA22
00405000000000NOF MOVIL BUS BCO DE BOGOTA 4000001000180100OPERA/NES CENT/ZADAS09094051BOGOTA    00
00406110200000CVIVA ENVIGADO              C000001000060701CENT.OPRA.REG.ANTIOQ42534061MEDELLIN  08
00407380400000CLETICIA                    4000001000130407LETICIA             08074071LETICIA   00
00408120400000PLORICA                     A000001000130408LORICA              06034381LORICA    00
00409320500000CUNICENTRO YOPAL            1000001000180646YOPAL               08014091YOPAL     00
00410030200000BPRADO VERANIEGO            4000001000090100OPERA/NES CENT/ZADAS42034101BOGOTA    02
00412030200050BGERENCIA EMP BOGOTA MB     4000001000010100OPERA/NES CENT/ZADAS21124121BOGOTA    02
00414060400000PMAGANGUE                   A000001000130414MAGANGUE            06014141MAGANGUE  00
00415030600000BOFIC REC Y PAGO FIESTA SUBA4000001000090100OPERA/NES CENT/ZADAS02014151BOGOTA    00
00416030400000BLAS GRANJAS                4000001000130100OPERA/NES CENT/ZADAS14014161BOGOTA    02
00417110500000CENTRO COMERCIAL FLORIDA    C000001000140701CENT.OPRA.REG.ANTIOQ42484171MEDELLIN  00
00418090300000POFICINA ARMERO GUAYABAL    4000001000120363MARIQUITA           04064181A.GUAYABAL00
00420050100000SAN MARTIN CESAR            1000001000080420SAN ALBERTO         06045391SAN MARTIN06
00421110200050CGCIA. EMPRE MEDELLIN MB    C000001000140701CENT.OPRA.REG.ANTIOQ21124211MEDELLIN  08
00423000000000NBASE MILITAR COVE AS       A000001000180592SINCELEJO           06034231COVE AS   00
00425030100000BOF RYP FONTIBON            4000001000090100OPERA/NES CENT/ZADAS14064251BOGOTA    22
00426060300000CMAMONAL                    A000001000140204CARTAGENA           06012041MAMONAL   00
00427050100000COF AVENIDA ROOSVELT-CALI   B000001000070706CENT.OPER.REG.OCCIDE05044271CALI      00
00428100800000CMANIZALES                  3000001000140428MANIZALES           04054281MANIZALES 09
00429051500000CES MIL AVIACI N M F SUAREZ B000001000150706CENT.OPER.REG.OCCIDE42414291CALI      22
00430110600000CMARACAIBO                  C000001000140701CENT.OPRA.REG.ANTIOQ04034341MEDELLIN  00
00431110500000CTERMINAL DE TRANSPORTES    C000001000140701CENT.OPRA.REG.ANTIOQ42474341MEDELLIN  00
00432110400000CMATURIN                    C000001000140701CENT.OPRA.REG.ANTIOQ04034421MEDELLIN  08
00433110500000CEL POBLADO                 C000001000140701CENT.OPRA.REG.ANTIOQ42524341MEDELLIN  08
00434116000000CMEDELLIN CENTRO            C000001000140701CENT.OPRA.REG.ANTIOQ42504341MEDELLIN  08
00436120500000PMONTELIBANO                A000001000140436MONTELIBANO         06034381MONTELIBAN44
00437030200000BSANTA LIBRADA BOGOTA       4000001000090100OPERA/NES CENT/ZADAS42184371BOGOTA    02
00438121100000CMONTERIA                   A000001000140438MONTERIA            06034381MONTERIA  24
00439191000000COF TORRE BANCO DE BOGOTA   A000001000170564SANTA MARTA         06054391STA. MARTA22
00441030500000BCALLE 80                   4000001000140100OPERA/NES CENT/ZADAS42264411BOGOTA    02
00442130800000CNEIVA                      4000001000140442NEIVA               08044421NEIVA     31
00443110100000CCALASANZ                   C000001000090701CENT.OPRA.REG.ANTIOQ42484431MEDELLIN  00
00444320200000PCAJICA                     4000001000180100OPERA/NES CENT/ZADAS08064441CAJICA    34
00445050500000CCTRO CCIAL MALLPLAZA CALI  B000001000140706CENT.OPER.REG.OCCIDE42404841CALI      00
00446070500000POCANA                      1000001000140446OCANA               06064461OCANA     00
00447030200000BLUCERO                     4000001000090100OPERA/NES CENT/ZADAS42184471BOGOTA    02
00448030400000BPALERMO                    4000001000140100OPERA/NES CENT/ZADAS14034481BOGOTA    02
00449030200000BCARRERA 7 CALLE 67         4000001000090100OPERA/NES CENT/ZADAS42104491BOGOTA    02
00450030200000BCANDELARIA LA NUEVA        4000001000090100OPERA/NES CENT/ZADAS42184501BOGOTA    02
00451320100000PVILLA DE LA MESA           4000001000050100OPERA/NES CENT/ZADAS08024511FUNZA     00
00452110200000CCENTRO COMERCIAL EL TESORO C000001000140701CENT.OPRA.REG.ANTIOQ42524522MEDELLIN  08
00453020200000CMALAMBO                    A000001000080707CTRO.OPE.REG.COSTA  42354531MALAMBO   03
00454050200000CUNICENTRO PALMIRA          B000001000080706CENT.OPER.REG.OCCIDE42424541PALMIRA   06
00455050200000CPANAMERICANO CALI          B000001000080706CENT.OPER.REG.OCCIDE42404551CALI      06
00456050200000CVILLA COLOMBIA CALI        B000001000080706CENT.OPER.REG.OCCIDE05044561CALI      06
00457020600000CGALAPA                     A000001000130707CTRO.OPE.REG.COSTA  06024571GALAPA    00
00458151100000PPALMIRA                    B000001000140706CENT.OPER.REG.OCCIDE42424581PALMIRA   32
00459050800000CPASO ANCHO                 B000001000140706CENT.OPER.REG.OCCIDE42404591CALI      06
00460030200000BAV CARRERA 30 CON 75       4000001000090100OPERA/NES CENT/ZADAS02084601BOGOTA    02
00461140700000CMUNICIPIO DE LA UNION      B000001000150461LA UNION            05064611LA UNION  00
00462070400000PPAMPLONA                   1000001000150462PAMPLONA            06064621PAMPLONA  00
00463110200000CMARINILLA                  C000001000090701CENT.OPRA.REG.ANTIOQ04024631MEDELLIN  00
00464110200000COFI PREMIUM TORRE OVIEDO   C000001000140701CENT.OPRA.REG.ANTIOQ37054642MEDELLIN  08
00465160500000CPARQUE OLAYA               3000001000150715CTRO.OPER.PEREIRA   04054681PEREIRA   10
00466140700000CPASTO                      B000001000150466PASTO               04034661PASTO     18
00467020400000CPARQUE WASHINGTON          A000001000150707CTRO.OPE.REG.COSTA  42331701B/QUILLA  03
00468161000000CPEREIRA                    3000001000150715CTRO.OPER.PEREIRA   04054681PEREIRA   10
00469040600000PPIEDECUESTA                1000001000150713CTRO.OPE.REG.ORIEN  06041841PIE.CUESTA00
00470050200000CJAMUNDI                    B000001000080706CENT.OPER.REG.OCCIDE42394701JAMUNDI   06
00471190300000PPIVIJAY (MAGDALENA)        A000001000150471PIVIJAY   (MAGDALENA06053261PIVIJAY   00
00473040800000COFIC REC Y PAGO PASEO COMER1000001000150713CTRO.OPE.REG.ORIEN  07014731B/MANGA   00
00474090300000CPIEDRAPINTADA              4000001000150370IBAGUE              04064741PIEDRAPINT11
00475050200000CVILLA COLOMBIA CALI        B000001000080706CENT.OPER.REG.OCCIDE42444751CALI      06
00476110800000CB E L E N                  C000001000150701CENT.OPRA.REG.ANTIOQ42494761MEDELLIN  08
00477050100000CJUNIN                      B000001000080706CENT.OPER.REG.OCCIDE42424771CALI      06
00478160500000CCAREPA                     C000001000100128CTRO.OPERA.ANTIOQUIA04074781CAREPA    00
00479210200000PVILLA CESPEDES TULUA       B000001000180612TULUA               05074791TULUA     29
00480050200000COFICINA CANAVERALEJO       B000001000080706CENT.OPER.REG.OCCIDE05054801CALI      06
00481030400000BOFIC REC Y PAGO CC G EST II4000001000130100OPERA/NES CENT/ZADAS14014811BOGOTA    22
00484051500000CPLAZA DE CAICEDO           B000001000150706CENT.OPER.REG.OCCIDE42444841CALI      06
00486050700000CUNICENTRO CALI             B000001000150706CENT.OPER.REG.OCCIDE42394841CALI      06
00487050600000CALAMEDA (CALI)             B000001000150706CENT.OPER.REG.OCCIDE42414841CALI      06
00488050200000CCIUDAD CORDOBA             B000001000080706CENT.OPER.REG.OCCIDE42414881CALI      06
00490050200000CAVENIDA TERCERA            B000001000080706CENT.OPER.REG.OCCIDE05034901CALI      06
00491130200000CCTRO CCIAL MURANO NEIVA    4000001000140442NEIVA               08044911NEIVA     00
00492030500000BPARQUE DE LA INDEPENDENCIA 4000001000150100OPERA/NES CENT/ZADAS42144921BOGOTA    02
00493020200000CCTR CCIAL GRAN PLZ DEL SOL A000001000080707CTRO.OPE.REG.COSTA  42354931SOLEDAD   00
00494240400000CPLAZA DE MERCADO (V/DUPAR) A000001000150628VALLEDUPAR          06046281VALLEDUPAR35
00495050200000CEL TEMPLETE CALI           B000001000080706CENT.OPER.REG.OCCIDE05044951CALI      06
00496170400000CCALLE DE LA HERRERIA       B000001000150520POPAYAN             05064961POPAYAN   26
00497100500000COFICINA CALDAS             C000001000140701CENT.OPER.ANTIOQUIA 42514971CALDAS    00
00498050200000CCENTRO COMERCIAL CARRERA   B000001000140706CENT.OPER.REG.OCCIDE05034981CALI      06
00500030300000BCARRERA 11 CON 81          4000001000020100OPERA/NES CENT/ZADAS42095001BOGOTA    00
00504060400000CAV.PEDRO HEREDIA (C/GENA)  A000001000150204CARTAGENA           06032041CARTAGENA 00
00506030400000BCITY U                     4000001000090100OPERA/NES CENT/ZADAS42125061BOGOTA    00
00510110400000CLAURELES                   C000001000150701CENT.OPRA.REG.ANTIOQ42485101MEDELLIN  00
00511030400000BCALLE 18                   4000001000090100OPERA/NES CENT/ZADAS14055111BOGOTA    02
00512030100000BISMAEL PERDOMO             4000001000090100OPERA/NES CENT/ZADAS14025121BOGOTA    02
00513040100000CPUERTO WILCHES             1000001000070513PUERTO WILCHES      06045131PTO WILCHE04
00514110500000PPUERTO BERRIO              C000001000150514PUERTO BERRIO       06045141PTO.BERRIO00
00516070200000CLOS PATIOS NORTE/SANTANDER 1000001000090260CUCUTA              06065161LOS PATIOS00
00518110300000CARGOS                      C000001000090701CENT.OPRA.REG.ANTIOQ42505181MEDELLIN  00
00519080700000PARBELAEZ                   4000001000120100OPERA/NES CENT/ZADAS08035191ARBELAEZ  19
00520170700000CPOPAYAN                    B000001000150520POPAYAN             04035201POPAYAN   26
00524110200000CCASTILLA                   C000001000090701CENT.OPRA.REG.ANTIOQ04075241MEDELLIN  00
00525031000000BOFIC REC Y PAGO PARQUE NAL 4000001000020100OPERA/NES CENT/ZADAS14085251BOGOTA    00
00526010400000PQUIMBAYA                   3000001000160138ARMENIA             04045261QUIMBAYA  00
00528110200000CAMERICA                    C000001000090701CENT.OPRA.REG.ANTIOQ04045281MEDELLIN  00
00529191000000CCENTRO COMERCIAL ARRECIFE  A000001000170564SANTA MARTA         06055291STA. MARTA14
00530250900000CRIOHACHA                   A000001000160530RIOHACHA            06055301RIOHACHA  35
00531110300000CSAN IGNACIO                C000001000090701CENT.OPRA.REG.ANTIOQ42505311MEDELLIN  00
00532110400000PRIONEGRO                   C000001000160701CENT.OPRA.REG.ANTIOQ04024341MEDELLIN  00
00534110400000CBELLO PLAZA                C000001000090701CTRO.OPE.REG.ANTIOQ 42475341MEDELLIN  00
00535011000000PARMENIA CALLE 21 CRA 17    3000001000070138ARMENIA             04105351ARMENIA   00
00536000000000NGCIA OPERATIVA DE CARTERA  4000001000180100OPERA/NES CENT/ZADAS09090401BOGOTA    00
00538110200000CCTR CIAL UNICENTRO MEDELLINC000001000090701CENT.OPRA.REG.ANTIOQ42495381MEDELLIN  00
00539240300000PSAN ALBERTO                1000001000160539SAN ALBERTO         06041841SN.ALBERTO00
00540270600000CSAN ANDRES (ISLA)          A000001000160540SAN ANDRES (ISLA)   06015401SAN ANDRES33
00541110200000CG OPER VIVIENDA Y VEHICULO 4000001000100100OPERA/NES CENT/ZADAS09095411BOGOTA    22
00542030500000BCTRO CIAL CTRO MAYOR       4000001000030100OPERA/NES CENT/ZADAS42175421BOGOTA    00
00543110200000CLA SETENTA                 C000001000090701CENT.OPRA.REG.ANTIOQ04045431MEDELLIN  00
00544050600000CSANTA LIBRADA              B000001000160706CENT.OPER.REG.OCCIDE42434841CALI      06
00545030200000CPREMIUM AV.19 CALLE 114    4000001000010100OPERA/NES CENT/ZADAS37015451BOGOTA    00
00546150200000PORITO                      B000001000080546BUGA                08075461ORITO     00
00547210300000PEXT DE OFICINA CAICEDONIA  B000001000170588SEVILLA             05075471CAICEDONIA00
00548250300000PSAN JUAN DEL CESAR         A000001000160548SAN JUAN DEL CESAR  06026281SAN JUAN  00
00549060400000CPREMIUN EDF BCO BTA BOCAGR A000001000150204CARTAGENA           37062549CARTAGENA 00
00550110200000CCNTRO CCIAL CITY PLAZA     C000001000090701CENT.OPRA.REG.ANTIOQ04025501MEDELLIN  00
00551080700000PCCIAL UNICENTRO GIRARDOT   4000001000120348GIRAROT             08075511GIRARDOT  19
00552120400000PCALLE 39 MONTERIA          A000001000090438MONTERIA            06055521MONTERIA  00
00553030200000CPREMIUM CARRERA 11 CON 81  4000001000010100OPERA/NES CENT/ZADAS37025531BOGOTA    00
00554110100000CSTA ROSA DE OSOS           C000001000090701CENT.OPRA.REG.ANTIOQ04075541MEDELLIN  00
00556220300000PSAN MARTIN                 4000001000160556SAN MARTIN          08085561SAN MARTIN00
00558110300000CCCIAL BOSQUE PLAZA         C000001000090701CENT.OPRA.REG.ANTIOQ42485581MEDELLIN  00
00562030200000BTUNJUELITO                 4000001000090100OPERA/NES CENT/ZADAS14085621BOGOTA    02
00564191000000CSANTA MARTA                A000001000170564SANTA MARTA         06055641STA. MARTA14
00566050600000CSANTA MONICA               B000001000170706CENT.OPER.REG.OCCIDE42444841CALI      06
00568050400000CSANTA RITA                 B000001000170706CENT.OPER.REG.OCCIDE42444841CALI      06
00569040500000COF RDOS Y PAGOS CANAVERAL  1000001000090713CTRO.OPE.REG.ORIEN  07065691FLORIDABLC00
00570030300000PGUASCA                     4000001000170100OPERA/NES CENT/ZADAS08065701BOGOTA    00
00571000000000NCTRO DE SCIOS BANCA PYME   4000001000000100OPERA/NES CENT/ZADAS09075710BOGOTA    00
00572160300000PSANTA ROSA DE CABAL        3000001000170715CTRO.OPERA.PEREIRA  04054681STA. ROSA 00
00574020200000CLA CORDIALIDAD             A000001000080707CTRO.OPE.REG.COSTA  42345741B/QUILLA  03
00575000000000NGCIA OPER Y DESA BCA SOCIAL4000001000000100OPERA/NES CENT/ZADAS00005750BOGOTA    00
00576260200000PSANTA ROSA DE VITERBO      1000001000170576SANTA ROSA DE VITERB08015761STA. ROSA 00
00578180600000CQUIBDO                     C000001000170578QUIBDO              04025781QUIBDO    39
00580320200000PCAQUEZA                    4000001000050100OPERA/NES CENT/ZADAS08065801MOSQUERA  00
00582071300000COFIC REC Y PAGO CUCUTA     1000001000090260CUCUTA              31025821CUCUTA    17
00583130200000CTOLEMAIDA                  4000001000140263OPERA/NES CENT/ZADAS08075831NILO      31
00584110700000CSECTOR ESTADIO             C000001000170701CENT.OPRA.REG.ANTIOQ42484341MEDELLIN  08
00585200200000CSECTOR SUR TUNJA           1000001000170616TUNJA               08015851TUNJA     12
00587030200000PSIBATE                     4000001000090100OPERA/NES CENT/ZADAS08035871BOGOTA    02
00588210300000PSEVILLA                    B000001000170588SEVILLA             04045881SEVILLA   00
00589100800000CTERM TRANSP MANIZALES      3000001000140428MANIZALES           04055891MANIZALES 00
00590040600000POF. REAL DE MINAS          1000001000150713CTRO.OPE.REG.ORIENTE42375901B/MANGA   00
00592230800000CSINCELEJO                  A000001000170592SINCELEJO           06035921SINCELEJO 25
00593110200000CLA MILAGROSA               C000001000060701CENT.OPRA.REG.ANTIOQ04035931MEDELLIN  08
00594000000000NECONOCUENTA                4000001000180100OPERA/NES CENT/ZADAS09095941BOGOTA    00
00595240200000CLA LOMA                    A000001000180595LA LOMA             06045951EL PASO   36
00596260800000PSOGAMOSO                   1000001000170596SOGAMOSO            08015961SOGAMOSO  27
00597030300000PSOPO                       4000001000170100OPERA/NES CENT/ZADAS08025971BOGOTA    00
00598110200000PCTR COMERCIAL SAVANNA      C000001000160701CENT.OPRA.REG.ANTIOQ04025981MEDELLIN  00
00599240200000CLA JAGUA                   A000001000180599CODAZZI             06025991EL PASO   36
00600040700000CCENTRO COM. CABECERA       1000001000170713CTRO.OPE.REG.ORIEN  42371841B/MANGA   04
00601070200000CC CIAL VENTURA PLAZA - CUC 1000001000090260CUCUTA              06066011CUCUTA    17
00602030400000BOFIC REC Y PAGO TEQUENDAMA 4000001000180100OPERA/NES CENT/ZADAS14036021BOGOTA    00
00603260200000PCAB TERMINAL TRANS.SOGAMOSO1000001000180596SOGAMOSO            07016031SOGAMOSO  00
00604320200000PBRICENO                    4000001000180100OPERA/NES CENT/ZADAS08066601BOGOTA    00
00605030500000BTOBERIN                    4000001000180100OPERA/NES CENT/ZADAS42016051BOGOTA    02
00606030200000BOFICINA TINTAL PLAZA       4000001000180100OPERA/NES CENT/ZADAS42236061BOGOTA    02
00607030200000BCENTR CIAL FLORESTA OUTLET 4000001000090100OPERA/NES CENT/ZADAS02066071BOGOTA    02
00608080200000PTOCAIMA                    4000001000180608TOCAIMA             08076081TOCAIMA   00
00609050600000CCENTRO CIAL.CARULLA PANCE  B000001000170706CENT.OPER.REG.OCCIDE42396091CALI      00
00610000000000NGCIA OPER TARJETAS Y ADQUI 4000001000180100OPERA/NES CENT/ZADAS09076101BOGOTA    00
00611320400000PUBATE                      4000001000180100OPERA/NES CENT/ZADAS08026111UBATE     43
00612210700000PTULUA                      B000001000180612TULUA               04086121TULUA     29
00613050500000CCENTRO SERV.BANCA PYME 613 B000001000070706CENT.OPER.REG.OCCIDE09076131CALI      06
00614070200000CC CIAL UNICENTRO CUCUTA    1000001000090260CUCUTA              06066141CUCUTA    17
00615030200000BCENTRO COMERCIAL SANTAFE II4000001000090100OPERA/NES CENT/ZADAS42066151BOGOTA    02
00616201000000CTUNJA                      1000001000180616TUNJA               08016161TUNJA     12
006170304000025OF DE RC Y PG PQ EL VIRREY 4000001000180100OPERA/NES CENT/ZADAS02036171BOGOTA    00
00618160500000CCHIGORODO                  C000001000100128CTRO.OPERA.ANTIOQUIA04076181CHIGORODO 00
00619070200000CVILLA DEL ROSARIO          1000001000090260CUCUTA              06066191VLL/ROS   17
00620410300000PTURBO                      C000001000180128APARTADO            04074341TURBO     00
00621030200000BCTRO EMPRESA PARARLELO 108 4000001000090100OPERA/NES CENT/ZADAS42096211BOGOTA    02
00622030200000BCALLE 104 AVENIDA 19       4000001000090100OPERA/NES CENT/ZADAS42046221BOGOTA    02
00624320400000PPARQUE AGROINDUSTRIAL      4000001529100100OPERA/NES CENT/ZADAS02086241BOGOTA    02
00625130100000CPUERTO RICO                4000001000140625OPERA/NES CENT/ZADAS08076251PUERTO RCO31
00627020200000CCARRERA 38 CON CALLE 70    A000001000080707CTRO.OPE.REG.COSTA  42336271B/QUILLA  03
00628241100000CVALLEDUPAR                 A000001000180628VALLEDUPAR          06026281VALLEDUPAR36
00629030400000BOFIC REC Y PAGO CL 13 31-564000001000090100OPERA/NES CENT/ZADAS14116291BOGOTA    00
00630020300000CSECTOR VIVERO              A000001000180707CTRO.OPE.REG.COSTA  06071701B/QUILLA  00
00631050600000COFI.PREM.LUIS.C.SARMIENTO  4000001000160100OPERA/NES CENT/ZADAS37026311BOGOTA    06
00632320100000PTOCANCIPA                  4000001000180100OPERA/NES CENT/ZADAS08026321TOCANCIPA 34
00633160200000CUNICENTRO PEREIRA          3000001000150715CTRO.OPER.PEREIRA   04056331PEREIRA   10
00634110100000CSAN LUCAS PLAZA            C000001000060701CENT.OPRA.REG.ANTIOQ42536341MEDELLIN  08
00636220800000CVILLAVICENCIO              4000001000180351CTR.V/CENCIO        08086361V/CENCIO  00
00637030200000BOFICINA WORLD TRADE CENTER 4000001000090100OPERA/NES CENT/ZADAS42046371BOGOTA    02
00638130200000CCC SANTA LUCIA PLAZA       4000001000140442NEIVA               08046381NEIVA     31
00639050400000CVIPASA                     B000001000000706CTRO. OP.RG.OCCIDENT42466391CALI      00
00640320300000PLA VEGA                    4000001000180100OPERA/NES CENT/ZADAS08033041VILLETA   00
00641031200000BOFICINA BELLA SUIZA        4000001000030100OPERA/NES CENT/ZADAS42056411BOGOTA    00
00642130200000CSAN JUAN PLAZA NEIVA       4000001000140442NEIVA               08046421NEIVA     00
00643110243400COFICINA CIUDAD BOLIVAR     C000001000000701CTRO.OPE.REG.ANTIOQ 04066431C BOLIVAR 00
00644110400000PYARUMAL                    C000001000180701CENT.ORPA.REG.ANTIOQ04074341YARUMAL   00
00645050100000COFIC REC Y PAGO CRA PRIMERAB000001000080706CENT.OPER.REG.OCCIDE05036451CALI      06
00646320500000CYOPAL                      1000001000180646YOPAL               08015961YOPAL     00
00648050600000PYUMBO                      B000001000180706CENT.OPER.REG.OCCIDE42464841YUMBO     00
00649110100000CCC NUESTRO URABA           C000001000090128APARTADO            04066491APARTADO  00
006501602633033EXT OFI BELEN DE UMBRIA    3000001000000715CTRO.OPE.PEREIRA    04086501BLN UMBRIA00
00652130100000PPURIFICACION               4000001000140652PURIFICACION        08046521PURIFICACI02
00653110200000CGUAYABAL BOX               C000001000090701CENT.OPRA.REG.ANTIOQ42496531MEDELLIN  00
00654030500000CGCIA OPE DEL ACTIVO PER JUR4000001000090100OPERA/NES CENT/ZADAS09072654BOGOTA    00
00655030100000BESCUELA MILITAR DE CADETES 4000001000090100OPERA/NES CENT/ZADAS42256551BOGOTA    02
00656210300000PZARZAL                     B000001000180656ZARZAL              04086561ZARZAL    00
00657241100000CCTRO CCIAL LOS MAYALES     A000001000180628VALLEDUPAR          06026571VALLEDUPAR00
00658000000000COF PREMIUM EDF BCO BTA BQLLA000000000000707CTRO.OPE.REG.COSTA  37066581BQUILLA   22
00659060100000COFIC REC Y PAGO CARTAGENA  A000001000090204CARTAGENA           06016591CARTAGENA 07
00660320600000PZIPAQUIRA                  4000001000180100OPERA/NES CENT/ZADAS08026601ZIPAQUIRA 34
00661020300000CEXT DE OF UNIVERSIDAD NORTEA000001000180707CTRO.OPE.REG.COSTA  42326611BQUILLA   00
00663030500000COFI.RECAU.PAGOS CLL128     4000001000090100OPERA/NES CENT/ZADAS02032663BOGOTA    22
00665000000000NTARJ MARCA COMPARTIDA CEOI 4000001000000100OPERA/NES CENT/ZADAS09006650BOGOTA    00
00666020200050CNORMALIZACION PMP COSTA    A000001000080707CTRO.OPE.REG.COSTA  06116661B/QUILLA  03
00667040200050CNORMALIZACION PMP ORIENTE  1000001000080713CTRO.OPE.REG.ORIEN  07186671B/MANGA   04
00668220363607COFIC REC Y PAGO AV 40 VCIO 4000001000000351CTR.V/CENCIO        08036681V/CENCIO  00
00669050200050CNORMALIZACION PMP OCCIDENTEB000001000080706CENT.OPER.REG.OCCIDE05186691CALI      06
00670030200050BNORMALIZACION PMP BTA SUR  4000001000010100OPERA/NES CENT/ZADAS14186701BOGOTA    02
00671050600000COFIC REC Y PAGO LA CAMPINA B000001000090706CENT.OPER.REG.OCCIDE05036711CALI      00
00672030200050BNORMALIZACION PMP CENTRAL  4000001000010100OPERA/NES CENT/ZADAS08186721BOGOTA    02
00674270600000CEXT OFICINA PROVIDENCIA    A000001000160674PROVIDENCIA         06016741PROVI/CIA 00
00675020300000CCENTRO COMERCIAL LE CHAMP  A000001000180707CTRO.OPE.REG.COSTA  42326751BQUILLA   00
00676260700000CPAIPA                      1000001000100676PAIPA               08016761PAIPA     28
00677110200000CCTRO CIAL PREMIUM PLAZA    C000001000090701CENT.OPRA.REG.ANTIOQ42526772MEDELLIN  08
00678050100000CC.C. LA 14 VALLE DE LILI   B000001000070706CENT.OPER.REG.OCCIDE42396781CALI      00
00679050200000CPARQUE COMERCIAL RIO CAUCA B000001000070706CENT.OPER.REG.OCCIDE42416791CALI      00
00680110400000CCTRO.SERV.BCA PYME MEDELLINC000001000070701CENT.OPRA.REG.ANTIOQ09076801MEDELLIN  00
00692050200000CTUMACO                     B000001000080692CENT.OPER.REG.OCCIDE04036921TUMACO    00
00693140500000CUNICENTRO PASTO            B000001000150466PASTO               04036931PASTO     18
00694031200000BUNICENTRO BOGOTA ENTRADA 7 4000001000030100OPERA/NES CENT/ZADAS42056941BOGOTA    00
00695220200000CPUERTO CARRENO             4000001000080695PUERTO CARRENO      08076951PTO CARREN00
00697220200000CPUERTO LOPEZ               4000001000080697PUERTO LOPEZ        08086971PTO LOPEZ 00
00699280500000CBASE MILITAR LARANDIA      4000001000110312FLORENCIA           08076991FLORENCIA 37
00700000000000NCENTRALIZACION AGILIZADORES4000001000000100OPERA/NES CENT/ZADAS02067001BOGOTA    00
00701000000000NCTRO. OPER. REG. ANTIOQUIA C000001000000701CTRO. OP.RG.ANT/QUIA04017011MEDELLIN  00
00702000000000NGCIA OPERATIVA GARANTIAS   4000001000000100OPERA/NES CENT/ZADAS09007020BOGOTA    00
00704130200000CQUIRINAL                   4000001000140442NEIVA               08046704NEIVA     00
00705220200000COFICINA CASTILLA LA NUEVA  4000001000080351V/CENCIO            08057051CASTILLA  00
00706000000000NCTRO. OPER. REG. OCCIDENTE B000001000000706CTRO. OP.RG.OCCIDENT05017061CALI      00
00707000000000NCTRO. OPER. REG. COSTA     A000001000000707CTRO. OP.RG.COSTA   06017071B/RRANQ   00
00708320300000POFICINA MADRID             4000001000180100OPERA/NES CENT/ZADAS08067081MADRID    00
00713000000000NCTRO. OPER. REG. ORIENTE   1000001000000713CTRO. OP.RG.ORIENTE 07017131B/MANGA   00
00715000000000NCTRO. OPER. PEREIRA        3000001000000715CTRO. OP.PEREIRA    04037151PEREIRA   00
00716030200000BCENTRO DE EFECTIVO BOGOTA  4000001000010100OPERA/NES CENT/ZADAS02087161BOGOTA    02
00721030200050BGCIA.CORPORAT.-2-CENTRO    4000001000010100OPERA/NES CENT/ZADAS03087691BOGOTA    02
00750130100000CGUAMO                      4000001000140750GUAMO               08047501GUAMO     31
00752110200000CCENTRO COMERCIAL AVESMARIA C000001000060701CENT.OPRA.REG.ANTIOQ42517521MEDELLIN  08
00757020200050CNORMALIZACION CEOI COSTA   A000001000080707CTRO.OPE.REG.COSTA  06187711B/QUILLA  03
00760030200050BNORMALIZACION PMP BTA NORTE4000001000010100OPERA/NES CENT/ZADAS02087691BOGOTA    02
00767130100000CCHAPARRAL                  4000001000140767CHAPARRAL           08047671CHAPARRAL 31
00768110200060CCENT SERV EMPRESARIAL MED  C000001000140100OPERA/NES CENT/ZADAS04057681MEDELLIN  08
00769030200060BCENT SERV EMPRESARIAL BTA  4000001000010100OPERA/NES CENT/ZADAS02087691BOGOTA    02
00770110200060CCENT DE ATENCION PREFERENTEC000001000140701OPERA/NES CENT/ZADAS04057701MEDELLIN  00
007710202000000CENT SERV EMPRESARIAL BQUILA000001000080100OPERA/NES CENT/ZADAS06047711B/QUILLA  03
007720502000000CENT SERV EMPRESARIAL CALI B000001000080100OPERA/NES CENT/ZADAS05057721CALI      06
007730402000000CENT SERV EMPRESARI BMANGA 1000001000080713CTRO.OPE.REG.ORIEN  07037731B/MANGA   04
00774000000000NCTRO ATENC PREFERENT BQUILLA000001000180707OPERA/NES CENT/ZADAS09097741BQUILLA   00
00775000000000NCTRO ATENC PREFERENT BOGOT14000001000180100OPERA/NES CENT/ZADAS09097751BOGOTA    00
00776000000000NCTRO ATENC PREFERENT BOGOT24000001000180100OPERA/NES CENT/ZADAS09097761BOGOTA    00
00777030000000NCHEQUES MAL REMITIDOS      4000001000000100OPERA/NES CENT/ZADAS09007771BOGOTA    00
00778031200000NDIRECCION NAL COBRANZAS    4000001000010100OPERA/NES CENT/ZADAS09097781BOGOTA    00
00779000000000NCTRO ATENC PREFERENT BOGOT34000001000180100OPERA/NES CENT/ZADAS09097791BOGOTA    00
00780000000000NCTRO ATENC PREFERENT BOGOT44000001000180100OPERA/NES CENT/ZADAS09097801BOGOTA    00
00781160500000PMONTENEGRO                 3000001000170138CTRO.OPERA.ANTIOQUIA04047811MONTENEGRO00
00782000000000NCTRO ATENC PREFERENT BOGOT54000001000180100OPERA/NES CENT/ZADAS09097821BOGOTA    00
00783000000000NCTRO ATENC PREFERENT BMANGA1000001000180713OPERA/NES CENT/ZADAS09097831BMANGA    00
00784000000000NCTRO ATENC PREFERENT CALI  B000001000180706OPERA/NES CENT/ZADAS09097841CALI      00
00788000000000NUNID.VEHICU.ANTIOQ.MEGABAN C000001000000701CTRO. OP.RG.ANT/QUIA00007011BOGOTA    00
00791030000000NUNIDAD ESP. VEHICULOS      4000001000000100OPERA/NES CENT/ZADAS09007911BOGOTA    00
00792130500000CCALLE SEPTIMA NEIVA        4000001000140442NEIVA               08047921NEIVA     31
00793130200000PPITALITO                   4000001000010793PITALITO            08047931PITALITO  02
00796030200000BCTRO CIAL GRAN PLAZA BOSA  4000001000090100OPERA/NES CENT/ZADAS42167961BOGOTA    02
00798320100000PSUBACHOQUE                 4000001000180100OPERA/NES CENT/ZADAS08067981SUBACHOQUE34
00799030200000BCALERA                     4000001000090100OPERA/NES CENT/ZADAS08027991BOGOTA    02
00800020300000CPLANETA RICA               A000001000050800CTRO.OPE.REG.COSTA  06038001B/QUILLA  00
00801030100000BENGATIVA                   4000001000090100OPERA/NES CENT/ZADAS42248011BOGOTA    02
00802030200000BCENTRO SUBA                4000001000090100OPERA/NES CENT/ZADAS42028021BOGOTA    02
00803050200000CSAN NICOLAS                B000001000130706CENT.OPER.REG.OCCIDE05028031CALI      06
00804220200000COFICINA PUERTO GAITAN META 4000001000080804PUERTO GAITAN META  08088041PTO GAITAN00
00807200200000CC CIAL UNICENTRO TUNJA     1000001000180616TUNJA               08018071TUNJA     12
00808110200000PCTRO CIAL PUERTA DEL NORTE C000001000080701CENT.OPRA.REG.ANTIOQ42478081BELLO     08
00810020100000CCENTRO CIAL METROPOLITANO  A000001000080707CTRO.OPE.REG.COSTA  06028101B/QUILLA  03
00811110200000CARKADIA                    C000001000060701CENT.OPRA.REG.ANTIOQ42548111MEDELLIN  08
00812050400000COFIC REC Y PAGO AV SEXTA   B000001000130706CENT.OPER.REG.OCCIDE05038121CALI      06
00815050300000POFIC REC Y PAGO YUMBO      B000001000180706CENT.OPER.REG.OCCIDE05034841YUMBO     06
00816030200050NGERENCIA EMP. BOGOTA MB    4000001000000100OPERA/NES CENT/ZADAS21128161BOGOTA    02
00817170200000CC CIAL CAMPANARIO POPAYAN  B000001000150520POPAYAN             04038171POPAYAN   26
00818030000000NFILIAL PANAMA              4000001000000100OPERA/NES CENT/ZADAS09008181BOGOTA    00
00819030200000BCAMPIN                     4000001000090100OPERA/NES CENT/ZADAS02058191BOGOTA    02
00820030000000NFILIAL NASSAU              4000001000000100OPERA/NES CENT/ZADAS09008201BOGOTA    00
00821000000000NCORRESPONSALES BANC DIF EXI4000001000000100OPERA/NES CENT/ZADAS00008210BOGOTA    00
00822320200000PCENTRO COMERCIAL MEGACITY  4000001000180100OPERA/NES CENT/ZADAS08028221ZIPAQUIRA 34
00823000000000NCORRESPONSALES BANC EXITO  4000001000000100OPERA/NES CENT/ZADAS00008230BOGOTA    22
008250702619061EL ZULIA                   1000001000000260CUCUTA              06068251ZULIA     22
008270501706000OF PREMIUM EDF BCO DE BGTA B000001000000706CTRO.OPER.REG.OCCIDE37058271CALI      22
00828050400000COFIC REC Y PAGO IMBANACO   B000001000090706CENT.OPER.REG.OCCIDE05018281CALI      00
00829120200000CC CIAL NUESTRO MONTERIA    A000001000140438MONTERIA            06038291MONTERIA  24
00830020100000CSOLEDAD ATLANTICO          A000001000080707CTRO.OPE.REG.COSTA  06028301SOLEDAD   00
00833050000050NGER CORPORATIVO 833        B000001000000706CENT.OPRA.REG.OCCIDE12018330CALI      22
00834041100000COFICINA FOSCAL INTNACIONAL 1000001000080713CTRO.OPE.REG.ORIEN  42368341FBLANCA   04
00835020300000CSAHAGUN                    A000001000050835CTRO.OPE.REG.COSTA  06038351SAHAGUN   00
00836090400000CMURILLO TORO               4000001000150370IBAGUE              04068361IBAGUE    11
00837090200000CLOS OCOBOS                 4000001000150370IBAGUE              04068371IBAGUE    11
00838090100000POFICINA CC PENALISA MALL   4000001000110348GIRARDOT            08028381NILO      00
00839090100000COFIC REC Y PAGO IBAGUE     4000001000150370IBAGUE              08028391IBAGUE    11
00840160200000PFRESNO                     4000001000170840FRESNO              04068401FRESNO    00
00841100100000PMANZANARES                 3000001000100841MANZANARES          21018411MANZANARES00
00842160500000CPARQUE LAGO URIBE PEREIRA  3000001000100715CTRO.OPER.PEREIRA   04088421PEREIRA   00
00843130800000COFIC REC Y PAGO NEIVA      4000001000140442NEIVA               08028431NEIVA     22
00844210200000CPARQUE DE LA CONCORDIA SEVIB000001000170588CENT.OPER.REG.OCCIDE05078441SEVILLA   00
00845160500000PCIUDAD MILAGRO ARMENIA     3000001000170138CTRO.OPERA.ANTIOQUIA04048451ARMENIA   00
00846030100000BNORMAL.CARTERA VEHIC RED ME4000001000000100OPERA/NES CENT/ZADAS21018461BOGOTA    02
00847100100000PANSERMA                    3000001000100847ANSERMA             04048471ANSERMA   00
00848100200000PRIOSUCIO                   3000001000100848RIOSUCIO            04088481RIOSUCIO  00
00849040200000CCARRERA 33 CABECERA        1000001000080713CTRO.OPE.REG.ORIEN  07038491B/MANGA   04
00850000200000CPAQUE URIBE BARRANCABERMEJA1000001000160168B/MEJA              07048501B/MEJA    21
00852220300000CVILLA JULIA                4000001000080351CTR.V/CENCIO        08088521V/CENCIO  00
00853220200000CCUMARAL                    4000001000080351CTR.V/CENCIO        08088531V/CENCIO  00
00855220400000CRIO CRAVO                  1000001000080646OPERA/NES CENT/ZADAS07068551YOPAL     00
00856020400000COFIC REC Y PAGO CALLE 30   A000001000080707CTRO.OPE.REG.COSTA  06048561B/QUILLA  03
00857110000050CGER CORPORATIVO 857        C000001000140701CENT.OPRA.REG.ANTIOQ11018571MEDELLIN  08
00858110000050NGER CORPORATIVO 858        C000001000140701CENT.OPRA.REG.ANTIOQ16018581MEDELLIN  08
00859040000050NGER EMPRESARIAL 859        1000001000000713CTRO.OPER.REG.ORIENT39015891B/MANGA   00
00860020000050NGER CORPORATIVO 860        A000001000000707CTRO.OPER.REG.ORIENT13018601CA/GENA   00
00861351000000POFIC REC Y PAGO BVENTURA   B000001000080186BUENAVENTURA        04088611B/VENTURA 22
00862030400000BOFIC REC Y PAGO CC MERCURIO4000001000090100OPERA/NES CENT/ZADAS14028621SOACHA    02
00863241100000CCTR COMERCIAL GUATAPURI    A000001000180628VALLEDUPAR          06028631VALLEDUPAR36
00864241100000COFIC REC Y PAGO VALLEDUPAR A000001000180628VALLEDUPAR          06048641VALLEDUPAR36
00865110200000COFIC REC Y PAGO SC EDIO MEDC000001000090701CENT.OPRA.REG.ANTIOQ04018651MEDELLIN  00
00867030200050BGCIA CEO EMPR OFIC MB      4000001000000100OPERA/NES CENT/ZADAS21128671BOGOTA    00
00868050948405CINGREDION COLOMBIA SA.     B000001000000706CTRO.OPER.REG.OCCIDE42458681CALI      00
00869050500000CC CIAL PREMIER EL LIMONAR  B000001000080706CENTRO OPERA. CALI  42408691CALI      00
008700000000000GER EMPRESARIAL 0870       4000001000010100OPERA/NES CENT/ZADAS01028701BOGOTA    00
00871000000000NGCIA PRDT DIVISAS Y VALORES4000001000000100OPERA/NES CENT/ZADAS00008710BOGOTA    00
00872000000000NGERENCIA MESA DE DISTRIBUCI4000001000000100OPERA/NES CENT/ZADAS00008720BOGOTA    00
00873000000000NGCIA PRDT TITULOS VALORES  4000001000000100OPERA/NES CENT/ZADAS00008730BOGOTA    00
00874020200000CCENTRO COMERCIAL MIRAMAR   A000001000080707CTRO.OPE.REG.COSTA  06018741B/QUILLA  03
00875000000000NUNID.DE VEHIC.BUCAR.MEGABAN4000001000000100OPERA/NES CENT/ZADAS00007131BOGOTA    00
00876000000000NG.OPER INNAL MCDO CAPITALES4000001000000100OPERA/NES CENT/ZADAS00008760BOGOTA    00
00877000000000NDIRC TESOR Y CORRESP EXTRAN4000001000000100OPERA/NES CENT/ZADAS00008770BOGOTA    00
00878220363607COFICINA CLINICA META       4000001000000351CTR.V/CENCIO        08088781V/CENCIO  00
00879030200000CPREMIUM CALLE 36           4000001000010100OPERA/NES CENT/ZADAS37028791BOGOTA    00
00880121100000CMONTERIA NORTE             A000001000140438MONTERIA            06038801MONTERIA  24
00881040400000COFIC REC Y PAGO CABECERA   1000001000150713CTRO.OPE.REG.ORIEN  07018811B/MANGA   00
00882040000050NGER EMPRESARIAL 882        1000001000000713CTRO.OPER.REG.ORIENT39018821CUCUTA    00
00883110400000COFIC REC Y PAGO CTRAL ABASTC000001000090701CENT.OPRA.REG.ANTIOQ04028831ITAGUI    08
00885080100000PANAPOIMA                   4000001000120100OPERA/NES CENT/ZADAS08038851ANAPOIMA  00
00886000000000NSERVIBANCA                 4000001000000100OPERA/NES CENT/ZADAS00000000BOGOTA    00
00887000000000NREDEBAN                    4000001000000100OPERA/NES CENT/ZADAS00000000BOGOTA    00
00888000000000NA.T.H.                     4000001000000100OPERACIONES CENTRALI00000000BOGOTA    00
00889160500000COFIC REC Y PAGO PLZ BOL PER3000001000070715CTRO.OPER.PEREIRA   04058891PEREIRA   00
00890000000000NCANALES ELECTRONICOS       4000001000000100OPERACIONES CENTRALI00000000BOGOTA    00
00891000000001NBANCO DE OCCIDENTE         4000001000000100OPERACIONES CENTRALI00000000BOGOTA    00
00892000000001NBANCO POPULAR              4000001000000100OPERACIONES CENTRALI00000000BOGOTA    00
00893000000001NCORP.AHORRO VIV. LAS VILLAS4000001000000100OPERACIONES CENTRALI00000000BOGOTA    00
00894110100000COFIC REC Y PAGO BR COLOMBIAC000001000060701CENT.OPRA.REG.ANTIOQ04028941MEDELLIN  08
00895030000000CMONIQUIRA                  1000001000000895MONIQUIRA           08018951MONIQUIRA 00
00896030200050CGERENTE PREMIUM 19         4000001000010100OPERA/NES CENT/ZADAS37028961BOGOTA    00
00897110200000COFICINA CAUCASIA           C000001000140897CAUCASIA            06038971CAUCASIA  08
00899030200000BUNIVERSIDAD DEL BOSQUE     4000001000090100OPERA/NES CENT/ZADAS02078991BOGOTA    00
00900040200000CCENTRO COMERCIAL CACIQUE   1000001000080713CTRO.OPE.REG.ORIEN  42369001B/MANGA   00
00905031200000NCUENTAS TRANSFER           4000001000010100OPERA/NES CENT/ZADAS09099051BOGOTA    00
00906020400000COFIC REC Y PAGO CALLE 72   A000001000080707CTRO.OPE.REG.COSTA  06019061B/QUILLA  03
00907060100000CC CIAL CARIBE PLAZA        A000001000080204CARTAGENA           06019071CARTAGENA 00
00910020100000CC CIAL PORTAL DEL PRADO    A000001000080707CTRO.OPE.REG.COSTA  06079101B/QUILLA  03
00911351000000CC.C VIVA BUENAVENTURA      B000001000080186BUENAVENTURA        05079111B/VENTURA 00
00912160300000CCTRO CIAL PEREIRA  PLAZA   3000001000070715CTRO.OPER.PEREIRA   04059121PEREIRA   00
00913160300000CCTRO CIAL VICTORIA PLAZA   3000001000070715CTRO.OPER.PEREIRA   04059131PEREIRA   00
00914110100000CMUNICIPIO GUARNE           C000001000060701CENT.OPRA.REG.ANTIOQ04029141GUARNE    00
00915030200050CGERENTE PREMIUM 20         4000001000010100OPERA/NES CENT/ZADAS37029151BOGOTA    00
00916000000000NUNIDADA DE VIVIENDA        4000001000000100OPERA/NES CENT/ZADAS00009161BOGOTA    00
00920030200000BOFICINA SIBERIA            4000001000090100OPERA/NES CENT/ZADAS08069201SIBERIA-CT02
00921000000000NDIRECCION DE CONTABILIDAD  4000001000000100OPERA/NES CENT/ZADAS00009210BOGOTA    00
00924030200000BOFI PREMIUM URBAN PLAZA    4000001000090100OPERA/NES CENT/ZADAS37019241BOGOTA    02
00934000000000NVICEP.INTERNAL Y TESORERIA 4000001000000100OPERA/NES CENT/ZADAS00009340BOGOTA    00
00937130200000POFICINA GIGANTE            4000001000010937GIGANTE             08049371GIGANTE   02
00939140500000CEXT OF TERMIN TRANSP PASTO B000001000150466PASTO               05069391PASTO     00
00940000000000NGCIA OPE TRANS ELECTRONICAS4000001000000100OPERA/NES CENT/ZADAS00099340BOGOTA    00
00941030000050BGCIA BCA SOC FED NAC CAFETE4000001000010100OPERA/NES CENT/ZADAS10029411BOGOTA    02
00942110100000CMUNICIPIO SANTUARIO        C000001000060701CENT.OPRA.REG.ANTIOQ04029421SANTUARIO 00
00943031200000NCOE DE TALENTO Y CULTURA   4000001000010100OPERA/NES CENT/ZADAS09099431BOGOTA    00
00944000000000NDIR CADENA D ABASTECIMIENTO4000001000180100OPERA/NES CENT/ZADAS09099441BOGOTA    22
00946020200000CALIANZA CON PORVENIR       4000001000150100OPERA/NES CENT/ZADAS09099461BOGOTA    22
00948030200000CCTRO CCIAL MIRAFLOREZ      4000001000090100OPERA/NES CENT/ZADAS42239481SOACHA    00
00949000000000NDIRECCION REGION ANTIOQUIA C000001000000701CTRO. OP.RG.ANT/QUIA03017011MEDELLIN  00
00956000000000NGCIA OPE PASIV TRANS ELEC  4000001000000100OPERA/NES CENT/ZADAS00009560BOGOTA    00
00958000000000NDIRECCION REGION COSTA     A000001000000707CTRO. OP.RG.COSTA   06017071B/RRANQ   00
00959000000000NDIRECCION REGION OCCIDENTE B000001000000706CTRO. OP.RG.OCCIDENT05017061CALI      00
00960000000000NDIRECCION REGIONAL CENTRAL 4000001000000100OPERA/NES CENT/ZADAS09099601BOGOTA    00
00961000000000NDIRECCION REGION ORIENTE   1000001000000713CTRO. OP.RG.ORIENTE 07017131B/MANGA   00
00965030200000CPREMIUM SAN FERNANDO PLAZA C000001000010701CENT.OPRA.REG.ANTIOQ37059651MEDELLIN  00
00966030200000CGERENTE PREMIUM 5          C000001000010701CENT.OPRA.REG.ANTIOQ37059661MEDELLIN  00
00967030200000CGERENTE PREMIUM 6          C000001000010701CENT.OPRA.REG.ANTIOQ37059671MEDELLIN  00
00968030200000CPREMIUM CTR.CIAL.UNICENTRO B000001000010706CTRO.OPER.REG.OCCIDE37059681CALI      00
00969030200000CGERENTE PREMIUM 7          B000001000010706CTRO.OPER.REG.OCCIDE37059691CALI      00
00970030200050BGER EMPRESARIAL 970        4000001000010100OPERA/NES CENT/ZADAS40019701BOGOTA    02
00971030200000CGERENTE PREMIUM 8          B000001000010706CTRO.OPER.REG.OCCIDE37059711CALI      00
00972030200000CGERENTE PREMIUM 9          B000001000010706CTRO.OPER.REG.OCCIDE37059721CALI      00
00973030200050CGERENCIA PREMIUM 26        4000001000010100OPERA/NES CENT/ZADAS37029731BOGOTA    00
00975030200000CPREMIUM CTR.EMP.LAS AME.II A000001000010707CTRO.OPE.REG.COSTA  37069751B/QUILLA  00
00977030200000CGERENTE PREMIUM 10         A000001000010707CTRO.OPE.REG.COSTA  37069771B/QUILLA  00
00978030200000CGERENTE PREMIUM 11         A000001000010707CTRO.OPE.REG.COSTA  37069781B/QUILLA  00
00979180600000COFICINA ALAMEDA REYES      C000001000170578QUIBDO              04029791QUIBDO    00
00980110100000CSAN PEDRO DE LOS MILAGROS  C000001000060701CENT.OPRA.REG.ANTIOQ04079801MEDELLIN  00
00981011000000PCENTR COMER UNICENTRO ARMEN3000001000070138ARMENIA             04049811ARMENIA   00
00982110000050NCONVENIO EMPLEADOS JUSTICIAC000001000140701CENT.OPRA.REG.ANTIOQ04049821MEDELLIN  08
00983110100000CLA ESTRELLA                C000001000060701CENT.OPRA.REG.ANTIOQ42519831ESTRELLA  00
00984110400000CPUERTO BOYACA              C000001000060984APTO BOYACA         04069841PTO BOYACA00
00985030200000CPREMIUM CABECERA           1000001000010713CENT.OPRA.REG.ORIEN 37069851B/MANGA   00
00986030200000CGERENCIA PREMIUM 12        1000001000010713CENT.OPRA.REG.ORIEN 37069861B/MANGA   00
00987030200000CGERENCIA PREMIUM 13        1000001000010713CENT.OPRA.REG.ORIEN 37069871B/MANGA   00
00988000000000NGCIA ADMIN Y SERV ORIENTE  1000001000000713CENT.OPRA.REG.ORIEN 07099881B/MANGA   00
00989030500000BCALLE 122 CARRERA 15 A     4000001000010100OPERA/NES CENT/ZADAS42059891BOGOTA    00
00990030000000NG.OPER ATENCION ENTES EXTER4000001000000100OPERA/NES CENT/ZADAS09009901BOGOTA    00
00991050700000CEL PORVENIR                B000001000150706CENT.OPER.REG.OCCIDE05029911CALI      06
00992030200000CGERENTE PREMIUM 14         C000001000010701CENT.OPRA.REG.ANTIOQ37059921MEDELLIN  00
00993220100000CVILLANUEVA                 4000001000180993VILLANUEVA          08019931VILL/VA   00
00994110400000COFIC REC Y PAGO ITAGUI     C000001000090701CENT.OPRA.REG.ANTIOQ04099941ITAGUI    08
00995030200000BCALLE 98                   4000001000090100OPERA/NES CENT/ZADAS02049951BOGOTA    02
00996020200000CCTR EMPRES. LAS AMERICAS   A000001000080707CTRO.OPE.REG.COSTA  06019961B/QUILLA  03
00997020200000CEXTENSION OFI. BECERRIL    A000001000080997CTRO.OPE.REG.COSTA  06049971BECERRIL  00
01003050000050NNORMAL PMP CARTERA ANTQ PMPC000001000000701CENT.OPRA.REG.ANTIOQ04180031MEDELLIN  22
01004000000050NGCIA PREFERENTE 1004       4000001000000100OPERA/NES CENT/ZADAS41010041BOGOTA    22
01005000000050NGCIA PREFERENTE 1005       4000001000000100OPERA/NES CENT/ZADAS41010051BOGOTA    22
01006000000050NGCIA PREFERENTE 1006       4000001000000100OPERA/NES CENT/ZADAS41010061BOGOTA    22
01007000000050NGCIA PREFERENTE 1007       4000001000000100OPERA/NES CENT/ZADAS41010071BOGOTA    22
01008000000050NGCIA PREFERENTE 1008       4000001000000100OPERA/NES CENT/ZADAS41010081BOGOTA    22
01009000000050NGCIA PREFERENTE 1009       4000001000000100OPERA/NES CENT/ZADAS41010091BOGOTA    22
01010000000050NGCIA PREFERENTE 1010       4000001000000100OPERA/NES CENT/ZADAS41010101BOGOTA    22
01011000000050NGCIA PREFERENTE 1011       4000001000000100OPERA/NES CENT/ZADAS41010111BOGOTA    22
01012000000050NGCIA PREFERENTE 1012       4000001000000100OPERA/NES CENT/ZADAS41010121BOGOTA    22
01013000000050NGCIA PREFERENTE 1013       4000001000000100OPERA/NES CENT/ZADAS41010131BOGOTA    22
01014000000050NGCIA PREFERENTE 1014       4000001000000100OPERA/NES CENT/ZADAS41010141BOGOTA    22
01015000000050NGCIA PREFERENTE 1015       4000001000000100OPERA/NES CENT/ZADAS41010151BOGOTA    22
01016000000050NGCIA PREFERENTE 1016       4000001000000100OPERA/NES CENT/ZADAS41010161BOGOTA    22
01021000000000CGCIA PREMIUM 38            4000000000000100OPERA/NES CENT/ZADAS37010211BOGOTA    00
01022000000000CGCIA PREMIUM 39            4000000000000100OPERA/NES CENT/ZADAS37010221BOGOTA    00
01023000000000CGERENCIA PREMIUM 43        C000000000000701CTRO.OPE.REG.ANTIOQ 37050001MEDELLIN  00
01026060400000CGERENCIA PREMIUM 46        A000001000150707CTRO.OPE.REG.COSTA  37065491CARTAGENA 00
01027060400000CGERENCIA PREMIUM 47        A000001000150707CTRO.OPE.REG.COSTA  37065491CARTAGENA 00
010280501706000GERENCIA PREMIUM 48        B000001000000706CTRO.OPER.REG.OCCIDE37050281CALI      22
010290501706000GERENCIA PREMIUM 49        B000001000000706CTRO.OPER.REG.OCCIDE37050291CALI      22
010300501706000GERENCIA PREMIUM 50        B000001000000706CTRO.OPER.REG.OCCIDE37050301CALI      22
01031041100050CGER EMPRESARIAL 1031       1000001000080100OPERA/NES CENT/ZADAS01090311CUCUTA    00
01032000000000CGER ZNA EMPRESARIAL BTA 2A 4000001000010100OPERA/NES CENT/ZADAS01040321BOGOTA    22
01033000000000CGER PYME 1033              4000001000010100OPERA/NES CENT/ZADAS43010331BOGOTA    22
01034000000000CGER EMPRESARIAL 1034       4000001000010100OPERA/NES CENT/ZADAS40010341BOGOTA    22
01035000000000CGER CORPORATIVO 1035       C000000000000701CTRO.OPE.REG.ANTIOQ 11010351MEDELLIN  00
01036000000000CGER CORPORATIVO 1036       A000000000000707CTRO.OPE.REG.COSTA  13010361BQUILLA   00
01037000000000CGCIA NORM CORP COSTA       A000000000000707CTRO.OPE.REG.COSTA  13010371BQUILLA   00
01038030200050BGCIA NORM EMP BTA 2        4000001000010100OPERA/NES CENT/ZADAS15010381BOGOTA    22
01041000000000NCARTERA VEHICULOS BOGOTA   B000001000180706CENT.OPER.REG.OCCIDE21010031CALI      00
01042031200000NNORMALIZ.BOGOTA            4000001000010100OPERA/NES CENT/ZADAS27090421BOGOTA    00
01043031200000NNORMALIZ.COSTA.ORIENTE     4000001000010100OPERA/NES CENT/ZADAS27100431BOGOTA    00
01044000000000CCOMPRA CARTERA SERVICREDITOC000000000000701CTRO.OPE.REG.ANTIOQ 04110441MEDELLIN  00
01045050000050PNORMALIZ.ANT.OCCIDENTE     B000001000000706CTRO OPER REG.OCCIDE27080451CALI      22
010460501706000GERENCIA PREMIUM 58        B000001000000706OPERA/NES CENT/ZADAS37050461CALI      00
01047030200000CGERENCIA PREMIUM 59        4000001000010100OPERA/NES CENT/ZADAS37020471BOGOTA    00
01048030200000CGERENCIA PREMIUM 60        4000001000010100OPERA/NES CENT/ZADAS37020481BOGOTA    00
01049030200000CGERENCIA PREMIUM 61        4000001000010100OPERA/NES CENT/ZADAS37020491BOGOTA    00
01050030200000CGERENCIA PREMIUM 62        4000001000010100OPERA/NES CENT/ZADAS37020501BOGOTA    00
01051000000000CGERENCIA PREMIUM 51        A000000000000707CTRO.OPE.REG.COSTA  37060511BQUILLA   22
01052000000000CGERENCIA PREMIUM 52        A000000000000707CTRO.OPE.REG.COSTA  37060521BQUILLA   22
01053000000000CGERENCIA PREMIUM 53        3000001000000715CTRO.OPE.PEREIRA    37050531PEREIRA   22
01054000000000CGERENCIA PREMIUM 54        3000001000000715CTRO.OPE.PEREIRA    37050541PEREIRA   22
01055000000000NGCIA NAL NORMALIZA BC EMP  4000001000180100OPERA/NES CENT/ZADAS09090551BOGOTA    22
01056000000000CGERENCIA PREMIUM 55        1000000000000713CTRO.OPE.REG.ORIENTE37060561FLORIDBLCA22
01057000000000CGERENCIA PREMIUM 56        A000000000000707OPERA/NES CENT/ZADAS37060571BQUILLA   22
01058030200000CGERENCIA PREMIUM 57        4000001000010100OPERA/NES CENT/ZADAS37020581BOGOTA    00
01059030200000CGERENCIA PREMIUM 63        C000001000010701OPERA/NES CENT/ZADAS37050591MEDELLIN  00
01060030200000CGERENCIA PREMIUM 64        C000001000010701OPERA/NES CENT/ZADAS37050601MEDELLIN  00
01061030200000CGERENCIA PREMIUM 65        C000001000010701OPERA/NES CENT/ZADAS37050611MEDELLIN  00
01062030200000CGERENCIA PREMIUM 66        4000001000010100OPERA/NES CENT/ZADAS37020621BOGOTA    00
01063110200050CGER CORPORATIVO 1063       C000001000140701CENT.OPRA.REG.ANTIOQ11020631MEDELLIN  22
01064030200000CGERENCIA PREMIUM 67        B000001000010706OPERA/NES CENT/ZADAS37050641CALI      00
01065031200000NZONA 1 BOGOTA VEHICULOS    4000001000010100OPERA/NES CENT/ZADAS21010651BOGOTA    00
01066031200000NZONA 2 BOGOTA VEHICULOS    4000001000010100OPERA/NES CENT/ZADAS21010661BOGOTA    00
01067031200000NZONA 3 BOGOTA VEHICULOS    4000001000010100OPERA/NES CENT/ZADAS21010671BOGOTA    00
01068000000000NZONA 2 ANTIOQUIA VEHICULOS C000001000000701CENT.OPRA.REG.ANTIOQ21040681MEDELLIN  00
01069050000050NZONA 1 BQUILLA VEHICULOS   A000001000000707CENT.OPRA.REG.COSTA 21070691BQUILLA   00
01070000000000NZONA 1 ANTIOQUIA VEHICULOS C000001000000701CENT.OPRA.REG.ANTIOQ21040701MEDELLIN  00
01071050600000CGERENCIA PREMIUM 68        4000001000160100OPERA/NES CENT/ZADAS37010711BOGOTA    00
01072050600000CGERENCIA PREMIUM 69        4000001000160100OPERA/NES CENT/ZADAS37020721BOGOTA    00
01073050600000CGERENCIA PREMIUM 70        4000001000160100OPERA/NES CENT/ZADAS37020731BOGOTA    00
01074031200000NCARTERA LEASING CORFICOLOMB4000001000010100OPERA/NES CENT/ZADAS09090741BOGOTA    22
01075050600000CGERENCIA PREMIUM 71        4000001000160100OPERA/NES CENT/ZADAS37020751BOGOTA    00
01076030200000CGERENCIA PREMIUM 72        4000001000010100OPERA/NES CENT/ZADAS37020761BOGOTA    00
01077030200000CGERENCIA PREMIUM 73        4000001000010100OPERA/NES CENT/ZADAS37020771BOGOTA    00
01078030200000CGERENCIA PREMIUM 74        4000001000010100OPERA/NES CENT/ZADAS37020781BOGOTA    00
01079030200000CGERENCIA PREMIUM 75        4000001000010100OPERA/NES CENT/ZADAS37020791BOGOTA    00
01080030200000CGERENCIA PREMIUM 76        A000001000010713OPERA/NES CENT/ZADAS37060801B/MANGA   00
01081000000000CGER CORPORATIVO 1081       A000000000000707CTRO.OPE.REG.COSTA  13020811BQUILLA   22
01082000000000CGER EMPRESARIAL 1082       C000000000000701CTRO.OPE.REG.ANTIOQ 16010821MEDELLIN  22
01083000000050NGER CORPORATIVO 1083       4000001000000100OPERA/NES CENT/ZADAS03010831BOGOTA    22
01084000000050NGER EMPRESARIAL 1084       4000001000000100OPERA/NES CENT/ZADAS40010841BOGOTA    22
01085000000050NGER EMPRESARIAL 1085       4000001000000100OPERA/NES CENT/ZADAS40010851BOGOTA    22
01086040000050NGER EMPRESARIAL 1086       1000001000000713CTRO.OPE.REG.ORIENTE39010861BMANGA    22
01087000000050NGCIA PREFERENTE 1087       4000001000000100OPERA/NES CENT/ZADAS41020871BOGOTA    22
01088000000050NGCIA PREFERENTE 1088       4000001000000100OPERA/NES CENT/ZADAS41020881BOGOTA    22
01089000000050NGCIA PREFERENTE 1089       4000001000000100OPERA/NES CENT/ZADAS41020891BOGOTA    22
01090000000050NGCIA PREFERENTE 1090       4000001000000100OPERA/NES CENT/ZADAS41020901BOGOTA    22
01091000000050NGCIA PREFERENTE 1091       4000001000000100OPERA/NES CENT/ZADAS41020911BOGOTA    22
01092000000050NGCIA PREFERENTE 1092       4000001000000100OPERA/NES CENT/ZADAS41020921BOGOTA    22
01093000000050NGCIA PREFERENTE 1093       4000001000000100OPERA/NES CENT/ZADAS41020931BOGOTA    22
01094000000050NGCIA PREFERENTE 1094       4000001000000100OPERA/NES CENT/ZADAS41020941BOGOTA    22
01095000000050NGCIA PREFERENTE 1095       4000001000000100OPERA/NES CENT/ZADAS41020951BOGOTA    22
01096000000050NGCIA PREFERENTE 1096       4000001000000100OPERA/NES CENT/ZADAS41020961BOGOTA    22
01097000000050NGCIA PREFERENTE 1097       4000001000000100OPERA/NES CENT/ZADAS41020971BOGOTA    22
01098000000050NGCIA PREFERENTE 1098       4000001000000100OPERA/NES CENT/ZADAS41020981BOGOTA    22
01099000000050NGCIA PREFERENTE 1099       4000001000000100OPERA/NES CENT/ZADAS41020991BOGOTA    22
01100000000050NGCIA PREFERENTE 1100       4000001000000100OPERA/NES CENT/ZADAS41031001BOGOTA    22
01101000000050NGCIA PREFERENTE 1101       4000001000000100OPERA/NES CENT/ZADAS41031011BOGOTA    22
01102000000050NGCIA PREFERENTE 1102       4000001000000100OPERA/NES CENT/ZADAS41031021BOGOTA    22
01103000000050NGCIA PREFERENTE 1103       4000001000000100OPERA/NES CENT/ZADAS41031031BOGOTA    22
01104000000050NGCIA PREFERENTE 1104       4000001000000100OPERA/NES CENT/ZADAS41031041BOGOTA    22
01105000000050NGCIA PREFERENTE 1105       4000001000000100OPERA/NES CENT/ZADAS41031051BOGOTA    22
01106000000050NGCIA PREFERENTE 1106       4000001000000100OPERA/NES CENT/ZADAS41031061BOGOTA    22
01107000000050NGCIA PREFERENTE 1107       4000001000000100OPERA/NES CENT/ZADAS41031071BOGOTA    22
01108000000050NGCIA PREFERENTE 1108       4000001000000100OPERA/NES CENT/ZADAS41031081BOGOTA    22
01109000000050NGCIA PREFERENTE 1109       4000001000000100OPERA/NES CENT/ZADAS41031091BOGOTA    22
01110000000050NGCIA PREFERENTE 1110       4000001000000100OPERA/NES CENT/ZADAS41031101BOGOTA    22
01111000000050NGCIA PREFERENTE 1111       4000001000000100OPERA/NES CENT/ZADAS41031111BOGOTA    22
01112000000050NGCIA PREFERENTE 1112       4000001000000100OPERA/NES CENT/ZADAS41031121BOGOTA    22
01113000000000CGERENCIA PREMIUM 77        A000000000000707OPERA/NES CENT/ZADAS37061131BQUILLA   22
01114030200050CGERENCIA PREMIUM 78        4000001000010100OPERA/NES CENT/ZADAS37011141BOGOTA    22
01115000000000CGERENCIA PREMIUM 79        A000000000000707OPERA/NES CENT/ZADAS37061151BQUILLA   22
01116030200000CGERENCIA PREMIUM 80        4000001000010100OPERA/NES CENT/ZADAS37021161BOGOTA    00
01117000000050NGER EMPRESARIAL 1117       4000001000000100OPERA/NES CENT/ZADAS40011171BOGOTA    22
01118030200000CGERENCIA PREMIUM 81        4000001000010100OPERA/NES CENT/ZADAS37021181BOGOTA    00
01119030200000CGERENCIA PREMIUM 82        4000001000010100OPERA/NES CENT/ZADAS37021191BOGOTA    00
011200000000000GERENCIA PREMIUM 83        4000000000000100OPERA/NES CENT/ZADAS37011201BOGOTA    00
011210000000000GERENCIA PREMIUM 84        4000000000000100OPERA/NES CENT/ZADAS37011211BOGOTA    00
01122030200000CGERENCIA PREMIUM 85        1000001000010713OPERA/NES CENT/ZADAS37061221BMANGA    00
01123030200000CGERENCIA PREMIUM 86        1000001000010713OPERA/NES CENT/ZADAS37061231BMANGA    00
011240501706000GERENCIA PREMIUM 87        B000001000000827OPERA/NES CENT/ZADAS37051241CALI      00
01125370500000PMICROFINANZAS OCC IV IPIALEB000001000120374IPIALES             09091251IPIALES   22
01126050500050CMICROF OCCIDENTE V POPAYAN B000001000070520POPAYAN             09091261POPAYAN   22
01127250900000CMICROF COSTA VII RIOHACHA  A000001000160530RIOHACHA            09091271RIOHACHA  22
01128000000000CMICROF BOGOTA OCCIDENTE    4000001000010100OPERA/NES CENT/ZADAS09091281BOGOTA    22
01129130200000PMICROF CENTRAL V PITALITO  4000001000010793PITALITO            09091291PITALITO  22
011300501706000GERENCIA PREMIUM 88        B000001000000827OPERA/NES CENT/ZADAS37051301CALI      00
01131050000050NMICROF COSTA VIII SOLEDAD  A000001000000707CENT.OPRA.REG.COSTA 09091310SOLEDAD   22
01132031200000NMICROF ORIENTE VI SAN GIL  1000001000010713CTRO.OPE.REG.ORIENTE09091321SAN GIL   00
01133031200000NMICROF ORIENTE VII YOPAL   1000001000010646YOPAL               09091331YOPAL     00
01134000000000NMICROF ANTIOQUIA VII QUIBDOC000001000000578QUIBDO              09091341QUIBDO    00
011350501706000GERENCIA PREMIUM 89        B000001000000827OPERA/NES CENT/ZADAS37051351CALI      00
01136110400050CGERENCIA BANCA PYME 49     C000001000070701CENT.OPRA.REG.ANTIOQ32021361MEDELLIN  22
01137030200000CGERENCIA PREMIUM 90        C000001000010701OPERA/NES CENT/ZADAS37051371MEDELLIN  00
01138030200000CGERENCIA PREMIUM 91        C000001000010701OPERA/NES CENT/ZADAS37051381MEDELLIN  00
01139030200000CGERENCIA PREMIUM 92        C000001000010701OPERA/NES CENT/ZADAS37051391MEDELLIN  00
01141031200000NMICROF CENTRAL VI GIRARDOT 4000001000010100OPERA/NES CENT/ZADAS09091411GIRARDOT  22
01142000000000NMICROF ANTIOQ VIII ARMENIA 3000001000010715CTRO.OPER.PEREIRA   09091421ARMENIA   22
01152110400050CGERENCIA BANCA PYME 50     C000001000070701CENT.OPRA.REG.ANTIOQ32021521MEDELLIN  22
01153030200050BGERENC MEDIANA EMPRESA 11534000001000010100OPERA/NES CENT/ZADAS17011531ZIPAQUIRA 22
01154030200050BGERENC MEDIANA EMPRESA 11544000001000010100OPERA/NES CENT/ZADAS17011541BOGOTA    22
01155030200050BGERENC MEDIANA EMPRESA 11554000001000010100OPERA/NES CENT/ZADAS17011551BOGOTA    22
01156030200050BGERENC MEDIANA EMPRESA 11564000001000010100OPERA/NES CENT/ZADAS17011561BOGOTA    22
01157030200050BGERENC MEDIANA EMPRESA 11574000001000010100OPERA/NES CENT/ZADAS17011571BOGOTA    22
01158030200050BGERENC MEDIANA EMPRESA 11584000001000010100OPERA/NES CENT/ZADAS17011581BOGOTA    22
01159030200050BGERENC MEDIANA EMPRESA 11594000001000010100OPERA/NES CENT/ZADAS17011591BOGOTA    22
01160030200050BGERENC MEDIANA EMPRESA 11604000001000010100OPERA/NES CENT/ZADAS17011601BOGOTA    22
01161030200050BGERENC MEDIANA EMPRESA 11614000001000010100OPERA/NES CENT/ZADAS17011611BOGOTA    22
01162030200050BGERENC MEDIANA EMPRESA 11624000001000010100OPERA/NES CENT/ZADAS17011621BOGOTA    22
01163030200050BGERENC MEDIANA EMPRESA 11634000001000010100OPERA/NES CENT/ZADAS17021631BOGOTA    22
01164030200050BGERENC MEDIANA EMPRESA 11644000001000010100OPERA/NES CENT/ZADAS17021641BOGOTA    22
01165030200050BGERENC MEDIANA EMPRESA 11654000001000010100OPERA/NES CENT/ZADAS17021651BOGOTA    22
01166030200050BGERENC MEDIANA EMPRESA 11664000001000010100OPERA/NES CENT/ZADAS17021661BOGOTA    22
01167030200050BGERENC MEDIANA EMPRESA 11674000001000010100OPERA/NES CENT/ZADAS17021671BOGOTA    22
01168030200050BGERENC MEDIANA EMPRESA 11684000001000010100OPERA/NES CENT/ZADAS17021681BOGOTA    22
01169030200050BGERENC MEDIANA EMPRESA 11694000001000010100OPERA/NES CENT/ZADAS17021691BOGOTA    22
01170030200050BGERENC MEDIANA EMPRESA 11704000001000010100OPERA/NES CENT/ZADAS17031701BOGOTA    22
01171030200050BGERENC MEDIANA EMPRESA 11714000001000010100OPERA/NES CENT/ZADAS17031711BOGOTA    22
01172030200050BGERENC MEDIANA EMPRESA 11724000001000010100OPERA/NES CENT/ZADAS17031721BOGOTA    22
01173030200050BGERENC MEDIANA EMPRESA 11734000001000010100OPERA/NES CENT/ZADAS17031731BOGOTA    22
01174030200050BGERENC MEDIANA EMPRESA 11744000001000010100OPERA/NES CENT/ZADAS17031741BOGOTA    22
01175030200050BGERENC MEDIANA EMPRESA 11754000001000010100OPERA/NES CENT/ZADAS17031751BOGOTA    22
01176030200050BGERENC MEDIANA EMPRESA 11764000001000010100OPERA/NES CENT/ZADAS17031761BOGOTA    22
01177030200050BGERENC MEDIANA EMPRESA 11774000001000010100OPERA/NES CENT/ZADAS17031771BOGOTA    22
01178030200050BGERENC MEDIANA EMPRESA 11784000001000010100OPERA/NES CENT/ZADAS17031781BOGOTA    22
01179041100050CGERENC MEDIANA EMPRESA 11791000001000080713CTRO.OPE.REG.ORIENTE17041791BA/BERMEJA22
01180041100050CGERENC MEDIANA EMPRESA 11801000001000080713CTRO.OPE.REG.ORIENTE17041801BU/MANGA  22
01181041100050CGERENC MEDIANA EMPRESA 11811000001000080713CTRO.OPE.REG.ORIENTE17041811BU/MANGA  22
01182041100050CGERENC MEDIANA EMPRESA 11821000001000080713CTRO.OPE.REG.ORIENTE17041821BU/MANGA  22
01183041100050CGERENC MEDIANA EMPRESA 11831000001000080713CTRO.OPE.REG.ORIENTE17041831CUCUTA    22
01184320700050PGERENC MEDIANA EMPRESA 11844000001000050351CTRO.V/CENCIO       17051841V/CENCIO  22
01185320700050PGERENC MEDIANA EMPRESA 11854000001000050100OPERA/NES CENT/ZADAS17051851NEIVA     22
01186320700050PGERENC MEDIANA EMPRESA 11861000001000050713CTRO.OPE.REG.ORIENTE17041861TUNJA     22
01187320700050PGERENC MEDIANA EMPRESA 11874000001000050351CTRO.V/CENCIO       17051871V/CENCIO  22
01188320700050PGERENC MEDIANA EMPRESA 11881000001000050646YOPAL               17041881YOPAL     22
01189020200000CGERENC MEDIANA EMPRESA 1189A000001000080707CTRO.OPE.REG.COSTA  17061891B/QUILLA  22
01190020200000CGERENC MEDIANA EMPRESA 1190A000001000080707CTRO.OPE.REG.COSTA  17061901B/QUILLA  22
01191020200000CGERENC MEDIANA EMPRESA 1191A000001000080707CTRO.OPE.REG.COSTA  17061911B/QUILLA  22
01192020200000CGERENC MEDIANA EMPRESA 1192A000001000080707CTRO.OPE.REG.COSTA  17061921MONTERIA  22
01193020200000CGERENC MEDIANA EMPRESA 1193A000001000080707CTRO.OPE.REG.COSTA  17061931S/MARTA   22
01194020200000CGERENC MEDIANA EMPRESA 1194A000001000080592SINCELEJO           17061941SINCELEJO 22
01195110400050CGERENCIA BANCA PYME 51     C000001000070701CENT.OPRA.REG.ANTIOQ32011951MEDELLIN  22
01196020200000CGERENC MEDIANA EMPRESA 1196A000001000080707CTRO.OPE.REG.COSTA  17061961V/DUPAR   22
01197110200000CGERENC MEDIANA EMPRESA 11973000001000090715CTRO.OPER.PEREIRA   17051972ARMENIA   22
01198110200000CGERENC MEDIANA EMPRESA 11983000001000090428MANIZALES           17051982MANIZALES 22
01199110200000CGERENC MEDIANA EMPRESA 1199C000001000090701CENT.OPRA.REG.ANTIOQ17071992MEDELLIN  22
01200110200000CGERENC MEDIANA EMPRESA 1200C000001000090701CENT.OPRA.REG.ANTIOQ17072002MEDELLIN  22
01201110200000CGERENC MEDIANA EMPRESA 1201C000001000090701CENT.OPRA.REG.ANTIOQ17072012MEDELLIN  22
01202110200000CGERENC MEDIANA EMPRESA 1202C000001000090701CENT.OPRA.REG.ANTIOQ17072022MEDELLIN  22
01203110200000CGERENC MEDIANA EMPRESA 1203C000001000090701CENT.OPRA.REG.ANTIOQ17072032MEDELLIN  22
01204110200000CGERENC MEDIANA EMPRESA 1204C000001000090701CENT.OPRA.REG.ANTIOQ17072042MEDELLIN  22
01205110200000CGERENC MEDIANA EMPRESA 1205C000001000090701CENT.OPRA.REG.ANTIOQ17072052MEDELLIN  22
01206110200000CGERENC MEDIANA EMPRESA 1206C000001000090701CENT.OPRA.REG.ANTIOQ17072062MEDELLIN  22
01207110200000CGERENC MEDIANA EMPRESA 1207C000001000090701CENT.OPRA.REG.ANTIOQ17072072MEDELLIN  22
01208110200000CGERENC MEDIANA EMPRESA 12083000001000090715CTRO.OPER.PEREIRA   17052082PEREIRA   22
01209031200000NGERENC MEDIANA EMPRESA 1209B000001000000706CENT.OPER.REG.OCCIDE17082091CALI      22
01210031200000NGERENC MEDIANA EMPRESA 1210B000001000000706CENT.OPER.REG.OCCIDE17082101CALI      22
01211031200000NGERENC MEDIANA EMPRESA 1211B000001000000188BUGA                17082111BUGA      22
01212031200000NGERENC MEDIANA EMPRESA 1212B000001000000706CENT.OPER.REG.OCCIDE17082121CALI      22
01213031200000NGERENC MEDIANA EMPRESA 1213B000001000000706CENT.OPER.REG.OCCIDE17082131CALI      22
01214031200000NGERENC MEDIANA EMPRESA 1214B000001000000100CENT.OPER.REG.OCCIDE17082141CALI      22
01215031200000NGERENC MEDIANA EMPRESA 1215B000001000000706CENT.OPER.REG.OCCIDE17082151CALI      22
01216031200000NGERENC MEDIANA EMPRESA 1216B000001000000706CENT.OPER.REG.OCCIDE17082161CALI      22
01217000000000CGERENC MEDIANA EMPRESA 1217B000000000000466PASTO               17082170PASTO     22
01227050000050PGERENCIA PYME 134          3000001000000428MANIZALES           27012271MANIZALES 00
01228150200000PGERENCIA BANCA PYME 135    B000001000080188BUGA                33032281BUGA      00
01229030200050BGERENCIA PYME 136 CALLE 80 4000001000010100OPERA/NES CENT/ZADAS27032291COTA      22
01231050500050CGERENCIA PYME POPAYAN      B000001000070520POPAYAN             27062311POPAYAN   22
01234050500050CGERENCIA PYME 52           B000001000070706CENT OPER REG OCCIDE27062341CALI      00
01243020200000CCTR DE EXPERIENCIA BQUILLA A000001000080707CTRO.OPE.REG.COSTA  06012431BQUILLA   00
01254040200050CGCIA NORM EMP ANTIOQ       C000001000080701CENT.OPRA.REG.ANTIOQ16012541MEDELLIN  22
01255050200050CGCIA NORM EMP OCCID        B000001000080706CENT.OPER.REG.OCCIDE38012551CALI      22
01256040200050CGCIA NORM EMP CENTRORI     1000001000080713CTRO.OPE.REG.ORIENTE39012561B/MANGA   22
01257030200050BGCIA NORM EMP COSTA        A000001000080707CTRO.OPE.REG.COSTA  39012571B/QUILLA  22
01258000000050NGCIA DE NORM EMPRESARIAL 3 4000001000000100OPERA/NES CENT/ZADAS40012581BOGOTA    00
01259000000050NGCIA PREFERENTE 1259       4000001000000100OPERA/NES CENT/ZADAS41042591BOGOTA    22
01260000000050NGCIA PREFERENTE 1260       4000001000000100OPERA/NES CENT/ZADAS41042601BOGOTA    22
01261000000050NGCIA PREFERENTE 1261       4000001000000100OPERA/NES CENT/ZADAS41042611BOGOTA    22
01262000000050NGCIA PREFERENTE 1262       4000001000000100OPERA/NES CENT/ZADAS41042621BOGOTA    22
01263000000050NGCIA PREFERENTE 1263       4000001000000100OPERA/NES CENT/ZADAS41042631BOGOTA    22
01264000000050NGCIA PREFERENTE 1264       4000001000000100OPERA/NES CENT/ZADAS41042641BOGOTA    22
01265000000050NGCIA PREFERENTE 1265       4000001000000100OPERA/NES CENT/ZADAS41042651BOGOTA    22
01266000000050NGCIA PREFERENTE 1266       4000001000000100OPERA/NES CENT/ZADAS41042661BOGOTA    22
01267000000050NGCIA PREFERENTE 1267       4000001000000100OPERA/NES CENT/ZADAS41042671BOGOTA    22
