00000031200000BOFICINA PRINCIPAL          4000001000010100OPERA/NES CENT/ZADAS42130001BOGOTA    22
00001000000000NEL MUNA                    4000001000010100OPERA/NES CENT/ZADAS03020011BOGOTA    00
00002030400000BI.S.S. CAN                 4000001000010100OPERA/NES CENT/ZADAS42260521BOGOTA    22
00003031200000BOFICINA PRINCIPAL          4000001000010100OPERA/NES CENT/ZADAS42110001BOGOTA    22
000040302000000CALLE 53 EXITO             4000001000000100OPERA/NES CENT/ZADAS02020041BOGOTA    22
00005030500000BSUBA                       4000001000010100OPERA/NES CENT/ZADAS42020391BOGOTA    22
00006030500000BCEDRITOS                   4000001000010100OPERA/NES CENT/ZADAS42010621BOGOTA    02
00007030500000BANTIGUO COUNTRY            4000001000010100OPERA/NES CENT/ZADAS42030401BOGOTA    22
000080307000012EL CHICO                   4000001000000100OPERA/NES CENT/ZADAS42030391BOGOTA    22
00009030600000BCALLE 100                  4000001000010100OPERA/NES CENT/ZADAS42070391BOGOTA    02
000100307000025AVENIDA CARACAS            4000001000000100OPERA/NES CENT/ZADAS14100101BOGOTA    22
000113204000000BACATA FUNZA               4000001000000100OPERA/NES CENT/ZADAS08060111FUNZA     22
00012030700000BPASADENA                   4000001000010100OPERA/NES CENT/ZADAS42100391BOGOTA    02
000130002000000GALAN                      1000001000000100B/MEJA              06040131B/MEJA    00
000140304000012LOS HEROES                 4015431000000100OPERA/NES CENT/ZADAS42080401BOGOTA    22
00015030300000BMALL PLAZA NQS             4000001000090100OPERA/NES CENT/ZADAS42110151BOGOTA    22
000163203000001COTA                       4015291000000100OPERA/NES CENT/ZADAS02086601BOGOTA    22
000170311000026CENTRO URBANO ANTONIO NARIN4014471000000100OPERA/NES CENT/ZADAS14010171BOGOTA    22
00018030600000BZONA INDUSTRIAL MONTEVIDEO 4000001000010100OPERA/NES CENT/ZADAS42180181BOGOTA    22
00019030700000BBARRIO RESTREPO            4000001000010100OPERA/NES CENT/ZADAS42200581BOGOTA    22
000200304000028SAN JOSE                   4014751000000100OPERA/NES CENT/ZADAS14060201BOGOTA    22
000210305000027VEINTE DE JULIO            4000001000000100OPERA/NES CENT/ZADAS42190581BOGOTA    22
00022030700000BBARRIO VENECIA             4000001000020100OPERA/NES CENT/ZADAS42160171BOGOTA    22
00023030200000BOF CC NUESTRO BOGOTA       4000001000090100OPERA/NES CENT/ZADAS42220231BOGOTA    22
00024030500000BOF CC DIVER PLAZA ALAMOS   4000001000020100OPERA/NES CENT/ZADAS42250171BOGOTA    22
00025030200000BPLAZA DE LAS AMERICAS      4000001000090100OPERA/NES CENT/ZADAS42210171BOGOTA    22
00026030200000BSANTUARIO VEINTE DE JULIO  4000001000090100OPERA/NES CENT/ZADAS42150261BOGOTA    22
000270302000027CARVAJAL                   4011471000000100OPERA/NES CENT/ZADAS14120171BOGOTA    22
000280306000028CALLE 13 CRA 30            4011921000000100OPERA/NES CENT/ZADAS14090281BOGOTA    22
00030030200000BGAITANA                    4000001000090100OPERA/NES CENT/ZADAS42020301BOGOTA    22
000320307000025CRA.24 #26-01 COLSUBSIDIO  4000001000000100OPERA/NES CENT/ZADAS42170621BOGOTA    22
00033031600000BANDES                      4000001000020100OPERA/NES CENT/ZADAS42120331BOGOTA    22
00034030700000BPARQUE SANTANDER           4000001000020100OPERA/NES CENT/ZADAS42130521BOGOTA    22
00035030700000BAVENIDA 19                 4000001000020100OPERA/NES CENT/ZADAS42110521BOGOTA    22
00036030700000BCRA 10 CALLE 17            4000001000020100OPERA/NES CENT/ZADAS42110361BOGOTA    22
00037030600000BCRA 47                     4000001000020100OPERA/NES CENT/ZADAS42150371BOGOTA    22
00038030800000BAVENIDA CHILE              4000001000020100OPERA/NES CENT/ZADAS42090401BOGOTA    22
000390306000011PARQUE EL VIRREY           4015181000000100OPERA/NES CENT/ZADAS42030391BOGOTA    22
00040031100000BCHAPINERO                  4000001000020100OPERA/NES CENT/ZADAS42080401BOGOTA    02
00041030400000BCALLE 54 N.10-73           4000001000030100OPERA/NES CENT/ZADAS42110411BOGOTA    02
00043030500000BUNIVERSIDAD JAVERIANA      4000001000030100OPERA/NES CENT/ZADAS42080401BOGOTA    22
000440306000012I L A R C O                4011191000000100OPERA/NES CENT/ZADAS42090391BOGOTA    22
000450305000028CENTRAL DE ABASTOS         4012011000000100OPERA/NES CENT/ZADAS42210371BOGOTA    22
000460304000026CIUDAD SALITRE             4000001000000100OPERA/NES CENT/ZADAS42260331BOGOTA    22
000470309000011UNICENTRO                  4000001000000100OPERA/NES CENT/ZADAS42040391BOGOTA    22
00049030600000BOFICINA 7-72               4000001000030100OPERA/NES CENT/ZADAS42090491BOGOTA    02
00050030300000BEL NOGAL                   4000001000010100OPERA/NES CENT/ZADAS42080501BOGOTA    00
000510304000027LAS AGUAS                  4011431000000100OPERA/NES CENT/ZADAS42160331BOGOTA    22
000520306000025CENTRAL SAN MARTIN         4011691000000100OPERA/NES CENT/ZADAS42140521BOGOTA    22
000540306000028PALOQUEMAO                 4011791000000100OPERA/NES CENT/ZADAS42150281BOGOTA    22
00055030600000BCALLE 9 CRA 34             4000001000030100OPERA/NES CENT/ZADAS42240551BOGOTA    22
00056030400000BCARRERA 11 # 68-09         4000001000030100OPERA/NES CENT/ZADAS02030561BOGOTA    02
00057030600000BRICAURTE                   4000001000030100OPERA/NES CENT/ZADAS42140571BOGOTA    22
000580306000027SAN AGUSTIN                4012721000000100OPERA/NES CENT/ZADAS42170581BOGOTA    22
000593201000000MESITAS DEL COLEGIO        4000001000000100OPERA/NES CENT/ZADAS08030591M/COLEGIO 22
000600305000028KENNEDY                    4014411000000100OPERA/NES CENT/ZADAS42210371BOGOTA    22
000613205000027CENTRO INDUSTRIAL CAZUCA   4015091000000100OPERA/NES CENT/ZADAS14120581BOGOTA    22
000620308000025SAN DIEGO                  4012291000000100OPERA/NES CENT/ZADAS42130621BOGOTA    22
00063030600000BOF RYP CT CCIAL ISERRA 100 4000001000040100OPERA/NES CENT/ZADAS02030631BOGOTA    00
000643202000000CENTRO CCIAL EL PORTICO    4000001000000100OPERA/NES CENT/ZADAS08030641FACATATIVA22
000653202000000LOS COMUNEROS ZIPAQUIRA    4000001000000100OPERA/NES CENT/ZADAS08060651ZIPAQUIRA 22
000663202000000PACHO                      4000001000000100OPERA/NES CENT/ZADAS08060661PACHO     22
00067320100000PTABIO                      4000001000180100OPERA/NES CENT/ZADAS08060671TABIO     22
000680305000028SAN VICTORINO              4000001000000100OPERA/NES CENT/ZADAS14100681BOGOTA    22
000693202000000PLAZA NEIRA UBATE          4000001000000100OPERA/NES CENT/ZADAS07020691UBATE     22
000701904000000PARQUE BOLIVAR SANTA MARTA A000001000000100SANTA MARTA         06070701STA. MARTA22
000710304000027AVENIDA 6 CARRERA 22       4000001000000100OPERA/NES CENT/ZADAS14050681BOGOTA    22
000720307000000EL LAGO - BOGOTA           4000001000000100OPERA/NES CENT/ZADAS02050721BOGOTA    22
00073030500000BCENTRO COMERCIAL EL EDEN   4000001000040100OPERA/NES CENT/ZADAS42230731BOGOTA    02
000742302000000AV LAS PEÑITAS             A000001000000100SINCELEJO           06080741SINCELEJO 22
00075030900000BGALERIAS                   4000001000040100OPERA/NES CENT/ZADAS42080751BOGOTA    02
000760004000000CTRO CCIAL CENTRO NORTE    1000001000000100TUNJA               07090761TUNJA     22
000770305000014SANTA TERESITA             4000001000000100OPERA/NES CENT/ZADAS42130751BOGOTA    22
00078030600000BMETROPOLIS                 4000001000040100OPERA/NES CENT/ZADAS42070781BOGOTA    00
000790305000013LA CLARITA                 4000001000000100OPERA/NES CENT/ZADAS42250751BOGOTA    22
000800303000011SANTA BARBARA ALTA         4000001000000100OPERA/NES CENT/ZADAS42040751BOGOTA    22
00081030800000BSIETE DE AGOSTO            4000001000050100OPERA/NES CENT/ZADAS42070811BOGOTA    02
000820305000013AVDA CALLE 68              4000001000000100OPERA/NES CENT/ZADAS42070751BOGOTA    22
000830304000013AV. CIUDAD DE QUITO        4014481000000100OPERA/NES CENT/ZADAS42220751BOGOTA    22
000840303000011AV. PEPE SIERRA            4011261000000100OPERA/NES CENT/ZADAS42040751BOGOTA    22
000850303000011CENTRO COMERCIAL SANTAFE   4015981000000100OPERA/NES CENT/ZADAS42060391BOGOTA    22
000860304000012CENTRO C/CIAL BULEVAR NIZA 4000001000000100OPERA/NES CENT/ZADAS42100401BOGOTA    22
00087020300000CCALLE 72                   A000001000050100CTRO.OPE.REG.COSTA  06070871B/QUILLA  22
000882502000000CTRO COMERCIAL VIVA WUAJIRAA000001000000100RIOACHA             06050881RIOACHA   22
000890303000000AUTOPISTA DEL SUR          4000001000000100OPERA/NES CENT/ZADAS42170891BOGOTA    22
000912403000000LOPERENA VALLEDUPAR        A000001000000100VALLEDUPAR          06020911VALLEDUPAR22
000920304000026FONTIBON                   4000001000000100OPERA/NES CENT/ZADAS42250371BOGOTA    22
000933203000026FUNZA                      4014161000000100OPERA/NES CENT/ZADAS08060371FUNZA     22
00094320600000PMOSQUERA                   4000001000050100OPERA/NES CENT/ZADAS08060371MOSQUERA  22
000950303000000LAS AMERICAS               4000001000000100OPERA/NES CENT/ZADAS42140951BOGOTA    22
00096020200000CDISTRITO 90                A000001000150100CTRO.OPE.REG.COSTA  42320961B/QUILLA  22
000970602000000CTRO COMERCIAL MALL PLAZA  A000001000000100CARTAGENA           06010971CARTAGENA 22
00098020200000CCENTRO CIVICO BARRANQUILLA A000001000150100CTRO.OPE.REG.COSTA  42340981B/QUILLA  22
000992202000000ARIARI GRANADA             4000001000000100GRANADA             08060991GRANADA   22
00100000000000NGCIA OPERATIVA CONTABLE    4000001000060100OPERA/NES CENT/ZADAS00091001BOGOTA    00
00101020700000CCENTRO NELMAR              A000001000070100CTRO.OPE.REG.COSTA  42341701B/QUILLA  22
00102030600000BAVENIDA PRIMERA            4000001000060100OPERA/NES CENT/ZADAS42161021BOGOTA    22
00103030700000BCIUDAD MONTES              4000001000060100OPERA/NES CENT/ZADAS42201031BOGOTA    22
001041102434032ABEJORRAL                  C011461000000100ABEJORRAL           04024341ABEJORRAL 22
001050502000000VERSALLES                  B000001000000100CENT.OPER.REG.OCCIDE05081051PALMIRA   22
001060303000000CENTRO INTERNACIONAL       4000001000000100OPERA/NES CENT/ZADAS42131061BOGOTA    22
001070302000000GRAN SAN VICTORINO         4000001000000100OPERA/NES CENT/ZADAS42121071BOGOTA    22
001082203636071ACACIAS                    4012311000000100V/CENCIO            08051081ACACIAS   22
001090502000000INEM CALI                  B000001000000100CENT.OPER.REG.OCCIDE05081091CALI      22
001100502000000PUBENZA FLORIDA            B000001000000100CENT.OPER.REG.OCCIDE05081101JAMUNDI   22
001110501000000SANTANDER DE QUILICHAO     B000001000000100CENT.OPER.REG.OCCIDE04031111JAMUNDI   22
001120306000026TERMINAL DE TRANSPORTES    4011611000000100OPERA/NES CENT/ZADAS42211121BOGOTA    22
001131502000000CTRO COMERCIAL BUGA PLAZA  B000001000000100BUGA                04081131BUGA      22
001141104434000CENTRAL DE ABASTOS - MEDELLC000001000000100CTRO.OPE.REG.ANTIOQ 42541141MEDELLIN  22
001150303000000AVENIDA 15 CALLE 106       4000001000000100OPERA/NES CENT/ZADAS02041151BOGOTA    22
001162403628061AGUACHICA                  1012231000000100AGUACHICA           06041161AGUACHICA 22
00117041100050CCTRO SERVICIOS PYME B/MANGA1000001000080100CTRO OPE REG ORIENTE09071171B/MANGA   04
001181103434000AVENIDA COLOMBIA           C000001000000100CTRO.OPE.REG.ANTIOQ 04021181MEDELLIN  22
001190503000000CTR PLAZA CAICEDO          B000001000000100CENT.OPER.REG.OCCIDE05081191CALI      22
001203202000062AGUAZUL                    1000001000000100AGUAZUL             08015961AGUAZUL   22
001211405000000PASTO PLAZA                B000001000000100PASTO               04031211PASTO     22
001220304000000CENTRO INTERNACIONAL       4000001000000100OPERA/NES CENT/ZADAS14031221BOGOTA    22
001233205000027UNISUR                     4015091000000100OPERA/NES CENT/ZADAS42190581BOGOTA    22
001243202000071ANOLAIMA                   4011651000000100OPERA/NES CENT/ZADAS08033041ANOLAIMA  22
00125020300000COF EDF BCO DE BTA BQUILLA  A000001000070100CTRO.OPE.REG.COSTA  42321251B/QUILLA  22
001260502000000EL TREN CALI               B000001000000100CENT.OPER.REG.OCCIDE05081261CALI      22
001270302000000SAN CRISTOBAL              4000001000000100OPERA/NES CENT/ZADAS02011271BOGOTA    22
00128110400000PCC NUESTRO URABA           C000001000070100APARTADO            04074341APARTADO  00
001290303000000VENECIA CENTRAL            4000001000000100OPERA/NES CENT/ZADAS14041291BOGOTA    22
00130030200000BTRINIDAD GALAN             4000001000090100OPERA/NES CENT/ZADAS42141301BOGOTA    22
001310303000000CENTR CIAL PALATINO        4000001000000100OPERA/NES CENT/ZADAS42051311BOGOTA    22
001320302000000KENNEDY CARAVANA           4000001000000100OPERA/NES CENT/ZADAS42211321BOGOTA    22
001331102000000CTRO CIAL SAN FERNANDO PLAZC000001000090100CENT.OPRA.REG.ANTIOQ42521332MEDELLIN  22
001340502484000CC LA ESTACION CALI        B000001000000100CTRO.OPER.REG.OCCIDE42451341CALI      22
001350302000000LA VICTORIA SUR ORIENTE    4000001000000100OPERA/NES CENT/ZADAS42151351BOGOTA    22
001360302000000OFICINA BARBOSA            1000001000000100BARBOSA             08011361BARBOSA   00
001373403260061ARAUCA                     1000001000000100ARAUCA              06061371ARAUCA    22
001380110138033ARMENIA                    3012111000000100ARMENIA             04041381ARMENIA   22
001390302000000PATIO BONITO               4000001000000100OPERA/NES CENT/ZADAS14031391BOGOTA    22
001400902370072LERIDA                     4012491000000100LERIDA              04063701LERIDA    22
001411603468033BANCO DE BOGOTA PINARES    3000001000000100CTRO.OPE.PEREIRA    04054681PEREIRA   22
001420505142051CENTRO CIAL JARDIN PLAZA   B000001000000100CTRO.OPER.REG.OCCIDE42391421CALI      22
001430302000000BOSA                       4000001000000100OPERA/NES CENT/ZADAS42161431BOGOTA    22
00144110400000CCARRERA 70                 C000001000070100CENT.OPRA.REG.ANTIOQ42481441MEDELLIN  00
001450302000000SANTA HELENITA             4000001000000100OPERA/NES CENT/ZADAS02021451BOGOTA    22
001460502484000AVENIDA DE LAS AMERICAS    B000001000000100CTRO.OPE.REG.OCCIDEN42461461CALI      22
001481202436000CERROMATOSO                A000001000000100MONTELIBANO         06031481MONTELIBA 22
001493201000000VILLAPINZON                4000001000000100OPERA/NES CENT/ZADAS08021491VILLA/ZON 22
001500302000000RINCON SUBA                4000001000000100OPERA/NES CENT/ZADAS02021501BOGOTA    22
00151020700000CCENTRO NELMAR              A000001000070100CTRO.OPE.REG.COSTA  42341701B/QUILLA  22
00152031200000NREDES EXTER OPER BANCARIAS 4000001000010100OPERA/NES CENT/ZADAS09091521BOGOTA    00
001531104434031AVENIDA DE GREIFF          C000001000000100CTRO.OPE.REG.ANTIOQ 04024341MEDELLIN  22
001541102000000S.ANTONIO DEL PRADO        C000001000000100CENT.OPRA.REG.ANTIOQ42511541MEDELLIN  22
001551103000000ORIENTE RIONEGRO           C000001000000100CENT.OPRA.REG.ANTIOQ04041551MEDELLIN  22
00156110200000CPLAZA ARRAYANES            C000001000090100CENT.OPRA.REG.ANTIOQ42541561MEDELLIN  00
001570402184000SOTOMAYOR                  1000001000000100CTRO.OPE.REG.ORIENTE42371571B/MANGA   22
001580505484051CENTRO CIAL DEL NORTE      B000001000000100CTRO.OPER.REG.OCCIDE05034841CALI      22
001590502000000CENTRO EMPRESA             B000001000000100CTRO.OPER.REG.OCCIDE42464841CALI      22
001600301000000AVENIDA BOYACA             4000001000000100OPERA/NES CENT/ZADAS42221601BOGOTA    22
00161030600000BCIUDAD TUNAL               4000001000080100OPERA/NES CENT/ZADAS42171611BOGOTA    22
001620405184061AV. LIBERTADOR             1000001000000100CTRO.OPE.REG.ORIENTE42381841B/MANGA   22
001640505484051CENTRO COMERCIAL CALIMA    B000001000000100CTRO.OPER.REG.OCCIDE42451641CALI      22
001650303000000AUTOPISTA EL DORADO        4000001000000100OPERA/NES CENT/ZADAS42211651BOGOTA    22
001660505484051PARQUE SAN NICOLAS         B000001000000100CTRO.OPER.REG.OCCIDE42434841CALI      22
001671110434031OFIC REC Y PAGO BELLO      C000001000000100CTRO.OPE.REG.ANTIOQ 04011671BELLO     22
001682906168061BARRANCABERMEJA            1000001000000100BARRANCABERMEJA     06041681BARRANCA  22
001700211170041BARRANQUILLA               A000001000000100CTRO.OPERA.REG.COSTA42341701B/QUILLA  22
001710302000000CARRERA 19 AV PRIMERO MAYO 4000001000000100OPERA/NES CENT/ZADAS42201711BOGOTA    22
00172110300000COFICINA CC PUNTO CLAVE     C000001000080100CENT.OPRA.REG.ANTIOQ42521721MEDELLIN  08
00173020900000CBOULEVARD 54               A000001000080100CTRO.OPE.REG.COSTA  42331701B/QUILLA  22
001740302000000SANTA LUCIA                4000001000000100OPERA/NES CENT/ZADAS42151741BOGOTA    22
001751405466052BARRIO LAS LUNAS           B000001000000100PASTO               04034661PASTO     22
001781106434031BELLO                      C000001000000100CTRO.OPE.REG.ANTIOQ 42474341BELLO     22
001793203000000CC CASABLANCA              4000001000000100OPERA/NES CENT/ZADAS08061791MADRID    22
001800510484000CALI                       B000001000000100CTRO.OPER.REG.OCCIDE42431801CALI      22
001810501000000PUERTO TEJADA              B000001000000100CENT.OPER.REG.OCCIDE04031811PTO TEJADA22
001820603204042EDF BCO DE BTA BOCAGRANDE  A000001000000100CARTAGENA           06012041CARTAGENA 22
001832403628043BOSCONIA (CESAR)           A000001000000100BOSCONIA            06021831BOSCONIA  22
001840411184061BUCARAMANGA                1000001000000100CTRO.OPE.REG.ORIENTE42381841BUCARAMAN.22
00185030200000BCALLE 63 SIETE DE AGOSTO   4000001000090100OPERA/NES CENT/ZADAS02031851BOGOTA    02
001863505484052VISTAMAR BUENAVENTURA      B000001000000100BUENAVENTURA        04081861B/VENTURA 22
00187020300000CBUENAVISTA                 A000001000050100CTRO.OPE.REG.COSTA  42321871B/QUILLA  22
001881510458053BUGA                       B000001000000100BUGA                04081881BUGA      22
001900103138033CALARCA                    3000001000000100ARMENIA             04041381CALARCA   22
001910308000000C.C TITAN                  4000001000000100OPERA/NES CENT/ZADAS42241911BOGOTA    00
001933201000000POLICARPA GUADUAS          4000001000000100GUADUAS             08093561GUADUAS   22
00194030200000BTEJAR                      4000001000090100OPERA/NES CENT/ZADAS42241941BOGOTA    22
00195000000000COFICINA PREMIUM RUITOQUE   1000000000000100CTRO.OPE.REG.ORIENTE37061951FLORIDBLCA22
001960204170041LA PAZ - CRA 40 # 32-15    A000001000000100CTRO.OPERA.REG.COSTA06071701B/QUILLA  22
001970301000000CHOACHI                    4000001000000100OPERA/NES CENT/ZADAS08031971BOGOTA    22
001982203636071UNICENTRO VILLAVICENCIO    4000001000000100CTR.V/CENCIO        08081981V/CENCIO  22
001990302000000QUIRIGUA                   4000001000000100OPERA/NES CENT/ZADAS02021991BOGOTA    22
00200030400000PBASE MIL.SAN JOSE GUAVIARE 4000001000130100SAN JOSE DEL GUAVIAR08082001SAN JOSE G00
00201280300000CGRAN PLAZA FLORENCIA       4000001000110100OPERA/NES CENT/ZADAS08072011FLORENCIA 22
002021302000000DONCELLO                   4000001000000100OPERA/NES CENT/ZADAS08072021DONCELLO  22
002030402184061CANAVERAL                  1000001000000100CTRO.OPE.REG.ORIENTE42361841B/MANGA   22
002040609204042CARTAGENA                  A000001000000100CARTAGENA           06012041CARTAGENA 22
002050303000000QUINTA CAMACHO             4000001000000100OPERA/NES CENT/ZADAS42112051BOGOTA    22
002063605612053CARTAGO                    3000001000000100CARTAGO             04042061CARTAGO   22
00207050400000CCAVASA                     B000001000090100CENT.OPER.REG.OCCIDE42414841CALI      22
002080301000000C.C. MAZUREN               4000001000000100OPERA/NES CENT/ZADAS42062081BOGOTA    22
002090502484000OFIC REC Y PAGO UNICALI    B000001000000100CTRO.OPER.REG.OCCIDE04042091CALI      22
002100704260061CENTRAL DE TRANS. (CUCUTA) 1000001000000100CUCUTA              07052601CUCUTA    22
002113201000000GACHANCIPA                 4000001000000100OPERA/NES CENT/ZADAS08022111GACHANCIPA22
00212030200000BCASABLANCA                 4000001000090100OPERA/NES CENT/ZADAS42212121BOGOTA    22
00213130100000CNATAGAIMA                  4000001000140100NATAGAIMA           08042131NAT/GAIMA 22
002141105434031CENTRO COMERC SAN DIEGO    C000001000000100CTRO.OPE.REG.ANTIOQ 42534341MEDELLIN  22
00215000000000NGCIA OPER DESEMBO INGRALES 4000001000000100OPERA/NES CENT/ZADAS09002150BOGOTA    00
002161204438042CERETE                     9000001000000100MONTERIA            06034381CERETE    22
002171102434031CENTRO COMERCIAL OVIEDO    C000001000000100CTRO.OPE.REG.ANTIOQ 42522171MEDELLIN  22
002181006428033CTRO CCIAL CABLE PLAZA     3000001000000100MANIZALES           04054281MANIZALES 22
002192203636071OFIC REC Y PAGO VCENCIO    4000001000000100CTR.V/CENCIO        07012191V/CENCIO  22
002201903564041CIENAGA (MAGD.)            A000001000000100CIENAGA             06055641CIENAGA   22
002211906564041CTRO CIAL BUENAVISTA       A000001000000100SANTA MARTA         06052211STA. MARTA22
002230303000000CENTRO 93                  4000001000000100OPERA/NES CENT/ZADAS42062231BOGOTA    22
002242403628043CODAZZI                    A000001000000100CODAZZI             06026281CODAZZI   22
002251102434032BOULEVARD COMERCIAL MAYORCAC000001000000100CTRO.OPE.REG.ANTIOQ 42512251MEDELLIN  22
002260501706000CENTRO COMERCIAL UNICO     B000001000000100CTRO.OPER.CALI      42452261CALI      22
002270303000000RINCON DEL CHICO           4000001000000100OPERA/NES CENT/ZADAS02042271BOGOTA    22
002280303000000CENTR CIAL PASEO SAN RAFAEL4000001000000100OPERA/NES CENT/ZADAS42062281BOGOTA    22
002290301000000GRANADA C/MARCA            4000001000000100OPERA/NES CENT/ZADAS08032291BOGOTA    22
002301508458053CENTRO CIAL LLANOGRANDE    B000001000000100CTRO.OPER.REG.OCCIDE42424581PALMIRA   22
002313202000000SOLARES VILLETA            4000001000000100OPERA/NES CENT/ZADAS08032311VILLETA   22
002321103434032COPACABANA                 C000001000000100CTRO.OPE.REG.ANTIOQ 04074341MEDELLIN  22
002330304000026OFIC REC Y PAGO CORFERIAS  4000001000000100OPERA/NES CENT/ZADAS14032331BOGOTA    22
00234030200050BAMARILO                    4000001000010100OPERA/NES CENT/ZADAS03022341BOGOTA    00
002351906564041CTRO CIAL OCEAN MALL       A000001000000100SANTA MARTA         06052351STA. MARTA22
00236110200000CCTRO COMERCIAL LOS MOLINOS C000001000140100CENT.OPRA.REG.ANTIOQ42492361MEDELLIN  08
002370102000012CENTRO CCIAL PLAZA IMPERIAL4000001000000100OPERA/NES CENT/ZADAS42022371BOGOTA    22
002381103434032CENTRO CCIAL PLAZA DEL RIO C000001000000100APARTADO            04072381APARTADO  22
002390302000000CENTRO CHIA                4000001000000100OPERA/NES CENT/ZADAS42012391BOGOTA    22
002402303592042COROZAL                    9000001000000100COROZAL             06012401COROZAL   22
002410308000012OFIC REC Y PAGO CLL 73     4000001000000100OPERA/NES CENT/ZADAS01032411BOGOTA    22
002421906564041OFIC REC Y PAGO SANTA MARTAA000001000000100SANTA MARTA         04065641STA. MARTA22
002431103434031OFIC REC Y PAGO MEDELLIN   C000001000000100CTRO.OPE.REG.ANTIOQ 03022041MEDELLIN  22
002441308000000CTRO CCIAL SAN PEDRO PLAZA 4000001000140100NEIVA               08042441NEIVA     22
002450308000012OFIC REC Y PAGO BOGOTA CTRO4000001000000100OPERA/NES CENT/ZADAS14052451BOGOTA    22
002460308000012OFIC REC Y PAGO BTA CHAPINE4000001000000100OPERA/NES CENT/ZADAS01032461BOGOTA    22
002470503706000OFIC REC Y PAGO CALI       B000001000000100CTRO.OPER.REG.OCCIDE05037061CALI      22
002481005428033OFIC REC Y PAGO MANIZALES  3000001000000100MANIZALES           04054281MANIZALES 22
00249050600000CCOSMOCENTRO                B000001000090100CENT.OPER.REG.OCCIDE42402491CALI      22
002501103434031CARRERA BOLIVAR            C000001000000100CTRO.OPE.REG.ANTIOQ 42532041MEDELLIN  22
002511603715033OFIC REC Y PAGO PEREIRA    3000001000000100CTRO.OPE.PEREIRA    03087151PEREIRA   22
002530405184061OFICINA GUARIN             1000001000000100CTRO.OPE.REG.ORIENTE42382531B/MANGA   22
002540507484052CARRERA 8A                 B000001000000100CTRO.OPER.REG.OCCIDE42438411CALI      22
002550902000000CALLE CUARENTA             4000001000000100IBAGUE              04062551IBAGUE    22
00256050900000CBULEVAR DEL RIO CALI       B000001000090100CENT.OPER.REG.OCCIDE42434841CALI      22
002570304000025OFIC REC Y PAGO W T CENTER 4000001000000100OPERA/NES CENT/ZADAS02032571BOGOTA    22
002590405184061OFICINA SABANA DE TORRES   1000001000000100CTRO.OPE.REG.ORIENTE06042591SAB TORRES22
002600710260061CUCUTA                     1000001000000100CUCUTA              06062601CUCUTA    22
002610302000000CENTR CIAL MERCURIO        4000001000000100OPERA/NES CENT/ZADAS42192611BOGOTA    22
002631302000000MELGAR                     4000001000000100OPERA/NES CENT/ZADAS08072631MELGAR    22
002643203000011CHIA                       4000001000000100OPERA/NES CENT/ZADAS42016601CHIA      22
002650302000000OFICINA BARRIO MODELO NORTE4000001000000100OPERA/NES CENT/ZADAS42252651BOGOTA    22
002661002428033CHINCHINA                  3000001000000100MANIZALES           04054281CHINCHINA 22
002671101267031LA CEJA                    C000001000000100CTRO.OPE.REG.ANTIOQ 04022671MEDELLIN  22
002682003616062CHIQUINQUIRA               1000001000000100CHIQUINQUIRA        08026161CHIQUINQUI22
002690901000000LIBANO                     4000001000000100OPERA/NES CENT/ZADAS04062691LIBANO    22
002703202000062CHOCONTA                   4000001000000100OPERA/NES CENT/ZADAS08022701CHOCONTA  22
002720305000000SOACHA                     4000001000000100OPERA/NES CENT/ZADAS42192721BOGOTA    22
002731701000000MIRANDA                    B000001000000100CENT.OPER.REG.OCCIDE04012731MIRANDA   22
002740303000000CENTR CIAL HAYUELOS        4000001000000100OPERA/NES CENT/ZADAS42222741BOGOTA    22
002750302000000PORTAL DE LA 80            4000001000000100OPERA/NES CENT/ZADAS42242751BOGOTA    22
002760502484000AVENIDA ROOSVELT           B000001000000100CTRO.OPER.REG.OCCIDE42422761CALI      22
002771602000000CUBA                       3000001000000100CTRO.OPER.PEREIRA   04052771PEREIRA   22
002783603000000C.C NUESTRO CARTAGO        3000001000000100CENT.OPER.REG.OCCIDE04042781CARTAGO   22
002791601000000DOSQUEBRADAS               3000001000000100CTRO.OPER.PEREIRA   04052791PEREIRA   22
002800000000000DIRECCION GENERAL          4000001000000100OPERA/NES CENT/ZADAS00001280BOGOTA    22
002811005000000MALL PLAZA MANIZALES       3000001000000100MANIZALES           04052811MANIZALES 22
002822606596062DUITAMA                    1000001000000100DUITAMA             08012821DUITAMA   22
002830401283061SAN FRANCISCO              1000001000000100CTRO.OPE.REG.ORIENTE42382831BUCARAMAN.22
002841904564041EL BANCO (MAGD.)           A000001000000100EL BANCO (MAGD.)    06052841EL BANCO  22
002851103434032EL CARMEN DE VIBORAL       C000001000000100CTRO.OPE.REG.ANTIOQ 04024341EL CARMEN 22
002860603204042EL CARMEN                  9000001000000100EL CARMEN           06012861EL CARMEN 22
002871503458053EL CERRITO                 B000001000000100CTRO.OPER.REG.OCCIDE04084581CERRITO   22
00288241100000CCC UNICENTRO VALLEDUPAR    A000001000180100VALLEDUPAR          06042881VALLEDUPAR22
002891502458000CANDELARIA                 B000001000000100CTRO,OPER.REG.OCCIDE04082891CANDELARIA22
002901603468033AVENIDA 30 DE AGOSTO       3000001000000100CTRO.OPE.PEREIRA    04084681PEREIRA   22
00291030300000BCENTRO COMERCIAL ANDINO    4000001000020100OPERA/NES CENT/ZADAS42072911BOGOTA    02
00292020700000CEL PRADO                   A000001000100100CTRO.OPE.REG.COSTA  42331701B/QUILLA  22
002930202000000CENTRO CIAL PARQUE ALEGRA  A000001000000100CTRO.OPERA.REG.COSTA42351701B/QUILLA  22
002941105434032ENVIGADO                   C000001000000100CTRO.OPE.REG.ANTIOQ 42534341ENVIGADO  22
00295050400000PDAGUA                      B000001000170100CENT.OPER.REG.OCCIDE04082951DAGUA     22
00296090400000PESPINAL                    4000001000100100ESPINAL             04062961EL ESPINAL22
002971602000000SAN EUGENIO STA ROSA CABAL 3000001000000715CTRO.OPERA.PEREIRA  04052971STA. ROSA 22
002990302000000C.C. GRAN ESTACION         4000001000000100OPERA/NES CENT/ZADAS42262991BOGOTA    22
003010404000000LA TRIADA                  1000001000000100CTRO.OPE.REG.ORIEN  42383011B/MANGA   22
003020302000000COLINA OFFICE PARK         4000001000000100OPERA/NES CENT/ZADAS42033021BOGOTA    22
003030705000000CUCUTA AV QUINTA           1000001000000100CUCUTA              06063031CUCUTA    22
003043205000071FACATATIVA                 4000001000000100OPERA/NES CENT/ZADAS08033041FACATATIVA22
003050402000000LA ISLA                    1000001000000100CTRO.OPE.REG.ORIEN  42373051B/MANGA   22
003063203000001OFIC REC Y PAGO TNAL CGA 804015291000000100OPERA/NES CENT/ZADAS02043061COTA      22
003080902370072FLANDES                    4000001000000100GIRARDOT            08023081FLANDES   22
00309130200000PLA ESTACION CTR CIAL IBAGUE4000001000010100IBAGUE              04063091IBAGUE    00
00310021100000CBARANOA                    A000001000100100CTRO.OPE.REG.COSTA  42353101BARANOA   00
003110401000000SAN GIL                    1000001000000100SAN GIL             06043111SAN GIL   22
003122805312072FLORENCIA                  4000001000000100FLORENCIA           08073121FLORENCIA 22
003131002000000CTRO COMERCIAL FUNDADORES  3000001001400100MANIZALES           04053131MANIZALES 00
003141504458053FLORIDA                    B000001000000100CTRO.OPER.REG.OCCIDE04084581PALMIRA   22
00315121100000CCENTRO COMERCIAL ALAMEDAS  A000001000140100MONTERIA            06033151MONTERIA  22
003160307000012C.C. MILENIO PLAZA         4000001000000100OPERA/NES CENT/ZADAS42233161BOGOTA    00
003170305000027OFIC REC Y PAGO BR RESTREPO4000001000000100OPERA/NES CENT/ZADAS14083171BOGOTA    22
003182503530043FONSECA                    A000001000000100FONSECA             06026281FONSECA   22
003190411184061FLORIDABLANCA              1000001000000100CTRO.OPE.REG.ORIENTE42363191FLORIDABL.00
003221102434032FRONTINO                   C000001000000100FRONTINO            04074341FRONTINO  22
003230101000000PORTAL DEL NORTE           3000001000000100ARMENIA             04043231CALARCA   22
00325030600000BOFICINA CC FONTANAR        4000001000090100OPERA/NES CENT/ZADAS42023251CHIA      00
00324110200000CANDES ANTIOQUIA            C000001000060100CENT.OPER.REG.ANTIOQ04023241MEDELLIN  08
003261904564043FUNDACION (MAGDALENA)      A000001000000100FUNDACION (MAGDALENA06053261FUNDACION 22
003270302000000NORMANDIA                  4000001000000100OPERA/NES CENT/ZADAS42223271BOGOTA    22
00328030100000BDIR VEHICUL Y ALIADOS RETAI4000001000090100OPERA/NES CENT/ZADAS21013281BOGOTA    02
003290302000000CENTRO COMERCIAL ALTAVISTA 4000001000000100OPERA/NES CENT/ZADAS42183291BOGOTA    22
003300804348071FUSAGASUGA                 4000001000000100OPERA/NES CENT/ZADAS08033481BOGOTA    22
003310301000000UNIDAD DE LIBRANZA RED     4000001000000100OPERA/NES CENT/ZADAS31033311BOGOTA    22
00332060100000CBASE NAVAL DE CARTAGENA    A000001000090100CARTAGENA           06013321CARTAGENA 07
00333110200000CSAN CRISTOBAL ANTIOQUIA    C000001000060100CENT.OPER.REG.ANTIOQ04073331MEDELLIN  00
003343202000062GACHETA                    4000001000000100OPERA/NES CENT/ZADAS08061121GACHETA   22
00335030200000BGCIA CENTRO DE SERV LEASING4000001000100100OPERA/NES CENT/ZADAS09073351BOGOTA    00
003362003616062GARAGOA                    1000001000000100GARAGOA             08020001GARAGOA   22
00337030200000BOFICINA BARRIO CONTADOR    4000001000090100OPERA/NES CENT/ZADAS42043371BOGOTA    02
00338130300000PGARZON                     4000001000110100GARZON              08043381GARZON    22
00339260300000PSOATA                      1000001000100100SOATA               08013721SOATA     28
00340000000000COFICINA PREMIUM PEREIRA    3000001000000100CTRO.OPE.PEREIRA    37053401PEREIRA   22
00341230800000CPARQUE COMERCIAL GUACARI   A000001000170100SINCELEJO           06033411SINCELEJO 00
003420302000000CARRERA 20 CALLE 124       4000001000000100OPERA/NES CENT/ZADAS02023421BOGOTA    22
00344000000000NOFICINA BARBOSA            C000001000000100CTR.OPER.REG.ANTIOQ 04073441BARBOSA   00
00345000000000NGERENCIA SOX               4000001000000100OPERA/NES CENT/ZADAS09093451BOGOTA    00
003461502458053GINEBRA                    B000001000000100CTRO.OPER.REG.OCCIDE04084581GINEBRA   22
003470502000000CALYPSO                    B000001000000100CENT.OPER.REG.OCCIDE42413471CALI      22
003480807348072GIRARDOT                   4000001000000100GIRAROT             08073481GIRARDOT  22
003491103434032GIRARDOTA                  C000001000000100CTRO.OPE.REG.ANTIOQ 04074341GIRARDOTA 22
003502203636071GRANADA                    4000001000000100GRANADA             08084641VILLAVICEN22
003512203000000CENTRO VILLAVICENCIO       4000001000000100CTR.V/CENCIO        08083511V/CENCIO  22
003521503458053GUACARI                    B000001000000100CTRO.OPER.REG.OCCIDE04081881GUACARI   22
003532201000000MONTERREY                  1000001000000100OPERA/NES CENT/ZADAS08013531MONTERREY 22
003542202000000PARQUE RIVEROS ACACIAS     4000001000000100V/CENCIO            08083541ACACIAS   22
003563203000071GUADUAS                    4000001000000100GUADUAS             08033561GUADUAS   22
00357220300000CCTRO CIAL VIVA V/CENCIO    4000001000120100CTR.V/CENCIO        08083571VILL/CIO  13
003582202000000GUAMAL                     4000001000000100CTR.V/CENCIO        08083581GUAMAL    22
003590302000000OFICINA SANTA ANA          4000001000000100OPERA/NES CENT/ZADAS42053591BOGOTA    22
003602003616062GUATEQUE                   1000001000000100GUATEQUE            08026161GUATEQUE  22
003612202000000RESTREPO META              4000001000000100CTR.V/CENCIO        08083611V/CENCIO  22
003621108434032GUAYAQUIL                  C000001000000100CTRO.OPE.REG.ANTIOQ 42514341MEDELLIN  22
003630902370000MARIQUITA                  4000001000000100MARIQUITA           04063631MARIQUITA 22
00364220700000CLOS CENTAROS               4000001000120100CTR.V/CENCIO        08083641V/CENCIO  22
003660904370072HONDA                      4000001000000100HONDA               04063661HONDA     22
003700911370072IBAGUE                     4000001000000100IBAGUE              04063701IBAGUE    22
003711102000000MANRIQUE                   C000001000000100CENT.OPRA.REG.ANTIOQ04043711MEDELLIN  22
003722603000000LA PERLA DUITAMA           1000001000000100DUITAMA             07093721DUITAMA   22
003743703466052IPIALES                    B000001000000100IPIALES             04034661IPIALES   22
00375280500000CSAN VICENTE DEL CAGUAN     4000001000110100SAN VICEN DEL CAGUAN08073751SAN V/CAGU00
003760402184061KIOSCO UNAB                1000001000000100CTRO.OPE.REG.ORIENTE42371841B/MANGA   22
003772602596002NOBSA                      1000001000000100SOGAMOSO            08013771SOGAMOSO  22
00378180300000PISTMINA                    C000001000120100ISTMINA             04023780ITSMINA   00
003791102434031EPM MEDELLIN               C000001000000100CTRO.OPE.REG.ANTIOQ 42514341MEDELLIN  22
003800303000000ISERRA 100                 4000001000000100OPERA/NES CENT/ZADAS42103801BOGOTA    22
003810302000000LAS MARGARITAS             4000001000000100OPERA/NES CENT/ZADAS02013811BOGOTA    22
003821105434031ITAGUI                     C000001000000100CTRO.OPE.REG.ANTIOQ 42544341ITAGUI    22
00383130800000CSAN AGUSTIN-HUILA          4000001000140100SAN AGUSTIN         08043831S/AGUSTIN 00
003840302000000CENTRO EM. NORTH POINT     4000001000000100OPERA/NES CENT/ZADAS42053841BOGOTA    22
003861106434032CARRERA JUNIN              C000001000000100CTRO.OPE.REG.ANTIOQ 42504341MEDELLIN  22
003870204000000METROCENTRO                A000001000000100CTRO.OPE.REG.COSTA  42353871B/QUILLA  22
003880302000000BARRIO LA CASTELLANA       4000001000000100OPERA/NES CENT/ZADAS02033881BOGOTA    22
003890602000000LA PLAZUELA                A000001000000100CARTAGENA           06013891CARTAGENA 22
003901003428072LA DORADA                  4000001000000100LA DORADA           04063901LA DORADA 22
003910504484051CHIPICHAPE                 B000001000000100CTRO.OPER.REG.OCCIDE42464841CALI      22
00392020600000CCALLE MURILLO              A000001000130100CTRO.OPE.REG.COSTA  42341701B/QUILLA  22
003931102434032CTRO CIAL SANTAFE MEDELLIN C000001000000100CTRO.OPE.REG.ANTIOQ 42524341MEDELLIN  22
00394080300000PLA MESA                    4000001000130100OPERA/NES CENT/ZADAS08033941LA MESA   22
00395220300000CLA PRIMAVERA VILLAVICENCIO 4000001000120100CTR.V/CENCIO        08083951V/VICENCIO00
003960307000000OFICINA FUSAGASUGA         4000001000000100OPERA/NES CENT/ZADAS08033961BOGOTA    22
003972602000000SUGAMUXI SOGAMOSO          1000001000000100SOGAMOSO            08013971SOGAMOSO  22
00398130300000PLA PLATA                   4000001000130100LA PLATA            08043981LA PLATA  22
003990302000000CTR EMPR METROPOLIT SURAMER4000001000000100OPERA/NES CENT/ZADAS42213991BOGOTA    22
004002102612053LA VICTORIA                3000001000000100CTRO.OPE.PEREIRA    04084001LAVICTORIA22
004010302000500GERENCIA EMP BOGOTA MB     4000001000100100OPERA/NES CENT/ZADAS21124011BOGOTA    02
004021602468033LA VIRGINIA                3000001000000100CTRO.OPE.PEREIRA    04044681LAVIRGINIA22
00404191000000CEXT OF CC BVISTA STA MARTA A000001000170100SANTA MARTA         06064041STA. MARTA22
00405000000000NOF MOVIL BUS BCO DE BOGOTA 4000001000180100OPERA/NES CENT/ZADAS09094051BOGOTA    00
00406110200000CVIVA ENVIGADO              C000001000060100CENT.OPRA.REG.ANTIOQ42534061MEDELLIN  08
004073802000071LETICIA                    4000001000000100LETICIA             08074071LETICIA   22
004081203438042LORICA                     9000001000000100LORICA              06034381LORICA    22
00409320500000CUNICENTRO YOPAL            1000001000180100YOPAL               08014091YOPAL     00
004100302000000PRADO VERANIEGO            4000001000000100OPERA/NES CENT/ZADAS42034101BOGOTA    22
004120302000500GERENCIA EMP BOGOTA MB     4000001000100100OPERA/NES CENT/ZADAS21124121BOGOTA    02
004140604204042MAGANGUE                   A000001000000100MAGANGUE            06014141MAGANGUE  22
004150306000026OFIC REC Y PAGO FIESTA SUBA4000001000000100OPERA/NES CENT/ZADAS02014151BOGOTA    22
004160303000000LAS GRANJAS                4000001000000100OPERA/NES CENT/ZADAS14014161BOGOTA    22
00417110500000CENTRO COMERCIAL FLORIDA    C000001000140100CENT.OPRA.REG.ANTIOQ42484171MEDELLIN  22
00418090300000POFICINA ARMERO GUAYABAL    4000001000120100MARIQUITA           04064181A.GUAYABAL00
004202402628061SAN MARTIN CESAR           1000001000000100SAN ALBERTO         06044201SN.ALBERTO22
00421110200050CGCIA. EMPRE MEDELLIN MB    C000001001400100CENT.OPRA.REG.ANTIOQ21124211MEDELLIN  08
00423000000000NBASE MILITAR COVEÑAS       A000001000180100SINCELEJO           06034231COVEÑAS   00
00425030100000BOF RYP FONTIBON            4000001000090100OPERA/NES CENT/ZADAS14064251BOGOTA    22
004260602204042MAMONAL                    A000001000000100CARTAGENA           06012041MAMONAL   22
004270501427051OF. AVENIDA ROOSVELT-CALI  B000001000000100CTRO.OPER.REG.OCCIDE05014271CALI      22
004281006428033MANIZALES                  3000001000000100MANIZALES           04054281MANIZALES 22
00429051500000CES MIL AVIACIÓN M F SUAREZ B000001000150100CENT.OPER.REG.OCCIDE42414291CALI      22
004301105434031MARACAIBO   *****          C000001000000701CTRO.OPE.REG.ANTIOQ 04024341MEDELLIN  22
004311104434031TERMINAL DE TRANSPORTES    C000001000000100CTRO.OPE.REG.ANTIOQ 42474341MEDELLIN  22
004321103434031MATURIN                    C000001000000100CTRO.OPE.REG.ANTIOQ 04024421MEDELLIN  22
004331105434031EL POBLADO                 C000001000000100CTRO.OPE.REG.ANTIOQ 42524341MEDELLIN  22
004341124434031MEDELLIN CENTRO            C000001000000100CTRO.OPE.REG.ANTIOQ 42504341MEDELLIN  22
004361205438042MONTELIBANO                A000001000000100MONTELIBANO         06034381MONTELIBAN22
004370302000000SANTA LIBRADA BOGOTA       4000001000000100OPERA/NES CENT/ZADAS42184371BOGOTA    22
004381209438042MONTERIA                   A000001000000100MONTERIA            06034381MONTERIA  22
00439191000000COF TORRE BANCO DE BOGOTA   A000001000170100SANTA MARTA         06054391STA. MARTA22
004410303000000CALLE 80                   4000001000000100OPERA/NES CENT/ZADAS42264411BOGOTA    22
00442130800000CNEIVA                      4000001000140100NEIVA               08044421NEIVA     22
00443110100000CCALASANZ                   C000001000090100CENT.OPRA.REG.ANTIOQ42484431MEDELLIN  00
004443202000000CAJICA                     4000001000000100OPERA/NES CENT/ZADAS08064441CAJICA    22
004450505484052IMBANACO                   B000001000000100CTRO.OPER.REG.OCCIDE42404841CALI      22
004460705260061OCANA                      1000001000000100OCANA               06064461OCANA     22
004470302000000LUCERO                     4000001000000100OPERA/NES CENT/ZADAS42184471BOGOTA    22
004480303000000PALERMO                    4000001000000100OPERA/NES CENT/ZADAS14034481BOGOTA    22
00449030200000BCARRERA 7 CALLE 67         4000001000090100OPERA/NES CENT/ZADAS42104491BOGOTA    02
004500302000000CANDELARIA LA NUEVA        4000001000000100OPERA/NES CENT/ZADAS42184501BOGOTA    22
004511606468000VILLA DE LA MESA           3000001000000715CTRO.OPE.PEREIRA    08034511PEREIRA   22
004513201000000LA MESA                    4000001000000100OPERA/NES CENT/ZADAS08094511FUNZA     22
004521105434031CENTRO COMERCIAL EL TESORO C000001000000100CTRO.OPE.REG.ANTIOQ 42524341MEDELLIN  22
00453020200000CMALAMBO                    A000001000080100CTRO.OPE.REG.COSTA  42354531MALAMBO   22
004540502000000UNICENTRO PALMIRA          B000001000000100CENT.OPER.REG.OCCIDE42424541PALMIRA   22
00455050200000CPANAMERICANO CALI          B000001000080100CENT.OPER.REG.OCCIDE42404551CALI      22
004560502000000VILLA COLOMBIA CALI        B000001000000100CENT.OPER.REG.OCCIDE05084561CALI      22
00457020600000CGALAPA                     A000001000130100CTRO.OPE.REG.COSTA  06024571GALAPA    00
004581508458053PALMIRA                    B000001000000100CTRO.OPER.REG.OCCIDE42424581PALMIRA   22
004590502000000PASO ANCHO                 B000001000000100CTRO.OPER.REG.OCCIDE42404841CALI      22
00460030200000BAV CARRERA 30 CON 75       4000001000090100OPERA/NES CENT/ZADAS02084601BOGOTA    22
00461140700000CMUNICIPIO DE LA UNION      B000001000150100LA UNION            05064611LA UNION  00
004620704260061PAMPLONA                   1000001000000100PAMPLONA            06062601PAMPLONA  22
004631102000000MARINILLA                  C000001000000100CENT.OPRA.REG.ANTIOQ04024631MEDELLIN  22
00464110200000COFI PREMIUM TORRE OVIEDO   C000001000140100CENT.OPRA.REG.ANTIOQ37054642MEDELLIN  08
004651605468033PARQUE OLAYA               3000001000000100CTRO.OPE.PEREIRA    04054681PEREIRA   22
004661405466052PASTO                      B000001000000100PASTO               04034661PASTO     22
00467020400000CPARQUE WASHINGTON          A000001000150100CTRO.OPE.REG.COSTA  42331701B/QUILLA  22
004681608468033PEREIRA                    3000001000000100CTRO.OPE.PEREIRA    04054681PEREIRA   22
004690404184061PIEDECUESTA                1000001000000100CTRO.OPE.REG.ORIENTE06041841PIE.CUESTA22
004700502000000JAMUNDI                    B000001000000100CENT.OPER.REG.OCCIDE42394701JAMUNDI   22
004711903564043PIVIJAY (MAGDALENA)        A000001000000100PIVIJAY   (MAGDALENA06053261PIVIJAY   22
004730406184000OFIC REC Y PAGO PASEO COMER1000001000000100CTRO.OPE.REG.ORIENTE06014731B/MANGA   22
004740903370072PIEDRAPINTADA              4000001000000100IBAGUE              04063701IBAGUE    22
004750502000000VILLA COLOMBIA CALI        B000001000000100CENT.OPER.REG.OCCIDE42444751CALI      22
00476110800000CB E L E N                  C000001000150100CENT.OPRA.REG.ANTIOQ42494761MEDELLIN  22
004770501000000JUNIN                      B000001000000100CENT.OPER.REG.OCCIDE42424771CALI      22
00478160500000CCAREPA                     C000001000100100CTRO.OPERA.ANTIOQUIA04074781CAREPA    22
004792102000000VILLA CESPEDES TULUA       B000001000000100TULUA               05084791TULUA     22
004800502000000OFICINA CANAVERALEJO       B000001000000100CENT.OPER.REG.OCCIDE05084801CALI      22
00481030400000BOFIC REC Y PAGO CC G EST II4000001000130100OPERA/NES CENT/ZADAS14014811BOGOTA    22
004840515484051PLAZA DE CAICEDO           B000001000000100CTRO.OPER.REG.OCCIDE42444841CALI      22
00486050700000CUNICENTRO CALI             B000001000150100CENT.OPER.REG.OCCIDE42394841CALI      22
004870505484000ALAMEDA (CALI)             B000001000000100CTRO.OPER.REG.OCCIDE42414841CALI      22
004880502000000CIUDAD CORDOBA             B000001000000100CENT.OPER.REG.OCCIDE42414881CALI      22
004900502000000AVENIDA TERCERA            B000001000000100CENT.OPER.REG.OCCIDE05084901CALI      22
00491130200000CCTRO CCIAL MURANO NEIVA    4000001000140100NEIVA               08044911NEIVA     00
004920302000000PARQUE DE LA INDEPENDENCIA 4000001000000100OPERA/NES CENT/ZADAS42144921BOGOTA    22
00493020200000CCTR CCIAL GRAN PLZ DEL SOL A000001000080100CTRO.OPE.REG.COSTA  42354931SOLEDAD   00
004942403628043PLAZA DE MERCADO (V/DUPAR) A000001000000100VALLEDUPAR          06036281VALLEDUPAR22
004950502000000EL TEMPLETE CALI           B000001000000100CENT.OPER.REG.OCCIDE05084951CALI      22
004961704000000CALLE DE LA HERRERIA       B000001000000100POPAYAN             05084961POPAYAN   22
00497000000000NOFICINA CALDAS             C000001000000100CTRO.OPER.ANTIOQUIA 42514971CALDAS    00
004980502000000CENTRO COMERCIAL CARRERA   B000001000000100CTRO.OPER.REG.OCCIDE05034981CALI      22
00500030300000BCARRERA 11 CON 81          4000001000020100OPERA/NES CENT/ZADAS42095001BOGOTA    00
005040603204042AV. PEDRO DE HEREDIA C/GENAA000001000000100CARTAGENA           06022041CARTAGENA 22
00506030400000BCITY U                     4000001000090100OPERA/NES CENT/ZADAS42125061BOGOTA    00
00510110400000CLAURELES                   C000001000150100CENT.OPRA.REG.ANTIOQ42485101MEDELLIN  00
005110304000000CALLE 18                   4000001000000100OPERA/NES CENT/ZADAS14025111BOGOTA    22
005120301000000ISMAEL PERDOMO             4000001000000100OPERA/NES CENT/ZADAS14045121BOGOTA    22
005130401000000PUERTO WILCHES             1000001000000100PUERTO WILCHES      06045131PTO.WILCHE22
005141103434032PUERTO BERRIO              C000001000000100PUERTO BERRIO       06045141PTO.BERRIO22
00516070200000CLOS PATIOS NORTE/SANTANDER 1000001000090100CUCUTA              06065161LOS PATIOS00
005181103000000ARGOS                      C000001000000100CENT.OPRA.REG.ANTIOQ42505181MEDELLIN  22
00519080700000PARBELAEZ                   4000001000120100OPERA/NES CENT/ZADAS08035191ARBELAEZ  00
005201706520052POPAYAN                    B000001000000100POPAYAN             04035201POPAYAN   22
005241102000000CASTILLA                   C000001000000100CENT.OPRA.REG.ANTIOQ04045241MEDELLIN  22
005250308000012OFIC REC Y PAGO PARQUE NAL 4000001000000100OPERA/NES CENT/ZADAS14085251BOGOTA    22
005260103138033QUIMBAYA                   3000001000000100ARMENIA             04045261QUIMBAYA  22
005281102000000AMERICA                    C000001000000100CENT.OPRA.REG.ANTIOQ04045281MEDELLIN  22
005291906564041CENTRO COMERCIAL ARRECIFE  A000001000000100SANTA MARTA         06055291STA. MARTA22
005302505530043RIOHACHA                   A000001000000100RIOHACHA            06055301RIOHACHA  22
005311103000000SAN IGNACIO                C000001000000100CENT.OPRA.REG.ANTIOQ42505311MEDELLIN  22
005321102434032RIONEGRO                   C000001000000100CTRO.OPE.REG.ANTIOQ 04024341MEDELLIN  22
005341104000000BELLO PLAZA                C000001000000100CENT.OPRA.REG.ANTIOQ42475341MEDELLIN  22
005350110138033ARMENIA CALLE 21 CRA 17    3012111000000100ARMENIA             04105351ARMENIA   00
00536000000000NGCIA OPERATIVA DE CARTERA  4000001000180100OPERA/NES CENT/ZADAS09090401BOGOTA    00
00538110200000CCTR CIAL UNICENTRO MEDELLINC000001000090100CENT.OPRA.REG.ANTIOQ42495381MEDELLIN  00
005392402628061SAN ALBERTO                1000001000000100SAN ALBERTO         06041841SN.ALBERTO22
005402706540041SAN ANDRES (ISLA)          A000001000000100SAN ANDRES (ISLA)   06015401SAN ANDRES22
00541110200000CG OPER VIVIENDA Y VEHICULO 4000001000100100OPERA/NES CENT/ZADAS09095411BOGOTA    22
005420305000014CTRO CIAL CTRO MAYOR       4011181000000100OPERA/NES CENT/ZADAS42175421BOGOTA    00
005431102000000LA SETENTA                 C000001000000100CENT.OPRA.REG.ANTIOQ04045431MEDELLIN  22
005440506484052SANTA LIBRADA              B000001000000100CTRO.OPER.REG.OCCIDE42434841CALI      22
005450302000000PREMIUM AV.19 CALLE 114    4000001000010100OPERA/NES CENT/ZADAS37015451BOGOTA    22
005461502000000ORITO                      B000001000000100ORITO               08075461ORITO     22
00547210300000PEXT DE OFICINA CAICEDONIA  B000001000170100SEVILLA             05075471CAICEDONIA00
005482503530043SAN JUAN DEL CESAR         A000001000000100SAN JUAN DEL CESAR  06026281SAN JUAN  22
00549060400000CPREMIUN EDF BCO BTA BOCAGR A000001000150100CARTAGENA           37065491CARTAGENA 00
005501102000000CNTRO CCIAL CITY PLAZA     C000001000000100CENT.OPRA.REG.ANTIOQ04025501MEDELLIN  22
00551080700000PCCIAL UNICENTRO GIRARDOT   4000001000120100GIRAROT             08075511GIRARDOT  19
005521204000000CALLE 39 MONTERIA          A000001000000100MONTERIA            06075521MONTERIA  22
005530302000000PREMIUM CARRERA 11 CON 81  4000001000010100OPERA/NES CENT/ZADAS37025531BOGOTA    22
005541101000000STA ROSA DE OSOS           C000001000000100CENT.OPRA.REG.ANTIOQ04075541MEDELLIN  22
005562203636071SAN MARTIN                 4000001000000100SAN MARTIN          08085561SAN MARTIN22
00558110300000CCCIAL BOSQUE PLAZA         C000001000090100CENT.OPRA.REG.ANTIOQ42485581MEDELLIN  00
005620302000000TUNJUELITO                 4000001000000100OPERA/NES CENT/ZADAS14035621BOGOTA    22
005641906564041SANTA MARTA                A000001000000100SANTA MARTA         06055641STA. MARTA22
005660504484051SANTA MONICA               B000001000000100CTRO.OPER.REG.OCCIDE42444841CALI      22
00568050400000CSANTA RITA                 B000001000170100CENT.OPER.REG.OCCIDE42444841CALI      22
00569040500000COF RDOS Y PAGOS CANAVERAL  1000001000090100CTRO.OPE.REG.ORIEN  07065691FLORIDABLC00
00570030300000PGUASCA                     4000001000170100OPERA/NES CENT/ZADAS08065701BOGOTA    00
005710302000000CTRO DE SCIOS BANCA PYME   4000001000010100OPERA/NES CENT/ZADAS09075711BOGOTA    22
005721603468033SANTA ROSA DE CABAL        3000001000000100CTRO.OPE.PEREIRA    04054681STA. ROSA 22
005740202170041LA CORDIALIDAD             A000001000000100CTRO.OPERA.REG.COSTA42345741B/QUILLA  22
00575000000000NGCIA OPER Y DESA BCA SOCIAL4000001000000100OPERA/NES CENT/ZADAS00005750BOGOTA    00
005762602596062SANTA ROSA DE VITERBO      1000001000000100SANTA ROSA DE VITERB08015761STA. ROSA 22
00578180600000CQUIBDO                     C000001000170100QUIBDO              04025781QUIBDO    22
005803202000000CAQUEZA                    4000001000000100OPERA/NES CENT/ZADAS08065801MOSQUERA  22
005820710260061OFIC REC Y PAGO CUCUTA     1000001000000100CUCUTA              07035821CUCUTA    22
00583130200000CTOLEMAIDA                  4000001000140100OPERA/NES CENT/ZADAS08075831NILO      31
005841106434031SECTOR ESTADIO             C000001000000100CTRO.OPE.REG.ANTIOQ 42484341MEDELLIN  22
005852002616062SECTOR SUR TUNJA           1000001000000100TUNJA               08016161TUNJA     22
005870302000000SIBATE                     4000001000000100OPERA/NES CENT/ZADAS08035871BOGOTA    22
005882102612053SEVILLA                    B000001000000100SEVILLA             04045881SEVILLA   22
005891006428033TERM TRANSP MANIZALES      3000001000000100MANIZALES           04055891MANIZALES 22
00590040600000POF. REAL DE MINAS          1000001000150100CTRO.OPE.REG.ORIENTE42375901B/MANGA   00
005922308592042SINCELEJO                  A000001000000100SINCELEJO           06035921SINCELEJO 22
005931102434000LA MILAGROSA               C000001000000100CTRO.OPE.REG.ANTIOQ 04015931MEDELLIN  22
00594000000000NECONOCUENTA                4000001000180100OPERA/NES CENT/ZADAS09095941BOGOTA    00
005952402628043LA LOMA                    A000001000000100LA LOMA             06065951EL PASO   22
005962605596062SOGAMOSO                   1000001000000100SOGAMOSO            08015961SOGAMOSO  22
005970302000000SOPO                       4000001000000100OPERA/NES CENT/ZADAS08025971SOPO      22
005981102434032CTR COMERCIAL SAVANNA      C000001000000100CTRO.OPE.REG.ANTIOQ 04025981MEDELLIN  22
005992402628043LA JAGUA                   A000001000000100CODAZZI             06025991EL PASO   22
006000407184061CENTRO COM. CABECERA       1000001000000100CTRO.OPE.REG.ORIENTE42371841BUCARAMAN.22
006010702601061C CIAL VENTURA PLAZA - CU  1000001000000100CUCUTA              06066011CUCUTA    22
006020304000025OFIC REC Y PAGO TEQUENDAMA 4000001000000100OPERA/NES CENT/ZADAS14036021BOGOTA    22
006032602596002TERMINAL DE TRANSP SOGAMOSO1000001000000100SOGAMOSO            07056031SOGAMOSO  22
006043202000071BRICENO                    4000001000000100OPERA/NES CENT/ZADAS08036601BOGOTA    22
006050302000011TOBERIN                    4000001000000100OPERA/NES CENT/ZADAS42016051BOGOTA    22
006060302000011OFICINA TINTAL PLAZA       4000001000000100OPERA/NES CENT/ZADAS42236061BOGOTA    22
00607030200000BCENTR CIAL FLORESTA OUTLET 4000001000090100OPERA/NES CENT/ZADAS02066071BOGOTA    22
006080802348072TOCAIMA                    4000001000000100TOCAIMA             08076081TOCAIMA   22
006090504484051CENTRO CIAL CARULLA PANCE  B000001000000100CTRO.OPER.REG.OCCIDE42396091CALI      00
006100000000000GCIA OPER TARJETAS Y ADQUI 4000001000000100OPERA/NES CENT/ZADAS09076101BOGOTA    22
006113202000000UBATE                      4000001000000100OPERA/NES CENT/ZADAS08026111UBATE     22
006122105612053TULUA                      B000001000000100TULUA               04086121TULUA     22
006130502484000OCTRO.SERV.BANCA PYME 613  B000001000000100CTRO.OPER.REG.OCCIDE09076131CALI      22
006140702614061C CIAL UNICENTRO CUCUTA    1000001000000100CUCUTA              06066141CUCUTA    22
006150302000000CENTRO COMERCIAL SANTAFE II4000001000000100OPERA/NES CENT/ZADAS42066151BOGOTA    22
006162009616062TUNJA                      1000001000000100TUNJA               08016161TUNJA     22
006170304000025OF DE RC Y PG PQ EL VIRREY 4000001000000100OPERA/NES CENT/ZADAS02036171BOGOTA    22
006181605000000CHIGORODO                  C000001000000100CTRO.OPERA.ANTIOQUIA04076181CHIGORODO 22
006190702619061VILLA DEL ROSARIO          1000001000000100CUCUTA              06066191VLL/ROS   22
006204103434032TURBO                      C000001000000100APARTADO            04074341TURBO     22
006210302000000CTRO EMPRESAR PARALELO 108 4000001000000100OPERA/NES CENT/ZADAS42096211BOGOTA    22
006220302000000CALLE 104 AVENIDA 19       4000001000000100OPERA/NES CENT/ZADAS42046221BOGOTA    22
006243204000000PARQUE AGROINDUSTRIAL      4000001000000100OPERA/NES CENT/ZADAS02046241COTA      22
006251301000000PUERTO RICO                4000001000000100OPERA/NES CENT/ZADAS08076251PUERTO RCO22
00627020200000CCARRERA 38 CON CALLE 70    A000001000080100CTRO.OPE.REG.COSTA  42336271B/QUILLA  22
006282408628043VALLEDUPAR                 A000001000000100VALLEDUPAR          06026281VALLEDUPAR22
006290304000026OFIC REC Y PAGO CL 13 31-564000001000000100OPERA/NES CENT/ZADAS14116291BOGOTA    22
00630020300000CSECTOR VIVERO              A000001000180100CTRO.OPE.REG.COSTA  06071701B/QUILLA  22
006310302000000OFI.PREM.LUIS.C.SARMIENTO  4000001000000100OPERA/NES CENT/ZADAS37026311BOGOTA    22
006323201000000TOCANCIPA                  4000001000000100OPERA/NES CENT/ZADAS08026321TOCANCIPA 22
006331602633033UNICENTRO PEREIRA          3000001000000100CTRO.OPE.PEREIRA    04056331PEREIRA   22
006341101434000SAN LUCAS PLAZA            C000001000000100CTRO.OPE.REG.ANTIOQ 42536341MEDELLIN  22
006362208636071VILLAVICENCIO              4000001000000100CTR.V/CENCIO        08086361V/CENCIO  22
00637030200000BOFICINA WORLD TRADE CENTER 4000001000090100OPERA/NES CENT/ZADAS42046371BOGOTA    22
00638130200000CCC SANTA LUCIA PLAZA       4000001000140100NEIVA               08046381NEIVA     22
006390504484051VIPASA                     B000001000000100CTRO.OPER.REG.OCCIDE42466391CALI      22
006403203000071LA VEGA                    4000001000000100OPERA/NES CENT/ZADAS08033041VILLETA   22
00641031200000BOFICINA BELLA SUIZA        4000001000030100OPERA/NES CENT/ZADAS42056411BOGOTA    00
00642130200000CSAN JUAN PLAZA NEIVA       4000001000140100NEIVA               08046421NEIVA     00
00643110243400COFICINA CIUDAD BOLIVAR     C000001000000100CTRO.OPE.REG.ANTIOQ 04066431C BOLIVAR 00
006441104434032YARUMAL                    C000001000000100CTRO.OPE.REG.ANTIOQ 04074341YARUMAL   22
006450501000000OFIC REC Y PAGO CRA PRIMERAB000001000000100CENT.OPER.REG.OCCIDE05036451CALI      22
006463205000062YOPAL                      1000001000000100YOPAL               08015961YOPAL     22
00648050600000PYUMBO                      B000001000180100CENT.OPER.REG.OCCIDE42464841YUMBO     22
00649110100000CCC NUESTRO URABA           C000001000000100APARTADO            04046491APARTADO  22
006501602633033EXT OFI BELEN DE UMBRIA    3000001000000100CTRO.OPE.PEREIRA    04086501BLN UMBRIA00
00652130100000PPURIFICACION               4000001000140100PURIFICACION        08046521PURIFICACI22
006531105434031GUAYABAL BOX               C000001000000100CTRO.OPE.REG.ANTIOQ 42496531MEDELLIN  22
006540304000026GCIA OPE DEL ACTIVO PER JUR4000001000000100OPERA/NES CENT/ZADAS09076541BOGOTA    00
00655030100000BESCUELA MILITAR DE CADETES 4000001000090100OPERA/NES CENT/ZADAS42256551BOGOTA    02
006562103612053ZARZAL                     B000001000000100ZARZAL              04086561ZARZAL    22
00657241100000CCTRO CCIAL LOS MAYALES     A000001000180100VALLEDUPAR          06026571VALLEDUPAR00
00658000000000COF PREMIUM EDF BCO BTA BQLLA000000000000100CTRO.OPE.REG.COSTA  37066581BQUILLA   22
00659060100000COFIC REC Y PAGO CARTAGENA  A000001000900100CARTAGENA           06016591CARTAGENA 22
006603206000071ZIPAQUIRA                  4000001000000100OPERA/NES CENT/ZADAS08026601ZIPAQUIRA 22
00661020300000CEXT DE OF UNIVERSIDAD NORTEA000001000180100CTRO.OPE.REG.COSTA  42326611BQUILLA   00
00662050600000PCTRO CCIAL UNICO YUMBO     B000001000180706CENT.OPER.REG.OCCIDE05016621YUMBO     00
006630304000026OFI.RECAU.PAG CLL 128      4000001000000100OPERA/NES CENT/ZADAS02036631BOGOTA    22
006650000000000TARJ MARCA COMPARTIDA CEOI 4000001000000100OPERA/NES CENT/ZADAS00096651BOGOTA    00
006660202000000NORMALIZACION PMP COSTA    A000001000080100CTRO.OPE.REG.COSTA  06046661B/QUILLA  22
006670402000000NORMALIZACION PMP ORIENTE  1000001000080100CTRO.OPE.REG.ORIEN  07186671B/MANGA   22
006682203636071OFIC REC Y PAGO AV 40 VCIO 4000001000000100CTR.V/CENCIO        08036681V/CENCIO  00
006690502000000NORMALIZACION PMP OCCIDENTEB000001000080100CENT.OPER.REG.OCCIDE05186691CALI      22
006700302000000NORMALIZACION PMP BTA SUR  4000001000010100OPERA/NES CENT/ZADAS14186701BOGOTA    22
006710502484000OFIC REC Y PAGO LA CAMPINA B000001000000100CTRO.OPER.REG.OCCIDE05036711CALI      22
006720302000000NORMALIZACION PMP CENTRAL  4000001000010100OPERA/NES CENT/ZADAS08186721BOGOTA    22
00674270600000CEXT OFICINA PROVIDENCIA    A000001000160100PROVIDENCIA         06016741PROVI/CIA 00
00675020300000CCENTRO COMERCIAL LE CHAMP  A000001000180100CTRO.OPE.REG.COSTA  42326751BQUILLA   00
006762606596062PAIPA                      1000001000000100PAIPA               08016761PAIPA     22
006771102677000CTRO CIAL PREMIUM PLAZA    C000001000000100CTRO.OPE.REG.ANTIOQ 42526771MEDELLIN  22
006780501678051C.C. LA 14 VALLE DE LILI   B000001000000100CTRO.OPER.REG.OCCIDE42396781CALI      22
006790502679051PARQUE COMERCIAL RIO CAUCA B000001000000100CTRO.OPER.REG.OCCIDE42416791CALI      22
006801104434031CTRO.SERV.BCA.PYME MEDELLINC000001000000100CTRO.OPE.REG.ANTIOQ 09076801MEDELLIN  22
006840000000000GERENCIA BANCA PYME 19     4000001000010100OPERA/NES CENT/ZADAS27196841BOGOTA    22
006920502000000TUMACO                     B000001000000100CENT.OPER.REG.OCCIDE04036921TUMACO    22
006931405000000UNICENTRO PASTO            B000001000000100PASTO               04036931PASTO     22
006940309000011UNICENTRO BOGOTA ENTRADA 7 4000001000000100OPERA/NES CENT/ZADAS42056941BOGOTA    22
00695220200000CPUERTO CARREÑO             4000001000080100PUERTO CARREÑO      08076951PTO CARREÑ00
006972202636071PUERTO LOPEZ               4000001000000100PUERTO LOPEZ        08086971PTO LOPEZ 22
00699280500000CBASE MILITAR LARANDIA      4000001000110100FLORENCIA           08076991FLORENCIA 37
007000302000025CENTRALIZACION AGILIZADORES4000001000000100OPERA/NES CENT/ZADAS02067001BOGOTA    22
007010000000000CENTRO OPERACIONES MEDELLINC100001000000100CENTRO OP/NES REG.AN03007011MEDELLIN  22
007020000000000GCIA OPERATIVA GARANTIAS   4000001000010100OPERA/NES CENT/ZADAS00007021BOGOTA    22
00704130200000CQUIRINAL                   4000001000140100NEIVA               08046704NEIVA     00
007052202636071OFICINA CASTILLA LA NUEVA  4000001000000100V/CENCIO            08057051V/CECNIO  22
007060000000000CTRO.OPE.REG.OCCIDENTE     B000001000000100CTR.OP.REG.OCCIDENTE01007061CALI      22
007070211170041CTRO.OPE.REG.COSTA         A000001000000100CTRO.OPERA.REG.COSTA04011701B/QUILLA  22
00708320300000POFICINA MADRID             4000001000180100OPERA/NES CENT/ZADAS08067081MADRID    00
007130411184061CTRO.OPR.REG.ORIENTE       1000001000000100CTRO.OPE.REG.ORIENTE06011841BUCARAMAN.22
007151608468033CTRO.OPER.PEREIRA          3000001000000100CTRO.OPE.PRERIRA    03034681PEREIRA   22
00716030200000BCENTRO DE EFECTIVO BOGOTA  4000001000010100OPERA/NES CENT/ZADAS02087161BOGOTA    22
00749030200050BG BANCA OFICIAL INSTITUCION4000001000010100OPERA/NES CENT/ZADAS10117691BOGOTA    22
00750130100000CGUAMO                      4000001000140100GUAMO               08047501GUAMO     22
00752110200000CCENTRO COMERCIAL AVESMARIA C000001000060100CENT.OPRA.REG.ANTIOQ42517521MEDELLIN  22
00757020200050CNORMALIZACION CEOI COSTA   A000001000080100CTRO.OPE.REG.COSTA  06187711B/QUILLA  22
00760030200050BNORMALIZACION PMP BTA NORTE4000001000010100OPERA/NES CENT/ZADAS02087691BOGOTA    22
00767130100000CCHAPARRAL                  4000001000140100CHAPARRAL           08047671CHAPARRAL 22
007681102000000CENT SERV EMPRESARIAL MED  C000001000140100CENT.OPRA.REG.ANTIOQ04057681MEDELLIN  22
007690302000000CENT SERV EMPRESARIAL BTA  4000001000010100OPERA/NES CENT/ZADAS02087691BOGOTA    22
007710202000000CENT SERV EMPRESARIAL BQUILA000001000080100CTRO.OPE.REG.COSTA  06047711B/QUILLA  22
007720502000000CENT SERV EMPRESARIAL CALI B000001000080100CENT.OPER.REG.OCCIDE05057721CALI      22
007730402000000CENT SERV EMPRESARI BMANGA 1000001000080100CTRO.OPE.REG.ORIEN  07037731B/MANGA   22
007770000000000CHEQUES MAL REMITIDOS      4000001000010100OPERA/NES CENT/ZADAS09007771BOGOTA    22
00778031200000NDIRECCION NAL COBRANZAS    4000001000010100OPERA/NES CENT/ZADAS09097781BOGOTA    22
00781160500000PMONTENEGRO                 3000001000170100CTRO.OPERA.ANTIOQUIA04047811MONTENEGRO00
00788000000000NUNID.VEHICU.ANTIOQ.MEGABAN C000001000000100CTRO. OP.RG.ANT/QUIA00007011BOGOTA    22
00792130500000CCALLE SEPTIMA NEIVA        4000001000140100NEIVA               08047921NEIVA     22
007931302000000PITALITO                   4000001000000100OPERA/NES CENT/ZADAS08047931PITALITO  22
007960302000000BOSA CENTRO                4000001000000100OPERA/NES CENT/ZADAS42167961BOGOTA    22
00798320100000PSUBACHOQUE                 4000001000180100OPERA/NES CENT/ZADAS08067981SUBACHOQUE22
007990302000000CALERA                     4000001000000100OPERA/NES CENT/ZADAS08027991BOGOTA    22
008000202170000PLANETA RICA               A000001000000100CTRO.OPERA.REG.COSTA06038001B/QUILLA  22
008010301000000ENGATIVA                   4000001000000100OPERA/NES CENT/ZADAS42248011BOGOTA    22
008020302000000CENTRO SUBA                4000001000000100OPERA/NES CENT/ZADAS42028021BOGOTA    22
008030504803051SAN NICOLAS                B000001000000100CTRO.OPER.REG.OCCIDE05028031CALI      22
008042202636071OFICINA PUERTO GAITAN META 4000001000000100PUERTO GAITAN META  08088041PTO GAITAN22
008072002616062C CIAL UNICENTRO TUNJA     1000001000000100TUNJA               08018071TUNJA     22
008081102808031C.C. PUERTA DEL NORTE      C000001000000100CTRO.OPE.REG.ANTIOQ 42478081BELLO     22
008100201810041C.C. METROPOLITANO         A000001000000100CTRO.OPERA.REG.COSTA06068101SOLEDAD   22
00811110200000CARKADIA                    C000001000060100CENT.OPRA.REG.ANTIOQ42548111MEDELLIN  22
008120504812051OFIC REC Y PAGO AV SEXTA   B000001000000100CTRO.OPER.REG.OCCIDE05038121CALI      22
008150503815051OFIC REC Y PAGO YUMBO      B000001000000100CTRO.OPER.REG.OCCIDE05038151CALI      22
008160302000000GERENCIA EMP. BOGOTA MB    4000001000010100OPERA/NES CENT/ZADAS21128161BOGOTA    22
008171702520052C CIAL CAMPANARIO POPAYAN  B000001000000100POPAYAN             04038171POPAYAN   22
008180302000000FILIAL PANAMA              4000001000010100OPERA/NES CENT/ZADAS09008181BOGOTA    22
008190302000000CAMPIN                     4000001000000100OPERA/NES CENT/ZADAS02028191BOGOTA    22
008200302000000FILIAL NASSAU              4000001000010100OPERA/NES CENT/ZADAS09008201BOGOTA    22
00821000000000NCORRESPONSALES BANC DIF EXI4000001000000100OPERA/NES CENT/ZADAS00008210BOGOTA    22
008223202000071CENTRO COMERCIAL MEGACITY  4000001000000100OPERA/NES CENT/ZADAS08028221ZIPAQUIRA 22
00823000000000NCORRESPONSALES BANC EXITO  4000001000000100OPERA/NES CENT/ZADAS00008230BOGOTA    22
008250702619061EL ZULIA                   1000001000000100CUCUTA              06068251ZULIA     22
008280504484000OFIC REC Y PAGO IMBANACO   B000001000000100CTRO.OPER.REG.OCCIDE05018281CALI      22
008270501706000OF PREMIUM EDF BCO DE BGTA B000001000000100CTRO.OPER.REG.OCCIDE37058271CALI      22
008291202438042C CIAL NUESTRO MONTERIA    A000001000000100MONTERIA            06038291MONTERIA  22
00830020100000CSOLEDAD ATLANTICO          A000001000080100CTRO.OPE.REG.COSTA  06028301SOLEDAD   00
00833050000050NGCIA CORPORAT 833          B000001000000100CENT.OPRA.REG.OCCIDE03068330CALI      22
008340411184061OFICINA FOSCAL INTNACIONAL 1000001000000100CTRO.OPE.REG.ORIENTE42368341BUCARAMAN.22
008350202170000SAHAGUN                    A000001000000100CTRO.OPERA.REG.COSTA06038001SAHAGUN   00
008360904000000MURILLO TORO               4000001000000100IBAGUE              04068361IBAGUE    22
008370902000000LOS OCOBOS                 4000001000000100IBAGUE              04068371IBAGUE    22
008380901000000OFICINA CC PENALISA MALL   4000001000000100OPERA/NES CENT/ZADAS08088381NILO      22
008390906000000OFIC REC Y PAGO IBAGUE     4000001000000100IBAGUE              08028391IBAGUE    22
008401602000000FRESNO                     3000001000000100FRESNO              04068401FRESNO    22
008411001000000MANZANARES                 3000001000000100MANZANARES          21058411MANZANARES22
008421605000000PARQUE LAGO URIBE PEREIRA  3000001000000100CTRO.OPER.PEREIRA   04058421PEREIRA   22
008431308442072OFIC REC Y PAGO NEIVA      4000001000000100NEIVA               08028431NEIVA     22
008442102000000PQUE DE LA CONCORDIA SEVILLB000001000000588CENT.OPER.REG.OCCIDE05068441SEVILLA   22
008451605000000CIUDAD MILAGRO ARMENIA     3000001000000100CTRO.OPERA.ANTIOQUIA04048451ARMENIA   22
008460301000000NORMAL.CARTERA VEHIC RED ME4000001000000100OPERA/NES CENT/ZADAS21018461BOGOTA    22
008471001000000ANSERMA                    3000001000000100ANSERMA             04048471ANSERMA   22
008481002000000RIOSUCIO                   3000001000000100RIOSUCIO            04088481RIOSUCIO  22
008490402000000CARRERA 33 CABECERA        1000001000000100CTRO.OPE.REG.ORIEN  07078491B/MANGA   22
008500002000000PQUE URIBE BARRANCABERMEJA 1000001000000100B/MEJA              07078501B/MEJA    22
008522203000000VILLA JULIA                4000001000000100CTR.V/CENCIO        08088521V/CENCIO  22
008532202000000CUMARAL                    4000001000000100CTR.V/CENCIO        08068531V/CENCIO  22
008552204000000RIO CRAVO                  1000001000000100OPERA/NES CENT/ZADAS07068551YOPAL     22
008560204856041OFIC REC Y PAGO CALLE 30   A000001000000100CTRO.OPERA.REG.COSTA06048561B/QUILLA  22
00857110000050CGCIA CORPORAT 857          C000001000140100CENT.OPRA.REG.ANTIOQ03028571MEDELLIN  22
00858110000050NGCIA EMPRESA 858           C000001000140100CENT.OPRA.REG.ANTIOQ01028581MEDELLIN  22
00859040000050NGCIA EMPRESA 859           1000001000000100CTRO.OPER.REG.ORIENT01095891B/MANGA   22
00860020000050NGCIA CORPORAT 860          A000001000000100CTRO.OPER.REG.ORIENT03058601CA/GENA   22
008613505484052OFIC REC Y PAGO BVENTURA   B000001000000100BUENAVENTURA        04088611B/VENTURA 22
008620304000000OFIC REC Y PAGO CC MERCURIO4000001000000100OPERA/NES CENT/ZADAS14028621SOACHA    22
008632408628043CTR CIAL GUATAPURI         A000001000000100VALLEDUPAR          06028631VALLEDUPAR22
008642408628043OFIC REC Y PAGO VALLEDUPAR A000001000000100VALLEDUPAR          06048641VALLEDUPAR22
008651102000000OFIC REC Y PAGO SC EDIO MEDC000001000000100CENT.OPRA.REG.ANTIOQ04018651MEDELLIN  22
008660000000000TARJ MARCA COMPARTIDA PMP  4000001000000100OPERA/NES CENT/ZADAS00098661BOGOTA    00
008670307000012GCIA CEO EMPR Y OFIC MB    4000001000000100OPERA/NES CENT/ZADAS21120867BOGOTA    22
008680509484052INGREDION COLOMBIA SA.     B000001000000100CTRO.OPER.REG.OCCIDE42458681CALI      00
008690501706000C CIAL PREMIER EL LIMONAR  B000001000000100CTRO.OPER.CALI      42408691CALI      22
008740202874041CENTRO COMERCIAL MIRAMAR   A000001000000100CTRO.OPERA.REG.COSTA06048741B/QUILLA  22
00875000000000NUNID.DE VEHIC.BUCAR.MEGABAN4000001000000100OPERA/NES CENT/ZADAS00007131BOGOTA    22
008760000000000G.OPER INNAL MCDO CAPITALES4000001999990100OPERA/NES CENT/ZADAS00008760BOGOTA    22
008770000000000DIRC TESOR Y CORRESP EXTRAN4000001999990100OPERA/NES CENT/ZADAS00008770BOGOTA    22
008782203636071OFICINA CLINICA META       4000001000000100CTR.V/CENCIO        08058781V/CENCIO  22
008790302000000PREMIUM CALLE 36           4000001000010100OPERA/NES CENT/ZADAS37028791BOGOTA    22
008801209438042MONTERIA NORTE             A000001000000100MONTERIA            06038801MONTERIA  22
008810406184000OFIC REC Y PAGO CABECERA   1000001000000100CTRO.OPE.REG.ORIENTE07018811B/MANGA   22
00882040000050NGCIA EMPRESA 882           1000001000000100CTRO.OPER.REG.ORIENT01098821CUCUTA    22
008831104434031OFIC REC Y PAGO CTRAL ABASTC000001000000100CTRO.OPE.REG.ANTIOQ 04048831ITAGUI    22
008850801348072ANAPOIMA                   4000001000000100ANAPOIMA            08038851ANAPOIMA  22
008860000000000SERVIBANCA                 4000001000000100OPERA/NES CENT/ZADAS08060000BOGOTA    20
008870000000000REDEBAN                    4000001000000100OPERA/NES CENT/ZADAS00000000BOGOTA    00
008880000000000A.T.H.                     4000001000000100OPERACIONES CENTRALI00000000BOGOTA    20
008891603468033OFIC REC Y PAGO PLZ BOL PER3000001000000100CTRO.OPE.PEREIRA    04058891PEREIRA   22
008900000000000CANALES ELECTRONICOS       4000001000000100OPERA/NES CENT/ZADAS00000000BOGOTA    22
008941101434000OFIC REC Y PAGO BR COLOMBIAC000001000000100CTRO.OPE.REG.ANTIOQ 04038941MEDELLIN  22
008950302000000MONIQUIRA                  1000001000000100MONIQUIRA           08018951MONIQUIRA 00
008960302000000GERENTE PREMIUM 19         4000001000010100OPERA/NES CENT/ZADAS37028961BOGOTA    22
008971102434031OFICINA CAUCASIA           C000001000000100CAUCASIA            06038971CAUCASIA  22
00899030200000BUNIVERSIDAD DEL BOSQUE     4000001000090100OPERA/NES CENT/ZADAS02078991BOGOTA    00
009000402000000CENTRO COMERCIAL CACIQUE   1000001000000100CTRO.OPE.REG.ORIEN  42369001B/MANGA   00
009050000000000CUENTAS TRANSFER           4000000000000100OPERA/NES CENT/ZADAS09099051BOGOTA    22
009060204906041OFIC REC Y PAGO CALLE 72   A000001000000100CTRO.OPERA.REG.COSTA06019061B/QUILLA  22
009070601204042BOC CIAL CARIBE PLAZA      A000001000000100CARTAGENA           06019071CARTAGENA 22
00910020100000CC CIAL PORTAL DEL PRADO    A000001000080100CTRO.OPE.REG.COSTA  06079101B/QUILLA  22
009113505484052C.C VIVA BUENAVENTURA      B000001000000100BUENAVENTURA        05069111B/VENTURA 22
009121603468033CTRO CIAL PEREIRA  PLAZA   3000001000000100CTRO.OPE.PEREIRA    04059121PEREIRA   00
009131603468033CTRO CIAL VICTORIA PLAZA   3000001000000100CTRO.OPE.PEREIRA    04059131PEREIRA   00
009141101434000MUNICIPIO GUARNE           C000001000000100CTRO.OPE.REG.ANTIOQ 04029141GUARNE    22
009150302000000GERENTE PREMIUM 20         4000001000010100OPERA/NES CENT/ZADAS37029151BOGOTA    22
009200302000000OFICINA SIBERIA            4000001000000100OPERA/NES CENT/ZADAS08069201SIBERIA-CT00
00921000000000NDIRECCION DE CONTABILIDAD  4000001000000100OPERA/NES CENT/ZADAS00009210BOGOTA    00
009240303000000OFICINA PREMIUM URBAN PLAZA4000001000000100OPERA/NES CENT/ZADAS37019241BOGOTA    22
009371302000000OFICINA GIGANTE            4000001000000100GIGANTE             08049371GIGANTE   00
009391405000000EXT OF TERMIN TRANSP PASTO B000001000000100PASTO               05069391PASTO     22
00940000000000NGCIA OPE TRANS ELECTRONICAS4000001000000100OPERA/NES CENT/ZADAS00099340BOGOTA    00
00941030000050BGCIA BCA SOC FED NAC CAFETE4000001000010100OPERA/NES CENT/ZADAS10029411BOGOTA    02
009421101434000MUNICIPIO SANTUARIO        C000001000000100CTRO.OPE.REG.ANTIOQ 04029421SANTUARIO 22
00943031200000NCOE DE TALENTO Y CULTURA   4000001000010100OPERA/NES CENT/ZADAS09099431BOGOTA    00
00944000000000NDIRECCION D ABASTECIMIENTO 4000001000180100OPERA/NES CENT/ZADAS09099441BOGOTA    22
009460302000500ALIANZA CON PORVENIR       4000001000010100OPERA/NES CENT/ZADAS09009461BOGOTA    22
009480302000000CTRO CCIAL MIRAFLOREZ      4000001000000100OPERA/NES CENT/ZADAS42239481SOACHA    00
009490000000000DIRE.REGION.ANTIOQUIA      C000001000000100CENTRO OP/NES REG.AN03007011MEDELLIN  22
009510000000000GERENCIA BANCA PYME 103    4000001000010100OPERA/NES CENT/ZADAS08119511BOGOTA    22
009520000000000GERENCIA BANCA PYME 95     1000001000000713CTRO.OPE.REG.ORIENTE34039521B/BERMEJA 00
009530000000000GERENCIA BANCA PYME 96     A000001000000707CTRO.OPERA.REG.COSTA34029531B/QUILLA  22
009550000000000GERENCIA BANCA PYME 98     A000001000000707CTRO.OPERA.REG.COSTA34049551BOGOTA    00
00956000000000NGCIA OPE PASIV TRANS ELEC  4000001000000100OPERA/NES CENT/ZADAS00009560BOGOTA    00
009580000000000DIRE.REGION.COSTA          A000001000000100CTRO.OPERA.REG.COSTA04011701B/QUILLA  22
009590000000000DIRE.REGION.OCCIDENTE      B000001000000100CTR.OP.REG.OCCIDENTE01007061CALI      22
009600000000000DIRE.REGION.CENTRAL        4000001000000100OPERA/NES CENT/ZADAS09099601BOGOTA    22
009610000000000DIRE.REGION.ORIENTE        1000001000000100CTRO.OPE.REG.ORIENTE06011841BUCARAMAN.22
009620000000000GERENCIA BANCA PYME 100    A000001000000707CTRO.OPERA.REG.COSTA34049621BOGOTA    00
009650302000000PREMIUM SAN FDO.PLAZA      C000001000000100CTRO.OPE.REG.ANTIOQ 37059651MEDELLIN  00
009660302000000GERENTE PREMIUM 5          C000001000000100CTRO.OPE.REG.ANTIOQ 37059661MEDELLIN  00
009670302000000GERENTE PREMIUM 6          C000001000000100CTRO.OPE.REG.ANTIOQ 37059671MEDELLIN  00
009680302000000PREMIUM CTRO.CIAL.UNI.CALI B000001000000100CTRO.OPER.REG.OCCIDE37059681CALI      22
00969030200000CGERENTE PREMIUM 7          B000001000010100CTRO.OPER.REG.OCCIDE37059691CALI      00
00970030200050BGCIA EMPRESA 970           4000001000010100OPERA/NES CENT/ZADAS01049701BOGOTA    22
00971030200000CGERENTE PREMIUM 8          B000001000010100CTRO.OPER.REG.OCCIDE37059711CALI      22
00972030200000CGERENTE PREMIUM 9          B000001000010100CTRO.OPER.REG.OCCIDE37059721CALI      00
009730302000000GERENCIA PREMIUM 26        4000001000010100OPERA/NES CENT/ZADAS37029731BOGOTA    22
009750302000000PREMIUM CTRO. EMP.LAS.AM.IIA000001000000100CTRO.OPERA.REG.COSTA37069751B/QUILLA  00
009770302000000GERENTE PREMIUM 10         A000001000000100CTRO.OPERA.REG.COSTA37069771B/QUILLA  00
009780302000000GERENTE PREMIUM 11         A000001000000100CTRO.OPERA.REG.COSTA37069781B/QUILLA  00
00979180600000COFICINA ALAMEDA REYES      C000001000170100QUIBDO              04029791QUIBDO    00
009801101434000SAN PEDRO DE LOS MILAGROS  C000001000000100CTRO.OPE.REG.ANTIOQ 04079801MEDELLIN  00
009810110138033CENTR COMER UNICENTRO ARMEN3012111000000100ARMENIA             04049811ARMENIA   00
009831101434000LA ESTRELLA                C000001000000100CTRO.OPE.REG.ANTIOQ 42519831ESTRELLA  22
009841102434032PTO BOYACA                 C011461000000100PTO BOYACA          04069841PTO BOYACA22
009850302000000PREMIUM CABECERA           1000001000000100CTRO.OPE.REG.ORIENTE37069851B/MANGA   00
009860302000000GERENTE PREMIUM 12         1000001000000100CTRO.OPE.REG.ORIENTE37069861B/MANGA   00
009870302000000GERENTE PREMIUM 13         1000001000000100CTRO.OPE.REG.ORIENTE37069871B/MANGA   00
00988000000000NGCIA ADMIN Y SERV ORIENTE  1000001000000100CENT.OPRA.REG.ORIEN 07099881B/MANGA   00
009890305000011CALLE 122 CARRERA 15 A     4014101000000100OPERA/NES CENT/ZADAS42059891BOGOTA    00
009900302000000G.OPER ATENCION ENTES EXTER4000001000010100OPERA/NES CENT/ZADAS11019901BOGOTA    22
009910502484052EL PORVENIR                B000001000000100CTRO.OPER.REG.OCCIDE05029911CALI      22
009920302000000GERENTE PREMIUM 14         C000001000000100CTRO.OPE.REG.ANTIOQ 37059921MEDELLIN  00
009932208636071VILLANUEVA                 4000001000000100VILLANUEVA          08019931V/NUEVA   22
00994110400000COFIC REC Y PAGO ITAGUI     C000001000090100CENT.OPRA.REG.ANTIOQ04099941ITAGUI    08
009950302000000CALLE 98                   4000001000000100OPERA/NES CENT/ZADAS02049951BOGOTA    22
009960202170041CTR EMPRE. LAS AMERICAS    A000001000000100CTRO.OPERA.REG.COSTA06049961B/QUILLA  22
009970202170041EXTENSION OFI. BECERRIL    A000001000000100CTRO.OPE.REG.COSTA  06039971BECERRIL  22
01003050000050NNORMAL PMP CARTERA ANTQ PMPC000001000000100CENT.OPRA.REG.ANTIOQ04180031MEDELLIN  22
01004000000050NGCIA PREFERENTE 1004       4000001000000100OPERA/NES CENT/ZADAS41010041BOGOTA    22
01005000000050NGCIA PREFERENTE 1005       4000001000000100OPERA/NES CENT/ZADAS41010051BOGOTA    22
01006000000050NGCIA PREFERENTE 1006       4000001000000100OPERA/NES CENT/ZADAS41010061BOGOTA    22
01007000000050NGCIA PREFERENTE 1007       4000001000000100OPERA/NES CENT/ZADAS41010071BOGOTA    22
01008000000050NGCIA PREFERENTE 1008       4000001000000100OPERA/NES CENT/ZADAS41010081BOGOTA    22
01009000000050NGCIA PREFERENTE 1009       4000001000000100OPERA/NES CENT/ZADAS41010091BOGOTA    22
01010000000050NGCIA PREFERENTE 1010       4000001000000100OPERA/NES CENT/ZADAS41010101BOGOTA    22
01011000000050NGCIA PREFERENTE 1011       4000001000000100OPERA/NES CENT/ZADAS41010111BOGOTA    22
01012000000050NGCIA PREFERENTE 1012       4000001000000100OPERA/NES CENT/ZADAS41010121BOGOTA    22
01013000000050NGCIA PREFERENTE 1013       4000001000000100OPERA/NES CENT/ZADAS41010131BOGOTA    22
01014000000050NGCIA PREFERENTE 1014       4000001000000100OPERA/NES CENT/ZADAS41010141BOGOTA    22
01015000000050NGCIA PREFERENTE 1015       4000001000000100OPERA/NES CENT/ZADAS41010151BOGOTA    22
01016000000050NGCIA PREFERENTE 1016       4000001000000100OPERA/NES CENT/ZADAS41010161BOGOTA    22
010210000000000GCIA PREMIUM 38            4000000000000100OPERA/NES CENT/ZADAS37010211BOGOTA    00
010220000000000GCIA PREMIUM 39            4000000000000100OPERA/NES CENT/ZADAS37010221BOGOTA    00
01023000000000CGERENCIA PREMIUM 43        C000000000000100CTRO.OPE.REG.ANTIOQ 37050001MEDELLIN  00
01026060400000CGERENCIA PREMIUM 46        A000001000150100CTRO.OPE.REG.COSTA  37065491CARTAGENA 00
01027060400000CGERENCIA PREMIUM 47        A000001000150100CTRO.OPE.REG.COSTA  37065491CARTAGENA 00
010280501706000GERENCIA PREMIUM 48        B000001000000100CTRO.OPER.REG.OCCIDE37050281CALI      22
010290501706000GERENCIA PREMIUM 49        B000001000000100CTRO.OPER.REG.OCCIDE37050291CALI      22
010300501706000GERENCIA PREMIUM 50        B000001000000100CTRO.OPER.REG.OCCIDE37050301CALI      22
01031041100050CGER EMPRESARIAL 1031       1000001000080100OPERA/NES CENT/ZADAS01090311CUCUTA    00
01032000000000CGCIA EMPRESA  2            4000001000010100OPERA/NES CENT/ZADAS52510321BOGOTA    22
01033000000000CGER EMPRESARIAL 1033       4000001000010100OPERA/NES CENT/ZADAS15010331BOGOTA    22
01034000000000CGCIA EMPRESA 1034          4000001000010100OPERA/NES CENT/ZADAS01020341BOGOTA    22
01035000000000CGCIA CORPORAT 1035         C000000000000100CTRO.OPE.REG.ANTIOQ 03030351MEDELLIN  00
01036000000000CGER CORPORATIVO 1036       A000000000000100CTRO.OPE.REG.COSTA  13010361BQUILLA   00
01037000000000CGCIA NORM CORP COSTA       A000000000000100CTRO.OPE.REG.COSTA  13010371BQUILLA   00
01038030200050BGCIA NORM EMP BTA 2        4000001000010100OPERA/NES CENT/ZADAS15010381BOGOTA    22
01041000000000NCARTERA VEHICULOS BOGOTA   B000001000180100CENT.OPER.REG.OCCIDE21010031CALI      00
01042031200000NNORMALIZ.BOGOTA            4000001000010100OPERA/NES CENT/ZADAS27090421BOGOTA    00
01043031200000NNORMALIZ.COSTA.ORIENTE     4000001000010100OPERA/NES CENT/ZADAS27100431BOGOTA    00
01044000000000CCOMPRA CARTERA SERVICREDITOC000000000000100CTRO.OPE.REG.ANTIOQ 04110441MEDELLIN  00
01045050000050PNORMALIZ.ANT.OCCIDENTE     B000001000000100CTRO OPER REG.OCCIDE27080451CALI      22
01051000000000CGERENCIA PREMIUM 51        A000000000000100CTRO.OPE.REG.COSTA  37060511BQUILLA   22
01052000000000CGERENCIA PREMIUM 52        A000000000000100CTRO.OPE.REG.COSTA  37060521BQUILLA   22
01053000000000CGERENCIA PREMIUM 53        3000001000000100CTRO.OPE.PEREIRA    37050531PEREIRA   22
01054000000000CGERENCIA PREMIUM 54        3000001000000100CTRO.OPE.PEREIRA    37050541PEREIRA   22
01055000000000NGCIA NAL NORMALIZA BC EMP  4000001000180100OPERA/NES CENT/ZADAS09090551BOGOTA    22
01056000000000CGERENCIA PREMIUM 55        1000000000000100CTRO.OPE.REG.ORIENTE37060561FLORIDBLCA22
01063110200050CGCIA CORPORAT 1063         C000001000140100CENT.OPRA.REG.ANTIOQ03010631MEDELLIN  22
01065031200000NZONA 1 BOGOTA VEHICULOS    4000001000010100OPERA/NES CENT/ZADAS21010651BOGOTA    00
01066031200000NZONA 2 BOGOTA VEHICULOS    4000001000010100OPERA/NES CENT/ZADAS21010661BOGOTA    00
01067031200000NZONA 3 BOGOTA VEHICULOS    4000001000010100OPERA/NES CENT/ZADAS21010671BOGOTA    00
01068000000000NZONA 2 ANTIOQUIA VEHICULOS C000001000000100CENT.OPRA.REG.ANTIOQ21040681MEDELLIN  00
01069050000050NZONA 1 BQUILLA VEHICULOS   A000001000000100CENT.OPRA.REG.COSTA 21070691BQUILLA   00
01070000000000NZONA 1 ANTIOQUIA VEHICULOS C000001000000100CENT.OPRA.REG.ANTIOQ21040701MEDELLIN  00
01074031200000NCARTERA LEASING CORFICOLOMB4000001000010100OPERA/NES CENT/ZADAS09090741BOGOTA    22
01081000000000CGER CORPORATIVO 1081       A000000000000100CTRO.OPE.REG.COSTA  13020811BQUILLA   22
01082000000000CGCIA EMPRESA 1082          C000000000000100CTRO.OPE.REG.ANTIOQ 01050821MEDELLIN  22
01083000000050NGCIA CORPORAT 1083         4000001000000100OPERA/NES CENT/ZADAS03030831BOGOTA    22
01084000000050NGCIA EMPRESA 1084          4000001000000100OPERA/NES CENT/ZADAS01010841BOGOTA    22
01085000000050NGER EMPRESARIAL 1085       4000001000000100OPERA/NES CENT/ZADAS40010851BOGOTA    22
01086040000050NGCIA EMPRESA 1086          1000001000000100CTRO.OPE.REG.ORIENTE01090861BMANGA    22
01087000000050NGCIA PREFERENTE 1087       4000001000000100OPERA/NES CENT/ZADAS41020871BOGOTA    22
01088000000050NGCIA PREFERENTE 1088       4000001000000100OPERA/NES CENT/ZADAS41020881BOGOTA    22
01089000000050NGCIA PREFERENTE 1089       4000001000000100OPERA/NES CENT/ZADAS41020891BOGOTA    22
01090000000050NGCIA PREFERENTE 1090       4000001000000100OPERA/NES CENT/ZADAS41020901BOGOTA    22
01091000000050NGCIA PREFERENTE 1091       4000001000000100OPERA/NES CENT/ZADAS41020911BOGOTA    22
01092000000050NGCIA PREFERENTE 1092       4000001000000100OPERA/NES CENT/ZADAS41020921BOGOTA    22
01093000000050NGCIA PREFERENTE 1093       4000001000000100OPERA/NES CENT/ZADAS41020931BOGOTA    22
01094000000050NGCIA PREFERENTE 1094       4000001000000100OPERA/NES CENT/ZADAS41020941BOGOTA    22
01095000000050NGCIA PREFERENTE 1095       4000001000000100OPERA/NES CENT/ZADAS41020951BOGOTA    22
01096000000050NGCIA PREFERENTE 1096       4000001000000100OPERA/NES CENT/ZADAS41020961BOGOTA    22
01097000000050NGCIA PREFERENTE 1097       4000001000000100OPERA/NES CENT/ZADAS41020971BOGOTA    22
01098000000050NGCIA PREFERENTE 1098       4000001000000100OPERA/NES CENT/ZADAS41020981BOGOTA    22
01099000000050NGCIA PREFERENTE 1099       4000001000000100OPERA/NES CENT/ZADAS41020991BOGOTA    22
01100000000050NGCIA PREFERENTE 1100       4000001000000100OPERA/NES CENT/ZADAS41031001BOGOTA    22
01101000000050NGCIA PREFERENTE 1101       4000001000000100OPERA/NES CENT/ZADAS41031011BOGOTA    22
01102000000050NGCIA PREFERENTE 1102       4000001000000100OPERA/NES CENT/ZADAS41031021BOGOTA    22
01103000000050NGCIA PREFERENTE 1103       4000001000000100OPERA/NES CENT/ZADAS41031031BOGOTA    22
01104000000050NGCIA PREFERENTE 1104       4000001000000100OPERA/NES CENT/ZADAS41031041BOGOTA    22
01105000000050NGCIA PREFERENTE 1105       4000001000000100OPERA/NES CENT/ZADAS41031051BOGOTA    22
01106000000050NGCIA PREFERENTE 1106       4000001000000100OPERA/NES CENT/ZADAS41031061BOGOTA    22
01107000000050NGCIA PREFERENTE 1107       4000001000000100OPERA/NES CENT/ZADAS41031071BOGOTA    22
01108000000050NGCIA PREFERENTE 1108       4000001000000100OPERA/NES CENT/ZADAS41031081BOGOTA    22
01109000000050NGCIA PREFERENTE 1109       4000001000000100OPERA/NES CENT/ZADAS41031091BOGOTA    22
01110000000050NGCIA PREFERENTE 1110       4000001000000100OPERA/NES CENT/ZADAS41031101BOGOTA    22
01111000000050NGCIA PREFERENTE 1111       4000001000000100OPERA/NES CENT/ZADAS41031111BOGOTA    22
01112000000050NGCIA PREFERENTE 1112       4000001000000100OPERA/NES CENT/ZADAS41031121BOGOTA    22
01117000000050NGCIA EMPRESA 1117          4000001000000100OPERA/NES CENT/ZADAS01041171BOGOTA    22
01125370500000PMICROFINANZAS OCC IV IPIALEB000001000120100IPIALES             09091251IPIALES   22
01126050500050CMICROF OCCIDENTE V POPAYAN B000001000070100POPAYAN             09091261POPAYAN   22
01127250900000CMICROF COSTA VII RIOHACHA  A000001000160100RIOHACHA            09091271RIOHACHA  22
01128000000000CMICROF BOGOTA OCCIDENTE    4000001000010100OPERA/NES CENT/ZADAS09091281BOGOTA    22
01129130200000PMICROF CENTRAL V PITALITO  4000001000010100PITALITO            09091291PITALITO  22
01131050000050NMICROF COSTA VIII SOLEDAD  A000001000000100CENT.OPRA.REG.COSTA 09091310SOLEDAD   22
01132031200000NMICROF ORIENTE VI SAN GIL  1000001000010100CTRO.OPE.REG.ORIENTE09091321SAN GIL   00
01133031200000NMICROF ORIENTE VII YOPAL   1000001000010100YOPAL               09091331YOPAL     00
01134000000000NMICROF ANTIOQUIA VII QUIBDOC000001000000100QUIBDO              09091341QUIBDO    00
01136110400050CGERENCIA BANCA PYME 49     C000001000070100CENT.OPRA.REG.ANTIOQ32021361MEDELLIN  22
01141031200000NMICROF CENTRAL VI GIRARDOT 4000001000010100OPERA/NES CENT/ZADAS09091411GIRARDOT  22
01142000000000NMICROF ANTIOQ VIII ARMENIA 3000001000010100CTRO.OPER.PEREIRA   09091421ARMENIA   22
01152110400050CGERENCIA BANCA PYME 50     C000001000070100CENT.OPRA.REG.ANTIOQ32021521MEDELLIN  22
01153030200050BGERENCIA PYME 1153         4000001000010100OPERA/NES CENT/ZADAS17021531ZIPAQUIRA 22
01154030200050BGERENCIA PYME 1154         4000001000010100OPERA/NES CENT/ZADAS17011541BOGOTA    22
01155030200050BGERENCIA PYME 1155         4000001000010100OPERA/NES CENT/ZADAS43021551BOGOTA    22
01156030200050BGERENCIA PYME 1156         4000001000010100OPERA/NES CENT/ZADAS43071561BOGOTA    22
01157030200050BGCIA EMPRESA 1157          4000001000010100OPERA/NES CENT/ZADAS01011571BOGOTA    22
01158030200050BGERENC MEDIANA EMPRESA 11584000001000010100OPERA/NES CENT/ZADAS17011581BOGOTA    22
01159030200050BGCIA EMPRESA 1159          4000001000010100OPERA/NES CENT/ZADAS01041591BOGOTA    22
01160030200050BGERENCIA PYME 1160         4000001000010100OPERA/NES CENT/ZADAS17021601BOGOTA    22
01161030200050BGERENCIA PYME 1161         4000001000010100OPERA/NES CENT/ZADAS17021611BOGOTA    22
01162030200050BGCIA EMPRESA 1162          4000001000010100OPERA/NES CENT/ZADAS01011621BOGOTA    22
01163030200050BGCIA CORPORAT 1163         4000001000010100OPERA/NES CENT/ZADAS03021631BOGOTA    22
01164030200050BGERENCIA PYME 1164         4000001000010100OPERA/NES CENT/ZADAS17021641BOGOTA    22
01165030200050BGERENCIA PYME 1165         4000001000010100OPERA/NES CENT/ZADAS17021651BOGOTA    22
01166030200050BGCIA EMPRESA 1166          4000001000010100OPERA/NES CENT/ZADAS01031661BOGOTA    22
01167030200050BGERENCIA PYME 1167         4000001000010100OPERA/NES CENT/ZADAS17021671BOGOTA    22
01168030200050BGCIA EMPRESA 1168          4000001000010100OPERA/NES CENT/ZADAS01031681BOGOTA    22
01169030200050BGCIA EMPRESA 1169          4000001000010100OPERA/NES CENT/ZADAS01011691BOGOTA    22
01170030200050BGERENCIA PYME 1170         4000001000010100OPERA/NES CENT/ZADAS43031701BOGOTA    22
01171030200050BGERENC MEDIANA EMPRESA 11714000001000010100OPERA/NES CENT/ZADAS17031711BOGOTA    22
01172030200050BGERENCIA PYME 1172         4000001000010100OPERA/NES CENT/ZADAS43021721BOGOTA    22
01173030200050BGERENCIA PYME 1173         4000001000010100OPERA/NES CENT/ZADAS17011731BOGOTA    22
01174030200050BGERENCIA PYME 1174         4000001000010100OPERA/NES CENT/ZADAS17021741BOGOTA    22
01175030200050BGCIA EMPRESA 1175          4000001000010100OPERA/NES CENT/ZADAS01031751BOGOTA    22
01176030200050BGCIA EMPRESA 1176          4000001000010100OPERA/NES CENT/ZADAS01011761BOGOTA    22
01177030200050BGERENC MEDIANA EMPRESA 11774000001000010100OPERA/NES CENT/ZADAS17031771BOGOTA    22
01178030200050BGERENCIA PYME 1178         4000001000010100OPERA/NES CENT/ZADAS43021781BOGOTA    22
01179041100050CGCIA EMPRESA 1179          1000001000080100CTRO.OPE.REG.ORIENTE01091791BA/BERMEJA22
01180041100050CGERENCIA PYME 1180         1000001000080100CTRO.OPE.REG.ORIENTE17091801BU/MANGA  22
01181041100050CGERENCIA PYME 1181         1000001000080100CTRO.OPE.REG.ORIENTE17051811BU/MANGA  22
01182041100050CGERENCIA PYME 1182         1000001000080100CTRO.OPE.REG.ORIENTE17051821BU/MANGA  22
01183041100050CGERENCIA PYME 1183         1000001000080100CTRO.OPE.REG.ORIENTE17041831CUCUTA    22
01184320700050PGCIA EMPRESA 1184          4000001000050100CTRO.V/CENCIO       01031841V/CENCIO  22
01185320700050PGCIA EMPRESA 1185          4000001000050100OPERA/NES CENT/ZADAS01031851NEIVA     22
01186320700050PGCIA EMPRESA 1186          1000001000050100CTRO.OPE.REG.ORIENTE01091861TUNJA     22
01187320700050PGERENCIA PYME 1187         4000001000050100CTRO.V/CENCIO       17031871V/CENCIO  22
01188320700050PGERENCIA PYME 1188         1000001000050100YOPAL               17041881YOPAL     22
01189020200000CGCIA EMPRESA 1189          A000001000080100CTRO.OPE.REG.COSTA  01061891B/QUILLA  22
01190020200000CGCIA EMPRESA 1190          A000001000080100CTRO.OPE.REG.COSTA  01061901B/QUILLA  22
01191020200000CGERENCIA PYME 1191         A000001000080100CTRO.OPE.REG.COSTA  17061911B/QUILLA  22
01192020200000CGCIA EMPRESA 1192          A000001000080100CTRO.OPE.REG.COSTA  01061921MONTERIA  22
01193020200000CGERENCIA PYME 1193         A000001000080100CTRO.OPE.REG.COSTA  17061931S/MARTA   22
01194020200000CGERENCIA PYME 1194         A000001000080100SINCELEJO           17041941SINCELEJO 22
01195110400050CGERENCIA BANCA PYME 51     C000001000070100CENT.OPRA.REG.ANTIOQ32011951MEDELLIN  22
01196020200000CGERENCIA PYME 1196         A000001000080100CTRO.OPE.REG.COSTA  17061961V/DUPAR   22
01197110200000CGERENCIA PYME 1197         3000001000090100CTRO.OPER.PEREIRA   17081972ARMENIA   22
01198110200000CGERENCIA PYME 1198         3000001000090100MANIZALES           17071982MANIZALES 22
01199110200000CGERENCIA PYME 1199         C000001000090100CENT.OPRA.REG.ANTIOQ17071992MEDELLIN  22
01200110200000CGCIA EMPRESA 1200          C000001000090100CENT.OPRA.REG.ANTIOQ01052002MEDELLIN  22
01201110200000CGERENCIA PYME 1201         C000001000090100CENT.OPRA.REG.ANTIOQ17092012MEDELLIN  22
01202110200000CGCIA EMPRESA 1202          C000001000090100CENT.OPRA.REG.ANTIOQ01072022MEDELLIN  22
01203110200000CGCIA EMPRESA 1203          C000001000090100CENT.OPRA.REG.ANTIOQ01072032MEDELLIN  22
01204110200000CGERENCIA PYME 1204         C000001000090100CENT.OPRA.REG.ANTIOQ17072042MEDELLIN  22
01205110200000CGERENCIA PYME 1205         C000001000090100CENT.OPRA.REG.ANTIOQ17072052MEDELLIN  22
01206110200000CGCIA EMPRESA 1206          C000001000090100CENT.OPRA.REG.ANTIOQ01072062MEDELLIN  22
01207110200000CGCIA EMPRESA 1207          C000001000090100CENT.OPRA.REG.ANTIOQ01052072MEDELLIN  22
01208110200000CGCIA EMPRESA 1208          3000001000090100CTRO.OPER.PEREIRA   01072082PEREIRA   22
01209031200000NGCIA EMPRESA 1209          B000001000000100CENT.OPER.REG.OCCIDE01082091CALI      22
01210031200000NGERENCIA PYME 1210         B000001000000100CENT.OPER.REG.OCCIDE17092101CALI      22
01211031200000NGERENCIA PYME 1211         B000001000000100BUGA                43052111BUGA      22
01212031200000NGERENCIA PYME 1212         B000001000000100CENT.OPER.REG.OCCIDE43082121CALI      22
01213031200000NGCIA EMPRESA 1213          B000001000000100CENT.OPER.REG.OCCIDE01082131CALI      22
01214031200000NGERENCIA PYME 1214         B000001000000100CENT.OPER.REG.OCCIDE17082141CALI      22
01215031200000NGERENCIA PYME 1215         B000001000000100CENT.OPER.REG.OCCIDE17082151CALI      22
01216031200000NGCIA EMPRESA 1216          B000001000000100CENT.OPER.REG.OCCIDE01082161CALI      22
01217000000000CGCIA EMPRESA 1217          B000000000000100PASTO               01082170PASTO     22
01227050000050PGCIA EMPRESA 1227          3000001000000100MANIZALES           01072271MANIZALES 00
01228150200000PGERENCIA BANCA PYME 135    B000001000080100BUGA                33032281BUGA      00
01229030200050BGERENCIA PYME 1229         4000001000010100OPERA/NES CENT/ZADAS17032291COTA      22
01231050500050CGERENCIA PYME 1231         B000001000070100POPAYAN             43052311POPAYAN   22
01234050500050CGERENCIA PYME 1234         B000001000070100CENT OPER REG OCCIDE43052341CALI      00
01243020200000CCTR DE EXPERIENCIA BQUILLA A000001000080100CTRO.OPE.REG.COSTA  06012431BQUILLA   00
01254040200050CGCIA NORM EMP ANTIOQ       C000001000080100CENT.OPRA.REG.ANTIOQ16012541MEDELLIN  22
01255050200050CGCIA NORM EMP OCCID        B000001000080100CENT.OPER.REG.OCCIDE38012551CALI      22
01256040200050CGCIA NORM EMP CENTRORI     1000001000080100CTRO.OPE.REG.ORIENTE39012561B/MANGA   22
01257030200050BGCIA NORM EMP COSTA        A000001000080100CTRO.OPE.REG.COSTA  39012571B/QUILLA  22
01258000000050NGCIA DE NORM EMPRESARIAL 3 4000001000000100OPERA/NES CENT/ZADAS40012581BOGOTA    00
01259000000050NGCIA PREFERENTE 1259       4000001000000100OPERA/NES CENT/ZADAS41042591BOGOTA    22
01260000000050NGCIA PREFERENTE 1260       4000001000000100OPERA/NES CENT/ZADAS41042601BOGOTA    22
01261000000050NGCIA PREFERENTE 1261       4000001000000100OPERA/NES CENT/ZADAS41042611BOGOTA    22
01262000000050NGCIA PREFERENTE 1262       4000001000000100OPERA/NES CENT/ZADAS41042621BOGOTA    22
01263000000050NGCIA PREFERENTE 1263       4000001000000100OPERA/NES CENT/ZADAS41042631BOGOTA    22
01264000000050NGCIA PREFERENTE 1264       4000001000000100OPERA/NES CENT/ZADAS41042641BOGOTA    22
01265000000050NGCIA PREFERENTE 1265       4000001000000100OPERA/NES CENT/ZADAS41042651BOGOTA    22
01266000000050NGCIA PREFERENTE 1266       4000001000000100OPERA/NES CENT/ZADAS41042661BOGOTA    22
01267000000050NGCIA PREFERENTE 1267       4000001000000100OPERA/NES CENT/ZADAS41042671BOGOTA    22
01268000000050NGCIA PREFERENTE 1268       4000001000000100OPERA/NES CENT/ZADAS41042681BOGOTA    22
01269000000050NGCIA PREFERENTE 1269       4000001000000100OPERA/NES CENT/ZADAS41042691BOGOTA    22
01270000000050NGCIA PREFERENTE 1270       4000001000000100OPERA/NES CENT/ZADAS41042701BOGOTA    22
01271000000050NGCIA PREFERENTE 1271       4000001000000100OPERA/NES CENT/ZADAS41042711BOGOTA    22
01272000000050NGCIA PREFERENTE 1272       4000001000000100OPERA/NES CENT/ZADAS41042721BOGOTA    22
01273000000050NGCIA PREFERENTE 1273       4000001000000100OPERA/NES CENT/ZADAS41052731BOGOTA    22
01274000000050NGCIA PREFERENTE 1274       4000001000000100OPERA/NES CENT/ZADAS41052741BOGOTA    22
01275000000050NGCIA PREFERENTE 1275       4000001000000100OPERA/NES CENT/ZADAS41052751BOGOTA    22
01276000000050NGCIA PREFERENTE 1276       4000001000000100OPERA/NES CENT/ZADAS41052761BOGOTA    22
01277000000050NGCIA PREFERENTE 1277       4000001000000100OPERA/NES CENT/ZADAS41052771BOGOTA    22
01278000000050NGCIA PREFERENTE 1278       4000001000000100OPERA/NES CENT/ZADAS41052781BOGOTA    22
01279000000050NGCIA PREFERENTE 1279       4000001000000100OPERA/NES CENT/ZADAS41052791BOGOTA    22
01280000000050NGCIA PREFERENTE 1280       4000001000000100OPERA/NES CENT/ZADAS41052801BOGOTA    22
01281000000050NGCIA PREFERENTE 1281       4000001000000100OPERA/NES CENT/ZADAS41052811BOGOTA    22
01282000000050NGCIA PREFERENTE 1282       4000001000000100OPERA/NES CENT/ZADAS41052821BOGOTA    22
01283000000050NGCIA PREFERENTE 1283       4000001000000100OPERA/NES CENT/ZADAS41052831BOGOTA    22
01284000000050NGCIA PREFERENTE 1284       4000001000000100OPERA/NES CENT/ZADAS41052841BOGOTA    22
01285000000050NGCIA PREFERENTE 1285       4000001000000100OPERA/NES CENT/ZADAS41052851BOGOTA    22
01286000000050NGCIA PREFERENTE 1286       4000001000000100OPERA/NES CENT/ZADAS41052861BOGOTA    22
01288050500050CGERENCIA PYME 1288         B000001000070100CENT.OPER.REG.OCCIDE17082881CALI      00
01289000000050NGERENCIA PYME 1289         4000001000000100OPERA/NES CENT/ZADAS43012891BOGOTA    22
01290000000050NGERENCIA PYME 1290         4000001000000100OPERA/NES CENT/ZADAS43072901BOGOTA    22
01291000000050NGERENCIA PYME 1291         4000001000000100OPERA/NES CENT/ZADAS17012911BOGOTA    22
01292000000050NGERENCIA PYME 1292         4000001000000100OPERA/NES CENT/ZADAS43062921BOGOTA    22
01293000000050NGERENCIA PYME 1293         4000001000000100OPERA/NES CENT/ZADAS17012931BOGOTA    22
01294000000050NGERENCIA PYME 1294         4000001000000100OPERA/NES CENT/ZADAS43062941BOGOTA    22
01295000000050NGERENCIA PYME 1295         4000001000000100OPERA/NES CENT/ZADAS17012951BOGOTA    22
01296000000050NGCIA PYME 1.0 1296         4000001000000100OPERA/NES CENT/ZADAS43012961BOGOTA    22
01297000000050NGERENCIA PYME 1297         4000001000000100OPERA/NES CENT/ZADAS43062971BOGOTA    22
01298000000050NGERENCIA PYME 1298         4000001000000100OPERA/NES CENT/ZADAS43032981BOGOTA    22
01299000000050NGERENCIA PYME 1299         4000001000000100OPERA/NES CENT/ZADAS43062991BOGOTA    22
01301000000050NGCIA EMPRESA 1301          4000001000000100OPERA/NES CENT/ZADAS01023011BOGOTA    22
01307030200050CGERENCIA PREMIUM PYME 23   4000001000010100OPERA/NES CENT/ZADAS37023071BOGOTA    22
01309000000050NGCIA CORPORAT 1309         4000001000000100OPERA/NES CENT/ZADAS03053091BOGOTA    22
01310000000050NGCIA EMPRESA 1310          4000001000000100OPERA/NES CENT/ZADAS01043101BOGOTA    22
01315050500050CGERENCIA BANCA PYME 54     B000001000070100CENT OPER REG OCCIDE33013151CALI      00
01316000000050NGCIA PYME 1.0 1316         4000001000000100OPERA/NES CENT/ZADAS43023161BOGOTA    22
01317000000050NGERENCIA PYME 1317         4000001000000100OPERA/NES CENT/ZADAS43013171BOGOTA    22
01318000000050NGERENCIA PYME 1318         4000001000000100OPERA/NES CENT/ZADAS43013181BOGOTA    22
01319000000050NGERENCIA PYME 1319         4000001000000100OPERA/NES CENT/ZADAS43073191BOGOTA    22
01320000000050NGERENCIA PYME 1320         4000001000000100OPERA/NES CENT/ZADAS43063201BOGOTA    22
01321000000050NGERENCIA PYME 1321         4000001000000100OPERA/NES CENT/ZADAS43073211BOGOTA    22
01322000000050NGERENCIA PYME 1322         4000001000000100OPERA/NES CENT/ZADAS43073221BOGOTA    22
01323000000050NGERENCIA PYME 1323         4000001000000100OPERA/NES CENT/ZADAS43023231BOGOTA    22
01324000000050NGERENCIA PYME 1324         4000001000000100OPERA/NES CENT/ZADAS43073241BOGOTA    22
01325000000050NGERENCIA PYME 1325         4000001000000100OPERA/NES CENT/ZADAS43063251BOGOTA    22
01326000000050NGERENCIA PYME 1326         4000001000000100OPERA/NES CENT/ZADAS43083261BOGOTA    22
01327000000050NGERENCIA PYME 1327         4000001000000100OPERA/NES CENT/ZADAS43013271BOGOTA    22
