000000310000014OFICINA PRINCIPAL          4000001000000100OPERA/NES CENT/ZADAS       1
00001000000000NEL MUNA                    4000001000010100OPERA/NES CENT/ZADAS       1
000020304000026I.S.S. CAN                 4011271000000100OPERA/NES CENT/ZADAS       1
000030310000014OFICINA PRINCIPAL          4000001000000100OPERA/NES CENT/ZADAS       1
000040302000013CALLE 53 EXITO             4000001000000100OPERA/NES CENT/ZADAS       1
000050304000000SUBA                       4011951000000100OPERA/NES CENT/ZADAS       1
000060305000011CEDRITOS                   4014101000000100OPERA/NES CENT/ZADAS       1
000070305000012ANTIGUO COUNTRY            4015281000000100OPERA/NES CENT/ZADAS       1
000080307000012EL CHICO                   4000001000000100OPERA/NES CENT/ZADAS       1
000090306000011CALLE 100                  4013971000000100OPERA/NES CENT/ZADAS       1
000100307000025AVENIDA CARACAS            4000001000000100OPERA/NES CENT/ZADAS       1
000113204000026BACATA FUNZA               4000001000000100OPERA/NES CENT/ZADAS       1
000120305000013PASADENA                   4015581000000100OPERA/NES CENT/ZADAS       1
000130002000000GALAN                      1000001000000168B/MEJA                     1
000140304000012LOS HEROES                 4015431000000100OPERA/NES CENT/ZADAS       1
000150303000028MALL PLAZA NQS             4000001000000100OPERA/NES CENT/ZADAS       1
000163203000001COTA                       4015291000000100OPERA/NES CENT/ZADAS       1
000170311000026CENTRO URBANO ANTONIO NARIN4014471000000100OPERA/NES CENT/ZADAS       1
000180304000026ZONA IND. MONTEVIDEO       4000001000000100OPERA/NES CENT/ZADAS       1
000190306000027BARRIO RESTREPO            4000001000000100OPERA/NES CENT/ZADAS       1
000200304000028SAN JOSE                   4014751000000100OPERA/NES CENT/ZADAS       1
000210305000027VEINTE DE JULIO            4000001000000100OPERA/NES CENT/ZADAS       1
000220306000027BARRIO VENECIA             4011471000000100OPERA/NES CENT/ZADAS       1
000230302000000OF CC NUESTRO BOGOTA       4000001000000100OPERA/NES CENT/ZADAS       1
000240303000026OF CC DIVER PLAZA ALAMOS   4011801000000100OPERA/NES CENT/ZADAS       1
000250302000028PLAZA DE LAS AMERICAS      4000001000000100OPERA/NES CENT/ZADAS       1
000260302000027SANTUARIO 20 DE JULIO      4000001000000100OPERA/NES CENT/ZADAS       1
000270302000027CARVAJAL                   4011471000000100OPERA/NES CENT/ZADAS       1
000280306000028CALLE 13 CRA 30            4011921000000100OPERA/NES CENT/ZADAS       1
000300302000000GAITANA                    4000001000000100OPERA/NES CENT/ZADAS       1
000320307000025CRA.24 #26-01 COLSUBSIDIO  4000001000000100OPERA/NES CENT/ZADAS       1
000330316000027ANDES                      4015121000000100OPERA/NES CENT/ZADAS       1
000340306000027PARQUE SANTANDER           4000001000000100OPERA/NES CENT/ZADAS       1
000350307000025AVENIDA 19                 4013991000000100OPERA/NES CENT/ZADAS       1
000360306000025CRA 10 CALLE 17            4011761000000100OPERA/NES CENT/ZADAS       1
000370305000028CRA 47                     4000001000000100OPERA/NES CENT/ZADAS       1
000380308000012AVENIDA CHILE              4000001000000100OPERA/NES CENT/ZADAS       1
000390306000011PARQUE EL VIRREY           4015181000000100OPERA/NES CENT/ZADAS       1
000400310000013CHAPINERO                  4000001000000100OPERA/NES CENT/ZADAS       1
000410304000014CALLE 54 N.10-73           4013631000000100OPERA/NES CENT/ZADAS       1
000430305000014UNIVERSIDAD JAVERIANA      4011181000000100OPERA/NES CENT/ZADAS       1
000440306000012I L A R C O                4011191000000100OPERA/NES CENT/ZADAS       1
000450305000028CENTRAL DE ABASTOS         4012011000000100OPERA/NES CENT/ZADAS       1
000460304000026CIUDAD SALITRE             4000001000000100OPERA/NES CENT/ZADAS       1
000470309000011UNICENTRO                  4000001000000100OPERA/NES CENT/ZADAS       1
000490306000012OFICINA 7-72               4000001000000100OPERA/NES CENT/ZADAS       1
000500304000012EL NOGAL                   4015431000000100OPERA/NES CENT/ZADAS       1
000510304000027LAS AGUAS                  4011431000000100OPERA/NES CENT/ZADAS       1
000520306000025CENTRAL SAN MARTIN         4011691000000100OPERA/NES CENT/ZADAS       1
000540306000028PALOQUEMAO                 4011791000000100OPERA/NES CENT/ZADAS       1
000550306000028CALLE 9 CRA 34             4014511000000100OPERA/NES CENT/ZADAS       1
000560304000014CARRERA 11 # 68-09         4011971000000100OPERA/NES CENT/ZADAS       1
000570305000028RICAURTE                   4015781000000100OPERA/NES CENT/ZADAS       1
000580306000027SAN AGUSTIN                4012721000000100OPERA/NES CENT/ZADAS       1
000593201000000MESITAS DEL COLEGIO        4000001000000100OPERA/NES CENT/ZADAS       1
000600305000028KENNEDY                    4014411000000100OPERA/NES CENT/ZADAS       1
000613205000027CENTRO INDUSTRIAL CAZUCA   4015091000000100OPERA/NES CENT/ZADAS       1
000620308000025SAN DIEGO                  4012291000000100OPERA/NES CENT/ZADAS       1
000630306000013OF RYP CT CCIAL ISERRA 100 4012761000000100OPERA/NES CENT/ZADAS       1
000643202000071CENTRO CCIAL EL PORTICO    4000001000000100OPERA/NES CENT/ZADAS       1
000653202000071LOS COMUNEROS ZIPAQUIRA    4000001000000100OPERA/NES CENT/ZADAS       1
000663202000000PACHO                      4000001000000100OPERA/NES CENT/ZADAS       1
000673201000000TABIO                      4000001000000100OPERA/NES CENT/ZADAS       1
000680305000028SAN VICTORINO              4000001000000100OPERA/NES CENT/ZADAS       1
000693202000000PLAZA NEIRA UBATE          4000001000000100OPERA/NES CENT/ZADAS       1
000701904564041PARQUE BOLIVAR SANTA MARTA A000001000000564SANTA MARTA                1
000710304000027AVENIDA 6 CARRERA 22       4000001000000100OPERA/NES CENT/ZADAS       1
000720307000000EL LAGO - BOGOTA           4000001000000100OPERA/NES CENT/ZADAS       1
00073030500000BCENTRO COMERCIAL EL EDEN   4000001000040100OPERA/NES CENT/ZADAS       1
000742302592042AV LAS PE ITAS             A000001000000592SINCELEJO                  1
000750307000014GALERIAS                   4000001000000100OPERA/NES CENT/ZADAS       1
000760004616062CTRO CCIAL CENTRO NORTE    1000001000000616TUNJA                      1
000770305000014SANTA TERESITA             4000001000000100OPERA/NES CENT/ZADAS       1
000780306000013METROPOLIS                 4012761000000100OPERA/NES CENT/ZADAS       1
000790305000013LA CLARITA                 4000001000000100OPERA/NES CENT/ZADAS       1
000800303000011SANTA BARBARA ALTA         4000001000000100OPERA/NES CENT/ZADAS       1
000810308000013SIETE DE AGOSTO            4000001000000100OPERA/NES CENT/ZADAS       1
000820305000013AVDA CALLE 68              4000001000000100OPERA/NES CENT/ZADAS       1
000830304000013AV.CIUDAD DE QUITO         4014481000000100OPERA/NES CENT/ZADAS       1
000840303000011AV. PEPE SIERRA            4011261000000100OPERA/NES CENT/ZADAS       1
000850303000011CENTRO COMERCIAL SANTAFE   4015981000000100OPERA/NES CENT/ZADAS       1
000860304000012CENTRO C/CIAL BULEVAR NIZA 4000001000000100OPERA/NES CENT/ZADAS       1
000870202170000CALLE 72                   A000001000000707CTRO.OPERA.REG.COSTA       1
000882502530043CTRO COMERCIAL VIVA WUAJIRAA000001000000530RIOACHA                    1
000890303000000AUTOPISTA DEL SUR          4000001000000100OPERA/NES CENT/ZADAS       1
000912403628043LOPERENA VALLEDUPAR        A000001000000628VALLEDUPAR                 1
000920304000026FONTIBON                   4000001000000100OPERA/NES CENT/ZADAS       1
000933203000026FUNZA                      4014161000000100OPERA/NES CENT/ZADAS       1
000943205000026MOSQUERA                   4000001000000100OPERA/NES CENT/ZADAS       1
000950303000000LAS AMERICAS               4000001000000100OPERA/NES CENT/ZADAS       1
000960202000041DISTRITO 90                A000001000000707CTRO.OPE.REG.COSTA         1
000970602204042CTRO COMERCIAL MALL PLAZA  A000001000000204CARTAGENA                  1
000980202170041CTRO CIVICO BARRANQUILLA   A000001000000707CTRO.OPE.REG.COSTA         1
000992202000000ARIARI GRANADA             4000001000000350GRANADA                    1
001000000001000GCIA OPERATIVA CONTABLE    4000001000000100OPERA/NES CENT/ZADAS       1
001010207170041CENTRO NELMAR              A000001000000707CTRO.OPERA.REG.COSTA       1
001020303000000AVENIDA PRIMERA            4000001000000100OPERA/NES CENT/ZADAS       1
001030302000027CIUDAD MONTES              4000001000000100OPERA/NES CENT/ZADAS       1
001041102434032ABEJORRAL                  C011461000000104ABEJORRAL                  1
001050502000000VERSALLES                  B000001000000706CENT.OPER.REG.OCCIDE       1
001060303000000CENTRO INTERNACIONAL       4000001000000100OPERA/NES CENT/ZADAS       1
001070302000000GARN SAN VICTORINO         4000001000000100OPERA/NES CENT/ZADAS       1
001082203636071ACACIAS                    4012311000000351V/CENCIO                   1
001090502000000INEM CALI                  B000001000000706CENT.OPER.REG.OCCIDE       1
001100502000000PUBENZA FLORIDA            B000001000000706CENT.OPER.REG.OCCIDE       1
001110501000000SANTANDER DE QUILICHAO     B000001000000706CENT.OPER.REG.OCCIDE       1
001120306000026TERMINAL DE TRANSPORTES    4011611000000100OPERA/NES CENT/ZADAS       1
001131502000000CTRO COMERCIAL BUGA PLAZA  B000001000000188BUGA                       1
001141104434000CENTRAL DE ABASTOS - MEDELLC000001000000701CTRO.OPE.REG.ANTIOQ        1
001150303000000AVENIDA 15 CALLE 106       4000001000000100OPERA/NES CENT/ZADAS       1
001162403628061AGUACHICA                  1012231000000116AGUACHICA                  1
001170411184061CTRO SERVICIOS PYME B/MANGA1000001000000713CTRO OPE REG ORIENTE       1
001181103434000AVENIDA COLOMBIA           C000001000000701CTRO.OPE.REG.ANTIOQ        1
001190503000000CENTRO PLAZA CAICEDO       B000001000000706CENT.OPER.REG.OCCIDE       1
001203202000062AGUAZUL                    1000001000000120AGUAZUL                    1
001211405000000PASTO PLAZA                B000001000000466PASTO                      1
001220304000000CENTRO INTERNACIONAL       4000001000000100OPERA/NES CENT/ZADAS       1
001233205000027UNISUR                     4015091000000100OPERA/NES CENT/ZADAS       1
001243202000071ANOLAIMA                   4011651000000100OPERA/NES CENT/ZADAS       1
001250203170000OF EDF BCO DE BTA BQUILLA  A000001000000707CTRO.OPERA.REG.COSTA       1
001260502000000EL TREN CALI               B000001000000706CENT.OPER.REG.OCCIDE       1
001270302000000SAN CRISTOBAL              4000001000000100OPERA/NES CENT/ZADAS       1
001281103434032CC NUESTRO URABA           C000001000000128APARTADO                   1
001290303000000VENECIA CENTRAL            4000001000000100OPERA/NES CENT/ZADAS       1
001300302000000TRINIDAD GALAN             4000001000000100OPERA/NES CENT/ZADAS       1
001310303000000CENTR CIAL PALATINO        4000001000000100OPERA/NES CENT/ZADAS       1
001320302000000KENNEDY CARAVANA           4000001000000100OPERA/NES CENT/ZADAS       1
001340502484000CC LA ESTACION CALI        B000001000000706CTRO.OPER.REG.OCCIDE       1
001350302000000LA VICTORIA SUR ORIENTE    4000001000000100OPERA/NES CENT/ZADAS       1
001360302000000OFICINA BARBOSA            1000001000000136BARBOSA                    1
001373403260061ARAUCA                     1000001000000137ARAUCA                     1
001380110138033ARMENIA                    3012111000000138ARMENIA                    1
001390302000000PATIO BONITO               4000001000000100OPERA/NES CENT/ZADAS       1
001400902370072LERIDA                     4012491000000140LERIDA                     1
001411603468033BANCO DE BOGOTA PINARES    3000001000000715CTRO.OPE.PEREIRA           1
001420505484051CENTRO CIAL JARDIN PLAZA   B000001000000706CTRO.OPER.REG.OCCIDE       1
001430302000000BOSA                       4000001000000100OPERA/NES CENT/ZADAS       1
001441104434031CARRERA 70                 C000001000000701CTRO.OPE.REG.ANTIOQ        1
001450302000000SANTA HELENITA             4000001000000100OPERA/NES CENT/ZADAS       1
001460502484000PARQUE VERSALLES CALI      B000001000000706CTRO.OPE.REG.OCCIDEN       1
001481202436000CERROMATOSO                A000001000000436MONTELIBANO                1
001493201000000VILLAPINZON                4000001000000100OPERA/NES CENT/ZADAS       1
001500302000000RINCON SUBA                4000001000000100OPERA/NES CENT/ZADAS       1
001510207170041CENTRO NELMAR              A000001000000707CTRO.OPERA.REG.COSTA       1
00152031200000NREDES EXTER OPER BANCARIAS 4000001000010100OPERA/NES CENT/ZADAS       1
001531104434031AVENIDA DE GREIFF          C000001000000701CTRO.OPE.REG.ANTIOQ        1
001541102000000S.ANTONIO DEL PRADO        C000001000000701CENT.OPRA.REG.ANTIOQ       1
001551103000000ORIENTE RIONEGRO           C000001000000701CENT.OPRA.REG.ANTIOQ       1
001561102000000PLAZA ARRAYANES            C000001000000701CENT.OPRA.REG.ANTIOQ       1
001570402184000SOTOMAYOR                  1000001000000713CTRO.OPE.REG.ORIENTE       1
001580505484051CENTRO CIAL DEL NORTE      B000001000000706CTRO.OPER.REG.OCCIDE       1
001590502000000CENTRO EMPRESA             B000001000000706CTRO.OPER.REG.OCCIDE       1
001600301000000AVENIDA BOYACA             4000001000000100OPERA/NES CENT/ZADAS       1
001610303000000CIUDAD TUNAL               4000001000000100OPERA/NES CENT/ZADAS       1
001620405184061AV. LIBERTADOR             1000001000000713CTRO.OPE.REG.ORIENTE       1
001640505484051CENTRO COMERCIAL CALIMA    B000001000000706CTRO.OPER.REG.OCCIDE       1
001650303000000AUTOPISTA EL DORADO        4000001000000100OPERA/NES CENT/ZADAS       1
001660505484051PARQUE SAN NICOLAS         B000001000000706CTRO.OPER.REG.OCCIDE       1
001671110434031OFIC REC Y PAGO BELLO      C000001000000701CTRO.OPE.REG.ANTIOQ        1
001682906168061BARRANCABERMEJA            1000001000000168BARRANCABERMEJA            1
001700211170041BARRANQUILLA               A000001000000707CTRO.OPERA.REG.COSTA       1
001710302000000CARRERA 19 AV PRIMERO MAYO 4000001000000100OPERA/NES CENT/ZADAS       1
001721103434031OFICINA CC PUNTO CLAVE     C000001000000701CTRO.OPE.REG.ANTIOQ        1
001730207170041BOULEVARD 54               A000001000000707CTRO.OPERA.REG.COSTA       1
001740302000000SANTA LUCIA                4000001000000100OPERA/NES CENT/ZADAS       1
001751405466052BARRIO LAS LUNAS           B000001000000466PASTO                      1
001781106434031BELLO                      C000001000000701CTRO.OPE.REG.ANTIOQ        1
001793203000000CC CASABLANCA              4000001000000100OPERA/NES CENT/ZADAS       1
001800510484000CALI                       B000001000000706CTRO.OPER.REG.OCCIDE       1
001810501000000PUERTO TEJADA              B000001000000706CENT.OPER.REG.OCCIDE       1
001820603204042EDF BCO DE BTA BOCAGRANDE  A000001000000204CARTAGENA                  1
001832403628043BOSCONIA (CESAR)           A000001000000183BOSCONIA                   1
001840411184061BUCARAMANGA                1000001000000713CTRO.OPE.REG.ORIENTE       1
001850302000000CALLE 63 SIETE DE AGOSTO   4000001000000100OPERA/NES CENT/ZADAS       1
001863505484052VISTAMAR BUENAVENTURA      B000001000000186BUENAVENTURA               1
001870202170000BUENAVISTA                 A000001000000707CTRO.OPERA.REG.COSTA       1
001881510458053BUGA                       B000001000000188BUGA                       1
001900103138033CALARCA                    3000001000000138ARMENIA                    1
001910308000000C.C TITAN                  4000001000000100OPERA/NES CENT/ZADAS       1
001933201000000POLICARPA GUADUAS          4000001000000100GUADUAS                    1
001940302000000TEJAR                      4000001000000100OPERA/NES CENT/ZADAS       1
00195000000000COFICINA PREMIUM RUITOQUE   1000000000000713CTRO.OPE.REG.ORIENTE       1
001960204170041LA PAZ - CRA 40 # 32-15    A000001000000707CTRO.OPERA.REG.COSTA       1
001970301000000CHOACHI                    4000001000000100OPERA/NES CENT/ZADAS       1
001982203636071UNICENTRO VILLAVICENCIO    4000001000000351CTR.V/CENCIO               1
001990302000000QUIRIGUA                   4000001000000100OPERA/NES CENT/ZADAS       1
00200030400000PBASE MIL.SAN JOSE GUAVIARE 4000001000130517SAN JOSE DE GUAVIARE       1
00201280300000CGRAN PLAZA FLORENCIA       4000001000110312OPERA/NES CENT/ZADAS       1
002021302000000DONCELLO                   4000001000000202OPERA/NES CENT/ZADAS       1
002030402184061CANAVERAL                  1000001000000713CTRO.OPE.REG.ORIENTE       1
002040609204042CARTAGENA                  A000001000000204CARTAGENA                  1
002050303000000QUINTA CAMACHO             4000001000000100OPERA/NES CENT/ZADAS       1
002063605612053CARTAGO                    3000001000000206CARTAGO                    1
002070503484052CAVASA                     B000001000000706CTRO.OPER.REG.OCCIDE       1
002080301000000C. C. MAZUREN              4000001000000100OPERA/NES CENT/ZADAS       1
002090502484000OFIC REC Y PAGO UNICALI    B000001000000706CTRO.OPER.REG.OCCIDE       1
002100704260061CENTRAL DE TRANS. (CUCUTA) 1000001000000260CUCUTA                     1
002113201000000GACHANCIPA                 4000001000000100OPERA/NES CENT/ZADAS       1
002120302000000CASABLANCA                 4000001000000100OPERA/NES CENT/ZADAS       1
002131301000000NATAGAIMA                  4000001000000100OPERA/NES CENT/ZADAS       1
002141105434031CENTRO COMERC SAN DIEGO    C000001000000701CTRO.OPE.REG.ANTIOQ        1
00215000000000NGCIA OPER DESEMBO INGRALES 4000001000000100OPERA/NES CENT/ZADAS       1
002161204438042CERETE                     9000001000000438MONTERIA                   1
002171102434031CENTRO COMERCIAL OVIEDO    C000001000000701CTRO.OPE.REG.ANTIOQ        1
002181006428033CTRO CCIAL CABLE PLAZA     3000001000000428MANIZALES                  1
002192203636071OFIC REC Y PAGO VCENCIO    4000001000000351CTR.V/CENCIO               1
002201903564041CIENAGA (MAGD.)            A000001000000220CIENAGA                    1
002211906564041CTRO CCIAL BUENAVISTA      A000001000000564SANTA MARTA                1
002230303000000CENTRO 93                  4000001000000100OPERA/NES CENT/ZADAS       1
002242403628043CODAZZI                    A000001000000224CODAZZI                    1
002251102434032BOULEVARD COMERCIAL MAYORCAC000001000000701CTRO.OPE.REG.ANTIOQ        1
002260501484000CENTRO COMERCIAL UNICO     B000001000000706CTRO.OPER.CALI             1
002270303000000RINCON DEL CHICO           4000001000000100OPERA/NES CENT/ZADAS       1
002280303000000CENTR CIAL PASEO SAN RAFAEL4000001000000100OPERA/NES CENT/ZADAS       1
002290301000000GRANADA C/MARCA            4000001000000100OPERA/NES CENT/ZADAS       1
002301508458053CENTRO CIAL LLANOGRANDE    B000001000000706CTRO.OPER.REG.OCCIDE       1
002313202000000SOLARES VILLETA            4000001000000100OPERA/NES CENT/ZADAS       1
002321103434032COPACABANA                 C000001000000701CTRO.OPE.REG.ANTIOQ        1
002330304000026OFIC REC Y PAGO CORFERIAS  4000001000000100OPERA/NES CENT/ZADAS       1
00234030200050BAMARILO                    4000001000010100OPERA/NES CENT/ZADAS       1
002351906564041CTRO CIAL OCEAN MALL       A000001000000564SANTA MARTA                1
002361102434031CTRO CIAL LOS MOLINOS      C000001000000701CTRO.OPE.REG.ANTIOQ        1
002370102000012CENTRO CCIAL PLAZA IMPERIAL4000001000000100OPERA/NES CENT/ZADAS       1
002381103434032CTRO CIAL PLAZA DEL RIO    C000001000000128APARTADO                   1
002390302000000CENTRO CHIA                4000001000000100OPERA/NES CENT/ZADAS       1
002402303592042COROZAL                    9000001000000240COROZAL                    1
002410308000012OFIC REC Y PAGO CLL 73     4000001000000100OPERA/NES CENT/ZADAS       1
002421906564041OFIC REC Y PAGO SANTA MARTAA000001000000242SANTA MARTA                1
002431103434031OFIC REC Y PAGO MEDELLIN   C000001000000701CTRO.OPE.REG.ANTIOQ        1
002441308442072CTRO CIAL SAN PEDRO PLAZA  4000001000000442NEIVA                      1
002450308000012OFIC REC Y PAGO BOGOTA CTRO4000001000000100OPERA/NES CENT/ZADAS       1
002460308000012OFIC REC Y PAGO BTA CHAPINE4000001000000100OPERA/NES CENT/ZADAS       1
002470503706000OFIC REC Y PAGO CALI       B000001000000706CTRO.OPER.CALI             1
002481005428033OFIC REC Y PAGO MANIZALES  3000001000000428CTRO.OPER.PEREIRA          1
002490503484000COSMOCENTRO                B000001000000706CTRO.OPER.REG.OCCIDE       1
002501103434031CARRERA BOLIVAR            C000001000000701CTRO.OPE.REG.ANTIOQ        1
002511603715033OFIC REC Y PAGO PEREIRA    3000001000000715CTRO.OPE.PEREIRA           1
002530405184061OFICINA GUARIN             1000001000000713CTRO.OPE.REG.ORIENTE       1
002540507484052CARRERA 8A                 B000001000000706CTRO.OPER.REG.OCCIDE       1
002550902000000CALLE CUARENTA             4000001000000370IBAGUE                     1
00256050900000CBULEVAR DEL RIO CALI       B000001000090706CENT.OPER.REG.OCCIDE       1
002570304000025OFIC REC Y PAGO W T CENTER 4000001000000100OPERA/NES CENT/ZADAS       1
002590405184061OFICINA SABANA DE TORRES   1000001000000259CTRO.OPE.REG.ORIENTE       1
002600710260061CUCUTA                     1000001000000260CUCUTA                     1
002610302000000CENTR CIAL MERCURIO        4000001000000100OPERA/NES CENT/ZADAS       1
002631302000000MELGAR                     4000001000000263OPERA/NES CENT/ZADAS       1
002643203000011CHIA                       4000001000000100OPERA/NES CENT/ZADAS       1
002650302000000OFICINA BARRIO MODELO NORTE4000001000000100OPERA/NES CENT/ZADAS       1
002661002428033CHINCHINA                  3000001000000428MANIZALES                  1
002671100134031LA CEJA                    C000001000000701CTRO.OPE.REG.ANTIOQ        1
002682003616062CHIQUINQUIRA               1000001000000268CHIQUINQUIRA               1
002690901000000LIBANO                     4000001000000100OPERA/NES CENT/ZADAS       1
002703202000062CHOCONTA                   4000001000000100OPERA/NES CENT/ZADAS       1
002720305000000SOACHA                     4000001000000100OPERA/NES CENT/ZADAS       1
002731701000000MIRANDA                    B000001000000706CENT.OPER.REG.OCCIDE       1
002740303000000CENTR CIAL HAYUELOS        4000001000000100OPERA/NES CENT/ZADAS       1
002750303000000PORTAL DE LA 80            4000001000000100OPERA/NES CENT/ZADAS       1
002760502484000AVENIDA ROOSVELT           B000001000000706CTRO.OPER.REG.OCCIDE       1
002771602000000CUBA                       3000001000000715CTRO.OPER.PEREIRA          1
002783603000000C.C NUESTRO CARTAGO        3000001000000206CTRO.OPER.REG.OCCIDE       1
002791601000000DOSQUEBRADAS               3000001000000715CTRO.OPER.PEREIRA          1
002800000000000DIRECCION GENERAL          4000001000000100OPERA/NES CENT/ZADAS       1
002811005000000MALL PLAZA MANIZALES       3000001000000428MANIZALES                  1
002822606596062DUITAMA                    1000001000000282DUITAMA                    1
002830401283061SAN FRANCISCO              1000001000000713CTRO.OPE.REG.ORIENTE       1
002841904564041EL BANCO (MAGD.)           A000001000000284EL BANCO (MAGD.)           1
002851103434032EL CARMEN DE VIBORAL       C000001000000701CTRO.OPE.REG.ANTIOQ        1
002860603204042EL CARMEN                  9000001000000286EL CARMEN                  1
002871503458053EL CERRITO                 B000001000000706CTRO.OPER.REG.OCCIDE       1
00288241100000CCC UNICENTRO VALLEDUPAR    A000001000180628VALLEDUPAR                 1
002891502458000CANDELARIA                 B000001000000706CTRO,OPER.REG.OCCIDE       1
002901603468033AVENIDA 30 DE AGOSTO       3000001000000715CTRO.OPE.PEREIRA           1
00291030300000BCENTRO COMERCIAL ANDINO    4000001000020100OPERA/NES CENT/ZADAS       1
002920207170041EL PRADO                   A000001000000707CTRO.OPERA.REG.COSTA       1
002930202000000CENTRO CIAL PARQUE ALEGRA  A000001000000707CTRO.OPERA.REG.COSTA       1
002941105434032ENVIGADO                   C000001000000701CTRO.OPE.REG.ANTIOQ        1
002950504484051DAGUA                      B000001000000706CTRO.OPER.REG.OCCIDE       1
002960904370072ESPINAL                    4000001000000296EL ESPINAL                 1
002971602000000SAN EUGENIO STA ROSA CABAL 3000001000000715CTRO.OPERA.PEREIRA         1
002990302000000C.C. GRAN ESTACION         4000001000000100OPERA/NES CENT/ZADAS       1
003010404000000LA TRIADA                  1000001000000713CTRO.OPE.REG.ORIEN         1
003020302000000COLINA OFFICE PARK         4000001000000100OPERA/NES CENT/ZADAS       1
003030705000000CUCUTA AV QUINTA           1000001000000260CUCUTA                     1
003043205000071FACATATIVA                 4000001000000100OPERA/NES CENT/ZADAS       1
003050402000000LA ISLA                    1000001000000713CTRO.OPE.REG.ORIEN         1
003063203000001OFIC REC Y PAGO TNAL CGA 804015291000000100OPERA/NES CENT/ZADAS       1
003080902370072FLANDES                    4000001000000348GIRARDOT                   1
00309130200000PLA ESTACION CTR CIAL IBAGUE4000001000010370IBAGUE                     1
003100202000000BARANOA                    A000001000000707CTRO.OPERA.REG.COSTA       1
003110401000000SAN GIL                    1000001000000311SAN GIL                    1
003122805312072FLORENCIA                  4000001000000312FLORENCIA                  1
003131002000000CTRO COMERCIAL FUNDADORES  3000001001400428MANIZALES                  1
003141504458053FLORIDA                    B000001000000706CTRO.OPER.REG.OCCIDE       1
00315121100000CCENTRO COMERCIAL ALAMEDAS  A000001000140438MONTERIA                   1
003160307000012C.C. MILENIO PLAZA         4000001000000100OPERA/NES CENT/ZADAS       1
003170305000027OFIC REC Y PAGO BR RESTREPO4000001000000100OPERA/NES CENT/ZADAS       1
003182503530043FONSECA                    A000001000000318FONSECA                    1
003190411184061FLORIDABLANCA              1000001000000713CTRO.OPE.REG.ORIENTE       1
003221102434032FRONTINO                   C000001000000322FRONTINO                   1
003230101000000PORTAL DEL NORTE           3000001000000138ARMENIA                    1
003241104434000ANDES ANTIOQUIA            C000001000000701CTR.OPER.REG.ANTIOQ        1
00325030600000BOFICINA CC FONTANAR        4000001000090100OPERA/NES CENT/ZADAS       1
003261904564043FUNDACION (MAGDALENA)      A000001000000326FUNDACION (MAGDALENA       1
003270302000000NORMANDIA                  4000001000000100OPERA/NES CENT/ZADAS       1
00328030100000BDIR VEHICUL Y ALIADOS RETAI4000001000090100OPERA/NES CENT/ZADAS       1
00329000000000NCENTRO COMERCIAL ALTAVISTA 4000001000000100OPERA/NES CENT/ZADAS       1
003300804348071FUSAGASUGA                 4000001000000100OPERA/NES CENT/ZADAS       1
003310301000000UNIDAD DE LIBRANZA RED MEGA4000001000000100OPERA/NES CENT/ZADAS       1
00332060100000CBASE NAVAL DE CARTAGENA    A000001000090204CARTAGENA                  1
003331104434000SAN CRISTOBAL ANTIOQUIA    C000001000000701CTR.OPER.REG.ANTIOQ        1
003343202000062GACHETA                    4000001000000100OPERA/NES CENT/ZADAS       1
00335030200000BGCIA CENTRO DE SERV LEASING4000001000100100OPERA/NES CENT/ZADAS       1
003362003616062GARAGOA                    1000001000000336GARAGOA                    1
003370303000000BARRIO CONTADOR            4000001000000100OPERA/NES CENT/ZADAS       1
003381303442072GARZON                     4000001000000338GARZON                     1
00339260300000PSOATA                      1000001000100339SOATA                      1
003401605468033OFICINA PREMIUM PEREIRA    3000001000000715CTRO.OPE.PEREIRA           1
00341230800000CPARQUE COMERCIAL GUACARI   A000001000170592SINCELEJO                  1
00342000000000NVICEPR.FINANCIERA MEGABANCO4000001000000100OPERA/NES CENT/ZADAS       1
003441104434000OFICINA BARBOSA            C000001000000701CTR.OPER.REG.ANTIOQ        1
00345000000000NGERENCIA SOX               4000001000000100OPERA/NES CENT/ZADAS       1
003461502458053GINEBRA                    B000001000000706CTRO.OPE.REG.OCCIDE        1
003470502000000CALYPSO                    B000001000000706CENT.OPER.REG.OCCIDE       1
003480807348072GIRARDOT                   4000001000000348GIRAROT                    1
003491103434032GIRARDOTA                  C000001000000701CTRO.OPE.REG.ANTIOQ        1
003502203636071GRANADA                    4000001000000350GRANADA                    1
003512203000000CENTRO VILLAVICENCIO       4000001000000636VILLAVICENCIO              1
003521503458053GUACARI                    B000001000000706CTRO.OPE.REG.OCCIDE        1
003532201000000MONTERREY                  1000001000000353OPERA/NES CENT/ZADAS       1
003542202000000PARQUE RIVEROS ACACIAS     4000001000000351V/CENCIO                   1
003563203000071GUADUAS                    4000001000000100GUADUAS                    1
00357220300000CCTRO CIAL VIVA V/CENCIO    4000001000120351CTR.V/CENCIO               1
003582202000000GUAMAL                     4000001000000351CTR.V/CENCIO               1
003590302000000OFICINA SANTA ANA          4000001000000100OPERA/NES CENT/ZADAS       1
003602003616062GUATEQUE                   1000001000000360GUATEQUE                   1
003612202000000RESTREPO META              4000001000000351CTR.V/CENCIO               1
003621108434032GUAYAQUIL                  C000001000000701CTRO.OPE.REG.ANTIOQ        1
003630902370000MARIQUITA                  4000001000000363MARIQUITA                  1
00364220700000CLOS CENTAROS               4000001000120351CTR.V/CENCIO               1
003660904370072HONDA                      4000001000000366HONDA                      1
003700911370072IBAGUE                     4000001000000370IBAGUE                     1
003711102000000MANRIQUE                   C000001000000701CENT.OPRA.REG.ANTIOQ       1
003722603000000LA PERLA DUITAMA           1000001000000282DUITAMA                    1
003743703466052IPIALES                    B000001000000374IPIALES                    1
00375280500000CSAN VICENTE DEL CAGUAN     4000001000110375SAN VICEN DEL CAGUAN       1
003760402184061KIOSCO UNAB                1000001000000713CTRO.OPE.REG.ORIENTE       1
003772602596002NOBSA                      1000001000000596SOGAMOSO                   1
003781803000032ISTMINA                    C000001000000378ITSMINA                    1
003791102434031EPM MEDELLIN               C000001000000701CTRO.OPE.REG.ANTIOQ        1
003800303000000ISERRA 100                 4000001000000100OPERA/NES CENT/ZADAS       1
003810302000000LAS MARAGARITAS            4000001000000100OPERA/NES CENT/ZADAS       1
003821105434031ITAGUI                     C000001000000701CTRO.OPE.REG.ANTIOQ        1
003831308442072SAN AGUSTIN-HUILA          4000001000000383SAN AGUSTIN                1
003840302000000CENTRO EM. NORTH POINT     4000001000000100OPERA/NES CENT/ZADAS       1
003861106434032CARRERA JUNIN              C000001000000701CTRO.OPE.REG.ANTIOQ        1
003870204000000METROCENTRO                A000001000000707CTRO.OPE.REG.COSTA         1
003880303000000BARRIO LA CASTELLANA       4000001000000100OPERA/NES CENT/ZADAS       1
003890602000000LA PLAZUELA                A000001000000204CARTAGENA                  1
003901003428072LA DORADA                  4000001000000390LA DORADA                  1
003910504484051CHIPICHAPE                 B000001000000706CTRO.OPER.REG.OCCIDE       1
003920205170041CALLE MURILLO              A000001000000707CTRO.OPERA.REG.COSTA       1
003931102434032CTRO CIAL SANTAFE MEDELLIN C000001000000701CTRO.OPE.REG.ANTIOQ        1
003940802348071LA MESA                    4000001000000100OPERA/NES CENT/ZADAS       1
003952203000000LA PRIMAVERA VILLAVICENCIO 4000001000000351CTR.V/CENCIO               1
003960307000000OFICINA FUSAGASUGA         4000001000000100OPERA/NES CENT/ZADAS       1
003972602000000SUGAMUXI SOGAMOSO          1000001000000596SOGAMOSO                   1
003981303442072LA PLATA                   4000001000000398LA PLATA                   1
003990302000000CTR EMPRES METROPOL. SURAME4000001000000100OPERA/NES CENT/ZADAS       1
004002102612053LA VICTORIA                3000001000000715CTRO.OPE.PEREIRA           1
004010302000500GERENCIA EMP BOGOTA MB     4000001000100100OPERA/NES CENT/ZADAS       1
004021602468033LA VIRGINIA                3000001000000715CTRO.OPE.PEREIRA           1
00404191000000CEXT OF CC BVISTA STA MARTA A000001000170564SANTA MARTA                1
00405000000000NOF MOVIL BUS BCO DE BOGOTA 4000001000180100OPERA/NES CENT/ZADAS       1
004061104434000VIVA ENVIGADO              C000001000000701CTRO.OPE.REG.ANTIOQ        1
004073802000071LETICIA                    4000001000000407LETICIA                    1
004081203438042LORICA                     9000001000000408LORICA                     1
00409320500000CUNICENTRO YOPAL            1000001000180646YOPAL                      1
004100302000000PRADO VERANIEGO            4000001000000100OPERA/NES CENT/ZADAS       1
004120302000500GERENCIA EMP BOGOTA MB     4000001000100100OPERA/NES CENT/ZADAS       1
004140604204042MAGANGUE                   A000001000000414MAGANGUE                   1
004150304000026OFIC REC Y PAGO FIESTA SUBA4000001000000100OPERA/NES CENT/ZADAS       1
004160303000000LAS GRANJAS                4000001000000100OPERA/NES CENT/ZADAS       1
004171104434031CENTRO COMERCIAL FLORIDA   C000001000000701CTRO.OPE.REG.ANTIOQ        1
00418090300000POFICINA ARMERO GUAYABAL    4000001000120363MARIQUITA                  1
004202402628061SAN MARTIN CESAR           1000001000000420SAN ALBERTO                1
00421110200050CGCIA. EMPRE MEDELLIN MB    C000001001400701CENT.OPRA.REG.ANTIOQ       1
00423000000000NBASE MILITAR COVE AS       A000001000180592SINCELEJO                  1
004250301000000OF RYP FONTIBON            4000001000000100OPERA/NES CENT/ZADAS       1
004260602204042MAMONAL                    A000001000000204CARTAGENA                  1
004270501484051OF. AVENIDA ROOSVELT-CALI  B000001000000706CTRO.OPER.REG.OCCIDE       1
004281006428033MANIZALES                  3000001000000428MANIZALES                  1
00429051500000CES MIL AVIACI N M F SUAREZ B000001000150706CENT.OPER.REG.OCCIDE       1
004301105434031MARACAIBO                  C000001000000701CTRO.OPE.REG.ANTIOQ        1
004311104434031TERMINAL DE TRANSPORTES    C000001000000701CTRO.OPE.REG.ANTIOQ        1
004321103434031MATURIN                    C000001000000701CTRO.OPE.REG.ANTIOQ        1
004331105434031EL POBLADO                 C000001000000701CTRO.OPE.REG.ANTIOQ        1
004341124434031MEDELLIN CENTRO            C000001000000701CTRO.OPE.REG.ANTIOQ        1
004361205438042MONTELIBANO                A000001000000436MONTELIBANO                1
004370302000000SANTA LIBRADA BOGOTA       4000001000000100OPERA/NES CENT/ZADAS       1
004381209438042MONTERIA                   A000001000000438MONTERIA                   1
004391906564041OF TORRE BANCO DE BOGOTA   A000001000000564SANTA MARTA                1
004410303000000CALLE 80                   4000001000000100OPERA/NES CENT/ZADAS       1
004421308442072NEIVA                      4000001000000442NEIVA                      1
004431101000000CALASANZ                   C000001000000701CENT.OPRA.REG.ANTIOQ       1
004443202000000CAJICA                     4000001000000100OPERA/NES CENT/ZADAS       1
004450505484052CTRO CCIAL MALLPLAZA CALI  B000001000000706CTRO.OPER.REG.OCCIDE       1
004460705260061OCANA                      1000001000000446OCANA                      1
004470302000000LUCERO                     4000001000000100OPERA/NES CENT/ZADAS       1
004480303000000PALERMO                    4000001000000100OPERA/NES CENT/ZADAS       1
004490301000000CARRERA 7 CALLE 67         4000001000000100OPERA/NES CENT/ZADAS       1
004500302000000CANDELARIA LA NUEVA        4000001000000100OPERA/NES CENT/ZADAS       1
004513201000000VILLA DE LA MESA           4000001000000100OPERA/NES CENT/ZADAS       1
004521105434031CTRO COMERCIAL EL TESORO   C000001000000701CTRO.OPE.REG.ANTIOQ        1
00453000000000NMALAMBO                    A000001000000707CTRO.OPER.REG.COSTA        1
004540502000000UNICENTRO PALMIRA          B000001000000706CENT.OPER.REG.OCCIDE       1
004550502000000PANAMERICANO CALI          B000001000000706CENT.OPER.REG.OCCIDE       1
004560502000000VILLA COLOMBIA CALI        B000001000000706CENT.OPER.REG.OCCIDE       1
004570205170041GALAPA                     A000001000000707CTRO.OPERA.REG.COSTA       1
004581508458053PALMIRA                    B000001000000706CTRO.OPER.REG.OCCIDE       1
004590502000000PASO ANCHO                 B000001000000706CTRO.OPER.REG.OCCIDE       1
004600301000000AV CARRERA 30 CON 75       4000001000000100OPERA/NES CENT/ZADAS       1
004611405466052MUNICIPIO DE LA UNION      B000001000000461LA UNION                   1
004620704260061PAMPLONA                   1000001000000462PAMPLONA                   1
004631102000000MARINILLA                  C000001000000701CENT.OPRA.REG.ANTIOQ       1
004641105434031OF PREMIUM TORRE OVIEDO    C000001000000701CTRO.OPE.REG.ANTIOQ        1
004651605468033PARQUE OLAYA               3000001000000715CTRO.OPE.PEREIRA           1
004661405466052PASTO                      B000001000000466PASTO                      1
004670204170041PARQUE WASHINGTON          A000001000000707CTRO.OPERA.REG.COSTA       1
004681608468033PEREIRA                    3000001000000715CTRO.OPE.PEREIRA           1
004690404184061PIEDECUESTA                1000001000000713CTRO.OPE.REG.ORIENTE       1
004700502000000JAMUNDI                    B000001000000706CENT.OPER.REG.OCCIDE       1
004711903564043PIVIJAY (MAGDALENA)        A000001000000471PIVIJAY   (MAGDALENA       1
004730406184000OFIC REC Y PAGO PASEO COMER1000001000000713CTRO.OPE.REG.ORIENTE       1
004740903370072IPIEDRAPINTADA             4000001000000370IBAGUE                     1
004750502000000VILLA COLOMBIA CALI        B000001000000706CENT.OPER.REG.OCCIDE       1
004761105434031B E L E N                  C000001000000701CTRO.OPE.REG.ANTIOQ        1
004770501000000JUNIN                      B000001000000706CENT.OPER.REG.OCCIDE       1
004781605000000CAREPA                     C000001000000128CTRO.OPERA.ANTIOQUIA       1
004792102000000VILLA CESPEDES TULUA       B000001000000612TULUA                      1
004800502000000OFICINA CANAVERALEJO       B000001000000706CENT.OPER.REG.OCCIDE       1
004810303000000OFIC REC Y PAGO CC G EST II4000001000000100OPERA/NES CENT/ZADAS       1
004840515484051PLAZA DE CAICEDO           B000001000000706CTRO.OPER.REG.OCCIDE       1
004860504484052UNICENTRO                  B000001000000706CTRO.OPER.REG.OCCIDE       1
004870505484000ALAMEDA (CALI)             B000001000000706CTRO.OPER.REG.OCCIDE       1
004880502000000CIUDAD CORDOBA             B000001000000706CENT.OPER.REG.OCCIDE       1
004900502000000AVENIDA TERCERA            B000001000000706CENT.OPER.REG.OCCIDE       1
00491130200000CCTRO CCIAL MURANO NEIVA    4000001000140442NEIVA                      1
004920302000000PARQUE DE LA INDEPENDENCIA 4000001000000100OPERA/NES CENT/ZADAS       1
00493000000000NCTRO CCIAL GRAN PLZ DEL SOLA000001000000707CTRO.OPER.REG.COSTA        1
004942403628043PLAZA DE MERCADO (V/DUPAR) A000001000000628VALLEDUPAR                 1
004950502000000EL TEMPLETE CALI           B000001000000706CENT.OPER.REG.OCCIDE       1
004961704000000CALLE DE LA HERRERIA       B000001000000520POPAYAN                    1
00497000000000NOFICINA CALDAS             C000001000000701CTRO.OPER.ANTIOQUIA        1
004980502000000CENTRO COMERCIAL CARRERA   B000001000000706CTRO.OPER.REG.OCCIDE       1
00500030300000BCARRERA 11 CON 81          4000001000020100OPERA/NES CENT/ZADAS       1
005040603204042AV. PEDRO DE HEREDIA C/GENAA000001000000204CARTAGENA                  1
00506030400000BCITY U                     4000001000090100OPERA/NES CENT/ZADAS       1
005101103434031LAURELES                   C000001000000701CTRO.OPE.REG.ANTIOQ        1
005110304000000CALLE 18                   4000001000000100OPERA/NES CENT/ZADAS       1
005120301000000ISMAEL PERDOMO             4000001000000100OPERA/NES CENT/ZADAS       1
005130401000000PUERTO WILCHES             1000001000000513PUERTO WILCHES             1
005141103434032PUERTO BERRIO              3000001000000514PUERTO BERRIO              1
00516070200000CLOS PATIOS NORTE/SANTANDER 1000001000090260CUCUTA                     1
005181103000000ARGOS                      C000001000000701CENT.OPRA.REG.ANTIOQ       1
005190807348072ARBELAEZ                   4000001000000100OPERA/NES CENT/ZADAS       1
005201706520052POPAYAN                    B000001000000520POPAYAN                    1
005241102000000CASTILLA                   C000001000000701CENT.OPRA.REG.ANTIOQ       1
005250308000012OFIC REC Y PAGO PARQUE NAL 4000001000000100OPERA/NES CENT/ZADAS       1
005260103138033QUIMBAYA                   3000001000000138ARMENIA                    1
005281102000000AMERICA                    C000001000000701CENT.OPRA.REG.ANTIOQ       1
005291906564041CENTRO COMERCIAL ARRECIFE  A000001000000564SANTA MARTA                1
005302505530043RIOHACHA                   A000001000000530RIOHACHA                   1
005311103000000SAN IGNACIO                C000001000000701CENT.OPRA.REG.ANTIOQ       1
005321102434032RIONEGRO                   C000001000000701CTRO.OPE.REG.ANTIOQ        1
005341104000000BELLO PLAZA                C000001000000701CTRO.OPE.REG.ANTIOQ        1
005350110138033ARMENIA CALLE 21 CRA 17    3012111000000138ARMENIA                    1
00536000000000NGCIA OPERATIVA DE CARTERA  4000001000180100OPERA/NES CENT/ZADAS       1
005381102000000CTR CIAL UNICENTRO MEDELLINC000001000000701CENT.OPRA.REG.ANTIOQ       1
005392402628061SAN ALBERTO                1000001000000539SAN ALBERTO                1
005402706540041SAN ANDRES (ISLA)          A000001000000540SAN ANDRES (ISLA)          1
00541110200000CG OPER VIVIENDA Y VEHICULO 4000001000100100OPERA/NES CENT/ZADAS       1
005420305000014CTRO CIAL CTRO MAYOR       4011181000000100OPERA/NES CENT/ZADAS       1
005431102000000LA SETENTA                 C000001000000701CENT.OPRA.REG.ANTIOQ       1
005440506484052SANTA LIBRADA              B000001000000706CTRO.OPER.REG.OCCIDE       1
005450302000000PREMIUM AV.19 CALLE 114    4000001000000100OPERA/NES CENT/ZADAS       1
005461502000000ORITO                      B000001000000546ORITO                      1
00547210300000PEXT DE OFICINA CAICEDONIA  B000001000170588SEVILLA                    1
005482503530043SAN JUAN DEL CESAR         A000001000000548SAN JUAN DEL CESAR         1
005490603204042PREMIUN EDF BCO BTA BOCAGR A000001000000204CARTAGENA                  1
005501102000000CNTRO CCIAL CITY PLAZA     C000001000000701CENT.OPRA.REG.ANTIOQ       1
00551080700000PCCIAL UNICENTRO GIRARDOT   4000001000120348GIRAROT                    1
005521204000000CALLE 39 MONTERIA          A000001000000438MONTERIA                   1
005530302000000PREMIUM CARRERA 11 CON 81  4000001000000100OPERA/NES CENT/ZADAS       1
005541101000000STA ROSA DE OSOS           C000001000000701CENT.OPRA.REG.ANTIOQ       1
005562203636071SAN MARTIN                 4000001000000556SAN MARTIN                 1
00558110300000CCCIAL BOSQUE PLAZA         C000001000090701CENT.OPRA.REG.ANTIOQ       1
005620302000000TUNJUELITO                 4000001000000100OPERA/NES CENT/ZADAS       1
005641906564041SANTA MARTA                A000001000000564SANTA MARTA                1
005660504484051SANTA MONICA               B000001000000706CTRO.OPER.REG.OCCIDE       1
005680504484051SANTA RITA                 B000001000000706CTRO.OPER.REG.OCCIDE       1
00569040500000COF RDOS Y PAGOS CANAVERAL  1000001000090713CTRO.OPE.REG.ORIEN         1
005700302000000GUASCA                     4000001000000100OPERA/NES CENT/ZADAS       1
005710000000000CTRO DE SCIOS BANCA PYME   4000001000010100OPERA/NES CENT/ZADAS       1
005721603468033SANTA ROSA DE CABAL        3000001000000715CTRO.OPER.PEREIRA          1
00574000000000NCOORD.ORG.Y METODO MEGABANC4000001000000100OPERA/NES CENT/ZADAS       1
00575000000000NGCIA OPER Y DESA BCA SOCIA 4000001000000100OPERA/NES CENT/ZADAS       1
005762602596062SANTA ROSA DE VITERBO      1000001000000576SANTA ROSA DE VITERB       1
005781802578000QUIBDO                     C000001000000578QUIBDO                     1
005803202000000CAQUEZA                    4000001000000100OPERA/NES CENT/ZADAS       1
005820710260061OFIC REC Y PAGO CUCUTA     1000001000000260CUCUTA                     1
00583130200000CTOLEMAIDA                  4000001000140263OPERA/NES CENT/ZADAS       1
005841106434031SECTOR ESTADIO             C000001000000701CTRO.OPE.REG.ANTIOQ        1
005852002616062SECTOR SUR TUNJA           1000001000000616TUNJA                      1
005870302000000SIBATE                     4000001000000100OPERA/NES CENT/ZADAS       1
005882102612053SEVILLA                    B000001000000588SEVILLA                    1
005891006428033TERM TRANSP MANIZALES      3000001000000428MANIZALES                  1
00590040600000POF. REAL DE MINAS          1000001000150713CTRO.OPE.REG.ORIENTE       1
005922308592042SINCELEJO                  A000001000000592SINCELEJO                  1
005931102434000LA MILAGROSA               C000001000000701CTRO.OPE.REG.ANTIOQ        1
00594000000000NECONOCUENTA                4000001000180100OPERA/NES CENT/ZADAS       1
005952402628043LA LOMA                    A000001000000595LA LOMA                    1
005962605596062SOGAMOSO                   1000001000000596SOGAMOSO                   1
005970302000000SOPO                       4000001000000100OPERA/NES CENT/ZADAS       1
00598000000000NREVISORIA FISCAL MEGABANCO 4000001000000100OPERA/NES CENT/ZADAS       1
005992402628043LA JAGUA                   A000001000000599CODAZZI                    1
006000407184061CENTRO COM. CABECERA       1000001000000713CTRO.OPE.REG.ORIENTE       1
006010702601061C CIAL VENTURA PLAZA - CU  1000001000000260CUCUTA                     1
006020304000025OFIC REC Y PAGO TEQUENDAMA 4000001000000100OPERA/NES CENT/ZADAS       1
006032602596002TERMINAL DE TRANSP SOGAMOSO1000001000000596SOGAMOSO                   1
006043202000071BRICENO                    4000001000000100OPERA/NES CENT/ZADAS       1
006050302000011TOBERIN                    4000001000000100OPERA/NES CENT/ZADAS       1
006060302000011OFICINA TINTAL PLAZA       4000001000000100OPERA/NES CENT/ZADAS       1
006070302000000CTRO CIAL FLORESTA OUTLET  4000001000000100OPERA/NES CENT/ZADAS       1
006080802348072TOCAIMA                    4000001000000608TOCAIMA                    1
006090504484051CENTRO CIAL CARULLA PANCE  B000001000000706CTRO.OPER.REG.OCCIDE       1
006100000000000GCIA OPER TARJETAS Y ADQUI 4000001000000100OPERA/NES CENT/ZADAS       1
006113202000000UBATE                      4000001000000100OPERA/NES CENT/ZADAS       1
006122105612053TULUA                      B000001000000612TULUA                      1
006130502484000CTRO.SERV.BANCA PYME 613   B000001000000706CTRO.OPER.REG.OCCIDE       1
006140702614061C CIAL UNICENTRO CUCUTA    1000001000000260CUCUTA                     1
006150302000000CENTRO COMERCIAL SANTAFE II4000001000000100OPERA/NES CENT/ZADAS       1
006162009616062TUNJA                      1000001000000616TUNJA                      1
006170304000025OF DE RC Y PG PQ EL VIRREY 4000001000000100OPERA/NES CENT/ZADAS       1
006181605000000CHIGORODO                  C000001000000128CTRO.OPERA.ANTIOQUIA       1
006190702619061VILLA DEL ROSARIO          1000001000000260CUCUTA                     1
006204103434032TURBO                      C000001000000128APARTADO                   1
006210303000000CTRO EMPRESA PARALELO 108  4000001000000100OPERA/NES CENT/ZADAS       1
006220302000000CALLE 104 AVENIDA 19       4000001000000100OPERA/NES CENT/ZADAS       1
006243204000000PARQUE AGROINDUSTRIAL      4000001000000100OPERA/NES CENT/ZADAS       1
006251301000000PUERTO RICO                4000001000000625OPERA/NES CENT/ZADAS       1
006270202627041CARRERA 38 CON CALLE 70    A000001000000707CTRO.OPERA.REG.COSTA       1
006282408628043VALLEDUPAR                 A000001000000628VALLEDUPAR                 1
006290304000026OFIC REC Y PAGO CL 13 31-564000001000000100OPERA/NES CENT/ZADAS       1
006300203170041SECTOR VIVERO              A000001000000707CTRO.OPERA.REG.COSTA       1
006310302000000OFI.PREM.LUIS.C.SARMIENTO  4000001000000100OPERA/NES CENT/ZADAS       1
006323201000000TOCANCIPA                  4000001000000100OPERA/NES CENT/ZADAS       1
006331602633033UNICENTRO PEREIRA          3000001000000715CTRO.OPE.PEREIRA           1
006341104434000SAN LUCAS PLAZA            C000001000000701CTRO.OPE.REG.ANTIOQ        1
006362208636071VILLAVICENCIO              4000001000000351CTR.V/CENCIO               1
006370303000000OFICINA WORLD TRADE CENTER 4000001000000100OPERA/NES CENT/ZADAS       1
006381302000000CC SANTA LUCIA PLAZA       4000001000000442NEIVA                      1
006390503484051VIPASA                     B000001000000706CTRO.OPER.REG.OCCIDE       1
006403203000071LA VEGA                    4000001000000100OPERA/NES CENT/ZADAS       1
00641031200000BOFICINA BELLA SUIZA        4000001000030100OPERA/NES CENT/ZADAS       1
00642130200000CSAN JUAN PLAZA NEIVA       4000001000140442NEIVA                      1
006431102434000OFICINA CIUDAD BOLIVAR     C000001000000701CTRO.OPE.REG.ANTIOQ        1
006441104434032YARUMAL                    C000001000000701CTRO.OPE.REG.ANTIOQ        1
006450501000000OFIC REC Y PAGO CRA PRIMERAB000001000000706CENT.OPER.REG.OCCIDE       1
006463205000062YOPAL                      1000001000000646YOPAL                      1
006480504484051YUMBO                      B000001000000706CTRO.OPER.REG.OCCIDE       1
006491101000000CC NUESTRO URABA           C000001000000128APARTADO                   1
006501602633033EXT OFI BELEN DE UMBRIA    3000001000000715CTRO.OPE.PEREIRA           1
006521301000000PURIFICACION               4000001000000100OPERA/NES CENT/ZADAS       1
006530105434031GUAYABAL BOX               C000001000000701CTRO.OPE.REG.ANTIOQ        1
006540304000026GCIA OPE DEL ACTIVO PER JUR4000001000000100OPERA/NES CENT/ZADAS       1
00655030100000BESCUELA MILITAR DE CADETES 4000001000090100OPERA/NES CENT/ZADAS       1
006562103612053ZARZAL                     B000001000000656ZARZAL                     1
006572408628043CTRO CCIAL LOS MAYALES     A000001000000628VALLEDUPAR                 1
00658000000000COF PREMIUM EDF BCO BTA BQLLA000000000000707CTRO.OPE.REG.COSTA         1
00659060100000COFIC REC Y PAGO CARTAGENA  A000001000900204CARTAGENA                  1
006603206000071ZIPAQUIRA                  4000001000000100OPERA/NES CENT/ZADAS       1
00661020300000CEXT DE OF UNIVERSIDAD NORTEA000001000180707CTRO.OPE.REG.COSTA         1
006630304000026OFI.RECAU.PAG CLL 128      4000001000000100OPERA/NES CENT/ZADAS       1
006650000000000TARJ MARCA COMPARTIDA CEOI 4000001000000100OPERA/NES CENT/ZADAS       1
006660202000000NORMALIZACION PMP COSTA    A000001000080707CTRO.OPE.REG.COSTA         1
006670402000000NORMALIZACION PMP ORIENTE  1000001000080713CTRO.OPE.REG.ORIEN         1
006682203636071OFIC REC Y PAGO AV 40 VCIO 4000001000000351CTR.V/CENCIO               1
006690502000000NORMALIZACION PMP OCCIDENTEB000001000080706CENT.OPER.REG.OCCIDE       1
006700302000000NORMALIZACION PMP BTA SUR  4000001000010100OPERA/NES CENT/ZADAS       1
006710502484000OFIC REC Y PAGO LA CAMPINA B000001000000706CTRO.OPER.REG.OCCIDE       1
006720302000000NORMALIZACION PMP CENTRAL  4000001000010100OPERA/NES CENT/ZADAS       1
006742706540041EXT OFICINA PROVIDENCIA    A000001000000674PROVIDENCIA                1
00675020300000CCENTRO COMERCIAL LE CHAMP  A000001000180707CTRO.OPE.REG.COSTA         1
006762606596062PAIPA                      1000001000000676PAIPA                      1
006771102677000CTRO CIAL PREMIUM PLAZA    C000001000000701CTRO.OPE.REG.ANTIOQ        1
006780501484051C.C. LA 14 VALLE DE LILI   B000001000000706CTRO.OPER.REG.OCCIDE       1
006790502484051PARQUE COMERCIAL RIO CAUCA B000001000000706CTRO.OPER.REG.OCCIDE       1
006801104434031CTRO.SERV.BCA.PYME MEDELLINC000001000000701CTRO.OPE.REG.ANTIOQ        1
006920502000000TUMACO                     B000001000000692CENT.OPER.REG.OCCIDE       1
006931405000000UNICENTRO PASTO            B000001000000466PASTO                      1
006940309000011UNICENTRO BOGOTA ENTRADA 7 4000001000000100OPERA/NES CENT/ZADAS       1
006952202636071PUERTO CARRENO             4000001000000695PUERTO CARRENO             1
006972202636071PUERTO LOPEZ               4000001000000697PUERTO LOPEZ               1
00699280500000CBASE MILITAR LARANDIA      4000001000110312FLORENCIA                  1
007000302000025CENTRO DE OPERACIONES BGTA 4000001000000100OPERA/NES CENT/ZADAS       1
007010000000000CENTRO OPERACIONES MEDELLINC100001000000701CENTRO OP/NES REG.AN       1
007020000000000GCIA OPERATIVA GARANTIAS   4000001000010100OPERA/NES CENT/ZADAS       1
007041302000000QUIRINAL                   4000001000000442NEIVA                      1
007052201636071OFICINA CASTILLA LA NUEVA  4000001000000351V/CENCIO                   1
007060000000000CTRO.OPE.REG.OCCIDENTE     B000001000000706CTR.OP.REG.OCCIDENTE       1
007070211170041CTRO.OPE.REG.COSTA         A000001000000707CTRO.OPERA.REG.COSTA       1
00708320300000POFICINA MADRID             4000001000180100OPERA/NES CENT/ZADAS       1
007130411184061CTRO.OPE.REG.ORIENTE       1000001000000713CTRO.OPE.REG.ORIENTE       1
007151608468033CTRO.OPE.PEREIRA           3000001000000715CTRO.OPE.PEREIRA           1
00716030200000BCENTRO DE EFECTIVO BOGOTA  4000001000010100OPERA/NES CENT/ZADAS       1
00750130100000CGUAMO                      4000001000140750GUAMO                      1
00752110200000CCENTRO COMERCIAL AVESMARIA C000001000060701CENT.OPRA.REG.ANTIOQ       1
00757020200050CNORMALIZACION CEOI COSTA   A000001000080707CTRO.OPE.REG.COSTA         1
00760030200050BNORMALIZACION PMP BTA NORTE4000001000010100OPERA/NES CENT/ZADAS       1
007671301000000CHAPARRAL                  4000001000000767CHAPARRAL                  1
007681102000000CENT SERV EMPRESARIAL MED  C000001000140100OPERA/NES CENT/ZADAS       1
007690302000000CENT SERV EMPRESARIAL BTA  4000001000010100OPERA/NES CENT/ZADAS       1
00770110200060CCENT DE ATENCION PREFERENTEC000001000140701OPERA/NES CENT/ZADAS0      1
007710202000000CENT SERV EMPRESARIAL BQUILA000001000080100OPERA/NES CENT/ZADAS       1
007720502000000CENT SERV EMPRESARIAL CALI B000001000080100OPERA/NES CENT/ZADAS       1
007730402000000CENT SERV EMPRESARI BMANGA 1000001000080713CTRO.OPE.REG.ORIEN         1
00774000000000NCTRO ATENC PREFERENT BQUILLA000001000180707OPERA/NES CENT/ZADAS       1
00775000000000NCTRO ATENC PREFERENT BOGOT14000001000180100OPERA/NES CENT/ZADAS       1
00776000000000NCTRO ATENC PREFERENT BOGOT24000001000180100OPERA/NES CENT/ZADAS       1
007770000000000CHEQUES MAL REMITIDOS      4000001000010100OPERA/NES CENT/ZADAS       1
007780000000000DIRECCION NAL COBRANZAS    4000000000000100OPERA/NES CENT/ZADAS       1
00779000000000NCTRO ATENC PREFERENT BOGOT34000001000180100OPERA/NES CENT/ZADAS       1
00780000000000NCTRO ATENC PREFERENT BOGOT44000001000180100OPERA/NES CENT/ZADAS       1
007811605000000MONTENEGRO                 3000001000000138CTRO.OPERA.ANTIOQUIA       1
00782000000000NCTRO ATENC PREFERENT BOGOT54000001000180100OPERA/NES CENT/ZADAS       1
00783000000000NCTRO ATENC PREFERENT BMANGA1000001000180713OPERA/NES CENT/ZADAS       1
00784000000000NCTRO ATENC PREFERENT CALI  B000001000180706OPERA/NES CENT/ZADAS       1
00788000000000NUNID.VEHICU.ANTIOQ.MEGABAN C000001000000701CTRO. OP.RG.ANT/QUIA       1
007921305000000CALLE SEPTIMA NEIVA        4000001000000442NEIVA                      1
007931302000000PITALITO                   4000001000000100OPERA/NES CENT/ZADAS       1
00796030200000BCTRO CIAL GRAN PLAZA BOSA  4000001000090100OPERA/NES CENT/ZADAS       1
007983201000000SUBACHOQUE                 4000001000000100OPERA/NES CENT/ZADAS       1
007990302000000CALERA                     4000001000000100OPERA/NES CENT/ZADAS       1
008000202170000PLANETA RICA               A000001000000800CTRO.OPERA.REG.COSTA       1
008010301000000ENGATIVA                   4000001000000100OPERA/NES CENT/ZADAS       1
008020302000000CENTRO SUBA                4000001000000100OPERA/NES CENT/ZADAS       1
008030502803051SAN NICOLAS                B000001000000706CTRO.OPER.REG.OCCIDE       1
008042202636071OFICINA PUERTO GAITAN META 4000001000000804PUERTO GAITAN META         1
008072002616062C CIAL UNICENTRO TUNJA     1000001000000616TUNJA                      1
008081102808031CTRO CIAL PUERTA DEL NORTE C000001000000701CTRO.OPE.REG.ANTIOQ        1
008100201810041CENTRO CIAL METROPOLITANO  A000001000000707CTRO.OPERA.REG.COSTA       1
008111102434000ARKADIA                    C000001000000701CTRO.OPE.REG.ANTIOQ        1
008120504812051OFIC REC Y PAGO AV SEXTA   B000001000000706CTRO.OPER.REG.OCCIDE       1
008150503815051OFIC REC Y PAGO YUMBO      B000001000000706CTRO.OPER.REG.OCCIDE       1
008160302000000GERENCIA EMP. BOGOTA MB    4000001000010100OPERA/NES CENT/ZADAS       1
008171702817052C CIAL CAMPANARIO POPAYAN  B000001000000520POPAYAN                    1
008180302000000FILIAL PANAMA              4000001000010100OPERA/NES CENT/ZADAS       1
008190302000000CAMPIN                     4000001000000100OPERA/NES CENT/ZADAS       1
008200302000000FILIAL NASSAU              4000001000010100OPERA/NES CENT/ZADAS       1
00821000000000NCORRESPONSALES BANC DIF EXI4000001000000100OPERA/NES CENT/ZADAS       1
008223202000071CENTRO COMERCIAL MEGACITY  4000001000000100OPERA/NES CENT/ZADAS       1
00823000000000NCORRESPONSALES BANC EXITO  4000001000000100OPERA/NES CENT/ZADAS       1
008250702619061EL ZULIA                   1000001000000260CUCUTA                     1
008270500484000OF PREMIUM EDF BCO DE BGTA B000001000000706CTRO.OPER.REG.OCCIDE       1
008280504484000OFIC REC Y PAGO IMBANACO   B000001000000706CTRO.OPER.REG.OCCIDE       1
008291202438042C CIAL NUESTRO MONTERIA    A000001000000438MONTERIA                   1
008300201810041SOLEDAD ATLANTICO          A000001000000707CTRO.OPERA.REG.COSTA       1
00833050000050NGCIA CORPORAT 833          B000001000000706CENT.OPRA.REG.OCCIDE       1
008340411184061OFICINA FOSCAL INTNACIONAL 1000001000000713CTRO.OPE.REG.ORIENTE       1
008350202170000SAHAGUN                    A000001000000835CTRO.OPERA.REG.COSTA       1
008360904000000MURILLO TORO               4000001000000370IBAGUE                     1
008370902000000LOS OCOBOS                 4000001000000370IBAGUE                     1
008380901000000OFICINA CC PENALISA MALL   4000001000000100OPERA/NES CENT/ZADAS       1
008390904000000OFIC REC Y PAGO IBAGUE     4000001000000370IBAGUE                     1
008401602000000FRESNO                     3000001000000840FRESNO                     1
008411001000000MANZANARES                 3000001000000841MANZANARES                 1
008421605000000PARQUE LAGO URIBE PEREIRA  3000001000000715CTRO.OPER.PEREIRA          1
008436308442072OFIC REC Y PAGO NEIVA      4000001000000442NEIVA                      1
008442102000000PARQUE CONCORDIA SEVILLA   B000001000000588CTRO.OPER.REG.OCCIDE       1
008451605000000CIUDAD MILAGRO ARMENIA     3000001000000138CTRO.OPERA.ANTIOQUIA       1
008460301000000NORMAL.CARTERA VEHIC RED ME4000001000000100OPERA/NES CENT/ZADAS       1
008471001000000ANSERMA                    3000001000000847ANSERMA                    1
008481002000000RIOSUCIO                   3000001000000848RIOSUCIO                   1
008490402000000CARRERA 33 CABECERA        1000001000000713CTRO.OPE.REG.ORIEN         1
008500002000000PARQUE URIBE BARRANCABERMEJ1000001000000168B/MEJA                     1
008522203000000VILLA JULIA                4000001000000351CTR.V/CENCIO               1
008532202000000CUMARAL                    4000001000000351CTR.V/CENCIO               1
008552204000000RIO CRAVO                  1000001000000646OPERA/NES CENT/ZADAS       1
008560204856041OFIC REC Y PAGO CALLE 30   A000001000000707CTRO.OPERA.REG.COSTA       1
00857110000050CGCIA CORPORAT 857          C000001000140701CENT.OPRA.REG.ANTIOQ       1
00858110000050NGCIA EMPRESA 858           C000001000140701CENT.OPRA.REG.ANTIOQ       1
00859040000050NGCIA EMPRESA 859           1000001000000713CTRO.OPER.REG.ORIENT       1
00860020000050NGCIA CORPORAT 860          A000001000000707CTRO.OPER.REG.ORIENT       1
008613505484052OFIC REC Y PAGO BVENTURA   B000001000000186BUENAVENTURA               1
008620304000000OFIC REC Y PAGO CC MERCURIO4000001000000100OPERA/NES CENT/ZADAS       1
008632408628043CTR CIAL GUATAPURI         A000001000000628VALLEDUPAR                 1
008642408628043OFIC REC Y PAGO VALLEDUPAR A000001000000628VALLEDUPAR                 1
008651102000000OFIC REC Y PAGO SC EDIO MEDC000001000000701CENT.OPRA.REG.ANTIOQ       1
008660000000000TARJ MARCA COMPARTIDA PMP  4000001000000100OPERA/NES CENT/ZADAS       1
008670307000012GCIA CEO EMPR Y OFIC MB    4000001000000100OPERA/NES CENT/ZADAS       1
008680509484052INGREDION COLOMBIA SA.     B000001000000706CTRO.OPER.REG.OCCIDE       1
008690501484000C CIAL PREMIER EL LIMONAR  B000001000000706CTRO.OPER.CALI             1
008700000000000GER EMPRESARIAL 0870       4000001000010100OPERA/NES CENT/ZADAS       1
008740202874041CENTRO COMERCIAL MIRAMAR   A000001000000707CTRO.OPERA.REG.COSTA       1
00875000000000NUNID.DE VEHIC.BUCAR.MEGABAN4000001000000100OPERA/NES CENT/ZADAS       1
008760000000000G.OPER INNAL MCDO CAPITALES4000001999990100OPERA/NES CENT/ZADAS       0
008770000000000DIRC TESOR Y CORRESP EXTRAN4000001999990100OPERA/NES CENT/ZADAS       0
008782203636071OFICINA CLINICA META       4000001000000351CTR.V/CENCIO               1
008790302000000PREMIUM CALLE 36           4000001000000100OPERA/NES CENT/ZADAS       1
008801209438042MONTERIA NORTE             A000001000000438MONTERIA                   1
008810404184000OFIC REC Y PAGO CABECERA   1000001000000713CTRO.OPE.REG.ORIENTE       1
00882040000050NGCIA EMPRESA 882           1000001000000713CTRO.OPER.REG.ORIENT       1
008831104434031OFIC REC Y PAGO CTRAL ABASTC000001000000701CTRO.OPE.REG.ANTIOQ        1
008850801348072ANAPOIMA                   4000001000000100ANAPOIMA                   1
008860000000000SERVIBANCA                 4000001000000100OPERA/NES CENT/ZADAS       0
008870000000000REDEBAN                    4000001000000100OPERA/NES CENT/ZADAS       0
008880000000000A.T.H.                     4000001000000100OPERACIONES CENTRALI       0
008891603468033OFIC REC Y PAGO PLZ BOL PER3000001000000715CTRO.OPE.PEREIRA           1
008900000000000CANALES ELECTRONICOS       4000001000000100OPERA/NES CENT/ZADAS       0
008941104434000OFIC REC Y PAGO BR COLOMBIAC000001000000701CTRO.OPE.REG.ANTIOQ        1
008950302000000MONIQUIRA                  1000001000000895MONIQUIRA                  1
008960302000000GERENTE PREMIUM 19         4000001000000100OPERA/NES CENT/ZADAS       1
008971102434031OFICINA CAUCASIA           C000001000000897CAUCASIA                   1
008990303000000UNIVERSIDAD EL BOSQUE      4000001000000100OPERA/NES CENT/ZADAS       1
009000402000000CENTRO COMERCIAL CACIQUE   1000001000000713CTRO.OPE.REG.ORIEN         1
009050000000000CUENTAS TRANSFER           4000000000000100OPERA/NES CENT/ZADAS       1
009060204906041OFIC REC Y PAGO CALLE 72   A000001000000707CTRO.OPERA.REG.COSTA       1
009070603204042CTR CIAL CARIBE PLAZA      A000001000000204CARTAGENA                  1
009100201910041C CIAL PORTAL DEL PRADO    A000001000000707CTRO.OPERA.REG.COSTA       1
009113505484052C.C VIVA BUENAVENTURA      B000001000000186BUENAVENTURA               1
009121603468033CTRO CIAL PEREIRA  PLAZA   3000001000000715CTRO.OPE.PEREIRA           1
009131603468033CTRO CIAL VICTORIA PLAZA   3000001000000715CTRO.OPE.PEREIRA           1
009141104434000MUNICIPIO GUARNE           C000001000000701CTRO.OPE.REG.ANTIOQ        1
009150302000000GERENTE PREMIUM 20         4000001000000100OPERA/NES CENT/ZADAS       1
009200302000000OFICINA SIBERIA            4000001000000100OPERA/NES CENT/ZADAS       1
00921000000000NDIRECCION DE CONTABILIDAD  4000001000000100OPERA/NES CENT/ZADAS       1
009240303000000OFICINA PREMIUM URBAN PLAZA4000001000000100OPERA/NES CENT/ZADAS       1
009371302000000OFICINA GIGANTE            4000001000000937GIGANTE                    1
009391405000000EXT OF TERMIN TRANSP PASTO B000001000000466PASTO                      1
00940000000000NGCIA OPE TRANS ELECTRONICAS4000001000000100OPERA/NES CENT/ZADAS       1
009410300000000GCIA BCA SOC FED NAC CAFETE4000001000010100OPERA/NES CENT/ZADAS       1
009421104434000MUNICIPIO SANTUARIO        C000001000000701CTRO.OPE.REG.ANTIOQ        1
009430000000000COE DE TALENTO Y CULTURA   4000000000000100OPERA/NES CENT/ZADAS       1
00944000000000NDIR CADENA D ABASTECIMIENTO4000001000180100OPERA/NES CENT/ZADAS       1
009460300000000ALIANZA CON PORVENIR       4000001000010100OPERA/NES CENT/ZADAS       1
009480302000000CTRO CCIAL MIRAFLOREZ      4000001000000100OPERA/NES CENT/ZADAS       1
009490000000000DIRECCION ANTIOQUIA Y EJE  C100001000000701CENTRO OP/NES REG.AN       1
00956000000000NGCIA OPE PASIV TRANS ELEC  4000001000000100OPERA/NES CENT/ZADAS       1
009580000000000DIRECCION ORIENTE          A000001000000707CTRO.OPERA.REG.COSTA       1
009590000000000DIRE.REGION.OCCIDENTE      B000001000000706CTR.OP.REG.OCCIDENTE       1
009600000000000DIRECCION CENTRAL          4000001000000100OPERA/NES CENT/ZADAS       1
009610000000000DIRECCION CARIBE           1000001000000713CTRO.OPE.REG.ORIENTE       1
009650302000000PREMIUM SAN FDO PLAZA      C000001000000701CTRO.OPE.REG.ANTIOQU       1
009660302000000GERENTE PREMIUM 5          C000001000000701CTRO.OPE.REG.ANTIOQU       1
009670302000000GERENTE PREMIUM 6          C000001000000701CTRO.OPE.REG.ANTIOQU       1
009680302000000PREMIUM CTRO. CIAL.UNI.CALIB000001000000706CENT.OPER.REG.OCCIDE       1
009690302000000GERENCIA PREMIUM 7         B000001000000706CENT.OPER.REG.OCCIDE       1
00970030200050BGCIA EMPRESA 970           4000001000010100OPERA/NES CENT/ZADAS       1
009710302000000GERENCIA PREMIUM 8         B000001000000706CENT.OPER.REG.OCCIDE       1
009720302000000GERENCIA PREMIUM 9         B000001000000706CENT.OPER.REG.OCCIDE       1
009730302000000GERENCIA PREMIUM 26        4000001000000100OPERA/NES CENT/ZADAS       1
009750302000000PREMIUM CTRO.EMP.AMERIC.II A000001000000707CENT.OPER.REGI.COSTA       1
009770302000000GERENTE PREMIUM 10         A000001000000707CENT.OPER.REGI.COSTA       1
009780302000000GERENTE PREMIUM 11         A000001000000707CENT.OPER.REGI.COSTA       1
00979180600000COFICINA ALAMEDA REYES      C000001000170578QUIBDO                     1
009801104434000SAN PEDRO DE LOS MILAGROS  C000001000000701CTRO.OPE.REG.ANTIOQ        1
009810110138033CENT COMER UNICENTRO ARMENI3012111000000138ARMENIA                    1
009831104434000LA ESTRELLA                C000001000000701CTRO.OPE.REG.ANTIOQ        1
009841102434032PTO BOYACA                 C011461000000984PTO BOYACA                 1
009850302000000PREMIUM CABECERA           1000001000000713CTRO.OPE.REG.ORIENTE       1
009860302000000GERENTE PREMIUM 12         1000001000000713CTRO.OPE.REG.ORIENTE       1
009870302000000GERENTE PREMIUM 13         1000001000000713CTRO.OPE.REG.ORIENTE       1
00988000000000NGCIA ADMIN Y SERV ORIENTE  1000001000000713CTRO.OPE.REG.ORIENTE       1
009890305000011CALLE 122 CARRERA 15 A     4014101000000100OPERA/NES CENT/ZADAS       1
009900302000000G.OPER ATENCION ENTES EXTER4000001000010100OPERA/NES CENT/ZADAS       1
009910503000000OFICINA EL PORVENIR        B000001000000706CENT.OPER.REG.OCCIDE       1
009920302000000GERENTE PREMIUM 14         C000001000000701CTRO.OPE.REG.ANTIOQU       1
009932208636071VILLANUEVA                 4000001000000993VILLANUEVA                 1
009941104434031OFIC REC Y PAGO ITAGUI     C000001000000701CTRO.OPE.REG.ANTIOQ        1
009950000000000CALLE 98                   4000001000010100OPERA/NES CENT/ZADAS       1
009960202000000CTR EMPRES. LAS AMERICAS   A000010000800707CTRO.OPE.REG.COSTA         1
009970202000000EXT. OFIC. BECERRIL        A000010000800997CTRO.OPE.REG.COSTA         1
01003050000050NNORMAL PMP CARTERA ANTQ PMPC000001000000701CENT.OPRA.REG.ANTIOQ       1
01004000000050NGCIA PREFERENTE 1004       4000001000000100OPERA/NES CENT/ZADAS       1
01005000000050NGCIA PREFERENTE 1005       4000001000000100OPERA/NES CENT/ZADAS       1
01006000000050NGCIA PREFERENTE 1006       4000001000000100OPERA/NES CENT/ZADAS       1
01007000000050NGCIA PREFERENTE 1007       4000001000000100OPERA/NES CENT/ZADAS       1
01008000000050NGCIA PREFERENTE 1008       4000001000000100OPERA/NES CENT/ZADAS       1
01009000000050NGCIA PREFERENTE 1009       4000001000000100OPERA/NES CENT/ZADAS       1
01010000000050NGCIA PREFERENTE 1010       4000001000000100OPERA/NES CENT/ZADAS       1
01011000000050NGCIA PREFERENTE 1011       4000001000000100OPERA/NES CENT/ZADAS       1
01012000000050NGCIA PREFERENTE 1012       4000001000000100OPERA/NES CENT/ZADAS       1
01013000000050NGCIA PREFERENTE 1013       4000001000000100OPERA/NES CENT/ZADAS       1
01014000000050NGCIA PREFERENTE 1014       4000001000000100OPERA/NES CENT/ZADAS       1
01015000000050NGCIA PREFERENTE 1015       4000001000000100OPERA/NES CENT/ZADAS       1
01016000000050NGCIA PREFERENTE 1016       4000001000000100OPERA/NES CENT/ZADAS       1
010210000000000GCIA PREMIUM 38            4000000000000100OPERA/NES CENT/ZADAS       1
010220000000000GCIA PREMIUM 39            4000000000000100OPERA/NES CENT/ZADAS       1
010230000000000GERENCIA PREMIUM 43        C000000000000701CTRO.OPE.REG.ANTIOQ        1
010260603204042GERENCIA PREMIUM 46        A000001000000707CTRO.OPE.REG.COSTA         1
010270603204042GERENCIA PREMIUM 47        A000001000000707CTRO.OPE.REG.COSTA         1
010280500484000GERENCIA PREMIUM 48        B000001000000706CTRO.OPER.REG.OCCIDE       1
010290500484000GERENCIA PREMIUM 49        B000001000000706CTRO.OPER.REG.OCCIDE       1
010300500484000GERENCIA PREMIUM 50        B000001000000706CTRO.OPER.REG.OCCIDE       1
01031041100050CGER EMPRESARIAL 1031       1000001000080100OPERA/NES CENT/ZADAS       1
01032000000000CGER ZNA EMPRESARIAL BTA 2A 4000001000010100OPERA/NES CENT/ZADAS       1
01033000000000CGER PYME 1033              4000001000010100OPERA/NES CENT/ZADAS       1
01034000000000CGCIA EMPRESA 1034          4000001000010100OPERA/NES CENT/ZADAS       1
01035000000000CGCIA CORPORAT 1035         C000000000000701CTRO.OPE.REG.ANTIOQ        1
01036000000000CGER CORPORATIVO 1036       A000000000000707CTRO.OPE.REG.COSTA         1
01037000000000CGCIA NORM CORP COSTA       A000000000000707CTRO.OPE.REG.COSTA         1
010380302000000GCIA NORM EMP BTA 2        4000001000010100OPERA/NES CENT/ZADAS       1
010410000000000CARTERA VEHICULOS BOGOTA   B000000000000706CTRO.OPER.REG.OCCIDE       1
01042031200000NNORMALIZ.BOGOTA            4000001000010100OPERA/NES CENT/ZADAS       1
01043031200000NNORMALIZ.COSTA.ORIENTE     4000001000010100OPERA/NES CENT/ZADAS       1
01044000000000CCOMPRA CARTERA SERVICREDITOC000000000000701CTRO.OPE.REG.ANTIOQ        1
01045050000050PNORMALIZ.ANT.OCCIDENTE     B000001000000706CTRO OPER REG.OCCIDE       1
010460501706000GERENCIA PREMIUM 58        B000001000000706OPERA/NES CENT/ZADAS       1
01047030200000CGERENCIA PREMIUM 59        4000001000010100OPERA/NES CENT/ZADAS       1
01048030200000CGERENCIA PREMIUM 60        4000001000010100OPERA/NES CENT/ZADAS       1
01049030200000CGERENCIA PREMIUM 61        4000001000010100OPERA/NES CENT/ZADAS       1
01050030200000CGERENCIA PREMIUM 62        4000001000010100OPERA/NES CENT/ZADAS       1
01051000000000CGERENCIA PREMIUM 51        A000000000000707CTRO.OPE.REG.COSTA         1
01052000000000CGERENCIA PREMIUM 52        A000000000000707CTRO.OPE.REG.COSTA         1
01053000000000CGERENCIA PREMIUM 53        3000001000000715CTRO.OPE.PEREIRA           1
01054000000000CGERENCIA PREMIUM 54        3000001000000715CTRO.OPE.PEREIRA           1
010550000000000GCIA NAL NORMALIZA BC EMP  4000000000000100OPERA/NES CENT/ZADAS       1
01056000000000CGERENCIA PREMIUM 55        1000000000000713CTRO.OPE.REG.ORIENTE       1
01057000000000CGERENCIA PREMIUM 56        A000000000000707OPERA/NES CENT/ZADAS       1
01058030200000CGERENCIA PREMIUM 57        4000001000010100OPERA/NES CENT/ZADAS       1
01059030200000CGERENCIA PREMIUM 63        C000001000010701OPERA/NES CENT/ZADAS       1
01060030200000CGERENCIA PREMIUM 64        C000001000010701OPERA/NES CENT/ZADAS       1
01061030200000CGERENCIA PREMIUM 65        C000001000010701OPERA/NES CENT/ZADAS       1
01062030200000CGERENCIA PREMIUM 66        4000001000010100OPERA/NES CENT/ZADAS       1
010631102000000GCIA CORPORAT 1063         C000001000140701CENT.OPRA.REG.ANTIOQ       1
01064030200000CGERENCIA PREMIUM 67        B000001000010706OPERA/NES CENT/ZADAS       1
01065031200000NZONA 1 BOGOTA VEHICULOS    4000001000010100OPERA/NES CENT/ZADAS       1
01066031200000NZONA 2 BOGOTA VEHICULOS    4000001000010100OPERA/NES CENT/ZADAS       1
01067031200000NZONA 3 BOGOTA VEHICULOS    4000001000010100OPERA/NES CENT/ZADAS       1
01068000000000NZONA 2 ANTIOQUIA VEHICULOS C000001000000701CENT.OPRA.REG.ANTIOQ       1
01069050000050NZONA 1 BQUILLA VEHICULOS   A000001000000707CENT.OPRA.REG.COSTA        1
01070000000000NZONA 1 ANTIOQUIA VEHICULOS C000001000000701CENT.OPRA.REG.ANTIO        1
01071050600000CGERENCIA PREMIUM 68        4000001000160100OPERA/NES CENT/ZADAS       1
01072050600000CGERENCIA PREMIUM 69        4000001000160100OPERA/NES CENT/ZADAS       1
01073050600000CGERENCIA PREMIUM 70        4000001000160100OPERA/NES CENT/ZADAS       1
01074031200000NCARTERA LEASING CORFICOLOMB4000001000010100OPERA/NES CENT/ZADAS       1
01075050600000CGERENCIA PREMIUM 71        4000001000160100OPERA/NES CENT/ZADAS       1
01076030200000CGERENCIA PREMIUM 72        4000001000010100OPERA/NES CENT/ZADAS       1
01077030200000CGERENCIA PREMIUM 73        4000001000010100OPERA/NES CENT/ZADAS       1
01078030200000CGERENCIA PREMIUM 74        4000001000010100OPERA/NES CENT/ZADAS       1
01079030200000CGERENCIA PREMIUM 75        4000001000010100OPERA/NES CENT/ZADAS       1
01080030200000CGERENCIA PREMIUM 76        A000001000010713OPERA/NES CENT/ZADAS       1
01081000000000CGER CORPORATIVO 1081       A000000000000707CTRO.OPE.REG.COSTA         1
01082000000000CGCIA EMPRESA 1082          C000000000000701CTRO.OPE.REG.ANTIOQ        1
01083000000050NGCIA CORPORAT 1083         4000001000000100OPERA/NES CENT/ZADAS       1
01084000000050NGCIA EMPRESA 1084          4000001000000100OPERA/NES CENT/ZADAS       1
01085000000050NGER EMPRESARIAL 1085       4000001000000100OPERA/NES CENT/ZADAS       1
01086040000050NGCIA EMPRESA 1086          1000001000000713CTRO.OPE.REG.ORIENTE       1
01087000000050NGCIA PREFERENTE 1087       4000001000000100OPERA/NES CENT/ZADAS       1
01088000000050NGCIA PREFERENTE 1088       4000001000000100OPERA/NES CENT/ZADAS       1
01089000000050NGCIA PREFERENTE 1089       4000001000000100OPERA/NES CENT/ZADAS       1
01090000000050NGCIA PREFERENTE 1090       4000001000000100OPERA/NES CENT/ZADAS       1
01091000000050NGCIA PREFERENTE 1091       4000001000000100OPERA/NES CENT/ZADAS       1
01092000000050NGCIA PREFERENTE 1092       4000001000000100OPERA/NES CENT/ZADAS       1
01093000000050NGCIA PREFERENTE 1093       4000001000000100OPERA/NES CENT/ZADAS       1
01094000000050NGCIA PREFERENTE 1094       4000001000000100OPERA/NES CENT/ZADAS       1
01095000000050NGCIA PREFERENTE 1095       4000001000000100OPERA/NES CENT/ZADAS       1
01096000000050NGCIA PREFERENTE 1096       4000001000000100OPERA/NES CENT/ZADAS       1
01097000000050NGCIA PREFERENTE 1097       4000001000000100OPERA/NES CENT/ZADAS       1
01098000000050NGCIA PREFERENTE 1098       4000001000000100OPERA/NES CENT/ZADAS       1
01099000000050NGCIA PREFERENTE 1099       4000001000000100OPERA/NES CENT/ZADAS       1
01100000000050NGCIA PREFERENTE 1100       4000001000000100OPERA/NES CENT/ZADAS       1
01101000000050NGCIA PREFERENTE 1101       4000001000000100OPERA/NES CENT/ZADAS       1
01102000000050NGCIA PREFERENTE 1102       4000001000000100OPERA/NES CENT/ZADAS       1
01103000000050NGCIA PREFERENTE 1103       4000001000000100OPERA/NES CENT/ZADAS       1
01104000000050NGCIA PREFERENTE 1104       4000001000000100OPERA/NES CENT/ZADAS       1
01105000000050NGCIA PREFERENTE 1105       4000001000000100OPERA/NES CENT/ZADAS       1
01106000000050NGCIA PREFERENTE 1106       4000001000000100OPERA/NES CENT/ZADAS       1
01107000000050NGCIA PREFERENTE 1107       4000001000000100OPERA/NES CENT/ZADAS       1
01108000000050NGCIA PREFERENTE 1108       4000001000000100OPERA/NES CENT/ZADAS       1
01109000000050NGCIA PREFERENTE 1109       4000001000000100OPERA/NES CENT/ZADAS       1
01110000000050NGCIA PREFERENTE 1110       4000001000000100OPERA/NES CENT/ZADAS       1
01111000000050NGCIA PREFERENTE 1111       4000001000000100OPERA/NES CENT/ZADAS       1
01112000000050NGCIA PREFERENTE 1112       4000001000000100OPERA/NES CENT/ZADAS       1
01113000000000CGERENCIA PREMIUM 77        A000000000000707OPERA/NES CENT/ZADAS       1
01114030200050CGERENCIA PREMIUM 78        4000001000010100OPERA/NES CENT/ZADAS       1
01115000000000CGERENCIA PREMIUM 79        A000000000000707OPERA/NES CENT/ZADAS       1
01116030200000CGERENCIA PREMIUM 80        4000001000010100OPERA/NES CENT/ZADAS       1
01117000000050NGCIA EMPRESA 1117          4000001000000100OPERA/NES CENT/ZADAS       1
01118030200000CGERENCIA PREMIUM 81        4000001000010100OPERA/NES CENT/ZADAS       1
01119030200000CGERENCIA PREMIUM 82        4000001000010100OPERA/NES CENT/ZADAS       1
011200000000000GERENCIA PREMIUM 83        4000000000000100OPERA/NES CENT/ZADAS       1
011210000000000GERENCIA PREMIUM 84        4000000000000100OPERA/NES CENT/ZADAS       1
01122030200000CGERENCIA PREMIUM 85        1000001000010713OPERA/NES CENT/ZADAS       1
01123030200000CGERENCIA PREMIUM 86        1000001000010713OPERA/NES CENT/ZADAS       1
011240501706000GERENCIA PREMIUM 87        B000001000000827OPERA/NES CENT/ZADAS       1
011253703466052MICROF OCCIDENTE IV IPIALESB000001000000374IPIALES                    1
011260000000000MICROF OCCIDENTE V POPAYAN B000001000000520POPAYAN                    1
011272505530043MICROF COSTA VII RIOHACHA  A000001000000530RIOHACHA                   1
011280302000000MICROF BOGOTA OCCIDENTE    4000001000010100OPERA/NES CENT/ZADAS       1
011291302000000MICROF CENTRAL V PITALITO  4000001000000793PITALITO                   1
01131050000050NMICROF COSTA VIII SOLEDAD  A000001000000707CENT.OPRA.REG.COSTA        1
011300501706000GERENCIA PREMIUM 88        B000001000000827OPERA/NES CENT/ZADAS       1
01132031200000NMICROF ORIENTE VI SAN GIL  1000001000010713CTRO.OPE.REG.ORIENTE       1
01133031200000NMICROF ORIENTE VII YOPAL   1000001000010646YOPAL                      1
01134000000000NMICROF ANTIOQUIA VII QUIBDOC000001000000578QUIBDO                     1
011350501706000GERENCIA PREMIUM 89        B000001000000827OPERA/NES CENT/ZADAS       1
011361104434031GERENCIA BANCA PYME 49     C000001000000701CTRO.OPE.REG.ANTIOQ        1
01137030200000CGERENCIA PREMIUM 90        C000001000010701OPERA/NES CENT/ZADAS       1
01138030200000CGERENCIA PREMIUM 91        C000001000010701OPERA/NES CENT/ZADAS       1
01139030200000CGERENCIA PREMIUM 92        C000001000010701OPERA/NES CENT/ZADAS       1
01141031200000NMICROF CENTRAL VI GIRARDOT 4000001000010100OPERA/NES CENT/ZADAS       1
01142000000000NMICROF ANTIOQ VIII ARMENIA 3000001000010715CTRO.OPER.PEREIRA          1
011521104434031GERENCIA BANCA PYME 50     C000001000000701CTRO.OPE.REG.ANTIOQ        1
01153030200050BGERENCIA PYME 1153         4000001000010100OPERA/NES CENT/ZADAS       1
01154030200050BGERENCIA PYME 1154         4000001000010100OPERA/NES CENT/ZADAS       1
01155030200050BGERENCIA PYME 1155         4000001000010100OPERA/NES CENT/ZADAS       1
01156030200050BGERENCIA PYME 1156         4000001000010100OPERA/NES CENT/ZADAS       1
01157030200050BGCIA EMPRESA 1157          4000001000010100OPERA/NES CENT/ZADAS       1
01158030200050BGERENC MEDIANA EMPRESA 11584000001000010100OPERA/NES CENT/ZADAS       1
01159030200050BGCIA EMPRESA 1159          4000001000010100OPERA/NES CENT/ZADAS       1
01160030200050BGERENCIA PYME 1160         4000001000010100OPERA/NES CENT/ZADAS       1
01161030200050BGERENCIA PYME 1161         4000001000010100OPERA/NES CENT/ZADAS       1
01162030200050BGCIA EMPRESA 1162          4000001000010100OPERA/NES CENT/ZADAS       1
01163030200050BGCIA CORPORAT 1163         4000001000010100OPERA/NES CENT/ZADAS       1
01164030200050BGERENCIA PYME 1164         4000001000010100OPERA/NES CENT/ZADAS       1
01165030200050BGERENCIA PYME 1165         4000001000010100OPERA/NES CENT/ZADAS       1
01166030200050BGCIA EMPRESA 1166          4000001000010100OPERA/NES CENT/ZADAS       1
01167030200050BGERENCIA PYME 1167         4000001000010100OPERA/NES CENT/ZADAS       1
01168030200050BGCIA EMPRESA 1168          4000001000010100OPERA/NES CENT/ZADAS       1
01169030200050BGCIA EMPRESA 1169          4000001000010100OPERA/NES CENT/ZADAS       1
01170030200050BGERENCIA PYME 1170         4000001000010100OPERA/NES CENT/ZADAS       1
01171030200050BGERENC MEDIANA EMPRESA 11714000001000010100OPERA/NES CENT/ZADAS       1
01172030200050BGERENCIA PYME 1172         4000001000010100OPERA/NES CENT/ZADAS       1
01173030200050BGERENCIA PYME 1173         4000001000010100OPERA/NES CENT/ZADAS       1
01174030200050BGERENCIA PYME 1174         4000001000010100OPERA/NES CENT/ZADAS       1
01175030200050BGCIA EMPRESA 1175          4000001000010100OPERA/NES CENT/ZADAS       1
01176030200050BGCIA EMPRESA 1176          4000001000010100OPERA/NES CENT/ZADAS       1
01177030200050BGERENC MEDIANA EMPRESA 11774000001000010100OPERA/NES CENT/ZADAS       1
01178030200050BGERENCIA PYME 1178         4000001000010100OPERA/NES CENT/ZADAS       1
01179041100050CGCIA EMPRESA 1179          1000001000080713CTRO.OPE.REG.ORIENTE       1
01180041100050CGERENCIA PYME 1180         1000001000080713CTRO.OPE.REG.ORIENTE       1
01181041100050CGERENCIA PYME 1181         1000001000080713CTRO.OPE.REG.ORIENTE       1
01182041100050CGERENCIA PYME 1182         1000001000080713CTRO.OPE.REG.ORIENTE       1
01183041100050CGERENCIA PYME 1183         1000001000080713CTRO.OPE.REG.ORIENTE       1
01184320700050PGCIA EMPRESA 1184          4000001000050351CTRO.V/CENCIO              1
01185320700050PGCIA EMPRESA 1185          4000001000050100OPERA/NES CENT/ZADAS       1
01186320700050PGCIA EMPRESA 1186          1000001000050713CTRO.OPE.REG.ORIENTE       1
01187320700050PGERENCIA PYME 1187         4000001000050351CTRO.V/CENCIO              1
01188320700050PGERENCIA PYME 1188         1000001000050646YOPAL                      1
01189020200000CGCIA EMPRESA 1189          A000001000080707CTRO.OPE.REG.COSTA         1
01190020200000CGCIA EMPRESA 1190          A000001000080707CTRO.OPE.REG.COSTA         1
01191020200000CGERENCIA PYME 1191         A000001000080707CTRO.OPE.REG.COSTA         1
01192020200000CGCIA EMPRESA 1192          A000001000080707CTRO.OPE.REG.COSTA         1
01193020200000CGERENCIA PYME 1193         A000001000080707CTRO.OPE.REG.COSTA         1
01194020200000CGERENCIA PYME 1194         A000001000080592SINCELEJO                  1
011951104434031GERENCIA BANCA PYME 51     C000001000000701CTRO.OPE.REG.ANTIOQ        1
01196020200000CGERENCIA PYME 1196         A000001000080707CTRO.OPE.REG.COSTA         1
01197110200000CGERENCIA PYME 1197         3000001000090715CTRO.OPER.PEREIRA          1
01198110200000CGERENCIA PYME 1198         3000001000090428MANIZALES                  1
01199110200000CGERENCIA PYME 1199         C000001000090701CENT.OPRA.REG.ANTIOQ       1
01200110200000CGCIA EMPRESA 1200          C000001000090701CENT.OPRA.REG.ANTIOQ       1
01201110200000CGERENCIA PYME 1201         C000001000090701CENT.OPRA.REG.ANTIOQ       1
01202110200000CGCIA EMPRESA 1202          C000001000090701CENT.OPRA.REG.ANTIOQ       1
01203110200000CGCIA EMPRESA 1203          C000001000090701CENT.OPRA.REG.ANTIOQ       1
01204110200000CGERENCIA PYME 1204         C000001000090701CENT.OPRA.REG.ANTIOQ       1
01205110200000CGERENCIA PYME 1205         C000001000090701CENT.OPRA.REG.ANTIOQ       1
01206110200000CGCIA EMPRESA 1206          C000001000090701CENT.OPRA.REG.ANTIOQ       1
01207110200000CGCIA EMPRESA 1207          C000001000090701CENT.OPRA.REG.ANTIOQ       1
01208110200000CGCIA EMPRESA 1208          3000001000090715CTRO.OPER.PEREIRA          1
01209031200000NGCIA EMPRESA 1209          B000001000000706CENT.OPER.REG.OCCIDE       1
01210031200000NGERENCIA PYME 1210         B000001000000706CENT.OPER.REG.OCCIDE       1
01211031200000NGERENCIA PYME 1211         B000001000000188BUGA                       1
01212031200000NGERENCIA PYME 1212         B000001000000706CENT.OPER.REG.OCCIDE       1
01213031200000NGCIA EMPRESA 1213          B000001000000706CENT.OPER.REG.OCCIDE       1
01214031200000NGERENCIA PYME 1214         B000001000000100CENT.OPER.REG.OCCIDE       1
01215031200000NGERENCIA PYME 1215         B000001000000706CENT.OPER.REG.OCCIDE       1
01216031200000NGCIA EMPRESA 1216          B000001000000706CENT.OPER.REG.OCCIDE       1
01217000000000CGCIA EMPRESA 1217          B000000000000466PASTO                      1
01227050000050PGCIA EMPRESA 1227          3000001000000428MANIZALES                  1
01228150200000PGERENCIA BANCA PYME 135    B000001000080188BUGA                       1
01229030200050BGERENCIA PYME 1229         4000001000010100OPERA/NES CENT/ZADAS       1
012310000000000GERENCIA PYME 1231         B000001000000520POPAYAN                    1
012345502484000GERENCIA PYME 1234         B000001000000706CTRO.OPER.REG.OCCIDE       1
01243020200000CCTR DE EXPERIENCIA BQUILLA A000001000080707CTRO.OPE.REG.COSTA         1
01254040200050CGCIA NORM EMP ANTIOQ       C000001000080701CENT.OPRA.REG.ANTIOQ       1
01255050200050CGCIA NORM EMP OCCID        B000001000080706CENT.OPER.REG.OCCIDE       1
01256040200050CGCIA NORM EMP CENTRORI     1000001000080713CTRO.OPE.REG.ORIENTE       1
01257030200050BGCIA NORM EMP COSTA        A000001000080707CTRO.OPE.REG.COSTA         1
01258000000050NGCIA DE NORM EMPRESARIAL 3 4000001000000100OPERA/NES CENT/ZADAS       1
01259000000050NGCIA PREFERENTE 1259       4000001000000100OPERA/NES CENT/ZADAS       1
01260000000050NGCIA PREFERENTE 1260       4000001000000100OPERA/NES CENT/ZADAS       1
01261000000050NGCIA PREFERENTE 1261       4000001000000100OPERA/NES CENT/ZADAS       1
01262000000050NGCIA PREFERENTE 1262       4000001000000100OPERA/NES CENT/ZADAS       1
01263000000050NGCIA PREFERENTE 1263       4000001000000100OPERA/NES CENT/ZADAS       1
01264000000050NGCIA PREFERENTE 1264       4000001000000100OPERA/NES CENT/ZADAS       1
01265000000050NGCIA PREFERENTE 1265       4000001000000100OPERA/NES CENT/ZADAS       1
01266000000050NGCIA PREFERENTE 1266       4000001000000100OPERA/NES CENT/ZADAS       1
01267000000050NGCIA PREFERENTE 1267       4000001000000100OPERA/NES CENT/ZADAS       1
01268000000050NGCIA PREFERENTE 1268       4000001000000100OPERA/NES CENT/ZADAS       1
01269000000050NGCIA PREFERENTE 1269       4000001000000100OPERA/NES CENT/ZADAS       1
01270000000050NGCIA PREFERENTE 1270       4000001000000100OPERA/NES CENT/ZADAS       1
01271000000050NGCIA PREFERENTE 1271       4000001000000100OPERA/NES CENT/ZADAS       1
01272000000050NGCIA PREFERENTE 1272       4000001000000100OPERA/NES CENT/ZADAS       1
01273000000050NGCIA PREFERENTE 1273       4000001000000100OPERA/NES CENT/ZADAS       1
01274000000050NGCIA PREFERENTE 1274       4000001000000100OPERA/NES CENT/ZADAS       1
01275000000050NGCIA PREFERENTE 1275       4000001000000100OPERA/NES CENT/ZADAS       1
01276000000050NGCIA PREFERENTE 1276       4000001000000100OPERA/NES CENT/ZADAS       1
01277000000050NGCIA PREFERENTE 1277       4000001000000100OPERA/NES CENT/ZADAS       1
01278000000050NGCIA PREFERENTE 1278       4000001000000100OPERA/NES CENT/ZADAS       1
01279000000050NGCIA PREFERENTE 1279       4000001000000100OPERA/NES CENT/ZADAS       1
01280000000050NGCIA PREFERENTE 1280       4000001000000100OPERA/NES CENT/ZADAS       1
01281000000050NGCIA PREFERENTE 1281       4000001000000100OPERA/NES CENT/ZADAS       1
01282000000050NGCIA PREFERENTE 1282       4000001000000100OPERA/NES CENT/ZADAS       1
01283000000050NGCIA PREFERENTE 1283       4000001000000100OPERA/NES CENT/ZADAS       1
01284000000050NGCIA PREFERENTE 1284       4000001000000100OPERA/NES CENT/ZADAS       1
01285000000050NGCIA PREFERENTE 1285       4000001000000100OPERA/NES CENT/ZADAS       1
01286000000050NGCIA PREFERENTE 1286       4000001000000100OPERA/NES CENT/ZADAS       1
012885502484000GERENCIA PYME 1288         B000001000000706CTRO.OPER.REG.OCCIDE       1
01289000000050NGERENCIA PYME 1289         4000001000000100OPERA/NES CENT/ZADAS       1
01290000000050NGERENCIA PYME 1290         4000001000000100OPERA/NES CENT/ZADAS       1
01291000000050NGERENCIA PYME 1291         4000001000000100OPERA/NES CENT/ZADAS       1
01292000000050NGERENCIA PYME 1292         4000001000000100OPERA/NES CENT/ZADAS       1
01293000000050NGERENCIA PYME 1293         4000001000000100OPERA/NES CENT/ZADAS       1
01294000000050NGERENCIA PYME 1294         4000001000000100OPERA/NES CENT/ZADAS       1
01295000000050NGERENCIA PYME 1295         4000001000000100OPERA/NES CENT/ZADAS       1
01296000000050NGCIA PYME 1.0 1296         4000001000000100OPERA/NES CENT/ZADAS       1
01297000000050NGERENCIA PYME 1297         4000001000000100OPERA/NES CENT/ZADAS       1
01298000000050NGERENCIA PYME 1298         4000001000000100OPERA/NES CENT/ZADAS       1
01299000000050NGERENCIA PYME 1299         4000001000000100OPERA/NES CENT/ZADAS       1
01301000000050NGCIA EMPRESA 1301          4000001000000100OPERA/NES CENT/ZADAS       1
01307030200050CGERENCIA PREMIUM PYME 23   4000001000010100OPERA/NES CENT/ZADAS       1
01309000000050NGCIA CORPORAT 1309         4000001000000100OPERA/NES CENT/ZADAS       1
01310000000050NGCIA EMPRESA 1310          4000001000000100OPERA/NES CENT/ZADAS       1
013155502484000GERENCIA BANCA PYME 54     B000001000000706CTRO.OPER.REG.OCCIDE       1
01316000000050NGCIA PYME 1.0 1316         4000001000000100OPERA/NES CENT/ZADAS       1
01317000000050NGERENCIA PYME 1317         4000001000000100OPERA/NES CENT/ZADAS       1
01318000000050NGERENCIA PYME 1318         4000001000000100OPERA/NES CENT/ZADAS       1
01319000000050NGERENCIA PYME 1319         4000001000000100OPERA/NES CENT/ZADAS       1
01320000000050NGERENCIA PYME 1320         4000001000000100OPERA/NES CENT/ZADAS       1
01321000000050NGERENCIA PYME 1321         4000001000000100OPERA/NES CENT/ZADAS       1
01322000000050NGERENCIA PYME 1322         4000001000000100OPERA/NES CENT/ZADAS       1
01323000000050NGERENCIA PYME 1323         4000001000000100OPERA/NES CENT/ZADAS       1
01324000000050NGERENCIA PYME 1324         4000001000000100OPERA/NES CENT/ZADAS       1
01325000000050NGERENCIA PYME 1325         4000001000000100OPERA/NES CENT/ZADAS       1
01326000000050NGERENCIA PYME 1326         4000001000000100OPERA/NES CENT/ZADAS       1
01327000000050NGERENCIA PYME 1327         4000001000000100OPERA/NES CENT/ZADAS       1
01328000000050NGERENCIA PYME 1328         4000001000000100OPERA/NES CENT/ZADAS       1
01329000000050NGCIA PYME 1.0 1329         4000001000000100OPERA/NES CENT/ZADAS       1
01330000000050NCR. VENCIDA NORORIENTE     1000001000000713CTRO.OPE.REG.ORIENTE       1
01331000000050NCR. VENCIDA CALI           B000001000000706CTRO.OPE.REG.OCCIDEN       1
01332000000050NCR. VENCIDA MEDELLIN       C000001000000701CTRO.OPE.REG.ANTIOQ        1
01333030200050BMICROFINANZAS BOGOTA SUR   4000001000100100OPERA/NES CENT/ZADAS       1
01339041100050CGCIA EMPRESA 1339          1000001000080713CTRO.OPE.REG.ORIENTE       1
013401104434031GERENCIA PYME 1340         C000001000000701CTRO.OPE.REG.ANTIOQ        1
013415502484000GERENCIA BANCA PYME 48     B000001000000706CTRO.OPER.REG.OCCIDE       1
01342000000050NGCIA PREFERENTE 1342       1000001000000713CENT OPER REG ORIENT       1
01343000000050NGCIA PREFERENTE 1343       1000001000000713CENT OPER REG ORIENT       1
01344000000050NGCIA PREFERENTE 1344       1000001000000713CENT OPER REG ORIENT       1
01345000000050NGCIA PREFERENTE 1345       1000001000000713CENT OPER REG ORIENT       1
01346000000050NGCIA PREFERENTE 1346       1000001000000713CENT OPER REG ORIENT       1
01347000000050NGCIA PREFERENTE 1347       1000001000000713CENT OPER REG ORIENT       1
01348000000050NGCIA PREFERENTE 1348       1000001000000713CENT OPER REG ORIENT       1
01349000000050NGCIA PREFERENTE 1349       1000001000000713CENT OPER REG ORIENT       1
01350000000050NGCIA PREFERENTE 1350       A000001000000707CENT OPER REG COSTA        1
01351000000050NGCIA PREFERENTE 1351       A000001000000707CENT OPER REG COSTA        1
01352000000050NGCIA PREFERENTE 1352       A000001000000707CENT OPER REG COSTA        1
01353000000050NGCIA PREFERENTE 1353       A000001000000707CENT OPER REG COSTA        1
01354000000050NGCIA PREFERENTE 1354       A000001000000707CENT OPER REG COSTA        1
01355000000050NGCIA PREFERENTE 1355       A000001000000707CENT OPER REG COSTA        1
01356000000050NGCIA PREFERENTE 1356       A000001000000707CENT OPER REG COSTA        1
01357000000050NGCIA PREFERENTE 1357       A000001000000707CENT OPER REG COSTA        1
013655502484000GERENCIA PYME 1365         B000001000000706CTRO.OPER.REG.OCCIDE       1
013685502484000GERENCIA PYME 1368         B000001000000706CTRO OPER REG OCCIDE       1
01369041100050CGERENCIA BANCA PYME 56     1000001000080713CTRO.OPE.REG.ORIENTE       1
01373041100050CGERENCIA PYME 1373         1000001000080713CTRO.OPE.REG.ORIENTE       1
01375021100050CGERENCIA PYME 1375         A000001000080707CTRO.OPE.REG.COSTA         1
01383000000050NGER EMPRESARIAL 1383       4000001000000100OPERA/NES CENT/ZADAS       1
01385020200050CGCIA EMPRESA 1385          A000001000080707CTRO.OPE.REG.COSTA         1
01386020200050CGCIA CIAL INSIGNE 1        4000001000080100OPERA/NES CENT/ZADAS       1
01387020200050CGCIA CIAL INSIGNE 2        C000001000080100OPERA/NES CENT/ZADAS       1
01388020200050CGCIA CIAL INSIGNE 3        4000001000080100OPERA/NES CENT/ZADAS       1
01389020200050CGCIA CIAL INSIGNE 4        4000001000080100OPERA/NES CENT/ZADAS       1
01395020200050CGCIA CORPORAT 1395         A000001000080707CTRO.OPE.REG.COSTA         1
01403000000050NGCIA BANCA SOCIAL BTA SUR  4000001000000100OPERA/NES CENT/ZADAS       1
014040502484000GERENCIA BANCA PYME 45     B000001000000706CTRO OPER REG OCCIDE       1
01409040000050NGCIA CORPORAT 1409         1000001000000713CTRO.OPER.REG.ORIENT       1
014111104434031GCIA OFICIAL 1411          C000001000000701CTRO.OPE.REG.ANTIOQ        1
01413020200050CGCIA EMPRESARIAL BQUILLA MBA000001000080707CTRO.OPE.REG.COSTA         1
014180000000000GERENCIA PYME 1418         4000001000010100OPERA/NES CENT/ZADAS       1
01419050000050NGCIA EMPRESARIAL CALI MB   B000001000000706CENT.OPRA.REG.OCCIDE       1
014220000000000MICROFINANZAS CENTRAL IV   4000000000000390OPERA/NES CENT/ZADAS       1
01423030200050BMICROFINANZAS BOGOTA NORTE 4000001000100100OPERA/NES CENT/ZADAS       1
01424000000050NGCIA CORPORAT 1424         4000001000000100OPERA/NES CENT/ZADAS       1
01429000000050NMICROFINANZAS ORIENTE I    1000001000000713CTRO. OP.RG.ORIENTE        1
014300000000000MICROF RIONEGRO ANTIOQ VI  C000000000000701CTRO.OPE.REG.ANTIOQ        1
01436050000050PGER CORPORATIVO 1436       3000001000000100OPERA/NES CENT/ZADAS       1
01437000000000CGER CORPORATIVO 1437       A000000000000100OPERA/NES CENT/ZADAS       1
01438000000000CGER PYME 1438              A000000000000100OPERA/NES CENT/ZADAS       1
01439000000050NGCIA CORPORAT 1439         4000001000000100OPERA/NES CENT/ZADAS       1
1440000000050NGCIA BANCA SOCIAL OCCIDENTEB000001000000706CENT.OPER.REG.OCCIDE        1
01453000000050NMICROFINANZAS ORIENTE II   1000001000000713CTRO. OP.RG.ORIENTE        1
01457000000050NMICROFINANZAS ORIENTE III  1000001000000713CTRO. OP.RG.ORIENTE        1
01460050000050NMICROFINANZAS OCCIDENTE I  B000001000000706CENT.OPRA.REG.OCCIDE       1
01461030200050BMICROFINANZAS CENTRAL I    4000001000010100OPERA/NES CENT/ZADAS       1
014720000000000GER EMPRESARIAL 1472       4000001000010100OPERA/NES CENT/ZADAS       1
01473320700050PGER EMPRESARIAL 1473       4000001000050100OPERA/NES CENT/ZADAS       1
01474050000050PGER EMPRESARIAL 1474       C000001000000100OPERA/NES CENT/ZADAS       1
01475000000000CGER EMPRESARIAL 1475       A000000000000100OPERA/NES CENT/ZADAS       1
01476050000050PGER EMPRESARIAL 1476       3000001000000100OPERA/NES CENT/ZADAS       1
01477000000050NGER EMPRESARIAL 1477       4000001000000100OPERA/NES CENT/ZADAS       1
01478030200050BMICROFINANZAS CENTRAL II   4000001000010100OPERA/NES CENT/ZADAS       1
01481030200050BMICROFINANZAS CENTRAL III  4000001000010100OPERA/NES CENT/ZADAS       1
014820000000000GCIA EMPRESA 1482          4000001000010100OPERA/NES CENT/ZADAS       1
01483000000050NGCIA OFICIAL 1483          C000001000000701CENT.OPRA.REG.ANTIOQ       1
01489031200000NUNIDAD DE MICROF ESPINAL   4000001000010296ESPINAL                    1
01491020200050CMICROFINANZAS COSTA        A000001000080707CTRO.OPE.REG.COSTA         1
01492050000050NMICROF COSTA IX BOSCONIA   A000001000000183BOSCONIA                   1
01493110200050CMICROFINANZAS ANTIOQUIA I  C000001000140701CENT.OPRA.REG.ANTIOQ       1
0149431200000NUNIDAD MICROF SANTAN QUILIC B000001000010706CTRO OPER REG OCCIDE       1
01495000000000NUNIDAD MICROF BELLO        C000001000000701CTRO. OP.RG.ANT/QUIA       1
01496031200000NUNIDAD DE MICROF ZIPAQUIRA 4000001000010100OPERA/NES CENT/ZADAS       1
01497000000000NUNIDAD DE MICROF FLORENCIA 4000001000180312FLORENCIA                  1
01498000000000NUNIDAD DE MICROF PALMIRA   B000001000000706CTRO.OP.RG.OCCIDENTE       1
014990502484000GERENCIA BANCA PYME 44     B000001000000706CTRO OPER REG OCCIDE       1
015000000000000GERENCIA BANCA PYME 43     C000000000000701CTRO.OPE.REG.ANTIOQ        1
01501220000050CGERENCIA BANCA PYME 69     4000001000080351CTR.V/CENCIO               1
01502000000000NGERENCIA PYME 1502         3000001000000715CTRO OPER PEREIRA          1
015030000000000GERENCIA BANCA PYME 41     C000000000000701CTRO.OPE.REG.ANTIOQ        1
01505000000050NGCIA BANCA SOCIAL EJE CAFETC000001000000701CENT.OPRA.REG.ANTIOQ       1
01506000000000NGERENCIA BANCA PYME 63     3000001000000715CTRO OPER PEREIRA          1
01507000000000NGERENCIA BANCA PYME 64     3000001000000715CTRO OPER PEREIRA          1
015090000000000GERENCIA PYME 1509         C000000000000701CTRO.OPE.REG.ANTIOQ        1
01515000000000NGERENCIA PYME 1515         3000001000000715CTRO OPER PEREIRA          1
015170000000000GERENCIA PYME 1517         4000001000010100OPERA/NES CENT/ZADAS       1
015210000000026GERENCIA BANCA PYME 66     4014161000000100OPERA/NES CENT/ZADAS       1
01522320700050PGCIA OFICIAL 1522          4014161000000100OPERA/NES CENT/ZADAS       1
01523320700050PGERENCIA PYME 1523         4000001000050100OPERA/NES CENT/ZADAS       1
015271104434031GERENCIA PYME 1527         C000001000000701CTRO OPE REG ANTIOQ        1
01533220000050CGCIA OFICIAL 1533          4000001000080351CTR.V/CENCIO               1
015360000000000GERENCIA BANCA PYME 2      4000001000010100OPERA/NES CENT/ZADAS       1
01537000000050NGER PYME 1537              A000001000000707CTRO.OPE.REG.COSTA         1
015470000000000GERENCIA PYME 1547         4000001000010100OPERA/NES CENT/ZADAS       1
01549110200050CMICROFINANZAS ANTIOQUIA II C000001000140701CENT.OPRA.REG.ANTIOQ       1
015510000000000GERENCIA BANCA PYME 13     4000001000010100OPERA/NES CENT/ZADAS       1
01555030200050CGERENTE PREMIUM 1          4000001000010100OPERA/NES CENT/ZADAS       1
015571104434031GERENCIA PYME 1557         C000001000000701CTRO OPE REG ANTIOQ        1
015580000000000GERENCIA BANCA PYME 4      4000001000010100OPERA/NES CENT/ZADAS       1
01559030200050CGERENTE PREMIUM 2          4000001000010100OPERA/NES CENT/ZADAS       1
